{
	"contracts/FundMe.sol": {
		"FundMe": {
			"abi": [
				{
					"inputs": [],
					"stateMutability": "nonpayable",
					"type": "constructor"
				},
				{
					"inputs": [],
					"name": "NotOwner",
					"type": "error"
				},
				{
					"inputs": [],
					"name": "MIN_USD",
					"outputs": [
						{
							"internalType": "uint256",
							"name": "",
							"type": "uint256"
						}
					],
					"stateMutability": "view",
					"type": "function"
				},
				{
					"inputs": [
						{
							"internalType": "address",
							"name": "funder",
							"type": "address"
						}
					],
					"name": "addressToAmountFunded",
					"outputs": [
						{
							"internalType": "uint256",
							"name": "amountFunded",
							"type": "uint256"
						}
					],
					"stateMutability": "view",
					"type": "function"
				},
				{
					"inputs": [],
					"name": "fund",
					"outputs": [],
					"stateMutability": "payable",
					"type": "function"
				},
				{
					"inputs": [
						{
							"internalType": "uint256",
							"name": "",
							"type": "uint256"
						}
					],
					"name": "funders",
					"outputs": [
						{
							"internalType": "address",
							"name": "",
							"type": "address"
						}
					],
					"stateMutability": "view",
					"type": "function"
				},
				{
					"inputs": [],
					"name": "i_owner",
					"outputs": [
						{
							"internalType": "address",
							"name": "",
							"type": "address"
						}
					],
					"stateMutability": "view",
					"type": "function"
				},
				{
					"inputs": [],
					"name": "withdraw",
					"outputs": [],
					"stateMutability": "nonpayable",
					"type": "function"
				}
			],
			"devdoc": {
				"kind": "dev",
				"methods": {},
				"version": 1
			},
			"evm": {
				"assembly": "    /* \"contracts/FundMe.sol\":1157:6331  contract FundMe {... */\n  mstore(0x40, 0xa0)\n    /* \"contracts/FundMe.sol\":1844:1898  constructor () {... */\n  callvalue\n  dup1\n  iszero\n  tag_1\n  jumpi\n  0x00\n  dup1\n  revert\ntag_1:\n  pop\n    /* \"contracts/FundMe.sol\":1880:1890  msg.sender */\n  caller\n    /* \"contracts/FundMe.sol\":1870:1890  i_owner = msg.sender */\n  0xffffffffffffffffffffffffffffffffffffffff\n  and\n  0x80\n  dup2\n  0xffffffffffffffffffffffffffffffffffffffff\n  and\n  dup2\n  mstore\n  pop\n  pop\n    /* \"contracts/FundMe.sol\":1157:6331  contract FundMe {... */\n  mload(0x80)\n  codecopy(0x00, dataOffset(sub_0), dataSize(sub_0))\n  0x00\n  assignImmutable(\"0x35bb2e240092263378f77ea1e9c278099a33b604c4c4e26d13ea227e8bb74470\")\n  return(0x00, dataSize(sub_0))\nstop\n\nsub_0: assembly {\n        /* \"contracts/FundMe.sol\":1157:6331  contract FundMe {... */\n      mstore(0x40, 0x80)\n      jumpi(tag_1, lt(calldatasize, 0x04))\n      shr(0xe0, calldataload(0x00))\n      dup1\n      0x213dbea2\n      eq\n      tag_2\n      jumpi\n      dup1\n      0x3ccfd60b\n      eq\n      tag_3\n      jumpi\n      dup1\n      0x3e47d6f3\n      eq\n      tag_4\n      jumpi\n      dup1\n      0xb60d4288\n      eq\n      tag_5\n      jumpi\n      dup1\n      0xdba6335f\n      eq\n      tag_6\n      jumpi\n      dup1\n      0xdc0d3dff\n      eq\n      tag_7\n      jumpi\n    tag_1:\n      0x00\n      dup1\n      revert\n        /* \"contracts/FundMe.sol\":1424:1462  uint256 public constant MIN_USD = 7e18 */\n    tag_2:\n      callvalue\n      dup1\n      iszero\n      tag_8\n      jumpi\n      0x00\n      dup1\n      revert\n    tag_8:\n      pop\n      tag_9\n      tag_10\n      jump\t// in\n    tag_9:\n      mload(0x40)\n      tag_11\n      swap2\n      swap1\n      tag_12\n      jump\t// in\n    tag_11:\n      mload(0x40)\n      dup1\n      swap2\n      sub\n      swap1\n      return\n        /* \"contracts/FundMe.sol\":4442:5945  function withdraw() public onlyi_Owner {... */\n    tag_3:\n      callvalue\n      dup1\n      iszero\n      tag_13\n      jumpi\n      0x00\n      dup1\n      revert\n    tag_13:\n      pop\n      tag_14\n      tag_15\n      jump\t// in\n    tag_14:\n      stop\n        /* \"contracts/FundMe.sol\":1601:1677  mapping(address funder => uint256 amountFunded) public addressToAmountFunded */\n    tag_4:\n      callvalue\n      dup1\n      iszero\n      tag_16\n      jumpi\n      0x00\n      dup1\n      revert\n    tag_16:\n      pop\n      tag_17\n      0x04\n      dup1\n      calldatasize\n      sub\n      dup2\n      add\n      swap1\n      tag_18\n      swap2\n      swap1\n      tag_19\n      jump\t// in\n    tag_18:\n      tag_20\n      jump\t// in\n    tag_17:\n      mload(0x40)\n      tag_21\n      swap2\n      swap1\n      tag_12\n      jump\t// in\n    tag_21:\n      mload(0x40)\n      dup1\n      swap2\n      sub\n      swap1\n      return\n        /* \"contracts/FundMe.sol\":2010:4076  function fund() public payable {... */\n    tag_5:\n      tag_22\n      tag_23\n      jump\t// in\n    tag_22:\n      stop\n        /* \"contracts/FundMe.sol\":1805:1837  address public immutable i_owner */\n    tag_6:\n      callvalue\n      dup1\n      iszero\n      tag_24\n      jumpi\n      0x00\n      dup1\n      revert\n    tag_24:\n      pop\n      tag_25\n      tag_26\n      jump\t// in\n    tag_25:\n      mload(0x40)\n      tag_27\n      swap2\n      swap1\n      tag_28\n      jump\t// in\n    tag_27:\n      mload(0x40)\n      dup1\n      swap2\n      sub\n      swap1\n      return\n        /* \"contracts/FundMe.sol\":1517:1541  address[] public funders */\n    tag_7:\n      callvalue\n      dup1\n      iszero\n      tag_29\n      jumpi\n      0x00\n      dup1\n      revert\n    tag_29:\n      pop\n      tag_30\n      0x04\n      dup1\n      calldatasize\n      sub\n      dup2\n      add\n      swap1\n      tag_31\n      swap2\n      swap1\n      tag_32\n      jump\t// in\n    tag_31:\n      tag_33\n      jump\t// in\n    tag_30:\n      mload(0x40)\n      tag_34\n      swap2\n      swap1\n      tag_28\n      jump\t// in\n    tag_34:\n      mload(0x40)\n      dup1\n      swap2\n      sub\n      swap1\n      return\n        /* \"contracts/FundMe.sol\":1424:1462  uint256 public constant MIN_USD = 7e18 */\n    tag_10:\n        /* \"contracts/FundMe.sol\":1458:1462  7e18 */\n      0x6124fee993bc0000\n        /* \"contracts/FundMe.sol\":1424:1462  uint256 public constant MIN_USD = 7e18 */\n      dup2\n      jump\t// out\n        /* \"contracts/FundMe.sol\":4442:5945  function withdraw() public onlyi_Owner {... */\n    tag_15:\n        /* \"contracts/FundMe.sol\":6223:6230  i_owner */\n      immutable(\"0x35bb2e240092263378f77ea1e9c278099a33b604c4c4e26d13ea227e8bb74470\")\n        /* \"contracts/FundMe.sol\":6209:6230  msg.sender != i_owner */\n      0xffffffffffffffffffffffffffffffffffffffff\n      and\n        /* \"contracts/FundMe.sol\":6209:6219  msg.sender */\n      caller\n        /* \"contracts/FundMe.sol\":6209:6230  msg.sender != i_owner */\n      0xffffffffffffffffffffffffffffffffffffffff\n      and\n      eq\n        /* \"contracts/FundMe.sol\":6205:6254  if (msg.sender != i_owner) { revert NotOwner(); } */\n      tag_36\n      jumpi\n        /* \"contracts/FundMe.sol\":6241:6251  NotOwner() */\n      mload(0x40)\n      0x30cd747100000000000000000000000000000000000000000000000000000000\n      dup2\n      mstore\n      0x04\n      add\n      mload(0x40)\n      dup1\n      swap2\n      sub\n      swap1\n      revert\n        /* \"contracts/FundMe.sol\":6205:6254  if (msg.sender != i_owner) { revert NotOwner(); } */\n    tag_36:\n        /* \"contracts/FundMe.sol\":4499:4518  uint256 funderIndex */\n      0x00\n        /* \"contracts/FundMe.sol\":4494:4681  for (uint256 funderIndex = 0; funderIndex < funders.length; funderIndex++) {... */\n    tag_38:\n        /* \"contracts/FundMe.sol\":4538:4545  funders */\n      0x00\n        /* \"contracts/FundMe.sol\":4538:4552  funders.length */\n      dup1\n      sload\n      swap1\n      pop\n        /* \"contracts/FundMe.sol\":4524:4535  funderIndex */\n      dup2\n        /* \"contracts/FundMe.sol\":4524:4552  funderIndex < funders.length */\n      lt\n        /* \"contracts/FundMe.sol\":4494:4681  for (uint256 funderIndex = 0; funderIndex < funders.length; funderIndex++) {... */\n      iszero\n      tag_39\n      jumpi\n        /* \"contracts/FundMe.sol\":4584:4598  address funder */\n      0x00\n        /* \"contracts/FundMe.sol\":4601:4608  funders */\n      dup1\n        /* \"contracts/FundMe.sol\":4609:4620  funderIndex */\n      dup3\n        /* \"contracts/FundMe.sol\":4601:4621  funders[funderIndex] */\n      dup2\n      sload\n      dup2\n      lt\n      tag_41\n      jumpi\n      tag_42\n      tag_43\n      jump\t// in\n    tag_42:\n    tag_41:\n      swap1\n      0x00\n      mstore\n      keccak256(0x00, 0x20)\n      add\n      0x00\n      swap1\n      sload\n      swap1\n      0x0100\n      exp\n      swap1\n      div\n      0xffffffffffffffffffffffffffffffffffffffff\n      and\n        /* \"contracts/FundMe.sol\":4584:4621  address funder = funders[funderIndex] */\n      swap1\n      pop\n        /* \"contracts/FundMe.sol\":4668:4669  0 */\n      0x00\n        /* \"contracts/FundMe.sol\":4636:4657  addressToAmountFunded */\n      0x01\n        /* \"contracts/FundMe.sol\":4636:4665  addressToAmountFunded[funder] */\n      0x00\n        /* \"contracts/FundMe.sol\":4658:4664  funder */\n      dup4\n        /* \"contracts/FundMe.sol\":4636:4665  addressToAmountFunded[funder] */\n      0xffffffffffffffffffffffffffffffffffffffff\n      and\n      0xffffffffffffffffffffffffffffffffffffffff\n      and\n      dup2\n      mstore\n      0x20\n      add\n      swap1\n      dup2\n      mstore\n      0x20\n      add\n      0x00\n      keccak256\n        /* \"contracts/FundMe.sol\":4636:4669  addressToAmountFunded[funder] = 0 */\n      dup2\n      swap1\n      sstore\n      pop\n        /* \"contracts/FundMe.sol\":4569:4681  {... */\n      pop\n        /* \"contracts/FundMe.sol\":4554:4567  funderIndex++ */\n      dup1\n      dup1\n      0x01\n      add\n      swap2\n      pop\n      pop\n        /* \"contracts/FundMe.sol\":4494:4681  for (uint256 funderIndex = 0; funderIndex < funders.length; funderIndex++) {... */\n      jump(tag_38)\n    tag_39:\n      pop\n        /* \"contracts/FundMe.sol\":4778:4779  0 */\n      0x00\n        /* \"contracts/FundMe.sol\":4764:4780  new address[](0) */\n      0xffffffffffffffff\n      dup2\n      gt\n      iszero\n      tag_45\n      jumpi\n      tag_46\n      tag_47\n      jump\t// in\n    tag_46:\n    tag_45:\n      mload(0x40)\n      swap1\n      dup1\n      dup3\n      mstore\n      dup1\n      0x20\n      mul\n      0x20\n      add\n      dup3\n      add\n      0x40\n      mstore\n      dup1\n      iszero\n      tag_48\n      jumpi\n      dup2\n      0x20\n      add\n      0x20\n      dup3\n      mul\n      dup1\n      calldatasize\n      dup4\n      calldatacopy\n      dup1\n      dup3\n      add\n      swap2\n      pop\n      pop\n      swap1\n      pop\n    tag_48:\n      pop\n        /* \"contracts/FundMe.sol\":4754:4761  funders */\n      0x00\n        /* \"contracts/FundMe.sol\":4754:4780  funders = new address[](0) */\n      swap1\n      dup1\n      mload\n      swap1\n      0x20\n      add\n      swap1\n      tag_49\n      swap3\n      swap2\n      swap1\n      tag_50\n      jump\t// in\n    tag_49:\n      pop\n        /* \"contracts/FundMe.sol\":5231:5241  msg.sender */\n      caller\n        /* \"contracts/FundMe.sol\":5222:5251  payable (msg.sender).transfer */\n      0xffffffffffffffffffffffffffffffffffffffff\n      and\n        /* \"contracts/FundMe.sol\":5222:5274  payable (msg.sender).transfer(address(this).balance) */\n      0x08fc\n        /* \"contracts/FundMe.sol\":5252:5273  address(this).balance */\n      selfbalance\n        /* \"contracts/FundMe.sol\":5222:5274  payable (msg.sender).transfer(address(this).balance) */\n      swap1\n      dup2\n      iszero\n      mul\n      swap1\n      mload(0x40)\n      0x00\n      mload(0x40)\n      dup1\n      dup4\n      sub\n      dup2\n      dup6\n      dup9\n      dup9\n      call\n      swap4\n      pop\n      pop\n      pop\n      pop\n      iszero\n      dup1\n      iszero\n      tag_52\n      jumpi\n      returndatasize\n      0x00\n      dup1\n      returndatacopy\n      revert(0x00, returndatasize)\n    tag_52:\n      pop\n        /* \"contracts/FundMe.sol\":5362:5378  bool sendSuccess */\n      0x00\n        /* \"contracts/FundMe.sol\":5389:5399  msg.sender */\n      caller\n        /* \"contracts/FundMe.sol\":5381:5405  payable(msg.sender).send */\n      0xffffffffffffffffffffffffffffffffffffffff\n      and\n        /* \"contracts/FundMe.sol\":5381:5428  payable(msg.sender).send(address(this).balance) */\n      0x08fc\n        /* \"contracts/FundMe.sol\":5406:5427  address(this).balance */\n      selfbalance\n        /* \"contracts/FundMe.sol\":5381:5428  payable(msg.sender).send(address(this).balance) */\n      swap1\n      dup2\n      iszero\n      mul\n      swap1\n      mload(0x40)\n      0x00\n      mload(0x40)\n      dup1\n      dup4\n      sub\n      dup2\n      dup6\n      dup9\n      dup9\n      call\n      swap4\n      pop\n      pop\n      pop\n      pop\n        /* \"contracts/FundMe.sol\":5362:5428  bool sendSuccess = payable(msg.sender).send(address(this).balance) */\n      swap1\n      pop\n        /* \"contracts/FundMe.sol\":5447:5458  sendSuccess */\n      dup1\n        /* \"contracts/FundMe.sol\":5439:5474  require(sendSuccess, \"Send failed\") */\n      tag_54\n      jumpi\n      mload(0x40)\n      0x08c379a000000000000000000000000000000000000000000000000000000000\n      dup2\n      mstore\n      0x04\n      add\n      tag_55\n      swap1\n      tag_56\n      jump\t// in\n    tag_55:\n      mload(0x40)\n      dup1\n      swap2\n      sub\n      swap1\n      revert\n    tag_54:\n        /* \"contracts/FundMe.sol\":5708:5724  bool callSuccess */\n      0x00\n        /* \"contracts/FundMe.sol\":5739:5749  msg.sender */\n      caller\n        /* \"contracts/FundMe.sol\":5730:5755  payable (msg.sender).call */\n      0xffffffffffffffffffffffffffffffffffffffff\n      and\n        /* \"contracts/FundMe.sol\":5763:5784  address(this).balance */\n      selfbalance\n        /* \"contracts/FundMe.sol\":5730:5789  payable (msg.sender).call{value: address(this).balance}(\"\") */\n      mload(0x40)\n      tag_57\n      swap1\n      tag_58\n      jump\t// in\n    tag_57:\n      0x00\n      mload(0x40)\n      dup1\n      dup4\n      sub\n      dup2\n      dup6\n      dup8\n      gas\n      call\n      swap3\n      pop\n      pop\n      pop\n      returndatasize\n      dup1\n      0x00\n      dup2\n      eq\n      tag_61\n      jumpi\n      mload(0x40)\n      swap2\n      pop\n      and(add(returndatasize, 0x3f), not(0x1f))\n      dup3\n      add\n      0x40\n      mstore\n      returndatasize\n      dup3\n      mstore\n      returndatasize\n      0x00\n      0x20\n      dup5\n      add\n      returndatacopy\n      jump(tag_60)\n    tag_61:\n      0x60\n      swap2\n      pop\n    tag_60:\n      pop\n        /* \"contracts/FundMe.sol\":5707:5789  (bool callSuccess, ) = payable (msg.sender).call{value: address(this).balance}(\"\") */\n      pop\n      swap1\n      pop\n        /* \"contracts/FundMe.sol\":5808:5819  callSuccess */\n      dup1\n        /* \"contracts/FundMe.sol\":5800:5835  require(callSuccess, \"Call failed\") */\n      tag_62\n      jumpi\n      mload(0x40)\n      0x08c379a000000000000000000000000000000000000000000000000000000000\n      dup2\n      mstore\n      0x04\n      add\n      tag_63\n      swap1\n      tag_64\n      jump\t// in\n    tag_63:\n      mload(0x40)\n      dup1\n      swap2\n      sub\n      swap1\n      revert\n    tag_62:\n        /* \"contracts/FundMe.sol\":4481:5945  {... */\n      pop\n      pop\n        /* \"contracts/FundMe.sol\":4442:5945  function withdraw() public onlyi_Owner {... */\n      jump\t// out\n        /* \"contracts/FundMe.sol\":1601:1677  mapping(address funder => uint256 amountFunded) public addressToAmountFunded */\n    tag_20:\n      mstore(0x20, 0x01)\n      dup1\n      0x00\n      mstore\n      keccak256(0x00, 0x40)\n      0x00\n      swap2\n      pop\n      swap1\n      pop\n      sload\n      dup2\n      jump\t// out\n        /* \"contracts/FundMe.sol\":2010:4076  function fund() public payable {... */\n    tag_23:\n        /* \"contracts/FundMe.sol\":1458:1462  7e18 */\n      0x6124fee993bc0000\n        /* \"contracts/FundMe.sol\":2874:2903  msg.value.getConversionRate() */\n      tag_66\n        /* \"contracts/FundMe.sol\":2874:2883  msg.value */\n      callvalue\n        /* \"contracts/FundMe.sol\":2874:2901  msg.value.getConversionRate */\n      tag_67\n        /* \"contracts/FundMe.sol\":2874:2903  msg.value.getConversionRate() */\n      jump\t// in\n    tag_66:\n        /* \"contracts/FundMe.sol\":2874:2913  msg.value.getConversionRate() > MIN_USD */\n      gt\n        /* \"contracts/FundMe.sol\":2866:2965  require(msg.value.getConversionRate() > MIN_USD, \"Why so Kanjus! Send the entire amount specified\") */\n      tag_68\n      jumpi\n      mload(0x40)\n      0x08c379a000000000000000000000000000000000000000000000000000000000\n      dup2\n      mstore\n      0x04\n      add\n      tag_69\n      swap1\n      tag_70\n      jump\t// in\n    tag_69:\n      mload(0x40)\n      dup1\n      swap2\n      sub\n      swap1\n      revert\n    tag_68:\n        /* \"contracts/FundMe.sol\":3893:3900  funders */\n      0x00\n        /* \"contracts/FundMe.sol\":3906:3916  msg.sender */\n      caller\n        /* \"contracts/FundMe.sol\":3893:3917  funders.push(msg.sender) */\n      swap1\n      dup1\n      0x01\n      dup2\n      sload\n      add\n      dup1\n      dup3\n      sstore\n      dup1\n      swap2\n      pop\n      pop\n      0x01\n      swap1\n      sub\n      swap1\n      0x00\n      mstore\n      keccak256(0x00, 0x20)\n      add\n      0x00\n      swap1\n      swap2\n      swap1\n      swap2\n      swap1\n      swap2\n      0x0100\n      exp\n      dup2\n      sload\n      dup2\n      0xffffffffffffffffffffffffffffffffffffffff\n      mul\n      not\n      and\n      swap1\n      dup4\n      0xffffffffffffffffffffffffffffffffffffffff\n      and\n      mul\n      or\n      swap1\n      sstore\n      pop\n        /* \"contracts/FundMe.sol\":4059:4068  msg.value */\n      callvalue\n        /* \"contracts/FundMe.sol\":4022:4043  addressToAmountFunded */\n      0x01\n        /* \"contracts/FundMe.sol\":4022:4055  addressToAmountFunded[msg.sender] */\n      0x00\n        /* \"contracts/FundMe.sol\":4044:4054  msg.sender */\n      caller\n        /* \"contracts/FundMe.sol\":4022:4055  addressToAmountFunded[msg.sender] */\n      0xffffffffffffffffffffffffffffffffffffffff\n      and\n      0xffffffffffffffffffffffffffffffffffffffff\n      and\n      dup2\n      mstore\n      0x20\n      add\n      swap1\n      dup2\n      mstore\n      0x20\n      add\n      0x00\n      keccak256\n      0x00\n        /* \"contracts/FundMe.sol\":4022:4068  addressToAmountFunded[msg.sender] += msg.value */\n      dup3\n      dup3\n      sload\n      tag_72\n      swap2\n      swap1\n      tag_73\n      jump\t// in\n    tag_72:\n      swap3\n      pop\n      pop\n      dup2\n      swap1\n      sstore\n      pop\n        /* \"contracts/FundMe.sol\":2010:4076  function fund() public payable {... */\n      jump\t// out\n        /* \"contracts/FundMe.sol\":1805:1837  address public immutable i_owner */\n    tag_26:\n      immutable(\"0x35bb2e240092263378f77ea1e9c278099a33b604c4c4e26d13ea227e8bb74470\")\n      dup2\n      jump\t// out\n        /* \"contracts/FundMe.sol\":1517:1541  address[] public funders */\n    tag_33:\n      0x00\n      dup2\n      dup2\n      sload\n      dup2\n      lt\n      tag_74\n      jumpi\n      0x00\n      dup1\n      revert\n    tag_74:\n      swap1\n      0x00\n      mstore\n      keccak256(0x00, 0x20)\n      add\n      0x00\n      swap2\n      pop\n      sload\n      swap1\n      0x0100\n      exp\n      swap1\n      div\n      0xffffffffffffffffffffffffffffffffffffffff\n      and\n      dup2\n      jump\t// out\n        /* \"contracts/PriceConverterLibrary.sol\":1180:1738  function getConversionRate(uint256 ethAmount) internal view returns (uint256) {... */\n    tag_67:\n        /* \"contracts/PriceConverterLibrary.sol\":1249:1256  uint256 */\n      0x00\n        /* \"contracts/PriceConverterLibrary.sol\":1322:1338  uint256 ethPrice */\n      dup1\n        /* \"contracts/PriceConverterLibrary.sol\":1341:1351  getPrice() */\n      tag_77\n        /* \"contracts/PriceConverterLibrary.sol\":1341:1349  getPrice */\n      tag_78\n        /* \"contracts/PriceConverterLibrary.sol\":1341:1351  getPrice() */\n      jump\t// in\n    tag_77:\n        /* \"contracts/PriceConverterLibrary.sol\":1322:1351  uint256 ethPrice = getPrice() */\n      swap1\n      pop\n        /* \"contracts/PriceConverterLibrary.sol\":1629:1648  uint ethAmountInUsd */\n      0x00\n        /* \"contracts/PriceConverterLibrary.sol\":1672:1676  1e18 */\n      0x0de0b6b3a7640000\n        /* \"contracts/PriceConverterLibrary.sol\":1660:1669  ethAmount */\n      dup5\n        /* \"contracts/PriceConverterLibrary.sol\":1651:1659  ethPrice */\n      dup4\n        /* \"contracts/PriceConverterLibrary.sol\":1651:1669  ethPrice*ethAmount */\n      tag_79\n      swap2\n      swap1\n      tag_80\n      jump\t// in\n    tag_79:\n        /* \"contracts/PriceConverterLibrary.sol\":1651:1676  ethPrice*ethAmount / 1e18 */\n      tag_81\n      swap2\n      swap1\n      tag_82\n      jump\t// in\n    tag_81:\n        /* \"contracts/PriceConverterLibrary.sol\":1629:1676  uint ethAmountInUsd = ethPrice*ethAmount / 1e18 */\n      swap1\n      pop\n        /* \"contracts/PriceConverterLibrary.sol\":1716:1730  ethAmountInUsd */\n      dup1\n        /* \"contracts/PriceConverterLibrary.sol\":1709:1730  return ethAmountInUsd */\n      swap3\n      pop\n      pop\n      pop\n        /* \"contracts/PriceConverterLibrary.sol\":1180:1738  function getConversionRate(uint256 ethAmount) internal view returns (uint256) {... */\n      swap2\n      swap1\n      pop\n      jump\t// out\n        /* \"contracts/PriceConverterLibrary.sol\":475:1128  function getPrice() internal view returns (uint256) {... */\n    tag_78:\n        /* \"contracts/PriceConverterLibrary.sol\":518:525  uint256 */\n      0x00\n        /* \"contracts/PriceConverterLibrary.sol\":829:860  AggregatorV3Interface priceFeed */\n      dup1\n        /* \"contracts/PriceConverterLibrary.sol\":885:927  0x694AA1769357215DE4FAC081bf1f309aDC325306 */\n      0x694aa1769357215de4fac081bf1f309adc325306\n        /* \"contracts/PriceConverterLibrary.sol\":829:928  AggregatorV3Interface priceFeed = AggregatorV3Interface(0x694AA1769357215DE4FAC081bf1f309aDC325306) */\n      swap1\n      pop\n        /* \"contracts/PriceConverterLibrary.sol\":994:1007  int256 answer */\n      0x00\n        /* \"contracts/PriceConverterLibrary.sol\":1014:1023  priceFeed */\n      dup2\n        /* \"contracts/PriceConverterLibrary.sol\":1014:1039  priceFeed.latestRoundData */\n      0xffffffffffffffffffffffffffffffffffffffff\n      and\n      0xfeaf968c\n        /* \"contracts/PriceConverterLibrary.sol\":1014:1041  priceFeed.latestRoundData() */\n      mload(0x40)\n      dup2\n      0xffffffff\n      and\n      0xe0\n      shl\n      dup2\n      mstore\n      0x04\n      add\n      0xa0\n      mload(0x40)\n      dup1\n      dup4\n      sub\n      dup2\n      dup7\n      gas\n      staticcall\n      iszero\n      dup1\n      iszero\n      tag_85\n      jumpi\n      returndatasize\n      0x00\n      dup1\n      returndatacopy\n      revert(0x00, returndatasize)\n    tag_85:\n      pop\n      pop\n      pop\n      pop\n      mload(0x40)\n      returndatasize\n      not(0x1f)\n      0x1f\n      dup3\n      add\n      and\n      dup3\n      add\n      dup1\n      0x40\n      mstore\n      pop\n      dup2\n      add\n      swap1\n      tag_86\n      swap2\n      swap1\n      tag_87\n      jump\t// in\n    tag_86:\n        /* \"contracts/PriceConverterLibrary.sol\":992:1041  (,int256 answer,,,) = priceFeed.latestRoundData() */\n      pop\n      pop\n      pop\n      swap2\n      pop\n      pop\n        /* \"contracts/PriceConverterLibrary.sol\":1115:1119  1e10 */\n      0x02540be400\n        /* \"contracts/PriceConverterLibrary.sol\":1108:1114  answer */\n      dup2\n        /* \"contracts/PriceConverterLibrary.sol\":1108:1119  answer*1e10 */\n      tag_88\n      swap2\n      swap1\n      tag_89\n      jump\t// in\n    tag_88:\n        /* \"contracts/PriceConverterLibrary.sol\":1093:1120  return uint256(answer*1e10) */\n      swap3\n      pop\n      pop\n      pop\n        /* \"contracts/PriceConverterLibrary.sol\":475:1128  function getPrice() internal view returns (uint256) {... */\n      swap1\n      jump\t// out\n    tag_50:\n      dup3\n      dup1\n      sload\n      dup3\n      dup3\n      sstore\n      swap1\n      0x00\n      mstore\n      keccak256(0x00, 0x20)\n      swap1\n      dup2\n      add\n      swap3\n      dup3\n      iszero\n      tag_90\n      jumpi\n      swap2\n      0x20\n      mul\n      dup3\n      add\n    tag_91:\n      dup3\n      dup2\n      gt\n      iszero\n      tag_92\n      jumpi\n      dup3\n      mload\n      dup3\n      exp(0x0100, 0x00)\n      dup2\n      sload\n      dup2\n      0xffffffffffffffffffffffffffffffffffffffff\n      mul\n      not\n      and\n      swap1\n      dup4\n      0xffffffffffffffffffffffffffffffffffffffff\n      and\n      mul\n      or\n      swap1\n      sstore\n      pop\n      swap2\n      0x20\n      add\n      swap2\n      swap1\n      0x01\n      add\n      swap1\n      jump(tag_91)\n    tag_92:\n    tag_90:\n      pop\n      swap1\n      pop\n      tag_93\n      swap2\n      swap1\n      tag_94\n      jump\t// in\n    tag_93:\n      pop\n      swap1\n      jump\t// out\n    tag_94:\n    tag_95:\n      dup1\n      dup3\n      gt\n      iszero\n      tag_96\n      jumpi\n      0x00\n      dup2\n      0x00\n      swap1\n      sstore\n      pop\n      0x01\n      add\n      jump(tag_95)\n    tag_96:\n      pop\n      swap1\n      jump\t// out\n        /* \"#utility.yul\":7:84   */\n    tag_97:\n        /* \"#utility.yul\":44:51   */\n      0x00\n        /* \"#utility.yul\":73:78   */\n      dup2\n        /* \"#utility.yul\":62:78   */\n      swap1\n      pop\n        /* \"#utility.yul\":7:84   */\n      swap2\n      swap1\n      pop\n      jump\t// out\n        /* \"#utility.yul\":90:208   */\n    tag_98:\n        /* \"#utility.yul\":177:201   */\n      tag_131\n        /* \"#utility.yul\":195:200   */\n      dup2\n        /* \"#utility.yul\":177:201   */\n      tag_97\n      jump\t// in\n    tag_131:\n        /* \"#utility.yul\":172:175   */\n      dup3\n        /* \"#utility.yul\":165:202   */\n      mstore\n        /* \"#utility.yul\":90:208   */\n      pop\n      pop\n      jump\t// out\n        /* \"#utility.yul\":214:436   */\n    tag_12:\n        /* \"#utility.yul\":307:311   */\n      0x00\n        /* \"#utility.yul\":345:347   */\n      0x20\n        /* \"#utility.yul\":334:343   */\n      dup3\n        /* \"#utility.yul\":330:348   */\n      add\n        /* \"#utility.yul\":322:348   */\n      swap1\n      pop\n        /* \"#utility.yul\":358:429   */\n      tag_133\n        /* \"#utility.yul\":426:427   */\n      0x00\n        /* \"#utility.yul\":415:424   */\n      dup4\n        /* \"#utility.yul\":411:428   */\n      add\n        /* \"#utility.yul\":402:408   */\n      dup5\n        /* \"#utility.yul\":358:429   */\n      tag_98\n      jump\t// in\n    tag_133:\n        /* \"#utility.yul\":214:436   */\n      swap3\n      swap2\n      pop\n      pop\n      jump\t// out\n        /* \"#utility.yul\":523:640   */\n    tag_100:\n        /* \"#utility.yul\":632:633   */\n      0x00\n        /* \"#utility.yul\":629:630   */\n      dup1\n        /* \"#utility.yul\":622:634   */\n      revert\n        /* \"#utility.yul\":769:895   */\n    tag_102:\n        /* \"#utility.yul\":806:813   */\n      0x00\n        /* \"#utility.yul\":846:888   */\n      0xffffffffffffffffffffffffffffffffffffffff\n        /* \"#utility.yul\":839:844   */\n      dup3\n        /* \"#utility.yul\":835:889   */\n      and\n        /* \"#utility.yul\":824:889   */\n      swap1\n      pop\n        /* \"#utility.yul\":769:895   */\n      swap2\n      swap1\n      pop\n      jump\t// out\n        /* \"#utility.yul\":901:997   */\n    tag_103:\n        /* \"#utility.yul\":938:945   */\n      0x00\n        /* \"#utility.yul\":967:991   */\n      tag_139\n        /* \"#utility.yul\":985:990   */\n      dup3\n        /* \"#utility.yul\":967:991   */\n      tag_102\n      jump\t// in\n    tag_139:\n        /* \"#utility.yul\":956:991   */\n      swap1\n      pop\n        /* \"#utility.yul\":901:997   */\n      swap2\n      swap1\n      pop\n      jump\t// out\n        /* \"#utility.yul\":1003:1125   */\n    tag_104:\n        /* \"#utility.yul\":1076:1100   */\n      tag_141\n        /* \"#utility.yul\":1094:1099   */\n      dup2\n        /* \"#utility.yul\":1076:1100   */\n      tag_103\n      jump\t// in\n    tag_141:\n        /* \"#utility.yul\":1069:1074   */\n      dup2\n        /* \"#utility.yul\":1066:1101   */\n      eq\n        /* \"#utility.yul\":1056:1119   */\n      tag_142\n      jumpi\n        /* \"#utility.yul\":1115:1116   */\n      0x00\n        /* \"#utility.yul\":1112:1113   */\n      dup1\n        /* \"#utility.yul\":1105:1117   */\n      revert\n        /* \"#utility.yul\":1056:1119   */\n    tag_142:\n        /* \"#utility.yul\":1003:1125   */\n      pop\n      jump\t// out\n        /* \"#utility.yul\":1131:1270   */\n    tag_105:\n        /* \"#utility.yul\":1177:1182   */\n      0x00\n        /* \"#utility.yul\":1215:1221   */\n      dup2\n        /* \"#utility.yul\":1202:1222   */\n      calldataload\n        /* \"#utility.yul\":1193:1222   */\n      swap1\n      pop\n        /* \"#utility.yul\":1231:1264   */\n      tag_144\n        /* \"#utility.yul\":1258:1263   */\n      dup2\n        /* \"#utility.yul\":1231:1264   */\n      tag_104\n      jump\t// in\n    tag_144:\n        /* \"#utility.yul\":1131:1270   */\n      swap3\n      swap2\n      pop\n      pop\n      jump\t// out\n        /* \"#utility.yul\":1276:1605   */\n    tag_19:\n        /* \"#utility.yul\":1335:1341   */\n      0x00\n        /* \"#utility.yul\":1384:1386   */\n      0x20\n        /* \"#utility.yul\":1372:1381   */\n      dup3\n        /* \"#utility.yul\":1363:1370   */\n      dup5\n        /* \"#utility.yul\":1359:1382   */\n      sub\n        /* \"#utility.yul\":1355:1387   */\n      slt\n        /* \"#utility.yul\":1352:1471   */\n      iszero\n      tag_146\n      jumpi\n        /* \"#utility.yul\":1390:1469   */\n      tag_147\n      tag_100\n      jump\t// in\n    tag_147:\n        /* \"#utility.yul\":1352:1471   */\n    tag_146:\n        /* \"#utility.yul\":1510:1511   */\n      0x00\n        /* \"#utility.yul\":1535:1588   */\n      tag_148\n        /* \"#utility.yul\":1580:1587   */\n      dup5\n        /* \"#utility.yul\":1571:1577   */\n      dup3\n        /* \"#utility.yul\":1560:1569   */\n      dup6\n        /* \"#utility.yul\":1556:1578   */\n      add\n        /* \"#utility.yul\":1535:1588   */\n      tag_105\n      jump\t// in\n    tag_148:\n        /* \"#utility.yul\":1525:1588   */\n      swap2\n      pop\n        /* \"#utility.yul\":1481:1598   */\n      pop\n        /* \"#utility.yul\":1276:1605   */\n      swap3\n      swap2\n      pop\n      pop\n      jump\t// out\n        /* \"#utility.yul\":1611:1729   */\n    tag_106:\n        /* \"#utility.yul\":1698:1722   */\n      tag_150\n        /* \"#utility.yul\":1716:1721   */\n      dup2\n        /* \"#utility.yul\":1698:1722   */\n      tag_103\n      jump\t// in\n    tag_150:\n        /* \"#utility.yul\":1693:1696   */\n      dup3\n        /* \"#utility.yul\":1686:1723   */\n      mstore\n        /* \"#utility.yul\":1611:1729   */\n      pop\n      pop\n      jump\t// out\n        /* \"#utility.yul\":1735:1957   */\n    tag_28:\n        /* \"#utility.yul\":1828:1832   */\n      0x00\n        /* \"#utility.yul\":1866:1868   */\n      0x20\n        /* \"#utility.yul\":1855:1864   */\n      dup3\n        /* \"#utility.yul\":1851:1869   */\n      add\n        /* \"#utility.yul\":1843:1869   */\n      swap1\n      pop\n        /* \"#utility.yul\":1879:1950   */\n      tag_152\n        /* \"#utility.yul\":1947:1948   */\n      0x00\n        /* \"#utility.yul\":1936:1945   */\n      dup4\n        /* \"#utility.yul\":1932:1949   */\n      add\n        /* \"#utility.yul\":1923:1929   */\n      dup5\n        /* \"#utility.yul\":1879:1950   */\n      tag_106\n      jump\t// in\n    tag_152:\n        /* \"#utility.yul\":1735:1957   */\n      swap3\n      swap2\n      pop\n      pop\n      jump\t// out\n        /* \"#utility.yul\":1963:2085   */\n    tag_107:\n        /* \"#utility.yul\":2036:2060   */\n      tag_154\n        /* \"#utility.yul\":2054:2059   */\n      dup2\n        /* \"#utility.yul\":2036:2060   */\n      tag_97\n      jump\t// in\n    tag_154:\n        /* \"#utility.yul\":2029:2034   */\n      dup2\n        /* \"#utility.yul\":2026:2061   */\n      eq\n        /* \"#utility.yul\":2016:2079   */\n      tag_155\n      jumpi\n        /* \"#utility.yul\":2075:2076   */\n      0x00\n        /* \"#utility.yul\":2072:2073   */\n      dup1\n        /* \"#utility.yul\":2065:2077   */\n      revert\n        /* \"#utility.yul\":2016:2079   */\n    tag_155:\n        /* \"#utility.yul\":1963:2085   */\n      pop\n      jump\t// out\n        /* \"#utility.yul\":2091:2230   */\n    tag_108:\n        /* \"#utility.yul\":2137:2142   */\n      0x00\n        /* \"#utility.yul\":2175:2181   */\n      dup2\n        /* \"#utility.yul\":2162:2182   */\n      calldataload\n        /* \"#utility.yul\":2153:2182   */\n      swap1\n      pop\n        /* \"#utility.yul\":2191:2224   */\n      tag_157\n        /* \"#utility.yul\":2218:2223   */\n      dup2\n        /* \"#utility.yul\":2191:2224   */\n      tag_107\n      jump\t// in\n    tag_157:\n        /* \"#utility.yul\":2091:2230   */\n      swap3\n      swap2\n      pop\n      pop\n      jump\t// out\n        /* \"#utility.yul\":2236:2565   */\n    tag_32:\n        /* \"#utility.yul\":2295:2301   */\n      0x00\n        /* \"#utility.yul\":2344:2346   */\n      0x20\n        /* \"#utility.yul\":2332:2341   */\n      dup3\n        /* \"#utility.yul\":2323:2330   */\n      dup5\n        /* \"#utility.yul\":2319:2342   */\n      sub\n        /* \"#utility.yul\":2315:2347   */\n      slt\n        /* \"#utility.yul\":2312:2431   */\n      iszero\n      tag_159\n      jumpi\n        /* \"#utility.yul\":2350:2429   */\n      tag_160\n      tag_100\n      jump\t// in\n    tag_160:\n        /* \"#utility.yul\":2312:2431   */\n    tag_159:\n        /* \"#utility.yul\":2470:2471   */\n      0x00\n        /* \"#utility.yul\":2495:2548   */\n      tag_161\n        /* \"#utility.yul\":2540:2547   */\n      dup5\n        /* \"#utility.yul\":2531:2537   */\n      dup3\n        /* \"#utility.yul\":2520:2529   */\n      dup6\n        /* \"#utility.yul\":2516:2538   */\n      add\n        /* \"#utility.yul\":2495:2548   */\n      tag_108\n      jump\t// in\n    tag_161:\n        /* \"#utility.yul\":2485:2548   */\n      swap2\n      pop\n        /* \"#utility.yul\":2441:2558   */\n      pop\n        /* \"#utility.yul\":2236:2565   */\n      swap3\n      swap2\n      pop\n      pop\n      jump\t// out\n        /* \"#utility.yul\":2571:2751   */\n    tag_43:\n        /* \"#utility.yul\":2619:2696   */\n      0x4e487b7100000000000000000000000000000000000000000000000000000000\n        /* \"#utility.yul\":2616:2617   */\n      0x00\n        /* \"#utility.yul\":2609:2697   */\n      mstore\n        /* \"#utility.yul\":2716:2720   */\n      0x32\n        /* \"#utility.yul\":2713:2714   */\n      0x04\n        /* \"#utility.yul\":2706:2721   */\n      mstore\n        /* \"#utility.yul\":2740:2744   */\n      0x24\n        /* \"#utility.yul\":2737:2738   */\n      0x00\n        /* \"#utility.yul\":2730:2745   */\n      revert\n        /* \"#utility.yul\":2757:2937   */\n    tag_47:\n        /* \"#utility.yul\":2805:2882   */\n      0x4e487b7100000000000000000000000000000000000000000000000000000000\n        /* \"#utility.yul\":2802:2803   */\n      0x00\n        /* \"#utility.yul\":2795:2883   */\n      mstore\n        /* \"#utility.yul\":2902:2906   */\n      0x41\n        /* \"#utility.yul\":2899:2900   */\n      0x04\n        /* \"#utility.yul\":2892:2907   */\n      mstore\n        /* \"#utility.yul\":2926:2930   */\n      0x24\n        /* \"#utility.yul\":2923:2924   */\n      0x00\n        /* \"#utility.yul\":2916:2931   */\n      revert\n        /* \"#utility.yul\":2943:3112   */\n    tag_109:\n        /* \"#utility.yul\":3027:3038   */\n      0x00\n        /* \"#utility.yul\":3061:3067   */\n      dup3\n        /* \"#utility.yul\":3056:3059   */\n      dup3\n        /* \"#utility.yul\":3049:3068   */\n      mstore\n        /* \"#utility.yul\":3101:3105   */\n      0x20\n        /* \"#utility.yul\":3096:3099   */\n      dup3\n        /* \"#utility.yul\":3092:3106   */\n      add\n        /* \"#utility.yul\":3077:3106   */\n      swap1\n      pop\n        /* \"#utility.yul\":2943:3112   */\n      swap3\n      swap2\n      pop\n      pop\n      jump\t// out\n        /* \"#utility.yul\":3118:3279   */\n    tag_110:\n        /* \"#utility.yul\":3258:3271   */\n      0x53656e64206661696c6564000000000000000000000000000000000000000000\n        /* \"#utility.yul\":3254:3255   */\n      0x00\n        /* \"#utility.yul\":3246:3252   */\n      dup3\n        /* \"#utility.yul\":3242:3256   */\n      add\n        /* \"#utility.yul\":3235:3272   */\n      mstore\n        /* \"#utility.yul\":3118:3279   */\n      pop\n      jump\t// out\n        /* \"#utility.yul\":3285:3651   */\n    tag_111:\n        /* \"#utility.yul\":3427:3430   */\n      0x00\n        /* \"#utility.yul\":3448:3515   */\n      tag_167\n        /* \"#utility.yul\":3512:3514   */\n      0x0b\n        /* \"#utility.yul\":3507:3510   */\n      dup4\n        /* \"#utility.yul\":3448:3515   */\n      tag_109\n      jump\t// in\n    tag_167:\n        /* \"#utility.yul\":3441:3515   */\n      swap2\n      pop\n        /* \"#utility.yul\":3524:3617   */\n      tag_168\n        /* \"#utility.yul\":3613:3616   */\n      dup3\n        /* \"#utility.yul\":3524:3617   */\n      tag_110\n      jump\t// in\n    tag_168:\n        /* \"#utility.yul\":3642:3644   */\n      0x20\n        /* \"#utility.yul\":3637:3640   */\n      dup3\n        /* \"#utility.yul\":3633:3645   */\n      add\n        /* \"#utility.yul\":3626:3645   */\n      swap1\n      pop\n        /* \"#utility.yul\":3285:3651   */\n      swap2\n      swap1\n      pop\n      jump\t// out\n        /* \"#utility.yul\":3657:4076   */\n    tag_56:\n        /* \"#utility.yul\":3823:3827   */\n      0x00\n        /* \"#utility.yul\":3861:3863   */\n      0x20\n        /* \"#utility.yul\":3850:3859   */\n      dup3\n        /* \"#utility.yul\":3846:3864   */\n      add\n        /* \"#utility.yul\":3838:3864   */\n      swap1\n      pop\n        /* \"#utility.yul\":3910:3919   */\n      dup2\n        /* \"#utility.yul\":3904:3908   */\n      dup2\n        /* \"#utility.yul\":3900:3920   */\n      sub\n        /* \"#utility.yul\":3896:3897   */\n      0x00\n        /* \"#utility.yul\":3885:3894   */\n      dup4\n        /* \"#utility.yul\":3881:3898   */\n      add\n        /* \"#utility.yul\":3874:3921   */\n      mstore\n        /* \"#utility.yul\":3938:4069   */\n      tag_170\n        /* \"#utility.yul\":4064:4068   */\n      dup2\n        /* \"#utility.yul\":3938:4069   */\n      tag_111\n      jump\t// in\n    tag_170:\n        /* \"#utility.yul\":3930:4069   */\n      swap1\n      pop\n        /* \"#utility.yul\":3657:4076   */\n      swap2\n      swap1\n      pop\n      jump\t// out\n        /* \"#utility.yul\":4082:4229   */\n    tag_112:\n        /* \"#utility.yul\":4183:4194   */\n      0x00\n        /* \"#utility.yul\":4220:4223   */\n      dup2\n        /* \"#utility.yul\":4205:4223   */\n      swap1\n      pop\n        /* \"#utility.yul\":4082:4229   */\n      swap3\n      swap2\n      pop\n      pop\n      jump\t// out\n        /* \"#utility.yul\":4235:4349   */\n    tag_113:\n      pop\n      jump\t// out\n        /* \"#utility.yul\":4355:4753   */\n    tag_114:\n        /* \"#utility.yul\":4514:4517   */\n      0x00\n        /* \"#utility.yul\":4535:4618   */\n      tag_174\n        /* \"#utility.yul\":4616:4617   */\n      0x00\n        /* \"#utility.yul\":4611:4614   */\n      dup4\n        /* \"#utility.yul\":4535:4618   */\n      tag_112\n      jump\t// in\n    tag_174:\n        /* \"#utility.yul\":4528:4618   */\n      swap2\n      pop\n        /* \"#utility.yul\":4627:4720   */\n      tag_175\n        /* \"#utility.yul\":4716:4719   */\n      dup3\n        /* \"#utility.yul\":4627:4720   */\n      tag_113\n      jump\t// in\n    tag_175:\n        /* \"#utility.yul\":4745:4746   */\n      0x00\n        /* \"#utility.yul\":4740:4743   */\n      dup3\n        /* \"#utility.yul\":4736:4747   */\n      add\n        /* \"#utility.yul\":4729:4747   */\n      swap1\n      pop\n        /* \"#utility.yul\":4355:4753   */\n      swap2\n      swap1\n      pop\n      jump\t// out\n        /* \"#utility.yul\":4759:5138   */\n    tag_58:\n        /* \"#utility.yul\":4943:4946   */\n      0x00\n        /* \"#utility.yul\":4965:5112   */\n      tag_177\n        /* \"#utility.yul\":5108:5111   */\n      dup3\n        /* \"#utility.yul\":4965:5112   */\n      tag_114\n      jump\t// in\n    tag_177:\n        /* \"#utility.yul\":4958:5112   */\n      swap2\n      pop\n        /* \"#utility.yul\":5129:5132   */\n      dup2\n        /* \"#utility.yul\":5122:5132   */\n      swap1\n      pop\n        /* \"#utility.yul\":4759:5138   */\n      swap2\n      swap1\n      pop\n      jump\t// out\n        /* \"#utility.yul\":5144:5305   */\n    tag_115:\n        /* \"#utility.yul\":5284:5297   */\n      0x43616c6c206661696c6564000000000000000000000000000000000000000000\n        /* \"#utility.yul\":5280:5281   */\n      0x00\n        /* \"#utility.yul\":5272:5278   */\n      dup3\n        /* \"#utility.yul\":5268:5282   */\n      add\n        /* \"#utility.yul\":5261:5298   */\n      mstore\n        /* \"#utility.yul\":5144:5305   */\n      pop\n      jump\t// out\n        /* \"#utility.yul\":5311:5677   */\n    tag_116:\n        /* \"#utility.yul\":5453:5456   */\n      0x00\n        /* \"#utility.yul\":5474:5541   */\n      tag_180\n        /* \"#utility.yul\":5538:5540   */\n      0x0b\n        /* \"#utility.yul\":5533:5536   */\n      dup4\n        /* \"#utility.yul\":5474:5541   */\n      tag_109\n      jump\t// in\n    tag_180:\n        /* \"#utility.yul\":5467:5541   */\n      swap2\n      pop\n        /* \"#utility.yul\":5550:5643   */\n      tag_181\n        /* \"#utility.yul\":5639:5642   */\n      dup3\n        /* \"#utility.yul\":5550:5643   */\n      tag_115\n      jump\t// in\n    tag_181:\n        /* \"#utility.yul\":5668:5670   */\n      0x20\n        /* \"#utility.yul\":5663:5666   */\n      dup3\n        /* \"#utility.yul\":5659:5671   */\n      add\n        /* \"#utility.yul\":5652:5671   */\n      swap1\n      pop\n        /* \"#utility.yul\":5311:5677   */\n      swap2\n      swap1\n      pop\n      jump\t// out\n        /* \"#utility.yul\":5683:6102   */\n    tag_64:\n        /* \"#utility.yul\":5849:5853   */\n      0x00\n        /* \"#utility.yul\":5887:5889   */\n      0x20\n        /* \"#utility.yul\":5876:5885   */\n      dup3\n        /* \"#utility.yul\":5872:5890   */\n      add\n        /* \"#utility.yul\":5864:5890   */\n      swap1\n      pop\n        /* \"#utility.yul\":5936:5945   */\n      dup2\n        /* \"#utility.yul\":5930:5934   */\n      dup2\n        /* \"#utility.yul\":5926:5946   */\n      sub\n        /* \"#utility.yul\":5922:5923   */\n      0x00\n        /* \"#utility.yul\":5911:5920   */\n      dup4\n        /* \"#utility.yul\":5907:5924   */\n      add\n        /* \"#utility.yul\":5900:5947   */\n      mstore\n        /* \"#utility.yul\":5964:6095   */\n      tag_183\n        /* \"#utility.yul\":6090:6094   */\n      dup2\n        /* \"#utility.yul\":5964:6095   */\n      tag_116\n      jump\t// in\n    tag_183:\n        /* \"#utility.yul\":5956:6095   */\n      swap1\n      pop\n        /* \"#utility.yul\":5683:6102   */\n      swap2\n      swap1\n      pop\n      jump\t// out\n        /* \"#utility.yul\":6108:6342   */\n    tag_117:\n        /* \"#utility.yul\":6248:6282   */\n      0x57687920736f204b616e6a7573212053656e642074686520656e746972652061\n        /* \"#utility.yul\":6244:6245   */\n      0x00\n        /* \"#utility.yul\":6236:6242   */\n      dup3\n        /* \"#utility.yul\":6232:6246   */\n      add\n        /* \"#utility.yul\":6225:6283   */\n      mstore\n        /* \"#utility.yul\":6317:6334   */\n      0x6d6f756e74207370656369666965640000000000000000000000000000000000\n        /* \"#utility.yul\":6312:6314   */\n      0x20\n        /* \"#utility.yul\":6304:6310   */\n      dup3\n        /* \"#utility.yul\":6300:6315   */\n      add\n        /* \"#utility.yul\":6293:6335   */\n      mstore\n        /* \"#utility.yul\":6108:6342   */\n      pop\n      jump\t// out\n        /* \"#utility.yul\":6348:6714   */\n    tag_118:\n        /* \"#utility.yul\":6490:6493   */\n      0x00\n        /* \"#utility.yul\":6511:6578   */\n      tag_186\n        /* \"#utility.yul\":6575:6577   */\n      0x2f\n        /* \"#utility.yul\":6570:6573   */\n      dup4\n        /* \"#utility.yul\":6511:6578   */\n      tag_109\n      jump\t// in\n    tag_186:\n        /* \"#utility.yul\":6504:6578   */\n      swap2\n      pop\n        /* \"#utility.yul\":6587:6680   */\n      tag_187\n        /* \"#utility.yul\":6676:6679   */\n      dup3\n        /* \"#utility.yul\":6587:6680   */\n      tag_117\n      jump\t// in\n    tag_187:\n        /* \"#utility.yul\":6705:6707   */\n      0x40\n        /* \"#utility.yul\":6700:6703   */\n      dup3\n        /* \"#utility.yul\":6696:6708   */\n      add\n        /* \"#utility.yul\":6689:6708   */\n      swap1\n      pop\n        /* \"#utility.yul\":6348:6714   */\n      swap2\n      swap1\n      pop\n      jump\t// out\n        /* \"#utility.yul\":6720:7139   */\n    tag_70:\n        /* \"#utility.yul\":6886:6890   */\n      0x00\n        /* \"#utility.yul\":6924:6926   */\n      0x20\n        /* \"#utility.yul\":6913:6922   */\n      dup3\n        /* \"#utility.yul\":6909:6927   */\n      add\n        /* \"#utility.yul\":6901:6927   */\n      swap1\n      pop\n        /* \"#utility.yul\":6973:6982   */\n      dup2\n        /* \"#utility.yul\":6967:6971   */\n      dup2\n        /* \"#utility.yul\":6963:6983   */\n      sub\n        /* \"#utility.yul\":6959:6960   */\n      0x00\n        /* \"#utility.yul\":6948:6957   */\n      dup4\n        /* \"#utility.yul\":6944:6961   */\n      add\n        /* \"#utility.yul\":6937:6984   */\n      mstore\n        /* \"#utility.yul\":7001:7132   */\n      tag_189\n        /* \"#utility.yul\":7127:7131   */\n      dup2\n        /* \"#utility.yul\":7001:7132   */\n      tag_118\n      jump\t// in\n    tag_189:\n        /* \"#utility.yul\":6993:7132   */\n      swap1\n      pop\n        /* \"#utility.yul\":6720:7139   */\n      swap2\n      swap1\n      pop\n      jump\t// out\n        /* \"#utility.yul\":7145:7325   */\n    tag_119:\n        /* \"#utility.yul\":7193:7270   */\n      0x4e487b7100000000000000000000000000000000000000000000000000000000\n        /* \"#utility.yul\":7190:7191   */\n      0x00\n        /* \"#utility.yul\":7183:7271   */\n      mstore\n        /* \"#utility.yul\":7290:7294   */\n      0x11\n        /* \"#utility.yul\":7287:7288   */\n      0x04\n        /* \"#utility.yul\":7280:7295   */\n      mstore\n        /* \"#utility.yul\":7314:7318   */\n      0x24\n        /* \"#utility.yul\":7311:7312   */\n      0x00\n        /* \"#utility.yul\":7304:7319   */\n      revert\n        /* \"#utility.yul\":7331:7522   */\n    tag_73:\n        /* \"#utility.yul\":7371:7374   */\n      0x00\n        /* \"#utility.yul\":7390:7410   */\n      tag_192\n        /* \"#utility.yul\":7408:7409   */\n      dup3\n        /* \"#utility.yul\":7390:7410   */\n      tag_97\n      jump\t// in\n    tag_192:\n        /* \"#utility.yul\":7385:7410   */\n      swap2\n      pop\n        /* \"#utility.yul\":7424:7444   */\n      tag_193\n        /* \"#utility.yul\":7442:7443   */\n      dup4\n        /* \"#utility.yul\":7424:7444   */\n      tag_97\n      jump\t// in\n    tag_193:\n        /* \"#utility.yul\":7419:7444   */\n      swap3\n      pop\n        /* \"#utility.yul\":7467:7468   */\n      dup3\n        /* \"#utility.yul\":7464:7465   */\n      dup3\n        /* \"#utility.yul\":7460:7469   */\n      add\n        /* \"#utility.yul\":7453:7469   */\n      swap1\n      pop\n        /* \"#utility.yul\":7488:7491   */\n      dup1\n        /* \"#utility.yul\":7485:7486   */\n      dup3\n        /* \"#utility.yul\":7482:7492   */\n      gt\n        /* \"#utility.yul\":7479:7515   */\n      iszero\n      tag_194\n      jumpi\n        /* \"#utility.yul\":7495:7513   */\n      tag_195\n      tag_119\n      jump\t// in\n    tag_195:\n        /* \"#utility.yul\":7479:7515   */\n    tag_194:\n        /* \"#utility.yul\":7331:7522   */\n      swap3\n      swap2\n      pop\n      pop\n      jump\t// out\n        /* \"#utility.yul\":7528:7938   */\n    tag_80:\n        /* \"#utility.yul\":7568:7575   */\n      0x00\n        /* \"#utility.yul\":7591:7611   */\n      tag_197\n        /* \"#utility.yul\":7609:7610   */\n      dup3\n        /* \"#utility.yul\":7591:7611   */\n      tag_97\n      jump\t// in\n    tag_197:\n        /* \"#utility.yul\":7586:7611   */\n      swap2\n      pop\n        /* \"#utility.yul\":7625:7645   */\n      tag_198\n        /* \"#utility.yul\":7643:7644   */\n      dup4\n        /* \"#utility.yul\":7625:7645   */\n      tag_97\n      jump\t// in\n    tag_198:\n        /* \"#utility.yul\":7620:7645   */\n      swap3\n      pop\n        /* \"#utility.yul\":7680:7681   */\n      dup3\n        /* \"#utility.yul\":7677:7678   */\n      dup3\n        /* \"#utility.yul\":7673:7682   */\n      mul\n        /* \"#utility.yul\":7702:7732   */\n      tag_199\n        /* \"#utility.yul\":7720:7731   */\n      dup2\n        /* \"#utility.yul\":7702:7732   */\n      tag_97\n      jump\t// in\n    tag_199:\n        /* \"#utility.yul\":7691:7732   */\n      swap2\n      pop\n        /* \"#utility.yul\":7881:7882   */\n      dup3\n        /* \"#utility.yul\":7872:7879   */\n      dup3\n        /* \"#utility.yul\":7868:7883   */\n      div\n        /* \"#utility.yul\":7865:7866   */\n      dup5\n        /* \"#utility.yul\":7862:7884   */\n      eq\n        /* \"#utility.yul\":7842:7843   */\n      dup4\n        /* \"#utility.yul\":7835:7844   */\n      iszero\n        /* \"#utility.yul\":7815:7898   */\n      or\n        /* \"#utility.yul\":7792:7931   */\n      tag_200\n      jumpi\n        /* \"#utility.yul\":7911:7929   */\n      tag_201\n      tag_119\n      jump\t// in\n    tag_201:\n        /* \"#utility.yul\":7792:7931   */\n    tag_200:\n        /* \"#utility.yul\":7576:7938   */\n      pop\n        /* \"#utility.yul\":7528:7938   */\n      swap3\n      swap2\n      pop\n      pop\n      jump\t// out\n        /* \"#utility.yul\":7944:8124   */\n    tag_120:\n        /* \"#utility.yul\":7992:8069   */\n      0x4e487b7100000000000000000000000000000000000000000000000000000000\n        /* \"#utility.yul\":7989:7990   */\n      0x00\n        /* \"#utility.yul\":7982:8070   */\n      mstore\n        /* \"#utility.yul\":8089:8093   */\n      0x12\n        /* \"#utility.yul\":8086:8087   */\n      0x04\n        /* \"#utility.yul\":8079:8094   */\n      mstore\n        /* \"#utility.yul\":8113:8117   */\n      0x24\n        /* \"#utility.yul\":8110:8111   */\n      0x00\n        /* \"#utility.yul\":8103:8118   */\n      revert\n        /* \"#utility.yul\":8130:8315   */\n    tag_82:\n        /* \"#utility.yul\":8170:8171   */\n      0x00\n        /* \"#utility.yul\":8187:8207   */\n      tag_204\n        /* \"#utility.yul\":8205:8206   */\n      dup3\n        /* \"#utility.yul\":8187:8207   */\n      tag_97\n      jump\t// in\n    tag_204:\n        /* \"#utility.yul\":8182:8207   */\n      swap2\n      pop\n        /* \"#utility.yul\":8221:8241   */\n      tag_205\n        /* \"#utility.yul\":8239:8240   */\n      dup4\n        /* \"#utility.yul\":8221:8241   */\n      tag_97\n      jump\t// in\n    tag_205:\n        /* \"#utility.yul\":8216:8241   */\n      swap3\n      pop\n        /* \"#utility.yul\":8260:8261   */\n      dup3\n        /* \"#utility.yul\":8250:8285   */\n      tag_206\n      jumpi\n        /* \"#utility.yul\":8265:8283   */\n      tag_207\n      tag_120\n      jump\t// in\n    tag_207:\n        /* \"#utility.yul\":8250:8285   */\n    tag_206:\n        /* \"#utility.yul\":8307:8308   */\n      dup3\n        /* \"#utility.yul\":8304:8305   */\n      dup3\n        /* \"#utility.yul\":8300:8309   */\n      div\n        /* \"#utility.yul\":8295:8309   */\n      swap1\n      pop\n        /* \"#utility.yul\":8130:8315   */\n      swap3\n      swap2\n      pop\n      pop\n      jump\t// out\n        /* \"#utility.yul\":8321:8426   */\n    tag_121:\n        /* \"#utility.yul\":8357:8364   */\n      0x00\n        /* \"#utility.yul\":8397:8419   */\n      0xffffffffffffffffffff\n        /* \"#utility.yul\":8390:8395   */\n      dup3\n        /* \"#utility.yul\":8386:8420   */\n      and\n        /* \"#utility.yul\":8375:8420   */\n      swap1\n      pop\n        /* \"#utility.yul\":8321:8426   */\n      swap2\n      swap1\n      pop\n      jump\t// out\n        /* \"#utility.yul\":8432:8552   */\n    tag_122:\n        /* \"#utility.yul\":8504:8527   */\n      tag_210\n        /* \"#utility.yul\":8521:8526   */\n      dup2\n        /* \"#utility.yul\":8504:8527   */\n      tag_121\n      jump\t// in\n    tag_210:\n        /* \"#utility.yul\":8497:8502   */\n      dup2\n        /* \"#utility.yul\":8494:8528   */\n      eq\n        /* \"#utility.yul\":8484:8546   */\n      tag_211\n      jumpi\n        /* \"#utility.yul\":8542:8543   */\n      0x00\n        /* \"#utility.yul\":8539:8540   */\n      dup1\n        /* \"#utility.yul\":8532:8544   */\n      revert\n        /* \"#utility.yul\":8484:8546   */\n    tag_211:\n        /* \"#utility.yul\":8432:8552   */\n      pop\n      jump\t// out\n        /* \"#utility.yul\":8558:8699   */\n    tag_123:\n        /* \"#utility.yul\":8614:8619   */\n      0x00\n        /* \"#utility.yul\":8645:8651   */\n      dup2\n        /* \"#utility.yul\":8639:8652   */\n      mload\n        /* \"#utility.yul\":8630:8652   */\n      swap1\n      pop\n        /* \"#utility.yul\":8661:8693   */\n      tag_213\n        /* \"#utility.yul\":8687:8692   */\n      dup2\n        /* \"#utility.yul\":8661:8693   */\n      tag_122\n      jump\t// in\n    tag_213:\n        /* \"#utility.yul\":8558:8699   */\n      swap3\n      swap2\n      pop\n      pop\n      jump\t// out\n        /* \"#utility.yul\":8705:8781   */\n    tag_124:\n        /* \"#utility.yul\":8741:8748   */\n      0x00\n        /* \"#utility.yul\":8770:8775   */\n      dup2\n        /* \"#utility.yul\":8759:8775   */\n      swap1\n      pop\n        /* \"#utility.yul\":8705:8781   */\n      swap2\n      swap1\n      pop\n      jump\t// out\n        /* \"#utility.yul\":8787:8907   */\n    tag_125:\n        /* \"#utility.yul\":8859:8882   */\n      tag_216\n        /* \"#utility.yul\":8876:8881   */\n      dup2\n        /* \"#utility.yul\":8859:8882   */\n      tag_124\n      jump\t// in\n    tag_216:\n        /* \"#utility.yul\":8852:8857   */\n      dup2\n        /* \"#utility.yul\":8849:8883   */\n      eq\n        /* \"#utility.yul\":8839:8901   */\n      tag_217\n      jumpi\n        /* \"#utility.yul\":8897:8898   */\n      0x00\n        /* \"#utility.yul\":8894:8895   */\n      dup1\n        /* \"#utility.yul\":8887:8899   */\n      revert\n        /* \"#utility.yul\":8839:8901   */\n    tag_217:\n        /* \"#utility.yul\":8787:8907   */\n      pop\n      jump\t// out\n        /* \"#utility.yul\":8913:9054   */\n    tag_126:\n        /* \"#utility.yul\":8969:8974   */\n      0x00\n        /* \"#utility.yul\":9000:9006   */\n      dup2\n        /* \"#utility.yul\":8994:9007   */\n      mload\n        /* \"#utility.yul\":8985:9007   */\n      swap1\n      pop\n        /* \"#utility.yul\":9016:9048   */\n      tag_219\n        /* \"#utility.yul\":9042:9047   */\n      dup2\n        /* \"#utility.yul\":9016:9048   */\n      tag_125\n      jump\t// in\n    tag_219:\n        /* \"#utility.yul\":8913:9054   */\n      swap3\n      swap2\n      pop\n      pop\n      jump\t// out\n        /* \"#utility.yul\":9060:9203   */\n    tag_127:\n        /* \"#utility.yul\":9117:9122   */\n      0x00\n        /* \"#utility.yul\":9148:9154   */\n      dup2\n        /* \"#utility.yul\":9142:9155   */\n      mload\n        /* \"#utility.yul\":9133:9155   */\n      swap1\n      pop\n        /* \"#utility.yul\":9164:9197   */\n      tag_221\n        /* \"#utility.yul\":9191:9196   */\n      dup2\n        /* \"#utility.yul\":9164:9197   */\n      tag_107\n      jump\t// in\n    tag_221:\n        /* \"#utility.yul\":9060:9203   */\n      swap3\n      swap2\n      pop\n      pop\n      jump\t// out\n        /* \"#utility.yul\":9209:10180   */\n    tag_87:\n        /* \"#utility.yul\":9312:9318   */\n      0x00\n        /* \"#utility.yul\":9320:9326   */\n      dup1\n        /* \"#utility.yul\":9328:9334   */\n      0x00\n        /* \"#utility.yul\":9336:9342   */\n      dup1\n        /* \"#utility.yul\":9344:9350   */\n      0x00\n        /* \"#utility.yul\":9393:9396   */\n      0xa0\n        /* \"#utility.yul\":9381:9390   */\n      dup7\n        /* \"#utility.yul\":9372:9379   */\n      dup9\n        /* \"#utility.yul\":9368:9391   */\n      sub\n        /* \"#utility.yul\":9364:9397   */\n      slt\n        /* \"#utility.yul\":9361:9481   */\n      iszero\n      tag_223\n      jumpi\n        /* \"#utility.yul\":9400:9479   */\n      tag_224\n      tag_100\n      jump\t// in\n    tag_224:\n        /* \"#utility.yul\":9361:9481   */\n    tag_223:\n        /* \"#utility.yul\":9520:9521   */\n      0x00\n        /* \"#utility.yul\":9545:9608   */\n      tag_225\n        /* \"#utility.yul\":9600:9607   */\n      dup9\n        /* \"#utility.yul\":9591:9597   */\n      dup3\n        /* \"#utility.yul\":9580:9589   */\n      dup10\n        /* \"#utility.yul\":9576:9598   */\n      add\n        /* \"#utility.yul\":9545:9608   */\n      tag_123\n      jump\t// in\n    tag_225:\n        /* \"#utility.yul\":9535:9608   */\n      swap6\n      pop\n        /* \"#utility.yul\":9491:9618   */\n      pop\n        /* \"#utility.yul\":9657:9659   */\n      0x20\n        /* \"#utility.yul\":9683:9746   */\n      tag_226\n        /* \"#utility.yul\":9738:9745   */\n      dup9\n        /* \"#utility.yul\":9729:9735   */\n      dup3\n        /* \"#utility.yul\":9718:9727   */\n      dup10\n        /* \"#utility.yul\":9714:9736   */\n      add\n        /* \"#utility.yul\":9683:9746   */\n      tag_126\n      jump\t// in\n    tag_226:\n        /* \"#utility.yul\":9673:9746   */\n      swap5\n      pop\n        /* \"#utility.yul\":9628:9756   */\n      pop\n        /* \"#utility.yul\":9795:9797   */\n      0x40\n        /* \"#utility.yul\":9821:9885   */\n      tag_227\n        /* \"#utility.yul\":9877:9884   */\n      dup9\n        /* \"#utility.yul\":9868:9874   */\n      dup3\n        /* \"#utility.yul\":9857:9866   */\n      dup10\n        /* \"#utility.yul\":9853:9875   */\n      add\n        /* \"#utility.yul\":9821:9885   */\n      tag_127\n      jump\t// in\n    tag_227:\n        /* \"#utility.yul\":9811:9885   */\n      swap4\n      pop\n        /* \"#utility.yul\":9766:9895   */\n      pop\n        /* \"#utility.yul\":9934:9936   */\n      0x60\n        /* \"#utility.yul\":9960:10024   */\n      tag_228\n        /* \"#utility.yul\":10016:10023   */\n      dup9\n        /* \"#utility.yul\":10007:10013   */\n      dup3\n        /* \"#utility.yul\":9996:10005   */\n      dup10\n        /* \"#utility.yul\":9992:10014   */\n      add\n        /* \"#utility.yul\":9960:10024   */\n      tag_127\n      jump\t// in\n    tag_228:\n        /* \"#utility.yul\":9950:10024   */\n      swap3\n      pop\n        /* \"#utility.yul\":9905:10034   */\n      pop\n        /* \"#utility.yul\":10073:10076   */\n      0x80\n        /* \"#utility.yul\":10100:10163   */\n      tag_229\n        /* \"#utility.yul\":10155:10162   */\n      dup9\n        /* \"#utility.yul\":10146:10152   */\n      dup3\n        /* \"#utility.yul\":10135:10144   */\n      dup10\n        /* \"#utility.yul\":10131:10153   */\n      add\n        /* \"#utility.yul\":10100:10163   */\n      tag_123\n      jump\t// in\n    tag_229:\n        /* \"#utility.yul\":10090:10163   */\n      swap2\n      pop\n        /* \"#utility.yul\":10044:10173   */\n      pop\n        /* \"#utility.yul\":9209:10180   */\n      swap3\n      swap6\n      pop\n      swap3\n      swap6\n      swap1\n      swap4\n      pop\n      jump\t// out\n        /* \"#utility.yul\":10186:10742   */\n    tag_89:\n        /* \"#utility.yul\":10225:10232   */\n      0x00\n        /* \"#utility.yul\":10248:10267   */\n      tag_231\n        /* \"#utility.yul\":10265:10266   */\n      dup3\n        /* \"#utility.yul\":10248:10267   */\n      tag_124\n      jump\t// in\n    tag_231:\n        /* \"#utility.yul\":10243:10267   */\n      swap2\n      pop\n        /* \"#utility.yul\":10281:10300   */\n      tag_232\n        /* \"#utility.yul\":10298:10299   */\n      dup4\n        /* \"#utility.yul\":10281:10300   */\n      tag_124\n      jump\t// in\n    tag_232:\n        /* \"#utility.yul\":10276:10300   */\n      swap3\n      pop\n        /* \"#utility.yul\":10335:10336   */\n      dup3\n        /* \"#utility.yul\":10332:10333   */\n      dup3\n        /* \"#utility.yul\":10328:10337   */\n      mul\n        /* \"#utility.yul\":10357:10386   */\n      tag_233\n        /* \"#utility.yul\":10374:10385   */\n      dup2\n        /* \"#utility.yul\":10357:10386   */\n      tag_124\n      jump\t// in\n    tag_233:\n        /* \"#utility.yul\":10346:10386   */\n      swap2\n      pop\n        /* \"#utility.yul\":10444:10510   */\n      0x8000000000000000000000000000000000000000000000000000000000000000\n        /* \"#utility.yul\":10441:10442   */\n      dup5\n        /* \"#utility.yul\":10438:10511   */\n      eq\n        /* \"#utility.yul\":10434:10435   */\n      0x00\n        /* \"#utility.yul\":10431:10432   */\n      dup5\n        /* \"#utility.yul\":10427:10436   */\n      slt\n        /* \"#utility.yul\":10423:10512   */\n      and\n        /* \"#utility.yul\":10420:10535   */\n      iszero\n      tag_234\n      jumpi\n        /* \"#utility.yul\":10515:10533   */\n      tag_235\n      tag_119\n      jump\t// in\n    tag_235:\n        /* \"#utility.yul\":10420:10535   */\n    tag_234:\n        /* \"#utility.yul\":10685:10686   */\n      dup3\n        /* \"#utility.yul\":10676:10683   */\n      dup3\n        /* \"#utility.yul\":10671:10687   */\n      sdiv\n        /* \"#utility.yul\":10668:10669   */\n      dup5\n        /* \"#utility.yul\":10665:10688   */\n      eq\n        /* \"#utility.yul\":10645:10646   */\n      dup4\n        /* \"#utility.yul\":10638:10647   */\n      iszero\n        /* \"#utility.yul\":10618:10702   */\n      or\n        /* \"#utility.yul\":10595:10735   */\n      tag_236\n      jumpi\n        /* \"#utility.yul\":10715:10733   */\n      tag_237\n      tag_119\n      jump\t// in\n    tag_237:\n        /* \"#utility.yul\":10595:10735   */\n    tag_236:\n        /* \"#utility.yul\":10233:10742   */\n      pop\n        /* \"#utility.yul\":10186:10742   */\n      swap3\n      swap2\n      pop\n      pop\n      jump\t// out\n\n    auxdata: 0xa2646970667358221220f4149ccc7d8424eaebebcf930f416f79ee9e7f030e5f150851c16e19f7275c7764736f6c634300081a0033\n}\n",
				"bytecode": {
					"linkReferences": {},
					"object": "60a0604052348015600e575f80fd5b503373ffffffffffffffffffffffffffffffffffffffff1660808173ffffffffffffffffffffffffffffffffffffffff1681525050608051610d166100625f395f818161015201526105540152610d165ff3fe608060405260043610610054575f3560e01c8063213dbea2146100585780633ccfd60b146100825780633e47d6f314610098578063b60d4288146100d4578063dba6335f146100de578063dc0d3dff14610108575b5f80fd5b348015610063575f80fd5b5061006c610144565b6040516100799190610747565b60405180910390f35b34801561008d575f80fd5b50610096610150565b005b3480156100a3575f80fd5b506100be60048036038101906100b991906107be565b610437565b6040516100cb9190610747565b60405180910390f35b6100dc61044c565b005b3480156100e9575f80fd5b506100f2610552565b6040516100ff91906107f8565b60405180910390f35b348015610113575f80fd5b5061012e6004803603810190610129919061083b565b610576565b60405161013b91906107f8565b60405180910390f35b676124fee993bc000081565b7f000000000000000000000000000000000000000000000000000000000000000073ffffffffffffffffffffffffffffffffffffffff163373ffffffffffffffffffffffffffffffffffffffff16146101d5576040517f30cd747100000000000000000000000000000000000000000000000000000000815260040160405180910390fd5b5f5b5f80549050811015610271575f8082815481106101f7576101f6610866565b5b905f5260205f20015f9054906101000a900473ffffffffffffffffffffffffffffffffffffffff1690505f60015f8373ffffffffffffffffffffffffffffffffffffffff1673ffffffffffffffffffffffffffffffffffffffff1681526020019081526020015f20819055505080806001019150506101d7565b505f67ffffffffffffffff81111561028c5761028b610893565b5b6040519080825280602002602001820160405280156102ba5781602001602082028036833780820191505090505b505f90805190602001906102cf92919061068d565b503373ffffffffffffffffffffffffffffffffffffffff166108fc4790811502906040515f60405180830381858888f19350505050158015610313573d5f803e3d5ffd5b505f3373ffffffffffffffffffffffffffffffffffffffff166108fc4790811502906040515f60405180830381858888f1935050505090508061038b576040517f08c379a00000000000000000000000000000000000000000000000000000000081526004016103829061091a565b60405180910390fd5b5f3373ffffffffffffffffffffffffffffffffffffffff16476040516103b090610965565b5f6040518083038185875af1925050503d805f81146103ea576040519150601f19603f3d011682016040523d82523d5f602084013e6103ef565b606091505b5050905080610433576040517f08c379a000000000000000000000000000000000000000000000000000000000815260040161042a906109c3565b60405180910390fd5b5050565b6001602052805f5260405f205f915090505481565b676124fee993bc000061045e346105b0565b1161049e576040517f08c379a000000000000000000000000000000000000000000000000000000000815260040161049590610a51565b60405180910390fd5b5f33908060018154018082558091505060019003905f5260205f20015f9091909190916101000a81548173ffffffffffffffffffffffffffffffffffffffff021916908373ffffffffffffffffffffffffffffffffffffffff1602179055503460015f3373ffffffffffffffffffffffffffffffffffffffff1673ffffffffffffffffffffffffffffffffffffffff1681526020019081526020015f205f8282546105499190610a9c565b92505081905550565b7f000000000000000000000000000000000000000000000000000000000000000081565b5f8181548110610584575f80fd5b905f5260205f20015f915054906101000a900473ffffffffffffffffffffffffffffffffffffffff1681565b5f806105ba6105e8565b90505f670de0b6b3a764000084836105d29190610acf565b6105dc9190610b3d565b90508092505050919050565b5f8073694aa1769357215de4fac081bf1f309adc32530690505f8173ffffffffffffffffffffffffffffffffffffffff1663feaf968c6040518163ffffffff1660e01b815260040160a060405180830381865afa15801561064b573d5f803e3d5ffd5b505050506040513d601f19601f8201168201806040525081019061066f9190610bf3565b5050509150506402540be400816106869190610c6a565b9250505090565b828054828255905f5260205f20908101928215610703579160200282015b82811115610702578251825f6101000a81548173ffffffffffffffffffffffffffffffffffffffff021916908373ffffffffffffffffffffffffffffffffffffffff160217905550916020019190600101906106ab565b5b5090506107109190610714565b5090565b5b8082111561072b575f815f905550600101610715565b5090565b5f819050919050565b6107418161072f565b82525050565b5f60208201905061075a5f830184610738565b92915050565b5f80fd5b5f73ffffffffffffffffffffffffffffffffffffffff82169050919050565b5f61078d82610764565b9050919050565b61079d81610783565b81146107a7575f80fd5b50565b5f813590506107b881610794565b92915050565b5f602082840312156107d3576107d2610760565b5b5f6107e0848285016107aa565b91505092915050565b6107f281610783565b82525050565b5f60208201905061080b5f8301846107e9565b92915050565b61081a8161072f565b8114610824575f80fd5b50565b5f8135905061083581610811565b92915050565b5f602082840312156108505761084f610760565b5b5f61085d84828501610827565b91505092915050565b7f4e487b71000000000000000000000000000000000000000000000000000000005f52603260045260245ffd5b7f4e487b71000000000000000000000000000000000000000000000000000000005f52604160045260245ffd5b5f82825260208201905092915050565b7f53656e64206661696c65640000000000000000000000000000000000000000005f82015250565b5f610904600b836108c0565b915061090f826108d0565b602082019050919050565b5f6020820190508181035f830152610931816108f8565b9050919050565b5f81905092915050565b50565b5f6109505f83610938565b915061095b82610942565b5f82019050919050565b5f61096f82610945565b9150819050919050565b7f43616c6c206661696c65640000000000000000000000000000000000000000005f82015250565b5f6109ad600b836108c0565b91506109b882610979565b602082019050919050565b5f6020820190508181035f8301526109da816109a1565b9050919050565b7f57687920736f204b616e6a7573212053656e642074686520656e7469726520615f8201527f6d6f756e74207370656369666965640000000000000000000000000000000000602082015250565b5f610a3b602f836108c0565b9150610a46826109e1565b604082019050919050565b5f6020820190508181035f830152610a6881610a2f565b9050919050565b7f4e487b71000000000000000000000000000000000000000000000000000000005f52601160045260245ffd5b5f610aa68261072f565b9150610ab18361072f565b9250828201905080821115610ac957610ac8610a6f565b5b92915050565b5f610ad98261072f565b9150610ae48361072f565b9250828202610af28161072f565b91508282048414831517610b0957610b08610a6f565b5b5092915050565b7f4e487b71000000000000000000000000000000000000000000000000000000005f52601260045260245ffd5b5f610b478261072f565b9150610b528361072f565b925082610b6257610b61610b10565b5b828204905092915050565b5f69ffffffffffffffffffff82169050919050565b610b8b81610b6d565b8114610b95575f80fd5b50565b5f81519050610ba681610b82565b92915050565b5f819050919050565b610bbe81610bac565b8114610bc8575f80fd5b50565b5f81519050610bd981610bb5565b92915050565b5f81519050610bed81610811565b92915050565b5f805f805f60a08688031215610c0c57610c0b610760565b5b5f610c1988828901610b98565b9550506020610c2a88828901610bcb565b9450506040610c3b88828901610bdf565b9350506060610c4c88828901610bdf565b9250506080610c5d88828901610b98565b9150509295509295909350565b5f610c7482610bac565b9150610c7f83610bac565b9250828202610c8d81610bac565b91507f800000000000000000000000000000000000000000000000000000000000000084145f84121615610cc457610cc3610a6f565b5b8282058414831517610cd957610cd8610a6f565b5b509291505056fea2646970667358221220f4149ccc7d8424eaebebcf930f416f79ee9e7f030e5f150851c16e19f7275c7764736f6c634300081a0033",
					"opcodes": "PUSH1 0xA0 PUSH1 0x40 MSTORE CALLVALUE DUP1 ISZERO PUSH1 0xE JUMPI PUSH0 DUP1 REVERT JUMPDEST POP CALLER PUSH20 0xFFFFFFFFFFFFFFFFFFFFFFFFFFFFFFFFFFFFFFFF AND PUSH1 0x80 DUP2 PUSH20 0xFFFFFFFFFFFFFFFFFFFFFFFFFFFFFFFFFFFFFFFF AND DUP2 MSTORE POP POP PUSH1 0x80 MLOAD PUSH2 0xD16 PUSH2 0x62 PUSH0 CODECOPY PUSH0 DUP2 DUP2 PUSH2 0x152 ADD MSTORE PUSH2 0x554 ADD MSTORE PUSH2 0xD16 PUSH0 RETURN INVALID PUSH1 0x80 PUSH1 0x40 MSTORE PUSH1 0x4 CALLDATASIZE LT PUSH2 0x54 JUMPI PUSH0 CALLDATALOAD PUSH1 0xE0 SHR DUP1 PUSH4 0x213DBEA2 EQ PUSH2 0x58 JUMPI DUP1 PUSH4 0x3CCFD60B EQ PUSH2 0x82 JUMPI DUP1 PUSH4 0x3E47D6F3 EQ PUSH2 0x98 JUMPI DUP1 PUSH4 0xB60D4288 EQ PUSH2 0xD4 JUMPI DUP1 PUSH4 0xDBA6335F EQ PUSH2 0xDE JUMPI DUP1 PUSH4 0xDC0D3DFF EQ PUSH2 0x108 JUMPI JUMPDEST PUSH0 DUP1 REVERT JUMPDEST CALLVALUE DUP1 ISZERO PUSH2 0x63 JUMPI PUSH0 DUP1 REVERT JUMPDEST POP PUSH2 0x6C PUSH2 0x144 JUMP JUMPDEST PUSH1 0x40 MLOAD PUSH2 0x79 SWAP2 SWAP1 PUSH2 0x747 JUMP JUMPDEST PUSH1 0x40 MLOAD DUP1 SWAP2 SUB SWAP1 RETURN JUMPDEST CALLVALUE DUP1 ISZERO PUSH2 0x8D JUMPI PUSH0 DUP1 REVERT JUMPDEST POP PUSH2 0x96 PUSH2 0x150 JUMP JUMPDEST STOP JUMPDEST CALLVALUE DUP1 ISZERO PUSH2 0xA3 JUMPI PUSH0 DUP1 REVERT JUMPDEST POP PUSH2 0xBE PUSH1 0x4 DUP1 CALLDATASIZE SUB DUP2 ADD SWAP1 PUSH2 0xB9 SWAP2 SWAP1 PUSH2 0x7BE JUMP JUMPDEST PUSH2 0x437 JUMP JUMPDEST PUSH1 0x40 MLOAD PUSH2 0xCB SWAP2 SWAP1 PUSH2 0x747 JUMP JUMPDEST PUSH1 0x40 MLOAD DUP1 SWAP2 SUB SWAP1 RETURN JUMPDEST PUSH2 0xDC PUSH2 0x44C JUMP JUMPDEST STOP JUMPDEST CALLVALUE DUP1 ISZERO PUSH2 0xE9 JUMPI PUSH0 DUP1 REVERT JUMPDEST POP PUSH2 0xF2 PUSH2 0x552 JUMP JUMPDEST PUSH1 0x40 MLOAD PUSH2 0xFF SWAP2 SWAP1 PUSH2 0x7F8 JUMP JUMPDEST PUSH1 0x40 MLOAD DUP1 SWAP2 SUB SWAP1 RETURN JUMPDEST CALLVALUE DUP1 ISZERO PUSH2 0x113 JUMPI PUSH0 DUP1 REVERT JUMPDEST POP PUSH2 0x12E PUSH1 0x4 DUP1 CALLDATASIZE SUB DUP2 ADD SWAP1 PUSH2 0x129 SWAP2 SWAP1 PUSH2 0x83B JUMP JUMPDEST PUSH2 0x576 JUMP JUMPDEST PUSH1 0x40 MLOAD PUSH2 0x13B SWAP2 SWAP1 PUSH2 0x7F8 JUMP JUMPDEST PUSH1 0x40 MLOAD DUP1 SWAP2 SUB SWAP1 RETURN JUMPDEST PUSH8 0x6124FEE993BC0000 DUP2 JUMP JUMPDEST PUSH32 0x0 PUSH20 0xFFFFFFFFFFFFFFFFFFFFFFFFFFFFFFFFFFFFFFFF AND CALLER PUSH20 0xFFFFFFFFFFFFFFFFFFFFFFFFFFFFFFFFFFFFFFFF AND EQ PUSH2 0x1D5 JUMPI PUSH1 0x40 MLOAD PUSH32 0x30CD747100000000000000000000000000000000000000000000000000000000 DUP2 MSTORE PUSH1 0x4 ADD PUSH1 0x40 MLOAD DUP1 SWAP2 SUB SWAP1 REVERT JUMPDEST PUSH0 JUMPDEST PUSH0 DUP1 SLOAD SWAP1 POP DUP2 LT ISZERO PUSH2 0x271 JUMPI PUSH0 DUP1 DUP3 DUP2 SLOAD DUP2 LT PUSH2 0x1F7 JUMPI PUSH2 0x1F6 PUSH2 0x866 JUMP JUMPDEST JUMPDEST SWAP1 PUSH0 MSTORE PUSH1 0x20 PUSH0 KECCAK256 ADD PUSH0 SWAP1 SLOAD SWAP1 PUSH2 0x100 EXP SWAP1 DIV PUSH20 0xFFFFFFFFFFFFFFFFFFFFFFFFFFFFFFFFFFFFFFFF AND SWAP1 POP PUSH0 PUSH1 0x1 PUSH0 DUP4 PUSH20 0xFFFFFFFFFFFFFFFFFFFFFFFFFFFFFFFFFFFFFFFF AND PUSH20 0xFFFFFFFFFFFFFFFFFFFFFFFFFFFFFFFFFFFFFFFF AND DUP2 MSTORE PUSH1 0x20 ADD SWAP1 DUP2 MSTORE PUSH1 0x20 ADD PUSH0 KECCAK256 DUP2 SWAP1 SSTORE POP POP DUP1 DUP1 PUSH1 0x1 ADD SWAP2 POP POP PUSH2 0x1D7 JUMP JUMPDEST POP PUSH0 PUSH8 0xFFFFFFFFFFFFFFFF DUP2 GT ISZERO PUSH2 0x28C JUMPI PUSH2 0x28B PUSH2 0x893 JUMP JUMPDEST JUMPDEST PUSH1 0x40 MLOAD SWAP1 DUP1 DUP3 MSTORE DUP1 PUSH1 0x20 MUL PUSH1 0x20 ADD DUP3 ADD PUSH1 0x40 MSTORE DUP1 ISZERO PUSH2 0x2BA JUMPI DUP2 PUSH1 0x20 ADD PUSH1 0x20 DUP3 MUL DUP1 CALLDATASIZE DUP4 CALLDATACOPY DUP1 DUP3 ADD SWAP2 POP POP SWAP1 POP JUMPDEST POP PUSH0 SWAP1 DUP1 MLOAD SWAP1 PUSH1 0x20 ADD SWAP1 PUSH2 0x2CF SWAP3 SWAP2 SWAP1 PUSH2 0x68D JUMP JUMPDEST POP CALLER PUSH20 0xFFFFFFFFFFFFFFFFFFFFFFFFFFFFFFFFFFFFFFFF AND PUSH2 0x8FC SELFBALANCE SWAP1 DUP2 ISZERO MUL SWAP1 PUSH1 0x40 MLOAD PUSH0 PUSH1 0x40 MLOAD DUP1 DUP4 SUB DUP2 DUP6 DUP9 DUP9 CALL SWAP4 POP POP POP POP ISZERO DUP1 ISZERO PUSH2 0x313 JUMPI RETURNDATASIZE PUSH0 DUP1 RETURNDATACOPY RETURNDATASIZE PUSH0 REVERT JUMPDEST POP PUSH0 CALLER PUSH20 0xFFFFFFFFFFFFFFFFFFFFFFFFFFFFFFFFFFFFFFFF AND PUSH2 0x8FC SELFBALANCE SWAP1 DUP2 ISZERO MUL SWAP1 PUSH1 0x40 MLOAD PUSH0 PUSH1 0x40 MLOAD DUP1 DUP4 SUB DUP2 DUP6 DUP9 DUP9 CALL SWAP4 POP POP POP POP SWAP1 POP DUP1 PUSH2 0x38B JUMPI PUSH1 0x40 MLOAD PUSH32 0x8C379A000000000000000000000000000000000000000000000000000000000 DUP2 MSTORE PUSH1 0x4 ADD PUSH2 0x382 SWAP1 PUSH2 0x91A JUMP JUMPDEST PUSH1 0x40 MLOAD DUP1 SWAP2 SUB SWAP1 REVERT JUMPDEST PUSH0 CALLER PUSH20 0xFFFFFFFFFFFFFFFFFFFFFFFFFFFFFFFFFFFFFFFF AND SELFBALANCE PUSH1 0x40 MLOAD PUSH2 0x3B0 SWAP1 PUSH2 0x965 JUMP JUMPDEST PUSH0 PUSH1 0x40 MLOAD DUP1 DUP4 SUB DUP2 DUP6 DUP8 GAS CALL SWAP3 POP POP POP RETURNDATASIZE DUP1 PUSH0 DUP2 EQ PUSH2 0x3EA JUMPI PUSH1 0x40 MLOAD SWAP2 POP PUSH1 0x1F NOT PUSH1 0x3F RETURNDATASIZE ADD AND DUP3 ADD PUSH1 0x40 MSTORE RETURNDATASIZE DUP3 MSTORE RETURNDATASIZE PUSH0 PUSH1 0x20 DUP5 ADD RETURNDATACOPY PUSH2 0x3EF JUMP JUMPDEST PUSH1 0x60 SWAP2 POP JUMPDEST POP POP SWAP1 POP DUP1 PUSH2 0x433 JUMPI PUSH1 0x40 MLOAD PUSH32 0x8C379A000000000000000000000000000000000000000000000000000000000 DUP2 MSTORE PUSH1 0x4 ADD PUSH2 0x42A SWAP1 PUSH2 0x9C3 JUMP JUMPDEST PUSH1 0x40 MLOAD DUP1 SWAP2 SUB SWAP1 REVERT JUMPDEST POP POP JUMP JUMPDEST PUSH1 0x1 PUSH1 0x20 MSTORE DUP1 PUSH0 MSTORE PUSH1 0x40 PUSH0 KECCAK256 PUSH0 SWAP2 POP SWAP1 POP SLOAD DUP2 JUMP JUMPDEST PUSH8 0x6124FEE993BC0000 PUSH2 0x45E CALLVALUE PUSH2 0x5B0 JUMP JUMPDEST GT PUSH2 0x49E JUMPI PUSH1 0x40 MLOAD PUSH32 0x8C379A000000000000000000000000000000000000000000000000000000000 DUP2 MSTORE PUSH1 0x4 ADD PUSH2 0x495 SWAP1 PUSH2 0xA51 JUMP JUMPDEST PUSH1 0x40 MLOAD DUP1 SWAP2 SUB SWAP1 REVERT JUMPDEST PUSH0 CALLER SWAP1 DUP1 PUSH1 0x1 DUP2 SLOAD ADD DUP1 DUP3 SSTORE DUP1 SWAP2 POP POP PUSH1 0x1 SWAP1 SUB SWAP1 PUSH0 MSTORE PUSH1 0x20 PUSH0 KECCAK256 ADD PUSH0 SWAP1 SWAP2 SWAP1 SWAP2 SWAP1 SWAP2 PUSH2 0x100 EXP DUP2 SLOAD DUP2 PUSH20 0xFFFFFFFFFFFFFFFFFFFFFFFFFFFFFFFFFFFFFFFF MUL NOT AND SWAP1 DUP4 PUSH20 0xFFFFFFFFFFFFFFFFFFFFFFFFFFFFFFFFFFFFFFFF AND MUL OR SWAP1 SSTORE POP CALLVALUE PUSH1 0x1 PUSH0 CALLER PUSH20 0xFFFFFFFFFFFFFFFFFFFFFFFFFFFFFFFFFFFFFFFF AND PUSH20 0xFFFFFFFFFFFFFFFFFFFFFFFFFFFFFFFFFFFFFFFF AND DUP2 MSTORE PUSH1 0x20 ADD SWAP1 DUP2 MSTORE PUSH1 0x20 ADD PUSH0 KECCAK256 PUSH0 DUP3 DUP3 SLOAD PUSH2 0x549 SWAP2 SWAP1 PUSH2 0xA9C JUMP JUMPDEST SWAP3 POP POP DUP2 SWAP1 SSTORE POP JUMP JUMPDEST PUSH32 0x0 DUP2 JUMP JUMPDEST PUSH0 DUP2 DUP2 SLOAD DUP2 LT PUSH2 0x584 JUMPI PUSH0 DUP1 REVERT JUMPDEST SWAP1 PUSH0 MSTORE PUSH1 0x20 PUSH0 KECCAK256 ADD PUSH0 SWAP2 POP SLOAD SWAP1 PUSH2 0x100 EXP SWAP1 DIV PUSH20 0xFFFFFFFFFFFFFFFFFFFFFFFFFFFFFFFFFFFFFFFF AND DUP2 JUMP JUMPDEST PUSH0 DUP1 PUSH2 0x5BA PUSH2 0x5E8 JUMP JUMPDEST SWAP1 POP PUSH0 PUSH8 0xDE0B6B3A7640000 DUP5 DUP4 PUSH2 0x5D2 SWAP2 SWAP1 PUSH2 0xACF JUMP JUMPDEST PUSH2 0x5DC SWAP2 SWAP1 PUSH2 0xB3D JUMP JUMPDEST SWAP1 POP DUP1 SWAP3 POP POP POP SWAP2 SWAP1 POP JUMP JUMPDEST PUSH0 DUP1 PUSH20 0x694AA1769357215DE4FAC081BF1F309ADC325306 SWAP1 POP PUSH0 DUP2 PUSH20 0xFFFFFFFFFFFFFFFFFFFFFFFFFFFFFFFFFFFFFFFF AND PUSH4 0xFEAF968C PUSH1 0x40 MLOAD DUP2 PUSH4 0xFFFFFFFF AND PUSH1 0xE0 SHL DUP2 MSTORE PUSH1 0x4 ADD PUSH1 0xA0 PUSH1 0x40 MLOAD DUP1 DUP4 SUB DUP2 DUP7 GAS STATICCALL ISZERO DUP1 ISZERO PUSH2 0x64B JUMPI RETURNDATASIZE PUSH0 DUP1 RETURNDATACOPY RETURNDATASIZE PUSH0 REVERT JUMPDEST POP POP POP POP PUSH1 0x40 MLOAD RETURNDATASIZE PUSH1 0x1F NOT PUSH1 0x1F DUP3 ADD AND DUP3 ADD DUP1 PUSH1 0x40 MSTORE POP DUP2 ADD SWAP1 PUSH2 0x66F SWAP2 SWAP1 PUSH2 0xBF3 JUMP JUMPDEST POP POP POP SWAP2 POP POP PUSH5 0x2540BE400 DUP2 PUSH2 0x686 SWAP2 SWAP1 PUSH2 0xC6A JUMP JUMPDEST SWAP3 POP POP POP SWAP1 JUMP JUMPDEST DUP3 DUP1 SLOAD DUP3 DUP3 SSTORE SWAP1 PUSH0 MSTORE PUSH1 0x20 PUSH0 KECCAK256 SWAP1 DUP2 ADD SWAP3 DUP3 ISZERO PUSH2 0x703 JUMPI SWAP2 PUSH1 0x20 MUL DUP3 ADD JUMPDEST DUP3 DUP2 GT ISZERO PUSH2 0x702 JUMPI DUP3 MLOAD DUP3 PUSH0 PUSH2 0x100 EXP DUP2 SLOAD DUP2 PUSH20 0xFFFFFFFFFFFFFFFFFFFFFFFFFFFFFFFFFFFFFFFF MUL NOT AND SWAP1 DUP4 PUSH20 0xFFFFFFFFFFFFFFFFFFFFFFFFFFFFFFFFFFFFFFFF AND MUL OR SWAP1 SSTORE POP SWAP2 PUSH1 0x20 ADD SWAP2 SWAP1 PUSH1 0x1 ADD SWAP1 PUSH2 0x6AB JUMP JUMPDEST JUMPDEST POP SWAP1 POP PUSH2 0x710 SWAP2 SWAP1 PUSH2 0x714 JUMP JUMPDEST POP SWAP1 JUMP JUMPDEST JUMPDEST DUP1 DUP3 GT ISZERO PUSH2 0x72B JUMPI PUSH0 DUP2 PUSH0 SWAP1 SSTORE POP PUSH1 0x1 ADD PUSH2 0x715 JUMP JUMPDEST POP SWAP1 JUMP JUMPDEST PUSH0 DUP2 SWAP1 POP SWAP2 SWAP1 POP JUMP JUMPDEST PUSH2 0x741 DUP2 PUSH2 0x72F JUMP JUMPDEST DUP3 MSTORE POP POP JUMP JUMPDEST PUSH0 PUSH1 0x20 DUP3 ADD SWAP1 POP PUSH2 0x75A PUSH0 DUP4 ADD DUP5 PUSH2 0x738 JUMP JUMPDEST SWAP3 SWAP2 POP POP JUMP JUMPDEST PUSH0 DUP1 REVERT JUMPDEST PUSH0 PUSH20 0xFFFFFFFFFFFFFFFFFFFFFFFFFFFFFFFFFFFFFFFF DUP3 AND SWAP1 POP SWAP2 SWAP1 POP JUMP JUMPDEST PUSH0 PUSH2 0x78D DUP3 PUSH2 0x764 JUMP JUMPDEST SWAP1 POP SWAP2 SWAP1 POP JUMP JUMPDEST PUSH2 0x79D DUP2 PUSH2 0x783 JUMP JUMPDEST DUP2 EQ PUSH2 0x7A7 JUMPI PUSH0 DUP1 REVERT JUMPDEST POP JUMP JUMPDEST PUSH0 DUP2 CALLDATALOAD SWAP1 POP PUSH2 0x7B8 DUP2 PUSH2 0x794 JUMP JUMPDEST SWAP3 SWAP2 POP POP JUMP JUMPDEST PUSH0 PUSH1 0x20 DUP3 DUP5 SUB SLT ISZERO PUSH2 0x7D3 JUMPI PUSH2 0x7D2 PUSH2 0x760 JUMP JUMPDEST JUMPDEST PUSH0 PUSH2 0x7E0 DUP5 DUP3 DUP6 ADD PUSH2 0x7AA JUMP JUMPDEST SWAP2 POP POP SWAP3 SWAP2 POP POP JUMP JUMPDEST PUSH2 0x7F2 DUP2 PUSH2 0x783 JUMP JUMPDEST DUP3 MSTORE POP POP JUMP JUMPDEST PUSH0 PUSH1 0x20 DUP3 ADD SWAP1 POP PUSH2 0x80B PUSH0 DUP4 ADD DUP5 PUSH2 0x7E9 JUMP JUMPDEST SWAP3 SWAP2 POP POP JUMP JUMPDEST PUSH2 0x81A DUP2 PUSH2 0x72F JUMP JUMPDEST DUP2 EQ PUSH2 0x824 JUMPI PUSH0 DUP1 REVERT JUMPDEST POP JUMP JUMPDEST PUSH0 DUP2 CALLDATALOAD SWAP1 POP PUSH2 0x835 DUP2 PUSH2 0x811 JUMP JUMPDEST SWAP3 SWAP2 POP POP JUMP JUMPDEST PUSH0 PUSH1 0x20 DUP3 DUP5 SUB SLT ISZERO PUSH2 0x850 JUMPI PUSH2 0x84F PUSH2 0x760 JUMP JUMPDEST JUMPDEST PUSH0 PUSH2 0x85D DUP5 DUP3 DUP6 ADD PUSH2 0x827 JUMP JUMPDEST SWAP2 POP POP SWAP3 SWAP2 POP POP JUMP JUMPDEST PUSH32 0x4E487B7100000000000000000000000000000000000000000000000000000000 PUSH0 MSTORE PUSH1 0x32 PUSH1 0x4 MSTORE PUSH1 0x24 PUSH0 REVERT JUMPDEST PUSH32 0x4E487B7100000000000000000000000000000000000000000000000000000000 PUSH0 MSTORE PUSH1 0x41 PUSH1 0x4 MSTORE PUSH1 0x24 PUSH0 REVERT JUMPDEST PUSH0 DUP3 DUP3 MSTORE PUSH1 0x20 DUP3 ADD SWAP1 POP SWAP3 SWAP2 POP POP JUMP JUMPDEST PUSH32 0x53656E64206661696C6564000000000000000000000000000000000000000000 PUSH0 DUP3 ADD MSTORE POP JUMP JUMPDEST PUSH0 PUSH2 0x904 PUSH1 0xB DUP4 PUSH2 0x8C0 JUMP JUMPDEST SWAP2 POP PUSH2 0x90F DUP3 PUSH2 0x8D0 JUMP JUMPDEST PUSH1 0x20 DUP3 ADD SWAP1 POP SWAP2 SWAP1 POP JUMP JUMPDEST PUSH0 PUSH1 0x20 DUP3 ADD SWAP1 POP DUP2 DUP2 SUB PUSH0 DUP4 ADD MSTORE PUSH2 0x931 DUP2 PUSH2 0x8F8 JUMP JUMPDEST SWAP1 POP SWAP2 SWAP1 POP JUMP JUMPDEST PUSH0 DUP2 SWAP1 POP SWAP3 SWAP2 POP POP JUMP JUMPDEST POP JUMP JUMPDEST PUSH0 PUSH2 0x950 PUSH0 DUP4 PUSH2 0x938 JUMP JUMPDEST SWAP2 POP PUSH2 0x95B DUP3 PUSH2 0x942 JUMP JUMPDEST PUSH0 DUP3 ADD SWAP1 POP SWAP2 SWAP1 POP JUMP JUMPDEST PUSH0 PUSH2 0x96F DUP3 PUSH2 0x945 JUMP JUMPDEST SWAP2 POP DUP2 SWAP1 POP SWAP2 SWAP1 POP JUMP JUMPDEST PUSH32 0x43616C6C206661696C6564000000000000000000000000000000000000000000 PUSH0 DUP3 ADD MSTORE POP JUMP JUMPDEST PUSH0 PUSH2 0x9AD PUSH1 0xB DUP4 PUSH2 0x8C0 JUMP JUMPDEST SWAP2 POP PUSH2 0x9B8 DUP3 PUSH2 0x979 JUMP JUMPDEST PUSH1 0x20 DUP3 ADD SWAP1 POP SWAP2 SWAP1 POP JUMP JUMPDEST PUSH0 PUSH1 0x20 DUP3 ADD SWAP1 POP DUP2 DUP2 SUB PUSH0 DUP4 ADD MSTORE PUSH2 0x9DA DUP2 PUSH2 0x9A1 JUMP JUMPDEST SWAP1 POP SWAP2 SWAP1 POP JUMP JUMPDEST PUSH32 0x57687920736F204B616E6A7573212053656E642074686520656E746972652061 PUSH0 DUP3 ADD MSTORE PUSH32 0x6D6F756E74207370656369666965640000000000000000000000000000000000 PUSH1 0x20 DUP3 ADD MSTORE POP JUMP JUMPDEST PUSH0 PUSH2 0xA3B PUSH1 0x2F DUP4 PUSH2 0x8C0 JUMP JUMPDEST SWAP2 POP PUSH2 0xA46 DUP3 PUSH2 0x9E1 JUMP JUMPDEST PUSH1 0x40 DUP3 ADD SWAP1 POP SWAP2 SWAP1 POP JUMP JUMPDEST PUSH0 PUSH1 0x20 DUP3 ADD SWAP1 POP DUP2 DUP2 SUB PUSH0 DUP4 ADD MSTORE PUSH2 0xA68 DUP2 PUSH2 0xA2F JUMP JUMPDEST SWAP1 POP SWAP2 SWAP1 POP JUMP JUMPDEST PUSH32 0x4E487B7100000000000000000000000000000000000000000000000000000000 PUSH0 MSTORE PUSH1 0x11 PUSH1 0x4 MSTORE PUSH1 0x24 PUSH0 REVERT JUMPDEST PUSH0 PUSH2 0xAA6 DUP3 PUSH2 0x72F JUMP JUMPDEST SWAP2 POP PUSH2 0xAB1 DUP4 PUSH2 0x72F JUMP JUMPDEST SWAP3 POP DUP3 DUP3 ADD SWAP1 POP DUP1 DUP3 GT ISZERO PUSH2 0xAC9 JUMPI PUSH2 0xAC8 PUSH2 0xA6F JUMP JUMPDEST JUMPDEST SWAP3 SWAP2 POP POP JUMP JUMPDEST PUSH0 PUSH2 0xAD9 DUP3 PUSH2 0x72F JUMP JUMPDEST SWAP2 POP PUSH2 0xAE4 DUP4 PUSH2 0x72F JUMP JUMPDEST SWAP3 POP DUP3 DUP3 MUL PUSH2 0xAF2 DUP2 PUSH2 0x72F JUMP JUMPDEST SWAP2 POP DUP3 DUP3 DIV DUP5 EQ DUP4 ISZERO OR PUSH2 0xB09 JUMPI PUSH2 0xB08 PUSH2 0xA6F JUMP JUMPDEST JUMPDEST POP SWAP3 SWAP2 POP POP JUMP JUMPDEST PUSH32 0x4E487B7100000000000000000000000000000000000000000000000000000000 PUSH0 MSTORE PUSH1 0x12 PUSH1 0x4 MSTORE PUSH1 0x24 PUSH0 REVERT JUMPDEST PUSH0 PUSH2 0xB47 DUP3 PUSH2 0x72F JUMP JUMPDEST SWAP2 POP PUSH2 0xB52 DUP4 PUSH2 0x72F JUMP JUMPDEST SWAP3 POP DUP3 PUSH2 0xB62 JUMPI PUSH2 0xB61 PUSH2 0xB10 JUMP JUMPDEST JUMPDEST DUP3 DUP3 DIV SWAP1 POP SWAP3 SWAP2 POP POP JUMP JUMPDEST PUSH0 PUSH10 0xFFFFFFFFFFFFFFFFFFFF DUP3 AND SWAP1 POP SWAP2 SWAP1 POP JUMP JUMPDEST PUSH2 0xB8B DUP2 PUSH2 0xB6D JUMP JUMPDEST DUP2 EQ PUSH2 0xB95 JUMPI PUSH0 DUP1 REVERT JUMPDEST POP JUMP JUMPDEST PUSH0 DUP2 MLOAD SWAP1 POP PUSH2 0xBA6 DUP2 PUSH2 0xB82 JUMP JUMPDEST SWAP3 SWAP2 POP POP JUMP JUMPDEST PUSH0 DUP2 SWAP1 POP SWAP2 SWAP1 POP JUMP JUMPDEST PUSH2 0xBBE DUP2 PUSH2 0xBAC JUMP JUMPDEST DUP2 EQ PUSH2 0xBC8 JUMPI PUSH0 DUP1 REVERT JUMPDEST POP JUMP JUMPDEST PUSH0 DUP2 MLOAD SWAP1 POP PUSH2 0xBD9 DUP2 PUSH2 0xBB5 JUMP JUMPDEST SWAP3 SWAP2 POP POP JUMP JUMPDEST PUSH0 DUP2 MLOAD SWAP1 POP PUSH2 0xBED DUP2 PUSH2 0x811 JUMP JUMPDEST SWAP3 SWAP2 POP POP JUMP JUMPDEST PUSH0 DUP1 PUSH0 DUP1 PUSH0 PUSH1 0xA0 DUP7 DUP9 SUB SLT ISZERO PUSH2 0xC0C JUMPI PUSH2 0xC0B PUSH2 0x760 JUMP JUMPDEST JUMPDEST PUSH0 PUSH2 0xC19 DUP9 DUP3 DUP10 ADD PUSH2 0xB98 JUMP JUMPDEST SWAP6 POP POP PUSH1 0x20 PUSH2 0xC2A DUP9 DUP3 DUP10 ADD PUSH2 0xBCB JUMP JUMPDEST SWAP5 POP POP PUSH1 0x40 PUSH2 0xC3B DUP9 DUP3 DUP10 ADD PUSH2 0xBDF JUMP JUMPDEST SWAP4 POP POP PUSH1 0x60 PUSH2 0xC4C DUP9 DUP3 DUP10 ADD PUSH2 0xBDF JUMP JUMPDEST SWAP3 POP POP PUSH1 0x80 PUSH2 0xC5D DUP9 DUP3 DUP10 ADD PUSH2 0xB98 JUMP JUMPDEST SWAP2 POP POP SWAP3 SWAP6 POP SWAP3 SWAP6 SWAP1 SWAP4 POP JUMP JUMPDEST PUSH0 PUSH2 0xC74 DUP3 PUSH2 0xBAC JUMP JUMPDEST SWAP2 POP PUSH2 0xC7F DUP4 PUSH2 0xBAC JUMP JUMPDEST SWAP3 POP DUP3 DUP3 MUL PUSH2 0xC8D DUP2 PUSH2 0xBAC JUMP JUMPDEST SWAP2 POP PUSH32 0x8000000000000000000000000000000000000000000000000000000000000000 DUP5 EQ PUSH0 DUP5 SLT AND ISZERO PUSH2 0xCC4 JUMPI PUSH2 0xCC3 PUSH2 0xA6F JUMP JUMPDEST JUMPDEST DUP3 DUP3 SDIV DUP5 EQ DUP4 ISZERO OR PUSH2 0xCD9 JUMPI PUSH2 0xCD8 PUSH2 0xA6F JUMP JUMPDEST JUMPDEST POP SWAP3 SWAP2 POP POP JUMP INVALID LOG2 PUSH5 0x6970667358 0x22 SLT KECCAK256 DELEGATECALL EQ SWAP13 0xCC PUSH30 0x8424EAEBEBCF930F416F79EE9E7F030E5F150851C16E19F7275C7764736F PUSH13 0x634300081A0033000000000000 "
				},
				"gasEstimates": {
					"creation": {
						"codeDepositCost": "670000",
						"executionCost": "infinite",
						"totalCost": "infinite"
					},
					"external": {
						"MIN_USD()": "303",
						"addressToAmountFunded(address)": "2824",
						"fund()": "infinite",
						"funders(uint256)": "5031",
						"i_owner()": "infinite",
						"withdraw()": "infinite"
					}
				},
				"methodIdentifiers": {
					"MIN_USD()": "213dbea2",
					"addressToAmountFunded(address)": "3e47d6f3",
					"fund()": "b60d4288",
					"funders(uint256)": "dc0d3dff",
					"i_owner()": "dba6335f",
					"withdraw()": "3ccfd60b"
				}
			},
			"storageLayout": {
				"storage": [
					{
						"astId": 60,
						"contract": "contracts/FundMe.sol:FundMe",
						"label": "funders",
						"offset": 0,
						"slot": "0",
						"type": "t_array(t_address)dyn_storage"
					},
					{
						"astId": 64,
						"contract": "contracts/FundMe.sol:FundMe",
						"label": "addressToAmountFunded",
						"offset": 0,
						"slot": "1",
						"type": "t_mapping(t_address,t_uint256)"
					}
				],
				"types": {
					"t_address": {
						"encoding": "inplace",
						"label": "address",
						"numberOfBytes": "20"
					},
					"t_array(t_address)dyn_storage": {
						"base": "t_address",
						"encoding": "dynamic_array",
						"label": "address[]",
						"numberOfBytes": "32"
					},
					"t_mapping(t_address,t_uint256)": {
						"encoding": "mapping",
						"key": "t_address",
						"label": "mapping(address => uint256)",
						"numberOfBytes": "32",
						"value": "t_uint256"
					},
					"t_uint256": {
						"encoding": "inplace",
						"label": "uint256",
						"numberOfBytes": "32"
					}
				}
			},
			"userdoc": {
				"kind": "user",
				"methods": {},
				"version": 1
			}
		}
	}
}