{
	"contracts/FundMe.sol": {
		"FundMe": {
			"abi": [
				{
					"inputs": [
						{
							"internalType": "address",
							"name": "funder",
							"type": "address"
						}
					],
					"name": "addressToAmountFunded",
					"outputs": [
						{
							"internalType": "uint256",
							"name": "amountFunded",
							"type": "uint256"
						}
					],
					"stateMutability": "view",
					"type": "function"
				},
				{
					"inputs": [],
					"name": "fund",
					"outputs": [],
					"stateMutability": "payable",
					"type": "function"
				},
				{
					"inputs": [
						{
							"internalType": "uint256",
							"name": "",
							"type": "uint256"
						}
					],
					"name": "funders",
					"outputs": [
						{
							"internalType": "address",
							"name": "",
							"type": "address"
						}
					],
					"stateMutability": "view",
					"type": "function"
				},
				{
					"inputs": [
						{
							"internalType": "uint256",
							"name": "ethAmount",
							"type": "uint256"
						}
					],
					"name": "getConversionRate",
					"outputs": [
						{
							"internalType": "uint256",
							"name": "",
							"type": "uint256"
						}
					],
					"stateMutability": "view",
					"type": "function"
				},
				{
					"inputs": [],
					"name": "getPrice",
					"outputs": [
						{
							"internalType": "uint256",
							"name": "",
							"type": "uint256"
						}
					],
					"stateMutability": "view",
					"type": "function"
				},
				{
					"inputs": [],
					"name": "getVersion",
					"outputs": [
						{
							"internalType": "uint256",
							"name": "",
							"type": "uint256"
						}
					],
					"stateMutability": "view",
					"type": "function"
				},
				{
					"inputs": [],
					"name": "minUSD",
					"outputs": [
						{
							"internalType": "uint256",
							"name": "",
							"type": "uint256"
						}
					],
					"stateMutability": "view",
					"type": "function"
				},
				{
					"inputs": [],
					"name": "withdraw",
					"outputs": [],
					"stateMutability": "nonpayable",
					"type": "function"
				}
			],
			"devdoc": {
				"kind": "dev",
				"methods": {},
				"version": 1
			},
			"evm": {
				"assembly": "    /* \"contracts/FundMe.sol\":1162:5556  contract FundMe {... */\n  mstore(0x40, 0x80)\n    /* \"contracts/FundMe.sol\":1324:1328  7e18 */\n  0x6124fee993bc0000\n    /* \"contracts/FundMe.sol\":1300:1328  uint256 public minUSD = 7e18 */\n  0x00\n  sstore\n    /* \"contracts/FundMe.sol\":1162:5556  contract FundMe {... */\n  callvalue\n  dup1\n  iszero\n  tag_1\n  jumpi\n  0x00\n  dup1\n  revert\ntag_1:\n  pop\n  dataSize(sub_0)\n  dup1\n  dataOffset(sub_0)\n  0x00\n  codecopy\n  0x00\n  return\nstop\n\nsub_0: assembly {\n        /* \"contracts/FundMe.sol\":1162:5556  contract FundMe {... */\n      mstore(0x40, 0x80)\n      jumpi(tag_1, lt(calldatasize, 0x04))\n      shr(0xe0, calldataload(0x00))\n      dup1\n      0x98d5fdca\n      gt\n      tag_10\n      jumpi\n      dup1\n      0x98d5fdca\n      eq\n      tag_6\n      jumpi\n      dup1\n      0xb60d4288\n      eq\n      tag_7\n      jumpi\n      dup1\n      0xdc0d3dff\n      eq\n      tag_8\n      jumpi\n      dup1\n      0xdc992aa0\n      eq\n      tag_9\n      jumpi\n      jump(tag_1)\n    tag_10:\n      dup1\n      0x0d8e6e2c\n      eq\n      tag_2\n      jumpi\n      dup1\n      0x3ccfd60b\n      eq\n      tag_3\n      jumpi\n      dup1\n      0x3e47d6f3\n      eq\n      tag_4\n      jumpi\n      dup1\n      0x6e5b6b28\n      eq\n      tag_5\n      jumpi\n    tag_1:\n      0x00\n      dup1\n      revert\n        /* \"contracts/FundMe.sol\":5277:5551  function getVersion() public view returns (uint256) {... */\n    tag_2:\n      callvalue\n      dup1\n      iszero\n      tag_11\n      jumpi\n      0x00\n      dup1\n      revert\n    tag_11:\n      pop\n      tag_12\n      tag_13\n      jump\t// in\n    tag_12:\n      mload(0x40)\n      tag_14\n      swap2\n      swap1\n      tag_15\n      jump\t// in\n    tag_14:\n      mload(0x40)\n      dup1\n      swap2\n      sub\n      swap1\n      return\n        /* \"contracts/FundMe.sol\":4934:4963  function withdraw() public {} */\n    tag_3:\n      callvalue\n      dup1\n      iszero\n      tag_16\n      jumpi\n      0x00\n      dup1\n      revert\n    tag_16:\n      pop\n      tag_17\n      tag_18\n      jump\t// in\n    tag_17:\n      stop\n        /* \"contracts/FundMe.sol\":1467:1543  mapping(address funder => uint256 amountFunded) public addressToAmountFunded */\n    tag_4:\n      callvalue\n      dup1\n      iszero\n      tag_19\n      jumpi\n      0x00\n      dup1\n      revert\n    tag_19:\n      pop\n      tag_20\n      0x04\n      dup1\n      calldatasize\n      sub\n      dup2\n      add\n      swap1\n      tag_21\n      swap2\n      swap1\n      tag_22\n      jump\t// in\n    tag_21:\n      tag_23\n      jump\t// in\n    tag_20:\n      mload(0x40)\n      tag_24\n      swap2\n      swap1\n      tag_15\n      jump\t// in\n    tag_24:\n      mload(0x40)\n      dup1\n      swap2\n      sub\n      swap1\n      return\n        /* \"contracts/FundMe.sol\":4337:4893  function getConversionRate(uint256 ethAmount) public view returns (uint256) {... */\n    tag_5:\n      callvalue\n      dup1\n      iszero\n      tag_25\n      jumpi\n      0x00\n      dup1\n      revert\n    tag_25:\n      pop\n      tag_26\n      0x04\n      dup1\n      calldatasize\n      sub\n      dup2\n      add\n      swap1\n      tag_27\n      swap2\n      swap1\n      tag_28\n      jump\t// in\n    tag_27:\n      tag_29\n      jump\t// in\n    tag_26:\n      mload(0x40)\n      tag_30\n      swap2\n      swap1\n      tag_15\n      jump\t// in\n    tag_30:\n      mload(0x40)\n      dup1\n      swap2\n      sub\n      swap1\n      return\n        /* \"contracts/FundMe.sol\":3634:4285  function getPrice() public view returns (uint256) {... */\n    tag_6:\n      callvalue\n      dup1\n      iszero\n      tag_31\n      jumpi\n      0x00\n      dup1\n      revert\n    tag_31:\n      pop\n      tag_32\n      tag_33\n      jump\t// in\n    tag_32:\n      mload(0x40)\n      tag_34\n      swap2\n      swap1\n      tag_15\n      jump\t// in\n    tag_34:\n      mload(0x40)\n      dup1\n      swap2\n      sub\n      swap1\n      return\n        /* \"contracts/FundMe.sol\":1656:3589  function fund() public payable {... */\n    tag_7:\n      tag_35\n      tag_36\n      jump\t// in\n    tag_35:\n      stop\n        /* \"contracts/FundMe.sol\":1383:1407  address[] public funders */\n    tag_8:\n      callvalue\n      dup1\n      iszero\n      tag_37\n      jumpi\n      0x00\n      dup1\n      revert\n    tag_37:\n      pop\n      tag_38\n      0x04\n      dup1\n      calldatasize\n      sub\n      dup2\n      add\n      swap1\n      tag_39\n      swap2\n      swap1\n      tag_28\n      jump\t// in\n    tag_39:\n      tag_40\n      jump\t// in\n    tag_38:\n      mload(0x40)\n      tag_41\n      swap2\n      swap1\n      tag_42\n      jump\t// in\n    tag_41:\n      mload(0x40)\n      dup1\n      swap2\n      sub\n      swap1\n      return\n        /* \"contracts/FundMe.sol\":1300:1328  uint256 public minUSD = 7e18 */\n    tag_9:\n      callvalue\n      dup1\n      iszero\n      tag_43\n      jumpi\n      0x00\n      dup1\n      revert\n    tag_43:\n      pop\n      tag_44\n      tag_45\n      jump\t// in\n    tag_44:\n      mload(0x40)\n      tag_46\n      swap2\n      swap1\n      tag_15\n      jump\t// in\n    tag_46:\n      mload(0x40)\n      dup1\n      swap2\n      sub\n      swap1\n      return\n        /* \"contracts/FundMe.sol\":5277:5551  function getVersion() public view returns (uint256) {... */\n    tag_13:\n        /* \"contracts/FundMe.sol\":5320:5327  uint256 */\n      0x00\n        /* \"contracts/FundMe.sol\":5490:5532  0x694AA1769357215DE4FAC081bf1f309aDC325306 */\n      0x694aa1769357215de4fac081bf1f309adc325306\n        /* \"contracts/FundMe.sol\":5468:5541  AggregatorV3Interface(0x694AA1769357215DE4FAC081bf1f309aDC325306).version */\n      0xffffffffffffffffffffffffffffffffffffffff\n      and\n      0x54fd4d50\n        /* \"contracts/FundMe.sol\":5468:5543  AggregatorV3Interface(0x694AA1769357215DE4FAC081bf1f309aDC325306).version() */\n      mload(0x40)\n      dup2\n      0xffffffff\n      and\n      0xe0\n      shl\n      dup2\n      mstore\n      0x04\n      add\n      0x20\n      mload(0x40)\n      dup1\n      dup4\n      sub\n      dup2\n      dup7\n      gas\n      staticcall\n      iszero\n      dup1\n      iszero\n      tag_49\n      jumpi\n      returndatasize\n      0x00\n      dup1\n      returndatacopy\n      revert(0x00, returndatasize)\n    tag_49:\n      pop\n      pop\n      pop\n      pop\n      mload(0x40)\n      returndatasize\n      not(0x1f)\n      0x1f\n      dup3\n      add\n      and\n      dup3\n      add\n      dup1\n      0x40\n      mstore\n      pop\n      dup2\n      add\n      swap1\n      tag_50\n      swap2\n      swap1\n      tag_51\n      jump\t// in\n    tag_50:\n        /* \"contracts/FundMe.sol\":5461:5543  return AggregatorV3Interface(0x694AA1769357215DE4FAC081bf1f309aDC325306).version() */\n      swap1\n      pop\n        /* \"contracts/FundMe.sol\":5277:5551  function getVersion() public view returns (uint256) {... */\n      swap1\n      jump\t// out\n        /* \"contracts/FundMe.sol\":4934:4963  function withdraw() public {} */\n    tag_18:\n      jump\t// out\n        /* \"contracts/FundMe.sol\":1467:1543  mapping(address funder => uint256 amountFunded) public addressToAmountFunded */\n    tag_23:\n      mstore(0x20, 0x02)\n      dup1\n      0x00\n      mstore\n      keccak256(0x00, 0x40)\n      0x00\n      swap2\n      pop\n      swap1\n      pop\n      sload\n      dup2\n      jump\t// out\n        /* \"contracts/FundMe.sol\":4337:4893  function getConversionRate(uint256 ethAmount) public view returns (uint256) {... */\n    tag_29:\n        /* \"contracts/FundMe.sol\":4404:4411  uint256 */\n      0x00\n        /* \"contracts/FundMe.sol\":4477:4493  uint256 ethPrice */\n      dup1\n        /* \"contracts/FundMe.sol\":4496:4506  getPrice() */\n      tag_54\n        /* \"contracts/FundMe.sol\":4496:4504  getPrice */\n      tag_33\n        /* \"contracts/FundMe.sol\":4496:4506  getPrice() */\n      jump\t// in\n    tag_54:\n        /* \"contracts/FundMe.sol\":4477:4506  uint256 ethPrice = getPrice() */\n      swap1\n      pop\n        /* \"contracts/FundMe.sol\":4784:4803  uint ethAmountInUsd */\n      0x00\n        /* \"contracts/FundMe.sol\":4827:4831  1e18 */\n      0x0de0b6b3a7640000\n        /* \"contracts/FundMe.sol\":4815:4824  ethAmount */\n      dup5\n        /* \"contracts/FundMe.sol\":4806:4814  ethPrice */\n      dup4\n        /* \"contracts/FundMe.sol\":4806:4824  ethPrice*ethAmount */\n      tag_55\n      swap2\n      swap1\n      tag_56\n      jump\t// in\n    tag_55:\n        /* \"contracts/FundMe.sol\":4806:4831  ethPrice*ethAmount / 1e18 */\n      tag_57\n      swap2\n      swap1\n      tag_58\n      jump\t// in\n    tag_57:\n        /* \"contracts/FundMe.sol\":4784:4831  uint ethAmountInUsd = ethPrice*ethAmount / 1e18 */\n      swap1\n      pop\n        /* \"contracts/FundMe.sol\":4871:4885  ethAmountInUsd */\n      dup1\n        /* \"contracts/FundMe.sol\":4864:4885  return ethAmountInUsd */\n      swap3\n      pop\n      pop\n      pop\n        /* \"contracts/FundMe.sol\":4337:4893  function getConversionRate(uint256 ethAmount) public view returns (uint256) {... */\n      swap2\n      swap1\n      pop\n      jump\t// out\n        /* \"contracts/FundMe.sol\":3634:4285  function getPrice() public view returns (uint256) {... */\n    tag_33:\n        /* \"contracts/FundMe.sol\":3675:3682  uint256 */\n      0x00\n        /* \"contracts/FundMe.sol\":3986:4017  AggregatorV3Interface priceFeed */\n      dup1\n        /* \"contracts/FundMe.sol\":4042:4084  0x694AA1769357215DE4FAC081bf1f309aDC325306 */\n      0x694aa1769357215de4fac081bf1f309adc325306\n        /* \"contracts/FundMe.sol\":3986:4085  AggregatorV3Interface priceFeed = AggregatorV3Interface(0x694AA1769357215DE4FAC081bf1f309aDC325306) */\n      swap1\n      pop\n        /* \"contracts/FundMe.sol\":4151:4164  int256 answer */\n      0x00\n        /* \"contracts/FundMe.sol\":4171:4180  priceFeed */\n      dup2\n        /* \"contracts/FundMe.sol\":4171:4196  priceFeed.latestRoundData */\n      0xffffffffffffffffffffffffffffffffffffffff\n      and\n      0xfeaf968c\n        /* \"contracts/FundMe.sol\":4171:4198  priceFeed.latestRoundData() */\n      mload(0x40)\n      dup2\n      0xffffffff\n      and\n      0xe0\n      shl\n      dup2\n      mstore\n      0x04\n      add\n      0xa0\n      mload(0x40)\n      dup1\n      dup4\n      sub\n      dup2\n      dup7\n      gas\n      staticcall\n      iszero\n      dup1\n      iszero\n      tag_61\n      jumpi\n      returndatasize\n      0x00\n      dup1\n      returndatacopy\n      revert(0x00, returndatasize)\n    tag_61:\n      pop\n      pop\n      pop\n      pop\n      mload(0x40)\n      returndatasize\n      not(0x1f)\n      0x1f\n      dup3\n      add\n      and\n      dup3\n      add\n      dup1\n      0x40\n      mstore\n      pop\n      dup2\n      add\n      swap1\n      tag_62\n      swap2\n      swap1\n      tag_63\n      jump\t// in\n    tag_62:\n        /* \"contracts/FundMe.sol\":4149:4198  (,int256 answer,,,) = priceFeed.latestRoundData() */\n      pop\n      pop\n      pop\n      swap2\n      pop\n      pop\n        /* \"contracts/FundMe.sol\":4272:4276  1e10 */\n      0x02540be400\n        /* \"contracts/FundMe.sol\":4265:4271  answer */\n      dup2\n        /* \"contracts/FundMe.sol\":4265:4276  answer*1e10 */\n      tag_64\n      swap2\n      swap1\n      tag_65\n      jump\t// in\n    tag_64:\n        /* \"contracts/FundMe.sol\":4250:4277  return uint256(answer*1e10) */\n      swap3\n      pop\n      pop\n      pop\n        /* \"contracts/FundMe.sol\":3634:4285  function getPrice() public view returns (uint256) {... */\n      swap1\n      jump\t// out\n        /* \"contracts/FundMe.sol\":1656:3589  function fund() public payable {... */\n    tag_36:\n        /* \"contracts/FundMe.sol\":2432:2438  minUSD */\n      sload(0x00)\n        /* \"contracts/FundMe.sol\":2401:2429  getConversionRate(msg.value) */\n      tag_67\n        /* \"contracts/FundMe.sol\":2419:2428  msg.value */\n      callvalue\n        /* \"contracts/FundMe.sol\":2401:2418  getConversionRate */\n      tag_29\n        /* \"contracts/FundMe.sol\":2401:2429  getConversionRate(msg.value) */\n      jump\t// in\n    tag_67:\n        /* \"contracts/FundMe.sol\":2401:2438  getConversionRate(msg.value) > minUSD */\n      gt\n        /* \"contracts/FundMe.sol\":2393:2490  require(getConversionRate(msg.value) > minUSD, \"Why so Kanjus! Send the entire amount specified\") */\n      tag_68\n      jumpi\n      mload(0x40)\n      0x08c379a000000000000000000000000000000000000000000000000000000000\n      dup2\n      mstore\n      0x04\n      add\n      tag_69\n      swap1\n      tag_70\n      jump\t// in\n    tag_69:\n      mload(0x40)\n      dup1\n      swap2\n      sub\n      swap1\n      revert\n    tag_68:\n        /* \"contracts/FundMe.sol\":3417:3424  funders */\n      0x01\n        /* \"contracts/FundMe.sol\":3430:3440  msg.sender */\n      caller\n        /* \"contracts/FundMe.sol\":3417:3441  funders.push(msg.sender) */\n      swap1\n      dup1\n      0x01\n      dup2\n      sload\n      add\n      dup1\n      dup3\n      sstore\n      dup1\n      swap2\n      pop\n      pop\n      0x01\n      swap1\n      sub\n      swap1\n      0x00\n      mstore\n      keccak256(0x00, 0x20)\n      add\n      0x00\n      swap1\n      swap2\n      swap1\n      swap2\n      swap1\n      swap2\n      0x0100\n      exp\n      dup2\n      sload\n      dup2\n      0xffffffffffffffffffffffffffffffffffffffff\n      mul\n      not\n      and\n      swap1\n      dup4\n      0xffffffffffffffffffffffffffffffffffffffff\n      and\n      mul\n      or\n      swap1\n      sstore\n      pop\n        /* \"contracts/FundMe.sol\":3572:3581  msg.value */\n      callvalue\n        /* \"contracts/FundMe.sol\":3536:3557  addressToAmountFunded */\n      0x02\n        /* \"contracts/FundMe.sol\":3536:3569  addressToAmountFunded[msg.sender] */\n      0x00\n        /* \"contracts/FundMe.sol\":3558:3568  msg.sender */\n      caller\n        /* \"contracts/FundMe.sol\":3536:3569  addressToAmountFunded[msg.sender] */\n      0xffffffffffffffffffffffffffffffffffffffff\n      and\n      0xffffffffffffffffffffffffffffffffffffffff\n      and\n      dup2\n      mstore\n      0x20\n      add\n      swap1\n      dup2\n      mstore\n      0x20\n      add\n      0x00\n      keccak256\n      sload\n        /* \"contracts/FundMe.sol\":3536:3581  addressToAmountFunded[msg.sender] + msg.value */\n      tag_72\n      swap2\n      swap1\n      tag_73\n      jump\t// in\n    tag_72:\n        /* \"contracts/FundMe.sol\":3500:3521  addressToAmountFunded */\n      0x02\n        /* \"contracts/FundMe.sol\":3500:3533  addressToAmountFunded[msg.sender] */\n      0x00\n        /* \"contracts/FundMe.sol\":3522:3532  msg.sender */\n      caller\n        /* \"contracts/FundMe.sol\":3500:3533  addressToAmountFunded[msg.sender] */\n      0xffffffffffffffffffffffffffffffffffffffff\n      and\n      0xffffffffffffffffffffffffffffffffffffffff\n      and\n      dup2\n      mstore\n      0x20\n      add\n      swap1\n      dup2\n      mstore\n      0x20\n      add\n      0x00\n      keccak256\n        /* \"contracts/FundMe.sol\":3500:3581  addressToAmountFunded[msg.sender] = addressToAmountFunded[msg.sender] + msg.value */\n      dup2\n      swap1\n      sstore\n      pop\n        /* \"contracts/FundMe.sol\":1656:3589  function fund() public payable {... */\n      jump\t// out\n        /* \"contracts/FundMe.sol\":1383:1407  address[] public funders */\n    tag_40:\n      0x01\n      dup2\n      dup2\n      sload\n      dup2\n      lt\n      tag_74\n      jumpi\n      0x00\n      dup1\n      revert\n    tag_74:\n      swap1\n      0x00\n      mstore\n      keccak256(0x00, 0x20)\n      add\n      0x00\n      swap2\n      pop\n      sload\n      swap1\n      0x0100\n      exp\n      swap1\n      div\n      0xffffffffffffffffffffffffffffffffffffffff\n      and\n      dup2\n      jump\t// out\n        /* \"contracts/FundMe.sol\":1300:1328  uint256 public minUSD = 7e18 */\n    tag_45:\n      sload(0x00)\n      dup2\n      jump\t// out\n        /* \"#utility.yul\":7:84   */\n    tag_76:\n        /* \"#utility.yul\":44:51   */\n      0x00\n        /* \"#utility.yul\":73:78   */\n      dup2\n        /* \"#utility.yul\":62:78   */\n      swap1\n      pop\n        /* \"#utility.yul\":7:84   */\n      swap2\n      swap1\n      pop\n      jump\t// out\n        /* \"#utility.yul\":90:208   */\n    tag_77:\n        /* \"#utility.yul\":177:201   */\n      tag_103\n        /* \"#utility.yul\":195:200   */\n      dup2\n        /* \"#utility.yul\":177:201   */\n      tag_76\n      jump\t// in\n    tag_103:\n        /* \"#utility.yul\":172:175   */\n      dup3\n        /* \"#utility.yul\":165:202   */\n      mstore\n        /* \"#utility.yul\":90:208   */\n      pop\n      pop\n      jump\t// out\n        /* \"#utility.yul\":214:436   */\n    tag_15:\n        /* \"#utility.yul\":307:311   */\n      0x00\n        /* \"#utility.yul\":345:347   */\n      0x20\n        /* \"#utility.yul\":334:343   */\n      dup3\n        /* \"#utility.yul\":330:348   */\n      add\n        /* \"#utility.yul\":322:348   */\n      swap1\n      pop\n        /* \"#utility.yul\":358:429   */\n      tag_105\n        /* \"#utility.yul\":426:427   */\n      0x00\n        /* \"#utility.yul\":415:424   */\n      dup4\n        /* \"#utility.yul\":411:428   */\n      add\n        /* \"#utility.yul\":402:408   */\n      dup5\n        /* \"#utility.yul\":358:429   */\n      tag_77\n      jump\t// in\n    tag_105:\n        /* \"#utility.yul\":214:436   */\n      swap3\n      swap2\n      pop\n      pop\n      jump\t// out\n        /* \"#utility.yul\":523:640   */\n    tag_79:\n        /* \"#utility.yul\":632:633   */\n      0x00\n        /* \"#utility.yul\":629:630   */\n      dup1\n        /* \"#utility.yul\":622:634   */\n      revert\n        /* \"#utility.yul\":769:895   */\n    tag_81:\n        /* \"#utility.yul\":806:813   */\n      0x00\n        /* \"#utility.yul\":846:888   */\n      0xffffffffffffffffffffffffffffffffffffffff\n        /* \"#utility.yul\":839:844   */\n      dup3\n        /* \"#utility.yul\":835:889   */\n      and\n        /* \"#utility.yul\":824:889   */\n      swap1\n      pop\n        /* \"#utility.yul\":769:895   */\n      swap2\n      swap1\n      pop\n      jump\t// out\n        /* \"#utility.yul\":901:997   */\n    tag_82:\n        /* \"#utility.yul\":938:945   */\n      0x00\n        /* \"#utility.yul\":967:991   */\n      tag_111\n        /* \"#utility.yul\":985:990   */\n      dup3\n        /* \"#utility.yul\":967:991   */\n      tag_81\n      jump\t// in\n    tag_111:\n        /* \"#utility.yul\":956:991   */\n      swap1\n      pop\n        /* \"#utility.yul\":901:997   */\n      swap2\n      swap1\n      pop\n      jump\t// out\n        /* \"#utility.yul\":1003:1125   */\n    tag_83:\n        /* \"#utility.yul\":1076:1100   */\n      tag_113\n        /* \"#utility.yul\":1094:1099   */\n      dup2\n        /* \"#utility.yul\":1076:1100   */\n      tag_82\n      jump\t// in\n    tag_113:\n        /* \"#utility.yul\":1069:1074   */\n      dup2\n        /* \"#utility.yul\":1066:1101   */\n      eq\n        /* \"#utility.yul\":1056:1119   */\n      tag_114\n      jumpi\n        /* \"#utility.yul\":1115:1116   */\n      0x00\n        /* \"#utility.yul\":1112:1113   */\n      dup1\n        /* \"#utility.yul\":1105:1117   */\n      revert\n        /* \"#utility.yul\":1056:1119   */\n    tag_114:\n        /* \"#utility.yul\":1003:1125   */\n      pop\n      jump\t// out\n        /* \"#utility.yul\":1131:1270   */\n    tag_84:\n        /* \"#utility.yul\":1177:1182   */\n      0x00\n        /* \"#utility.yul\":1215:1221   */\n      dup2\n        /* \"#utility.yul\":1202:1222   */\n      calldataload\n        /* \"#utility.yul\":1193:1222   */\n      swap1\n      pop\n        /* \"#utility.yul\":1231:1264   */\n      tag_116\n        /* \"#utility.yul\":1258:1263   */\n      dup2\n        /* \"#utility.yul\":1231:1264   */\n      tag_83\n      jump\t// in\n    tag_116:\n        /* \"#utility.yul\":1131:1270   */\n      swap3\n      swap2\n      pop\n      pop\n      jump\t// out\n        /* \"#utility.yul\":1276:1605   */\n    tag_22:\n        /* \"#utility.yul\":1335:1341   */\n      0x00\n        /* \"#utility.yul\":1384:1386   */\n      0x20\n        /* \"#utility.yul\":1372:1381   */\n      dup3\n        /* \"#utility.yul\":1363:1370   */\n      dup5\n        /* \"#utility.yul\":1359:1382   */\n      sub\n        /* \"#utility.yul\":1355:1387   */\n      slt\n        /* \"#utility.yul\":1352:1471   */\n      iszero\n      tag_118\n      jumpi\n        /* \"#utility.yul\":1390:1469   */\n      tag_119\n      tag_79\n      jump\t// in\n    tag_119:\n        /* \"#utility.yul\":1352:1471   */\n    tag_118:\n        /* \"#utility.yul\":1510:1511   */\n      0x00\n        /* \"#utility.yul\":1535:1588   */\n      tag_120\n        /* \"#utility.yul\":1580:1587   */\n      dup5\n        /* \"#utility.yul\":1571:1577   */\n      dup3\n        /* \"#utility.yul\":1560:1569   */\n      dup6\n        /* \"#utility.yul\":1556:1578   */\n      add\n        /* \"#utility.yul\":1535:1588   */\n      tag_84\n      jump\t// in\n    tag_120:\n        /* \"#utility.yul\":1525:1588   */\n      swap2\n      pop\n        /* \"#utility.yul\":1481:1598   */\n      pop\n        /* \"#utility.yul\":1276:1605   */\n      swap3\n      swap2\n      pop\n      pop\n      jump\t// out\n        /* \"#utility.yul\":1611:1733   */\n    tag_85:\n        /* \"#utility.yul\":1684:1708   */\n      tag_122\n        /* \"#utility.yul\":1702:1707   */\n      dup2\n        /* \"#utility.yul\":1684:1708   */\n      tag_76\n      jump\t// in\n    tag_122:\n        /* \"#utility.yul\":1677:1682   */\n      dup2\n        /* \"#utility.yul\":1674:1709   */\n      eq\n        /* \"#utility.yul\":1664:1727   */\n      tag_123\n      jumpi\n        /* \"#utility.yul\":1723:1724   */\n      0x00\n        /* \"#utility.yul\":1720:1721   */\n      dup1\n        /* \"#utility.yul\":1713:1725   */\n      revert\n        /* \"#utility.yul\":1664:1727   */\n    tag_123:\n        /* \"#utility.yul\":1611:1733   */\n      pop\n      jump\t// out\n        /* \"#utility.yul\":1739:1878   */\n    tag_86:\n        /* \"#utility.yul\":1785:1790   */\n      0x00\n        /* \"#utility.yul\":1823:1829   */\n      dup2\n        /* \"#utility.yul\":1810:1830   */\n      calldataload\n        /* \"#utility.yul\":1801:1830   */\n      swap1\n      pop\n        /* \"#utility.yul\":1839:1872   */\n      tag_125\n        /* \"#utility.yul\":1866:1871   */\n      dup2\n        /* \"#utility.yul\":1839:1872   */\n      tag_85\n      jump\t// in\n    tag_125:\n        /* \"#utility.yul\":1739:1878   */\n      swap3\n      swap2\n      pop\n      pop\n      jump\t// out\n        /* \"#utility.yul\":1884:2213   */\n    tag_28:\n        /* \"#utility.yul\":1943:1949   */\n      0x00\n        /* \"#utility.yul\":1992:1994   */\n      0x20\n        /* \"#utility.yul\":1980:1989   */\n      dup3\n        /* \"#utility.yul\":1971:1978   */\n      dup5\n        /* \"#utility.yul\":1967:1990   */\n      sub\n        /* \"#utility.yul\":1963:1995   */\n      slt\n        /* \"#utility.yul\":1960:2079   */\n      iszero\n      tag_127\n      jumpi\n        /* \"#utility.yul\":1998:2077   */\n      tag_128\n      tag_79\n      jump\t// in\n    tag_128:\n        /* \"#utility.yul\":1960:2079   */\n    tag_127:\n        /* \"#utility.yul\":2118:2119   */\n      0x00\n        /* \"#utility.yul\":2143:2196   */\n      tag_129\n        /* \"#utility.yul\":2188:2195   */\n      dup5\n        /* \"#utility.yul\":2179:2185   */\n      dup3\n        /* \"#utility.yul\":2168:2177   */\n      dup6\n        /* \"#utility.yul\":2164:2186   */\n      add\n        /* \"#utility.yul\":2143:2196   */\n      tag_86\n      jump\t// in\n    tag_129:\n        /* \"#utility.yul\":2133:2196   */\n      swap2\n      pop\n        /* \"#utility.yul\":2089:2206   */\n      pop\n        /* \"#utility.yul\":1884:2213   */\n      swap3\n      swap2\n      pop\n      pop\n      jump\t// out\n        /* \"#utility.yul\":2219:2337   */\n    tag_87:\n        /* \"#utility.yul\":2306:2330   */\n      tag_131\n        /* \"#utility.yul\":2324:2329   */\n      dup2\n        /* \"#utility.yul\":2306:2330   */\n      tag_82\n      jump\t// in\n    tag_131:\n        /* \"#utility.yul\":2301:2304   */\n      dup3\n        /* \"#utility.yul\":2294:2331   */\n      mstore\n        /* \"#utility.yul\":2219:2337   */\n      pop\n      pop\n      jump\t// out\n        /* \"#utility.yul\":2343:2565   */\n    tag_42:\n        /* \"#utility.yul\":2436:2440   */\n      0x00\n        /* \"#utility.yul\":2474:2476   */\n      0x20\n        /* \"#utility.yul\":2463:2472   */\n      dup3\n        /* \"#utility.yul\":2459:2477   */\n      add\n        /* \"#utility.yul\":2451:2477   */\n      swap1\n      pop\n        /* \"#utility.yul\":2487:2558   */\n      tag_133\n        /* \"#utility.yul\":2555:2556   */\n      0x00\n        /* \"#utility.yul\":2544:2553   */\n      dup4\n        /* \"#utility.yul\":2540:2557   */\n      add\n        /* \"#utility.yul\":2531:2537   */\n      dup5\n        /* \"#utility.yul\":2487:2558   */\n      tag_87\n      jump\t// in\n    tag_133:\n        /* \"#utility.yul\":2343:2565   */\n      swap3\n      swap2\n      pop\n      pop\n      jump\t// out\n        /* \"#utility.yul\":2571:2714   */\n    tag_88:\n        /* \"#utility.yul\":2628:2633   */\n      0x00\n        /* \"#utility.yul\":2659:2665   */\n      dup2\n        /* \"#utility.yul\":2653:2666   */\n      mload\n        /* \"#utility.yul\":2644:2666   */\n      swap1\n      pop\n        /* \"#utility.yul\":2675:2708   */\n      tag_135\n        /* \"#utility.yul\":2702:2707   */\n      dup2\n        /* \"#utility.yul\":2675:2708   */\n      tag_85\n      jump\t// in\n    tag_135:\n        /* \"#utility.yul\":2571:2714   */\n      swap3\n      swap2\n      pop\n      pop\n      jump\t// out\n        /* \"#utility.yul\":2720:3071   */\n    tag_51:\n        /* \"#utility.yul\":2790:2796   */\n      0x00\n        /* \"#utility.yul\":2839:2841   */\n      0x20\n        /* \"#utility.yul\":2827:2836   */\n      dup3\n        /* \"#utility.yul\":2818:2825   */\n      dup5\n        /* \"#utility.yul\":2814:2837   */\n      sub\n        /* \"#utility.yul\":2810:2842   */\n      slt\n        /* \"#utility.yul\":2807:2926   */\n      iszero\n      tag_137\n      jumpi\n        /* \"#utility.yul\":2845:2924   */\n      tag_138\n      tag_79\n      jump\t// in\n    tag_138:\n        /* \"#utility.yul\":2807:2926   */\n    tag_137:\n        /* \"#utility.yul\":2965:2966   */\n      0x00\n        /* \"#utility.yul\":2990:3054   */\n      tag_139\n        /* \"#utility.yul\":3046:3053   */\n      dup5\n        /* \"#utility.yul\":3037:3043   */\n      dup3\n        /* \"#utility.yul\":3026:3035   */\n      dup6\n        /* \"#utility.yul\":3022:3044   */\n      add\n        /* \"#utility.yul\":2990:3054   */\n      tag_88\n      jump\t// in\n    tag_139:\n        /* \"#utility.yul\":2980:3054   */\n      swap2\n      pop\n        /* \"#utility.yul\":2936:3064   */\n      pop\n        /* \"#utility.yul\":2720:3071   */\n      swap3\n      swap2\n      pop\n      pop\n      jump\t// out\n        /* \"#utility.yul\":3077:3257   */\n    tag_89:\n        /* \"#utility.yul\":3125:3202   */\n      0x4e487b7100000000000000000000000000000000000000000000000000000000\n        /* \"#utility.yul\":3122:3123   */\n      0x00\n        /* \"#utility.yul\":3115:3203   */\n      mstore\n        /* \"#utility.yul\":3222:3226   */\n      0x11\n        /* \"#utility.yul\":3219:3220   */\n      0x04\n        /* \"#utility.yul\":3212:3227   */\n      mstore\n        /* \"#utility.yul\":3246:3250   */\n      0x24\n        /* \"#utility.yul\":3243:3244   */\n      0x00\n        /* \"#utility.yul\":3236:3251   */\n      revert\n        /* \"#utility.yul\":3263:3673   */\n    tag_56:\n        /* \"#utility.yul\":3303:3310   */\n      0x00\n        /* \"#utility.yul\":3326:3346   */\n      tag_142\n        /* \"#utility.yul\":3344:3345   */\n      dup3\n        /* \"#utility.yul\":3326:3346   */\n      tag_76\n      jump\t// in\n    tag_142:\n        /* \"#utility.yul\":3321:3346   */\n      swap2\n      pop\n        /* \"#utility.yul\":3360:3380   */\n      tag_143\n        /* \"#utility.yul\":3378:3379   */\n      dup4\n        /* \"#utility.yul\":3360:3380   */\n      tag_76\n      jump\t// in\n    tag_143:\n        /* \"#utility.yul\":3355:3380   */\n      swap3\n      pop\n        /* \"#utility.yul\":3415:3416   */\n      dup3\n        /* \"#utility.yul\":3412:3413   */\n      dup3\n        /* \"#utility.yul\":3408:3417   */\n      mul\n        /* \"#utility.yul\":3437:3467   */\n      tag_144\n        /* \"#utility.yul\":3455:3466   */\n      dup2\n        /* \"#utility.yul\":3437:3467   */\n      tag_76\n      jump\t// in\n    tag_144:\n        /* \"#utility.yul\":3426:3467   */\n      swap2\n      pop\n        /* \"#utility.yul\":3616:3617   */\n      dup3\n        /* \"#utility.yul\":3607:3614   */\n      dup3\n        /* \"#utility.yul\":3603:3618   */\n      div\n        /* \"#utility.yul\":3600:3601   */\n      dup5\n        /* \"#utility.yul\":3597:3619   */\n      eq\n        /* \"#utility.yul\":3577:3578   */\n      dup4\n        /* \"#utility.yul\":3570:3579   */\n      iszero\n        /* \"#utility.yul\":3550:3633   */\n      or\n        /* \"#utility.yul\":3527:3666   */\n      tag_145\n      jumpi\n        /* \"#utility.yul\":3646:3664   */\n      tag_146\n      tag_89\n      jump\t// in\n    tag_146:\n        /* \"#utility.yul\":3527:3666   */\n    tag_145:\n        /* \"#utility.yul\":3311:3673   */\n      pop\n        /* \"#utility.yul\":3263:3673   */\n      swap3\n      swap2\n      pop\n      pop\n      jump\t// out\n        /* \"#utility.yul\":3679:3859   */\n    tag_90:\n        /* \"#utility.yul\":3727:3804   */\n      0x4e487b7100000000000000000000000000000000000000000000000000000000\n        /* \"#utility.yul\":3724:3725   */\n      0x00\n        /* \"#utility.yul\":3717:3805   */\n      mstore\n        /* \"#utility.yul\":3824:3828   */\n      0x12\n        /* \"#utility.yul\":3821:3822   */\n      0x04\n        /* \"#utility.yul\":3814:3829   */\n      mstore\n        /* \"#utility.yul\":3848:3852   */\n      0x24\n        /* \"#utility.yul\":3845:3846   */\n      0x00\n        /* \"#utility.yul\":3838:3853   */\n      revert\n        /* \"#utility.yul\":3865:4050   */\n    tag_58:\n        /* \"#utility.yul\":3905:3906   */\n      0x00\n        /* \"#utility.yul\":3922:3942   */\n      tag_149\n        /* \"#utility.yul\":3940:3941   */\n      dup3\n        /* \"#utility.yul\":3922:3942   */\n      tag_76\n      jump\t// in\n    tag_149:\n        /* \"#utility.yul\":3917:3942   */\n      swap2\n      pop\n        /* \"#utility.yul\":3956:3976   */\n      tag_150\n        /* \"#utility.yul\":3974:3975   */\n      dup4\n        /* \"#utility.yul\":3956:3976   */\n      tag_76\n      jump\t// in\n    tag_150:\n        /* \"#utility.yul\":3951:3976   */\n      swap3\n      pop\n        /* \"#utility.yul\":3995:3996   */\n      dup3\n        /* \"#utility.yul\":3985:4020   */\n      tag_151\n      jumpi\n        /* \"#utility.yul\":4000:4018   */\n      tag_152\n      tag_90\n      jump\t// in\n    tag_152:\n        /* \"#utility.yul\":3985:4020   */\n    tag_151:\n        /* \"#utility.yul\":4042:4043   */\n      dup3\n        /* \"#utility.yul\":4039:4040   */\n      dup3\n        /* \"#utility.yul\":4035:4044   */\n      div\n        /* \"#utility.yul\":4030:4044   */\n      swap1\n      pop\n        /* \"#utility.yul\":3865:4050   */\n      swap3\n      swap2\n      pop\n      pop\n      jump\t// out\n        /* \"#utility.yul\":4056:4161   */\n    tag_91:\n        /* \"#utility.yul\":4092:4099   */\n      0x00\n        /* \"#utility.yul\":4132:4154   */\n      0xffffffffffffffffffff\n        /* \"#utility.yul\":4125:4130   */\n      dup3\n        /* \"#utility.yul\":4121:4155   */\n      and\n        /* \"#utility.yul\":4110:4155   */\n      swap1\n      pop\n        /* \"#utility.yul\":4056:4161   */\n      swap2\n      swap1\n      pop\n      jump\t// out\n        /* \"#utility.yul\":4167:4287   */\n    tag_92:\n        /* \"#utility.yul\":4239:4262   */\n      tag_155\n        /* \"#utility.yul\":4256:4261   */\n      dup2\n        /* \"#utility.yul\":4239:4262   */\n      tag_91\n      jump\t// in\n    tag_155:\n        /* \"#utility.yul\":4232:4237   */\n      dup2\n        /* \"#utility.yul\":4229:4263   */\n      eq\n        /* \"#utility.yul\":4219:4281   */\n      tag_156\n      jumpi\n        /* \"#utility.yul\":4277:4278   */\n      0x00\n        /* \"#utility.yul\":4274:4275   */\n      dup1\n        /* \"#utility.yul\":4267:4279   */\n      revert\n        /* \"#utility.yul\":4219:4281   */\n    tag_156:\n        /* \"#utility.yul\":4167:4287   */\n      pop\n      jump\t// out\n        /* \"#utility.yul\":4293:4434   */\n    tag_93:\n        /* \"#utility.yul\":4349:4354   */\n      0x00\n        /* \"#utility.yul\":4380:4386   */\n      dup2\n        /* \"#utility.yul\":4374:4387   */\n      mload\n        /* \"#utility.yul\":4365:4387   */\n      swap1\n      pop\n        /* \"#utility.yul\":4396:4428   */\n      tag_158\n        /* \"#utility.yul\":4422:4427   */\n      dup2\n        /* \"#utility.yul\":4396:4428   */\n      tag_92\n      jump\t// in\n    tag_158:\n        /* \"#utility.yul\":4293:4434   */\n      swap3\n      swap2\n      pop\n      pop\n      jump\t// out\n        /* \"#utility.yul\":4440:4516   */\n    tag_94:\n        /* \"#utility.yul\":4476:4483   */\n      0x00\n        /* \"#utility.yul\":4505:4510   */\n      dup2\n        /* \"#utility.yul\":4494:4510   */\n      swap1\n      pop\n        /* \"#utility.yul\":4440:4516   */\n      swap2\n      swap1\n      pop\n      jump\t// out\n        /* \"#utility.yul\":4522:4642   */\n    tag_95:\n        /* \"#utility.yul\":4594:4617   */\n      tag_161\n        /* \"#utility.yul\":4611:4616   */\n      dup2\n        /* \"#utility.yul\":4594:4617   */\n      tag_94\n      jump\t// in\n    tag_161:\n        /* \"#utility.yul\":4587:4592   */\n      dup2\n        /* \"#utility.yul\":4584:4618   */\n      eq\n        /* \"#utility.yul\":4574:4636   */\n      tag_162\n      jumpi\n        /* \"#utility.yul\":4632:4633   */\n      0x00\n        /* \"#utility.yul\":4629:4630   */\n      dup1\n        /* \"#utility.yul\":4622:4634   */\n      revert\n        /* \"#utility.yul\":4574:4636   */\n    tag_162:\n        /* \"#utility.yul\":4522:4642   */\n      pop\n      jump\t// out\n        /* \"#utility.yul\":4648:4789   */\n    tag_96:\n        /* \"#utility.yul\":4704:4709   */\n      0x00\n        /* \"#utility.yul\":4735:4741   */\n      dup2\n        /* \"#utility.yul\":4729:4742   */\n      mload\n        /* \"#utility.yul\":4720:4742   */\n      swap1\n      pop\n        /* \"#utility.yul\":4751:4783   */\n      tag_164\n        /* \"#utility.yul\":4777:4782   */\n      dup2\n        /* \"#utility.yul\":4751:4783   */\n      tag_95\n      jump\t// in\n    tag_164:\n        /* \"#utility.yul\":4648:4789   */\n      swap3\n      swap2\n      pop\n      pop\n      jump\t// out\n        /* \"#utility.yul\":4795:5766   */\n    tag_63:\n        /* \"#utility.yul\":4898:4904   */\n      0x00\n        /* \"#utility.yul\":4906:4912   */\n      dup1\n        /* \"#utility.yul\":4914:4920   */\n      0x00\n        /* \"#utility.yul\":4922:4928   */\n      dup1\n        /* \"#utility.yul\":4930:4936   */\n      0x00\n        /* \"#utility.yul\":4979:4982   */\n      0xa0\n        /* \"#utility.yul\":4967:4976   */\n      dup7\n        /* \"#utility.yul\":4958:4965   */\n      dup9\n        /* \"#utility.yul\":4954:4977   */\n      sub\n        /* \"#utility.yul\":4950:4983   */\n      slt\n        /* \"#utility.yul\":4947:5067   */\n      iszero\n      tag_166\n      jumpi\n        /* \"#utility.yul\":4986:5065   */\n      tag_167\n      tag_79\n      jump\t// in\n    tag_167:\n        /* \"#utility.yul\":4947:5067   */\n    tag_166:\n        /* \"#utility.yul\":5106:5107   */\n      0x00\n        /* \"#utility.yul\":5131:5194   */\n      tag_168\n        /* \"#utility.yul\":5186:5193   */\n      dup9\n        /* \"#utility.yul\":5177:5183   */\n      dup3\n        /* \"#utility.yul\":5166:5175   */\n      dup10\n        /* \"#utility.yul\":5162:5184   */\n      add\n        /* \"#utility.yul\":5131:5194   */\n      tag_93\n      jump\t// in\n    tag_168:\n        /* \"#utility.yul\":5121:5194   */\n      swap6\n      pop\n        /* \"#utility.yul\":5077:5204   */\n      pop\n        /* \"#utility.yul\":5243:5245   */\n      0x20\n        /* \"#utility.yul\":5269:5332   */\n      tag_169\n        /* \"#utility.yul\":5324:5331   */\n      dup9\n        /* \"#utility.yul\":5315:5321   */\n      dup3\n        /* \"#utility.yul\":5304:5313   */\n      dup10\n        /* \"#utility.yul\":5300:5322   */\n      add\n        /* \"#utility.yul\":5269:5332   */\n      tag_96\n      jump\t// in\n    tag_169:\n        /* \"#utility.yul\":5259:5332   */\n      swap5\n      pop\n        /* \"#utility.yul\":5214:5342   */\n      pop\n        /* \"#utility.yul\":5381:5383   */\n      0x40\n        /* \"#utility.yul\":5407:5471   */\n      tag_170\n        /* \"#utility.yul\":5463:5470   */\n      dup9\n        /* \"#utility.yul\":5454:5460   */\n      dup3\n        /* \"#utility.yul\":5443:5452   */\n      dup10\n        /* \"#utility.yul\":5439:5461   */\n      add\n        /* \"#utility.yul\":5407:5471   */\n      tag_88\n      jump\t// in\n    tag_170:\n        /* \"#utility.yul\":5397:5471   */\n      swap4\n      pop\n        /* \"#utility.yul\":5352:5481   */\n      pop\n        /* \"#utility.yul\":5520:5522   */\n      0x60\n        /* \"#utility.yul\":5546:5610   */\n      tag_171\n        /* \"#utility.yul\":5602:5609   */\n      dup9\n        /* \"#utility.yul\":5593:5599   */\n      dup3\n        /* \"#utility.yul\":5582:5591   */\n      dup10\n        /* \"#utility.yul\":5578:5600   */\n      add\n        /* \"#utility.yul\":5546:5610   */\n      tag_88\n      jump\t// in\n    tag_171:\n        /* \"#utility.yul\":5536:5610   */\n      swap3\n      pop\n        /* \"#utility.yul\":5491:5620   */\n      pop\n        /* \"#utility.yul\":5659:5662   */\n      0x80\n        /* \"#utility.yul\":5686:5749   */\n      tag_172\n        /* \"#utility.yul\":5741:5748   */\n      dup9\n        /* \"#utility.yul\":5732:5738   */\n      dup3\n        /* \"#utility.yul\":5721:5730   */\n      dup10\n        /* \"#utility.yul\":5717:5739   */\n      add\n        /* \"#utility.yul\":5686:5749   */\n      tag_93\n      jump\t// in\n    tag_172:\n        /* \"#utility.yul\":5676:5749   */\n      swap2\n      pop\n        /* \"#utility.yul\":5630:5759   */\n      pop\n        /* \"#utility.yul\":4795:5766   */\n      swap3\n      swap6\n      pop\n      swap3\n      swap6\n      swap1\n      swap4\n      pop\n      jump\t// out\n        /* \"#utility.yul\":5772:6328   */\n    tag_65:\n        /* \"#utility.yul\":5811:5818   */\n      0x00\n        /* \"#utility.yul\":5834:5853   */\n      tag_174\n        /* \"#utility.yul\":5851:5852   */\n      dup3\n        /* \"#utility.yul\":5834:5853   */\n      tag_94\n      jump\t// in\n    tag_174:\n        /* \"#utility.yul\":5829:5853   */\n      swap2\n      pop\n        /* \"#utility.yul\":5867:5886   */\n      tag_175\n        /* \"#utility.yul\":5884:5885   */\n      dup4\n        /* \"#utility.yul\":5867:5886   */\n      tag_94\n      jump\t// in\n    tag_175:\n        /* \"#utility.yul\":5862:5886   */\n      swap3\n      pop\n        /* \"#utility.yul\":5921:5922   */\n      dup3\n        /* \"#utility.yul\":5918:5919   */\n      dup3\n        /* \"#utility.yul\":5914:5923   */\n      mul\n        /* \"#utility.yul\":5943:5972   */\n      tag_176\n        /* \"#utility.yul\":5960:5971   */\n      dup2\n        /* \"#utility.yul\":5943:5972   */\n      tag_94\n      jump\t// in\n    tag_176:\n        /* \"#utility.yul\":5932:5972   */\n      swap2\n      pop\n        /* \"#utility.yul\":6030:6096   */\n      0x8000000000000000000000000000000000000000000000000000000000000000\n        /* \"#utility.yul\":6027:6028   */\n      dup5\n        /* \"#utility.yul\":6024:6097   */\n      eq\n        /* \"#utility.yul\":6020:6021   */\n      0x00\n        /* \"#utility.yul\":6017:6018   */\n      dup5\n        /* \"#utility.yul\":6013:6022   */\n      slt\n        /* \"#utility.yul\":6009:6098   */\n      and\n        /* \"#utility.yul\":6006:6121   */\n      iszero\n      tag_177\n      jumpi\n        /* \"#utility.yul\":6101:6119   */\n      tag_178\n      tag_89\n      jump\t// in\n    tag_178:\n        /* \"#utility.yul\":6006:6121   */\n    tag_177:\n        /* \"#utility.yul\":6271:6272   */\n      dup3\n        /* \"#utility.yul\":6262:6269   */\n      dup3\n        /* \"#utility.yul\":6257:6273   */\n      sdiv\n        /* \"#utility.yul\":6254:6255   */\n      dup5\n        /* \"#utility.yul\":6251:6274   */\n      eq\n        /* \"#utility.yul\":6231:6232   */\n      dup4\n        /* \"#utility.yul\":6224:6233   */\n      iszero\n        /* \"#utility.yul\":6204:6288   */\n      or\n        /* \"#utility.yul\":6181:6321   */\n      tag_179\n      jumpi\n        /* \"#utility.yul\":6301:6319   */\n      tag_180\n      tag_89\n      jump\t// in\n    tag_180:\n        /* \"#utility.yul\":6181:6321   */\n    tag_179:\n        /* \"#utility.yul\":5819:6328   */\n      pop\n        /* \"#utility.yul\":5772:6328   */\n      swap3\n      swap2\n      pop\n      pop\n      jump\t// out\n        /* \"#utility.yul\":6334:6503   */\n    tag_97:\n        /* \"#utility.yul\":6418:6429   */\n      0x00\n        /* \"#utility.yul\":6452:6458   */\n      dup3\n        /* \"#utility.yul\":6447:6450   */\n      dup3\n        /* \"#utility.yul\":6440:6459   */\n      mstore\n        /* \"#utility.yul\":6492:6496   */\n      0x20\n        /* \"#utility.yul\":6487:6490   */\n      dup3\n        /* \"#utility.yul\":6483:6497   */\n      add\n        /* \"#utility.yul\":6468:6497   */\n      swap1\n      pop\n        /* \"#utility.yul\":6334:6503   */\n      swap3\n      swap2\n      pop\n      pop\n      jump\t// out\n        /* \"#utility.yul\":6509:6743   */\n    tag_98:\n        /* \"#utility.yul\":6649:6683   */\n      0x57687920736f204b616e6a7573212053656e642074686520656e746972652061\n        /* \"#utility.yul\":6645:6646   */\n      0x00\n        /* \"#utility.yul\":6637:6643   */\n      dup3\n        /* \"#utility.yul\":6633:6647   */\n      add\n        /* \"#utility.yul\":6626:6684   */\n      mstore\n        /* \"#utility.yul\":6718:6735   */\n      0x6d6f756e74207370656369666965640000000000000000000000000000000000\n        /* \"#utility.yul\":6713:6715   */\n      0x20\n        /* \"#utility.yul\":6705:6711   */\n      dup3\n        /* \"#utility.yul\":6701:6716   */\n      add\n        /* \"#utility.yul\":6694:6736   */\n      mstore\n        /* \"#utility.yul\":6509:6743   */\n      pop\n      jump\t// out\n        /* \"#utility.yul\":6749:7115   */\n    tag_99:\n        /* \"#utility.yul\":6891:6894   */\n      0x00\n        /* \"#utility.yul\":6912:6979   */\n      tag_184\n        /* \"#utility.yul\":6976:6978   */\n      0x2f\n        /* \"#utility.yul\":6971:6974   */\n      dup4\n        /* \"#utility.yul\":6912:6979   */\n      tag_97\n      jump\t// in\n    tag_184:\n        /* \"#utility.yul\":6905:6979   */\n      swap2\n      pop\n        /* \"#utility.yul\":6988:7081   */\n      tag_185\n        /* \"#utility.yul\":7077:7080   */\n      dup3\n        /* \"#utility.yul\":6988:7081   */\n      tag_98\n      jump\t// in\n    tag_185:\n        /* \"#utility.yul\":7106:7108   */\n      0x40\n        /* \"#utility.yul\":7101:7104   */\n      dup3\n        /* \"#utility.yul\":7097:7109   */\n      add\n        /* \"#utility.yul\":7090:7109   */\n      swap1\n      pop\n        /* \"#utility.yul\":6749:7115   */\n      swap2\n      swap1\n      pop\n      jump\t// out\n        /* \"#utility.yul\":7121:7540   */\n    tag_70:\n        /* \"#utility.yul\":7287:7291   */\n      0x00\n        /* \"#utility.yul\":7325:7327   */\n      0x20\n        /* \"#utility.yul\":7314:7323   */\n      dup3\n        /* \"#utility.yul\":7310:7328   */\n      add\n        /* \"#utility.yul\":7302:7328   */\n      swap1\n      pop\n        /* \"#utility.yul\":7374:7383   */\n      dup2\n        /* \"#utility.yul\":7368:7372   */\n      dup2\n        /* \"#utility.yul\":7364:7384   */\n      sub\n        /* \"#utility.yul\":7360:7361   */\n      0x00\n        /* \"#utility.yul\":7349:7358   */\n      dup4\n        /* \"#utility.yul\":7345:7362   */\n      add\n        /* \"#utility.yul\":7338:7385   */\n      mstore\n        /* \"#utility.yul\":7402:7533   */\n      tag_187\n        /* \"#utility.yul\":7528:7532   */\n      dup2\n        /* \"#utility.yul\":7402:7533   */\n      tag_99\n      jump\t// in\n    tag_187:\n        /* \"#utility.yul\":7394:7533   */\n      swap1\n      pop\n        /* \"#utility.yul\":7121:7540   */\n      swap2\n      swap1\n      pop\n      jump\t// out\n        /* \"#utility.yul\":7546:7737   */\n    tag_73:\n        /* \"#utility.yul\":7586:7589   */\n      0x00\n        /* \"#utility.yul\":7605:7625   */\n      tag_189\n        /* \"#utility.yul\":7623:7624   */\n      dup3\n        /* \"#utility.yul\":7605:7625   */\n      tag_76\n      jump\t// in\n    tag_189:\n        /* \"#utility.yul\":7600:7625   */\n      swap2\n      pop\n        /* \"#utility.yul\":7639:7659   */\n      tag_190\n        /* \"#utility.yul\":7657:7658   */\n      dup4\n        /* \"#utility.yul\":7639:7659   */\n      tag_76\n      jump\t// in\n    tag_190:\n        /* \"#utility.yul\":7634:7659   */\n      swap3\n      pop\n        /* \"#utility.yul\":7682:7683   */\n      dup3\n        /* \"#utility.yul\":7679:7680   */\n      dup3\n        /* \"#utility.yul\":7675:7684   */\n      add\n        /* \"#utility.yul\":7668:7684   */\n      swap1\n      pop\n        /* \"#utility.yul\":7703:7706   */\n      dup1\n        /* \"#utility.yul\":7700:7701   */\n      dup3\n        /* \"#utility.yul\":7697:7707   */\n      gt\n        /* \"#utility.yul\":7694:7730   */\n      iszero\n      tag_191\n      jumpi\n        /* \"#utility.yul\":7710:7728   */\n      tag_192\n      tag_89\n      jump\t// in\n    tag_192:\n        /* \"#utility.yul\":7694:7730   */\n    tag_191:\n        /* \"#utility.yul\":7546:7737   */\n      swap3\n      swap2\n      pop\n      pop\n      jump\t// out\n\n    auxdata: 0xa264697066735822122071d32d2bfdc290e0003bfbd8c4701cbf6ed6a201dd4e5fdb397fbfb32c8c564a64736f6c634300081a0033\n}\n",
				"bytecode": {
					"linkReferences": {},
					"object": "6080604052676124fee993bc00005f553480156019575f80fd5b50610969806100275f395ff3fe60806040526004361061007a575f3560e01c806398d5fdca1161004d57806398d5fdca14610136578063b60d428814610160578063dc0d3dff1461016a578063dc992aa0146101a65761007a565b80630d8e6e2c1461007e5780633ccfd60b146100a85780633e47d6f3146100be5780636e5b6b28146100fa575b5f80fd5b348015610089575f80fd5b506100926101d0565b60405161009f91906104da565b60405180910390f35b3480156100b3575f80fd5b506100bc610257565b005b3480156100c9575f80fd5b506100e460048036038101906100df9190610551565b610259565b6040516100f191906104da565b60405180910390f35b348015610105575f80fd5b50610120600480360381019061011b91906105a6565b61026e565b60405161012d91906104da565b60405180910390f35b348015610141575f80fd5b5061014a6102a6565b60405161015791906104da565b60405180910390f35b61016861034b565b005b348015610175575f80fd5b50610190600480360381019061018b91906105a6565b610482565b60405161019d91906105e0565b60405180910390f35b3480156101b1575f80fd5b506101ba6104bd565b6040516101c791906104da565b60405180910390f35b5f73694aa1769357215de4fac081bf1f309adc32530673ffffffffffffffffffffffffffffffffffffffff166354fd4d506040518163ffffffff1660e01b8152600401602060405180830381865afa15801561022e573d5f803e3d5ffd5b505050506040513d601f19601f82011682018060405250810190610252919061060d565b905090565b565b6002602052805f5260405f205f915090505481565b5f806102786102a6565b90505f670de0b6b3a764000084836102909190610665565b61029a91906106d3565b90508092505050919050565b5f8073694aa1769357215de4fac081bf1f309adc32530690505f8173ffffffffffffffffffffffffffffffffffffffff1663feaf968c6040518163ffffffff1660e01b815260040160a060405180830381865afa158015610309573d5f803e3d5ffd5b505050506040513d601f19601f8201168201806040525081019061032d9190610775565b5050509150506402540be4008161034491906107ec565b9250505090565b5f546103563461026e565b11610396576040517f08c379a000000000000000000000000000000000000000000000000000000000815260040161038d906108e2565b60405180910390fd5b600133908060018154018082558091505060019003905f5260205f20015f9091909190916101000a81548173ffffffffffffffffffffffffffffffffffffffff021916908373ffffffffffffffffffffffffffffffffffffffff1602179055503460025f3373ffffffffffffffffffffffffffffffffffffffff1673ffffffffffffffffffffffffffffffffffffffff1681526020019081526020015f205461043f9190610900565b60025f3373ffffffffffffffffffffffffffffffffffffffff1673ffffffffffffffffffffffffffffffffffffffff1681526020019081526020015f2081905550565b60018181548110610491575f80fd5b905f5260205f20015f915054906101000a900473ffffffffffffffffffffffffffffffffffffffff1681565b5f5481565b5f819050919050565b6104d4816104c2565b82525050565b5f6020820190506104ed5f8301846104cb565b92915050565b5f80fd5b5f73ffffffffffffffffffffffffffffffffffffffff82169050919050565b5f610520826104f7565b9050919050565b61053081610516565b811461053a575f80fd5b50565b5f8135905061054b81610527565b92915050565b5f60208284031215610566576105656104f3565b5b5f6105738482850161053d565b91505092915050565b610585816104c2565b811461058f575f80fd5b50565b5f813590506105a08161057c565b92915050565b5f602082840312156105bb576105ba6104f3565b5b5f6105c884828501610592565b91505092915050565b6105da81610516565b82525050565b5f6020820190506105f35f8301846105d1565b92915050565b5f815190506106078161057c565b92915050565b5f60208284031215610622576106216104f3565b5b5f61062f848285016105f9565b91505092915050565b7f4e487b71000000000000000000000000000000000000000000000000000000005f52601160045260245ffd5b5f61066f826104c2565b915061067a836104c2565b9250828202610688816104c2565b9150828204841483151761069f5761069e610638565b5b5092915050565b7f4e487b71000000000000000000000000000000000000000000000000000000005f52601260045260245ffd5b5f6106dd826104c2565b91506106e8836104c2565b9250826106f8576106f76106a6565b5b828204905092915050565b5f69ffffffffffffffffffff82169050919050565b61072181610703565b811461072b575f80fd5b50565b5f8151905061073c81610718565b92915050565b5f819050919050565b61075481610742565b811461075e575f80fd5b50565b5f8151905061076f8161074b565b92915050565b5f805f805f60a0868803121561078e5761078d6104f3565b5b5f61079b8882890161072e565b95505060206107ac88828901610761565b94505060406107bd888289016105f9565b93505060606107ce888289016105f9565b92505060806107df8882890161072e565b9150509295509295909350565b5f6107f682610742565b915061080183610742565b925082820261080f81610742565b91507f800000000000000000000000000000000000000000000000000000000000000084145f8412161561084657610845610638565b5b828205841483151761085b5761085a610638565b5b5092915050565b5f82825260208201905092915050565b7f57687920736f204b616e6a7573212053656e642074686520656e7469726520615f8201527f6d6f756e74207370656369666965640000000000000000000000000000000000602082015250565b5f6108cc602f83610862565b91506108d782610872565b604082019050919050565b5f6020820190508181035f8301526108f9816108c0565b9050919050565b5f61090a826104c2565b9150610915836104c2565b925082820190508082111561092d5761092c610638565b5b9291505056fea264697066735822122071d32d2bfdc290e0003bfbd8c4701cbf6ed6a201dd4e5fdb397fbfb32c8c564a64736f6c634300081a0033",
					"opcodes": "PUSH1 0x80 PUSH1 0x40 MSTORE PUSH8 0x6124FEE993BC0000 PUSH0 SSTORE CALLVALUE DUP1 ISZERO PUSH1 0x19 JUMPI PUSH0 DUP1 REVERT JUMPDEST POP PUSH2 0x969 DUP1 PUSH2 0x27 PUSH0 CODECOPY PUSH0 RETURN INVALID PUSH1 0x80 PUSH1 0x40 MSTORE PUSH1 0x4 CALLDATASIZE LT PUSH2 0x7A JUMPI PUSH0 CALLDATALOAD PUSH1 0xE0 SHR DUP1 PUSH4 0x98D5FDCA GT PUSH2 0x4D JUMPI DUP1 PUSH4 0x98D5FDCA EQ PUSH2 0x136 JUMPI DUP1 PUSH4 0xB60D4288 EQ PUSH2 0x160 JUMPI DUP1 PUSH4 0xDC0D3DFF EQ PUSH2 0x16A JUMPI DUP1 PUSH4 0xDC992AA0 EQ PUSH2 0x1A6 JUMPI PUSH2 0x7A JUMP JUMPDEST DUP1 PUSH4 0xD8E6E2C EQ PUSH2 0x7E JUMPI DUP1 PUSH4 0x3CCFD60B EQ PUSH2 0xA8 JUMPI DUP1 PUSH4 0x3E47D6F3 EQ PUSH2 0xBE JUMPI DUP1 PUSH4 0x6E5B6B28 EQ PUSH2 0xFA JUMPI JUMPDEST PUSH0 DUP1 REVERT JUMPDEST CALLVALUE DUP1 ISZERO PUSH2 0x89 JUMPI PUSH0 DUP1 REVERT JUMPDEST POP PUSH2 0x92 PUSH2 0x1D0 JUMP JUMPDEST PUSH1 0x40 MLOAD PUSH2 0x9F SWAP2 SWAP1 PUSH2 0x4DA JUMP JUMPDEST PUSH1 0x40 MLOAD DUP1 SWAP2 SUB SWAP1 RETURN JUMPDEST CALLVALUE DUP1 ISZERO PUSH2 0xB3 JUMPI PUSH0 DUP1 REVERT JUMPDEST POP PUSH2 0xBC PUSH2 0x257 JUMP JUMPDEST STOP JUMPDEST CALLVALUE DUP1 ISZERO PUSH2 0xC9 JUMPI PUSH0 DUP1 REVERT JUMPDEST POP PUSH2 0xE4 PUSH1 0x4 DUP1 CALLDATASIZE SUB DUP2 ADD SWAP1 PUSH2 0xDF SWAP2 SWAP1 PUSH2 0x551 JUMP JUMPDEST PUSH2 0x259 JUMP JUMPDEST PUSH1 0x40 MLOAD PUSH2 0xF1 SWAP2 SWAP1 PUSH2 0x4DA JUMP JUMPDEST PUSH1 0x40 MLOAD DUP1 SWAP2 SUB SWAP1 RETURN JUMPDEST CALLVALUE DUP1 ISZERO PUSH2 0x105 JUMPI PUSH0 DUP1 REVERT JUMPDEST POP PUSH2 0x120 PUSH1 0x4 DUP1 CALLDATASIZE SUB DUP2 ADD SWAP1 PUSH2 0x11B SWAP2 SWAP1 PUSH2 0x5A6 JUMP JUMPDEST PUSH2 0x26E JUMP JUMPDEST PUSH1 0x40 MLOAD PUSH2 0x12D SWAP2 SWAP1 PUSH2 0x4DA JUMP JUMPDEST PUSH1 0x40 MLOAD DUP1 SWAP2 SUB SWAP1 RETURN JUMPDEST CALLVALUE DUP1 ISZERO PUSH2 0x141 JUMPI PUSH0 DUP1 REVERT JUMPDEST POP PUSH2 0x14A PUSH2 0x2A6 JUMP JUMPDEST PUSH1 0x40 MLOAD PUSH2 0x157 SWAP2 SWAP1 PUSH2 0x4DA JUMP JUMPDEST PUSH1 0x40 MLOAD DUP1 SWAP2 SUB SWAP1 RETURN JUMPDEST PUSH2 0x168 PUSH2 0x34B JUMP JUMPDEST STOP JUMPDEST CALLVALUE DUP1 ISZERO PUSH2 0x175 JUMPI PUSH0 DUP1 REVERT JUMPDEST POP PUSH2 0x190 PUSH1 0x4 DUP1 CALLDATASIZE SUB DUP2 ADD SWAP1 PUSH2 0x18B SWAP2 SWAP1 PUSH2 0x5A6 JUMP JUMPDEST PUSH2 0x482 JUMP JUMPDEST PUSH1 0x40 MLOAD PUSH2 0x19D SWAP2 SWAP1 PUSH2 0x5E0 JUMP JUMPDEST PUSH1 0x40 MLOAD DUP1 SWAP2 SUB SWAP1 RETURN JUMPDEST CALLVALUE DUP1 ISZERO PUSH2 0x1B1 JUMPI PUSH0 DUP1 REVERT JUMPDEST POP PUSH2 0x1BA PUSH2 0x4BD JUMP JUMPDEST PUSH1 0x40 MLOAD PUSH2 0x1C7 SWAP2 SWAP1 PUSH2 0x4DA JUMP JUMPDEST PUSH1 0x40 MLOAD DUP1 SWAP2 SUB SWAP1 RETURN JUMPDEST PUSH0 PUSH20 0x694AA1769357215DE4FAC081BF1F309ADC325306 PUSH20 0xFFFFFFFFFFFFFFFFFFFFFFFFFFFFFFFFFFFFFFFF AND PUSH4 0x54FD4D50 PUSH1 0x40 MLOAD DUP2 PUSH4 0xFFFFFFFF AND PUSH1 0xE0 SHL DUP2 MSTORE PUSH1 0x4 ADD PUSH1 0x20 PUSH1 0x40 MLOAD DUP1 DUP4 SUB DUP2 DUP7 GAS STATICCALL ISZERO DUP1 ISZERO PUSH2 0x22E JUMPI RETURNDATASIZE PUSH0 DUP1 RETURNDATACOPY RETURNDATASIZE PUSH0 REVERT JUMPDEST POP POP POP POP PUSH1 0x40 MLOAD RETURNDATASIZE PUSH1 0x1F NOT PUSH1 0x1F DUP3 ADD AND DUP3 ADD DUP1 PUSH1 0x40 MSTORE POP DUP2 ADD SWAP1 PUSH2 0x252 SWAP2 SWAP1 PUSH2 0x60D JUMP JUMPDEST SWAP1 POP SWAP1 JUMP JUMPDEST JUMP JUMPDEST PUSH1 0x2 PUSH1 0x20 MSTORE DUP1 PUSH0 MSTORE PUSH1 0x40 PUSH0 KECCAK256 PUSH0 SWAP2 POP SWAP1 POP SLOAD DUP2 JUMP JUMPDEST PUSH0 DUP1 PUSH2 0x278 PUSH2 0x2A6 JUMP JUMPDEST SWAP1 POP PUSH0 PUSH8 0xDE0B6B3A7640000 DUP5 DUP4 PUSH2 0x290 SWAP2 SWAP1 PUSH2 0x665 JUMP JUMPDEST PUSH2 0x29A SWAP2 SWAP1 PUSH2 0x6D3 JUMP JUMPDEST SWAP1 POP DUP1 SWAP3 POP POP POP SWAP2 SWAP1 POP JUMP JUMPDEST PUSH0 DUP1 PUSH20 0x694AA1769357215DE4FAC081BF1F309ADC325306 SWAP1 POP PUSH0 DUP2 PUSH20 0xFFFFFFFFFFFFFFFFFFFFFFFFFFFFFFFFFFFFFFFF AND PUSH4 0xFEAF968C PUSH1 0x40 MLOAD DUP2 PUSH4 0xFFFFFFFF AND PUSH1 0xE0 SHL DUP2 MSTORE PUSH1 0x4 ADD PUSH1 0xA0 PUSH1 0x40 MLOAD DUP1 DUP4 SUB DUP2 DUP7 GAS STATICCALL ISZERO DUP1 ISZERO PUSH2 0x309 JUMPI RETURNDATASIZE PUSH0 DUP1 RETURNDATACOPY RETURNDATASIZE PUSH0 REVERT JUMPDEST POP POP POP POP PUSH1 0x40 MLOAD RETURNDATASIZE PUSH1 0x1F NOT PUSH1 0x1F DUP3 ADD AND DUP3 ADD DUP1 PUSH1 0x40 MSTORE POP DUP2 ADD SWAP1 PUSH2 0x32D SWAP2 SWAP1 PUSH2 0x775 JUMP JUMPDEST POP POP POP SWAP2 POP POP PUSH5 0x2540BE400 DUP2 PUSH2 0x344 SWAP2 SWAP1 PUSH2 0x7EC JUMP JUMPDEST SWAP3 POP POP POP SWAP1 JUMP JUMPDEST PUSH0 SLOAD PUSH2 0x356 CALLVALUE PUSH2 0x26E JUMP JUMPDEST GT PUSH2 0x396 JUMPI PUSH1 0x40 MLOAD PUSH32 0x8C379A000000000000000000000000000000000000000000000000000000000 DUP2 MSTORE PUSH1 0x4 ADD PUSH2 0x38D SWAP1 PUSH2 0x8E2 JUMP JUMPDEST PUSH1 0x40 MLOAD DUP1 SWAP2 SUB SWAP1 REVERT JUMPDEST PUSH1 0x1 CALLER SWAP1 DUP1 PUSH1 0x1 DUP2 SLOAD ADD DUP1 DUP3 SSTORE DUP1 SWAP2 POP POP PUSH1 0x1 SWAP1 SUB SWAP1 PUSH0 MSTORE PUSH1 0x20 PUSH0 KECCAK256 ADD PUSH0 SWAP1 SWAP2 SWAP1 SWAP2 SWAP1 SWAP2 PUSH2 0x100 EXP DUP2 SLOAD DUP2 PUSH20 0xFFFFFFFFFFFFFFFFFFFFFFFFFFFFFFFFFFFFFFFF MUL NOT AND SWAP1 DUP4 PUSH20 0xFFFFFFFFFFFFFFFFFFFFFFFFFFFFFFFFFFFFFFFF AND MUL OR SWAP1 SSTORE POP CALLVALUE PUSH1 0x2 PUSH0 CALLER PUSH20 0xFFFFFFFFFFFFFFFFFFFFFFFFFFFFFFFFFFFFFFFF AND PUSH20 0xFFFFFFFFFFFFFFFFFFFFFFFFFFFFFFFFFFFFFFFF AND DUP2 MSTORE PUSH1 0x20 ADD SWAP1 DUP2 MSTORE PUSH1 0x20 ADD PUSH0 KECCAK256 SLOAD PUSH2 0x43F SWAP2 SWAP1 PUSH2 0x900 JUMP JUMPDEST PUSH1 0x2 PUSH0 CALLER PUSH20 0xFFFFFFFFFFFFFFFFFFFFFFFFFFFFFFFFFFFFFFFF AND PUSH20 0xFFFFFFFFFFFFFFFFFFFFFFFFFFFFFFFFFFFFFFFF AND DUP2 MSTORE PUSH1 0x20 ADD SWAP1 DUP2 MSTORE PUSH1 0x20 ADD PUSH0 KECCAK256 DUP2 SWAP1 SSTORE POP JUMP JUMPDEST PUSH1 0x1 DUP2 DUP2 SLOAD DUP2 LT PUSH2 0x491 JUMPI PUSH0 DUP1 REVERT JUMPDEST SWAP1 PUSH0 MSTORE PUSH1 0x20 PUSH0 KECCAK256 ADD PUSH0 SWAP2 POP SLOAD SWAP1 PUSH2 0x100 EXP SWAP1 DIV PUSH20 0xFFFFFFFFFFFFFFFFFFFFFFFFFFFFFFFFFFFFFFFF AND DUP2 JUMP JUMPDEST PUSH0 SLOAD DUP2 JUMP JUMPDEST PUSH0 DUP2 SWAP1 POP SWAP2 SWAP1 POP JUMP JUMPDEST PUSH2 0x4D4 DUP2 PUSH2 0x4C2 JUMP JUMPDEST DUP3 MSTORE POP POP JUMP JUMPDEST PUSH0 PUSH1 0x20 DUP3 ADD SWAP1 POP PUSH2 0x4ED PUSH0 DUP4 ADD DUP5 PUSH2 0x4CB JUMP JUMPDEST SWAP3 SWAP2 POP POP JUMP JUMPDEST PUSH0 DUP1 REVERT JUMPDEST PUSH0 PUSH20 0xFFFFFFFFFFFFFFFFFFFFFFFFFFFFFFFFFFFFFFFF DUP3 AND SWAP1 POP SWAP2 SWAP1 POP JUMP JUMPDEST PUSH0 PUSH2 0x520 DUP3 PUSH2 0x4F7 JUMP JUMPDEST SWAP1 POP SWAP2 SWAP1 POP JUMP JUMPDEST PUSH2 0x530 DUP2 PUSH2 0x516 JUMP JUMPDEST DUP2 EQ PUSH2 0x53A JUMPI PUSH0 DUP1 REVERT JUMPDEST POP JUMP JUMPDEST PUSH0 DUP2 CALLDATALOAD SWAP1 POP PUSH2 0x54B DUP2 PUSH2 0x527 JUMP JUMPDEST SWAP3 SWAP2 POP POP JUMP JUMPDEST PUSH0 PUSH1 0x20 DUP3 DUP5 SUB SLT ISZERO PUSH2 0x566 JUMPI PUSH2 0x565 PUSH2 0x4F3 JUMP JUMPDEST JUMPDEST PUSH0 PUSH2 0x573 DUP5 DUP3 DUP6 ADD PUSH2 0x53D JUMP JUMPDEST SWAP2 POP POP SWAP3 SWAP2 POP POP JUMP JUMPDEST PUSH2 0x585 DUP2 PUSH2 0x4C2 JUMP JUMPDEST DUP2 EQ PUSH2 0x58F JUMPI PUSH0 DUP1 REVERT JUMPDEST POP JUMP JUMPDEST PUSH0 DUP2 CALLDATALOAD SWAP1 POP PUSH2 0x5A0 DUP2 PUSH2 0x57C JUMP JUMPDEST SWAP3 SWAP2 POP POP JUMP JUMPDEST PUSH0 PUSH1 0x20 DUP3 DUP5 SUB SLT ISZERO PUSH2 0x5BB JUMPI PUSH2 0x5BA PUSH2 0x4F3 JUMP JUMPDEST JUMPDEST PUSH0 PUSH2 0x5C8 DUP5 DUP3 DUP6 ADD PUSH2 0x592 JUMP JUMPDEST SWAP2 POP POP SWAP3 SWAP2 POP POP JUMP JUMPDEST PUSH2 0x5DA DUP2 PUSH2 0x516 JUMP JUMPDEST DUP3 MSTORE POP POP JUMP JUMPDEST PUSH0 PUSH1 0x20 DUP3 ADD SWAP1 POP PUSH2 0x5F3 PUSH0 DUP4 ADD DUP5 PUSH2 0x5D1 JUMP JUMPDEST SWAP3 SWAP2 POP POP JUMP JUMPDEST PUSH0 DUP2 MLOAD SWAP1 POP PUSH2 0x607 DUP2 PUSH2 0x57C JUMP JUMPDEST SWAP3 SWAP2 POP POP JUMP JUMPDEST PUSH0 PUSH1 0x20 DUP3 DUP5 SUB SLT ISZERO PUSH2 0x622 JUMPI PUSH2 0x621 PUSH2 0x4F3 JUMP JUMPDEST JUMPDEST PUSH0 PUSH2 0x62F DUP5 DUP3 DUP6 ADD PUSH2 0x5F9 JUMP JUMPDEST SWAP2 POP POP SWAP3 SWAP2 POP POP JUMP JUMPDEST PUSH32 0x4E487B7100000000000000000000000000000000000000000000000000000000 PUSH0 MSTORE PUSH1 0x11 PUSH1 0x4 MSTORE PUSH1 0x24 PUSH0 REVERT JUMPDEST PUSH0 PUSH2 0x66F DUP3 PUSH2 0x4C2 JUMP JUMPDEST SWAP2 POP PUSH2 0x67A DUP4 PUSH2 0x4C2 JUMP JUMPDEST SWAP3 POP DUP3 DUP3 MUL PUSH2 0x688 DUP2 PUSH2 0x4C2 JUMP JUMPDEST SWAP2 POP DUP3 DUP3 DIV DUP5 EQ DUP4 ISZERO OR PUSH2 0x69F JUMPI PUSH2 0x69E PUSH2 0x638 JUMP JUMPDEST JUMPDEST POP SWAP3 SWAP2 POP POP JUMP JUMPDEST PUSH32 0x4E487B7100000000000000000000000000000000000000000000000000000000 PUSH0 MSTORE PUSH1 0x12 PUSH1 0x4 MSTORE PUSH1 0x24 PUSH0 REVERT JUMPDEST PUSH0 PUSH2 0x6DD DUP3 PUSH2 0x4C2 JUMP JUMPDEST SWAP2 POP PUSH2 0x6E8 DUP4 PUSH2 0x4C2 JUMP JUMPDEST SWAP3 POP DUP3 PUSH2 0x6F8 JUMPI PUSH2 0x6F7 PUSH2 0x6A6 JUMP JUMPDEST JUMPDEST DUP3 DUP3 DIV SWAP1 POP SWAP3 SWAP2 POP POP JUMP JUMPDEST PUSH0 PUSH10 0xFFFFFFFFFFFFFFFFFFFF DUP3 AND SWAP1 POP SWAP2 SWAP1 POP JUMP JUMPDEST PUSH2 0x721 DUP2 PUSH2 0x703 JUMP JUMPDEST DUP2 EQ PUSH2 0x72B JUMPI PUSH0 DUP1 REVERT JUMPDEST POP JUMP JUMPDEST PUSH0 DUP2 MLOAD SWAP1 POP PUSH2 0x73C DUP2 PUSH2 0x718 JUMP JUMPDEST SWAP3 SWAP2 POP POP JUMP JUMPDEST PUSH0 DUP2 SWAP1 POP SWAP2 SWAP1 POP JUMP JUMPDEST PUSH2 0x754 DUP2 PUSH2 0x742 JUMP JUMPDEST DUP2 EQ PUSH2 0x75E JUMPI PUSH0 DUP1 REVERT JUMPDEST POP JUMP JUMPDEST PUSH0 DUP2 MLOAD SWAP1 POP PUSH2 0x76F DUP2 PUSH2 0x74B JUMP JUMPDEST SWAP3 SWAP2 POP POP JUMP JUMPDEST PUSH0 DUP1 PUSH0 DUP1 PUSH0 PUSH1 0xA0 DUP7 DUP9 SUB SLT ISZERO PUSH2 0x78E JUMPI PUSH2 0x78D PUSH2 0x4F3 JUMP JUMPDEST JUMPDEST PUSH0 PUSH2 0x79B DUP9 DUP3 DUP10 ADD PUSH2 0x72E JUMP JUMPDEST SWAP6 POP POP PUSH1 0x20 PUSH2 0x7AC DUP9 DUP3 DUP10 ADD PUSH2 0x761 JUMP JUMPDEST SWAP5 POP POP PUSH1 0x40 PUSH2 0x7BD DUP9 DUP3 DUP10 ADD PUSH2 0x5F9 JUMP JUMPDEST SWAP4 POP POP PUSH1 0x60 PUSH2 0x7CE DUP9 DUP3 DUP10 ADD PUSH2 0x5F9 JUMP JUMPDEST SWAP3 POP POP PUSH1 0x80 PUSH2 0x7DF DUP9 DUP3 DUP10 ADD PUSH2 0x72E JUMP JUMPDEST SWAP2 POP POP SWAP3 SWAP6 POP SWAP3 SWAP6 SWAP1 SWAP4 POP JUMP JUMPDEST PUSH0 PUSH2 0x7F6 DUP3 PUSH2 0x742 JUMP JUMPDEST SWAP2 POP PUSH2 0x801 DUP4 PUSH2 0x742 JUMP JUMPDEST SWAP3 POP DUP3 DUP3 MUL PUSH2 0x80F DUP2 PUSH2 0x742 JUMP JUMPDEST SWAP2 POP PUSH32 0x8000000000000000000000000000000000000000000000000000000000000000 DUP5 EQ PUSH0 DUP5 SLT AND ISZERO PUSH2 0x846 JUMPI PUSH2 0x845 PUSH2 0x638 JUMP JUMPDEST JUMPDEST DUP3 DUP3 SDIV DUP5 EQ DUP4 ISZERO OR PUSH2 0x85B JUMPI PUSH2 0x85A PUSH2 0x638 JUMP JUMPDEST JUMPDEST POP SWAP3 SWAP2 POP POP JUMP JUMPDEST PUSH0 DUP3 DUP3 MSTORE PUSH1 0x20 DUP3 ADD SWAP1 POP SWAP3 SWAP2 POP POP JUMP JUMPDEST PUSH32 0x57687920736F204B616E6A7573212053656E642074686520656E746972652061 PUSH0 DUP3 ADD MSTORE PUSH32 0x6D6F756E74207370656369666965640000000000000000000000000000000000 PUSH1 0x20 DUP3 ADD MSTORE POP JUMP JUMPDEST PUSH0 PUSH2 0x8CC PUSH1 0x2F DUP4 PUSH2 0x862 JUMP JUMPDEST SWAP2 POP PUSH2 0x8D7 DUP3 PUSH2 0x872 JUMP JUMPDEST PUSH1 0x40 DUP3 ADD SWAP1 POP SWAP2 SWAP1 POP JUMP JUMPDEST PUSH0 PUSH1 0x20 DUP3 ADD SWAP1 POP DUP2 DUP2 SUB PUSH0 DUP4 ADD MSTORE PUSH2 0x8F9 DUP2 PUSH2 0x8C0 JUMP JUMPDEST SWAP1 POP SWAP2 SWAP1 POP JUMP JUMPDEST PUSH0 PUSH2 0x90A DUP3 PUSH2 0x4C2 JUMP JUMPDEST SWAP2 POP PUSH2 0x915 DUP4 PUSH2 0x4C2 JUMP JUMPDEST SWAP3 POP DUP3 DUP3 ADD SWAP1 POP DUP1 DUP3 GT ISZERO PUSH2 0x92D JUMPI PUSH2 0x92C PUSH2 0x638 JUMP JUMPDEST JUMPDEST SWAP3 SWAP2 POP POP JUMP INVALID LOG2 PUSH5 0x6970667358 0x22 SLT KECCAK256 PUSH18 0xD32D2BFDC290E0003BFBD8C4701CBF6ED6A2 ADD 0xDD 0x4E PUSH0 0xDB CODECOPY PUSH32 0xBFB32C8C564A64736F6C634300081A0033000000000000000000000000000000 "
				},
				"gasEstimates": {
					"creation": {
						"codeDepositCost": "481800",
						"executionCost": "22621",
						"totalCost": "504421"
					},
					"external": {
						"addressToAmountFunded(address)": "2847",
						"fund()": "infinite",
						"funders(uint256)": "4988",
						"getConversionRate(uint256)": "infinite",
						"getPrice()": "infinite",
						"getVersion()": "infinite",
						"minUSD()": "2490",
						"withdraw()": "166"
					}
				},
				"methodIdentifiers": {
					"addressToAmountFunded(address)": "3e47d6f3",
					"fund()": "b60d4288",
					"funders(uint256)": "dc0d3dff",
					"getConversionRate(uint256)": "6e5b6b28",
					"getPrice()": "98d5fdca",
					"getVersion()": "0d8e6e2c",
					"minUSD()": "dc992aa0",
					"withdraw()": "3ccfd60b"
				}
			},
			"storageLayout": {
				"storage": [
					{
						"astId": 52,
						"contract": "contracts/FundMe.sol:FundMe",
						"label": "minUSD",
						"offset": 0,
						"slot": "0",
						"type": "t_uint256"
					},
					{
						"astId": 55,
						"contract": "contracts/FundMe.sol:FundMe",
						"label": "funders",
						"offset": 0,
						"slot": "1",
						"type": "t_array(t_address)dyn_storage"
					},
					{
						"astId": 59,
						"contract": "contracts/FundMe.sol:FundMe",
						"label": "addressToAmountFunded",
						"offset": 0,
						"slot": "2",
						"type": "t_mapping(t_address,t_uint256)"
					}
				],
				"types": {
					"t_address": {
						"encoding": "inplace",
						"label": "address",
						"numberOfBytes": "20"
					},
					"t_array(t_address)dyn_storage": {
						"base": "t_address",
						"encoding": "dynamic_array",
						"label": "address[]",
						"numberOfBytes": "32"
					},
					"t_mapping(t_address,t_uint256)": {
						"encoding": "mapping",
						"key": "t_address",
						"label": "mapping(address => uint256)",
						"numberOfBytes": "32",
						"value": "t_uint256"
					},
					"t_uint256": {
						"encoding": "inplace",
						"label": "uint256",
						"numberOfBytes": "32"
					}
				}
			},
			"userdoc": {
				"kind": "user",
				"methods": {},
				"version": 1
			}
		}
	}
}