{
	"contracts/FundMe.sol": {
		"FundMe": {
			"abi": [
				{
					"inputs": [
						{
							"internalType": "address",
							"name": "funder",
							"type": "address"
						}
					],
					"name": "addressToAmountFunded",
					"outputs": [
						{
							"internalType": "uint256",
							"name": "amountFunded",
							"type": "uint256"
						}
					],
					"stateMutability": "view",
					"type": "function"
				},
				{
					"inputs": [],
					"name": "fund",
					"outputs": [],
					"stateMutability": "payable",
					"type": "function"
				},
				{
					"inputs": [
						{
							"internalType": "uint256",
							"name": "",
							"type": "uint256"
						}
					],
					"name": "funders",
					"outputs": [
						{
							"internalType": "address",
							"name": "",
							"type": "address"
						}
					],
					"stateMutability": "view",
					"type": "function"
				},
				{
					"inputs": [],
					"name": "minUSD",
					"outputs": [
						{
							"internalType": "uint256",
							"name": "",
							"type": "uint256"
						}
					],
					"stateMutability": "view",
					"type": "function"
				},
				{
					"inputs": [],
					"name": "withdraw",
					"outputs": [],
					"stateMutability": "nonpayable",
					"type": "function"
				}
			],
			"devdoc": {
				"kind": "dev",
				"methods": {},
				"version": 1
			},
			"evm": {
				"assembly": "    /* \"contracts/FundMe.sol\":1103:5471  contract FundMe {... */\n  mstore(0x40, 0x80)\n    /* \"contracts/FundMe.sol\":1361:1365  7e18 */\n  0x6124fee993bc0000\n    /* \"contracts/FundMe.sol\":1337:1365  uint256 public minUSD = 7e18 */\n  0x00\n  sstore\n    /* \"contracts/FundMe.sol\":1103:5471  contract FundMe {... */\n  callvalue\n  dup1\n  iszero\n  tag_1\n  jumpi\n  0x00\n  dup1\n  revert\ntag_1:\n  pop\n  dataSize(sub_0)\n  dup1\n  dataOffset(sub_0)\n  0x00\n  codecopy\n  0x00\n  return\nstop\n\nsub_0: assembly {\n        /* \"contracts/FundMe.sol\":1103:5471  contract FundMe {... */\n      mstore(0x40, 0x80)\n      jumpi(tag_1, lt(calldatasize, 0x04))\n      shr(0xe0, calldataload(0x00))\n      dup1\n      0x3ccfd60b\n      eq\n      tag_2\n      jumpi\n      dup1\n      0x3e47d6f3\n      eq\n      tag_3\n      jumpi\n      dup1\n      0xb60d4288\n      eq\n      tag_4\n      jumpi\n      dup1\n      0xdc0d3dff\n      eq\n      tag_5\n      jumpi\n      dup1\n      0xdc992aa0\n      eq\n      tag_6\n      jumpi\n    tag_1:\n      0x00\n      dup1\n      revert\n        /* \"contracts/FundMe.sol\":3968:5466  function withdraw() public  {... */\n    tag_2:\n      callvalue\n      dup1\n      iszero\n      tag_7\n      jumpi\n      0x00\n      dup1\n      revert\n    tag_7:\n      pop\n      tag_8\n      tag_9\n      jump\t// in\n    tag_8:\n      stop\n        /* \"contracts/FundMe.sol\":1504:1580  mapping(address funder => uint256 amountFunded) public addressToAmountFunded */\n    tag_3:\n      callvalue\n      dup1\n      iszero\n      tag_10\n      jumpi\n      0x00\n      dup1\n      revert\n    tag_10:\n      pop\n      tag_11\n      0x04\n      dup1\n      calldatasize\n      sub\n      dup2\n      add\n      swap1\n      tag_12\n      swap2\n      swap1\n      tag_13\n      jump\t// in\n    tag_12:\n      tag_14\n      jump\t// in\n    tag_11:\n      mload(0x40)\n      tag_15\n      swap2\n      swap1\n      tag_16\n      jump\t// in\n    tag_15:\n      mload(0x40)\n      dup1\n      swap2\n      sub\n      swap1\n      return\n        /* \"contracts/FundMe.sol\":1693:3757  function fund() public payable {... */\n    tag_4:\n      tag_17\n      tag_18\n      jump\t// in\n    tag_17:\n      stop\n        /* \"contracts/FundMe.sol\":1420:1444  address[] public funders */\n    tag_5:\n      callvalue\n      dup1\n      iszero\n      tag_19\n      jumpi\n      0x00\n      dup1\n      revert\n    tag_19:\n      pop\n      tag_20\n      0x04\n      dup1\n      calldatasize\n      sub\n      dup2\n      add\n      swap1\n      tag_21\n      swap2\n      swap1\n      tag_22\n      jump\t// in\n    tag_21:\n      tag_23\n      jump\t// in\n    tag_20:\n      mload(0x40)\n      tag_24\n      swap2\n      swap1\n      tag_25\n      jump\t// in\n    tag_24:\n      mload(0x40)\n      dup1\n      swap2\n      sub\n      swap1\n      return\n        /* \"contracts/FundMe.sol\":1337:1365  uint256 public minUSD = 7e18 */\n    tag_6:\n      callvalue\n      dup1\n      iszero\n      tag_26\n      jumpi\n      0x00\n      dup1\n      revert\n    tag_26:\n      pop\n      tag_27\n      tag_28\n      jump\t// in\n    tag_27:\n      mload(0x40)\n      tag_29\n      swap2\n      swap1\n      tag_16\n      jump\t// in\n    tag_29:\n      mload(0x40)\n      dup1\n      swap2\n      sub\n      swap1\n      return\n        /* \"contracts/FundMe.sol\":3968:5466  function withdraw() public  {... */\n    tag_9:\n        /* \"contracts/FundMe.sol\":4012:4031  uint256 funderIndex */\n      0x00\n        /* \"contracts/FundMe.sol\":4007:4194  for (uint256 funderIndex = 0; funderIndex < funders.length; funderIndex++) {... */\n    tag_31:\n        /* \"contracts/FundMe.sol\":4051:4058  funders */\n      0x01\n        /* \"contracts/FundMe.sol\":4051:4065  funders.length */\n      dup1\n      sload\n      swap1\n      pop\n        /* \"contracts/FundMe.sol\":4037:4048  funderIndex */\n      dup2\n        /* \"contracts/FundMe.sol\":4037:4065  funderIndex < funders.length */\n      lt\n        /* \"contracts/FundMe.sol\":4007:4194  for (uint256 funderIndex = 0; funderIndex < funders.length; funderIndex++) {... */\n      iszero\n      tag_32\n      jumpi\n        /* \"contracts/FundMe.sol\":4097:4111  address funder */\n      0x00\n        /* \"contracts/FundMe.sol\":4114:4121  funders */\n      0x01\n        /* \"contracts/FundMe.sol\":4122:4133  funderIndex */\n      dup3\n        /* \"contracts/FundMe.sol\":4114:4134  funders[funderIndex] */\n      dup2\n      sload\n      dup2\n      lt\n      tag_34\n      jumpi\n      tag_35\n      tag_36\n      jump\t// in\n    tag_35:\n    tag_34:\n      swap1\n      0x00\n      mstore\n      keccak256(0x00, 0x20)\n      add\n      0x00\n      swap1\n      sload\n      swap1\n      0x0100\n      exp\n      swap1\n      div\n      0xffffffffffffffffffffffffffffffffffffffff\n      and\n        /* \"contracts/FundMe.sol\":4097:4134  address funder = funders[funderIndex] */\n      swap1\n      pop\n        /* \"contracts/FundMe.sol\":4181:4182  0 */\n      0x00\n        /* \"contracts/FundMe.sol\":4149:4170  addressToAmountFunded */\n      0x02\n        /* \"contracts/FundMe.sol\":4149:4178  addressToAmountFunded[funder] */\n      0x00\n        /* \"contracts/FundMe.sol\":4171:4177  funder */\n      dup4\n        /* \"contracts/FundMe.sol\":4149:4178  addressToAmountFunded[funder] */\n      0xffffffffffffffffffffffffffffffffffffffff\n      and\n      0xffffffffffffffffffffffffffffffffffffffff\n      and\n      dup2\n      mstore\n      0x20\n      add\n      swap1\n      dup2\n      mstore\n      0x20\n      add\n      0x00\n      keccak256\n        /* \"contracts/FundMe.sol\":4149:4182  addressToAmountFunded[funder] = 0 */\n      dup2\n      swap1\n      sstore\n      pop\n        /* \"contracts/FundMe.sol\":4082:4194  {... */\n      pop\n        /* \"contracts/FundMe.sol\":4067:4080  funderIndex++ */\n      dup1\n      dup1\n      0x01\n      add\n      swap2\n      pop\n      pop\n        /* \"contracts/FundMe.sol\":4007:4194  for (uint256 funderIndex = 0; funderIndex < funders.length; funderIndex++) {... */\n      jump(tag_31)\n    tag_32:\n      pop\n        /* \"contracts/FundMe.sol\":4291:4292  0 */\n      0x00\n        /* \"contracts/FundMe.sol\":4277:4293  new address[](0) */\n      0xffffffffffffffff\n      dup2\n      gt\n      iszero\n      tag_38\n      jumpi\n      tag_39\n      tag_40\n      jump\t// in\n    tag_39:\n    tag_38:\n      mload(0x40)\n      swap1\n      dup1\n      dup3\n      mstore\n      dup1\n      0x20\n      mul\n      0x20\n      add\n      dup3\n      add\n      0x40\n      mstore\n      dup1\n      iszero\n      tag_41\n      jumpi\n      dup2\n      0x20\n      add\n      0x20\n      dup3\n      mul\n      dup1\n      calldatasize\n      dup4\n      calldatacopy\n      dup1\n      dup3\n      add\n      swap2\n      pop\n      pop\n      swap1\n      pop\n    tag_41:\n      pop\n        /* \"contracts/FundMe.sol\":4267:4274  funders */\n      0x01\n        /* \"contracts/FundMe.sol\":4267:4293  funders = new address[](0) */\n      swap1\n      dup1\n      mload\n      swap1\n      0x20\n      add\n      swap1\n      tag_42\n      swap3\n      swap2\n      swap1\n      tag_43\n      jump\t// in\n    tag_42:\n      pop\n        /* \"contracts/FundMe.sol\":4744:4754  msg.sender */\n      caller\n        /* \"contracts/FundMe.sol\":4735:4764  payable (msg.sender).transfer */\n      0xffffffffffffffffffffffffffffffffffffffff\n      and\n        /* \"contracts/FundMe.sol\":4735:4787  payable (msg.sender).transfer(address(this).balance) */\n      0x08fc\n        /* \"contracts/FundMe.sol\":4765:4786  address(this).balance */\n      selfbalance\n        /* \"contracts/FundMe.sol\":4735:4787  payable (msg.sender).transfer(address(this).balance) */\n      swap1\n      dup2\n      iszero\n      mul\n      swap1\n      mload(0x40)\n      0x00\n      mload(0x40)\n      dup1\n      dup4\n      sub\n      dup2\n      dup6\n      dup9\n      dup9\n      call\n      swap4\n      pop\n      pop\n      pop\n      pop\n      iszero\n      dup1\n      iszero\n      tag_45\n      jumpi\n      returndatasize\n      0x00\n      dup1\n      returndatacopy\n      revert(0x00, returndatasize)\n    tag_45:\n      pop\n        /* \"contracts/FundMe.sol\":4875:4891  bool sendSuccess */\n      0x00\n        /* \"contracts/FundMe.sol\":4902:4912  msg.sender */\n      caller\n        /* \"contracts/FundMe.sol\":4894:4918  payable(msg.sender).send */\n      0xffffffffffffffffffffffffffffffffffffffff\n      and\n        /* \"contracts/FundMe.sol\":4894:4941  payable(msg.sender).send(address(this).balance) */\n      0x08fc\n        /* \"contracts/FundMe.sol\":4919:4940  address(this).balance */\n      selfbalance\n        /* \"contracts/FundMe.sol\":4894:4941  payable(msg.sender).send(address(this).balance) */\n      swap1\n      dup2\n      iszero\n      mul\n      swap1\n      mload(0x40)\n      0x00\n      mload(0x40)\n      dup1\n      dup4\n      sub\n      dup2\n      dup6\n      dup9\n      dup9\n      call\n      swap4\n      pop\n      pop\n      pop\n      pop\n        /* \"contracts/FundMe.sol\":4875:4941  bool sendSuccess = payable(msg.sender).send(address(this).balance) */\n      swap1\n      pop\n        /* \"contracts/FundMe.sol\":4960:4971  sendSuccess */\n      dup1\n        /* \"contracts/FundMe.sol\":4952:4987  require(sendSuccess, \"Send failed\") */\n      tag_47\n      jumpi\n      mload(0x40)\n      0x08c379a000000000000000000000000000000000000000000000000000000000\n      dup2\n      mstore\n      0x04\n      add\n      tag_48\n      swap1\n      tag_49\n      jump\t// in\n    tag_48:\n      mload(0x40)\n      dup1\n      swap2\n      sub\n      swap1\n      revert\n    tag_47:\n        /* \"contracts/FundMe.sol\":5221:5237  bool callSuccess */\n      0x00\n        /* \"contracts/FundMe.sol\":5252:5262  msg.sender */\n      caller\n        /* \"contracts/FundMe.sol\":5243:5268  payable (msg.sender).call */\n      0xffffffffffffffffffffffffffffffffffffffff\n      and\n        /* \"contracts/FundMe.sol\":5276:5297  address(this).balance */\n      selfbalance\n        /* \"contracts/FundMe.sol\":5243:5302  payable (msg.sender).call{value: address(this).balance}(\"\") */\n      mload(0x40)\n      tag_50\n      swap1\n      tag_51\n      jump\t// in\n    tag_50:\n      0x00\n      mload(0x40)\n      dup1\n      dup4\n      sub\n      dup2\n      dup6\n      dup8\n      gas\n      call\n      swap3\n      pop\n      pop\n      pop\n      returndatasize\n      dup1\n      0x00\n      dup2\n      eq\n      tag_54\n      jumpi\n      mload(0x40)\n      swap2\n      pop\n      and(add(returndatasize, 0x3f), not(0x1f))\n      dup3\n      add\n      0x40\n      mstore\n      returndatasize\n      dup3\n      mstore\n      returndatasize\n      0x00\n      0x20\n      dup5\n      add\n      returndatacopy\n      jump(tag_53)\n    tag_54:\n      0x60\n      swap2\n      pop\n    tag_53:\n      pop\n        /* \"contracts/FundMe.sol\":5220:5302  (bool callSuccess, ) = payable (msg.sender).call{value: address(this).balance}(\"\") */\n      pop\n      swap1\n      pop\n        /* \"contracts/FundMe.sol\":5321:5332  callSuccess */\n      dup1\n        /* \"contracts/FundMe.sol\":5313:5348  require(callSuccess, \"Call failed\") */\n      tag_55\n      jumpi\n      mload(0x40)\n      0x08c379a000000000000000000000000000000000000000000000000000000000\n      dup2\n      mstore\n      0x04\n      add\n      tag_56\n      swap1\n      tag_57\n      jump\t// in\n    tag_56:\n      mload(0x40)\n      dup1\n      swap2\n      sub\n      swap1\n      revert\n    tag_55:\n        /* \"contracts/FundMe.sol\":3996:5466  {... */\n      pop\n      pop\n        /* \"contracts/FundMe.sol\":3968:5466  function withdraw() public  {... */\n      jump\t// out\n        /* \"contracts/FundMe.sol\":1504:1580  mapping(address funder => uint256 amountFunded) public addressToAmountFunded */\n    tag_14:\n      mstore(0x20, 0x02)\n      dup1\n      0x00\n      mstore\n      keccak256(0x00, 0x40)\n      0x00\n      swap2\n      pop\n      swap1\n      pop\n      sload\n      dup2\n      jump\t// out\n        /* \"contracts/FundMe.sol\":1693:3757  function fund() public payable {... */\n    tag_18:\n        /* \"contracts/FundMe.sol\":2589:2595  minUSD */\n      sload(0x00)\n        /* \"contracts/FundMe.sol\":2557:2586  msg.value.getConversionRate() */\n      tag_59\n        /* \"contracts/FundMe.sol\":2557:2566  msg.value */\n      callvalue\n        /* \"contracts/FundMe.sol\":2557:2584  msg.value.getConversionRate */\n      tag_60\n        /* \"contracts/FundMe.sol\":2557:2586  msg.value.getConversionRate() */\n      jump\t// in\n    tag_59:\n        /* \"contracts/FundMe.sol\":2557:2595  msg.value.getConversionRate() > minUSD */\n      gt\n        /* \"contracts/FundMe.sol\":2549:2647  require(msg.value.getConversionRate() > minUSD, \"Why so Kanjus! Send the entire amount specified\") */\n      tag_61\n      jumpi\n      mload(0x40)\n      0x08c379a000000000000000000000000000000000000000000000000000000000\n      dup2\n      mstore\n      0x04\n      add\n      tag_62\n      swap1\n      tag_63\n      jump\t// in\n    tag_62:\n      mload(0x40)\n      dup1\n      swap2\n      sub\n      swap1\n      revert\n    tag_61:\n        /* \"contracts/FundMe.sol\":3574:3581  funders */\n      0x01\n        /* \"contracts/FundMe.sol\":3587:3597  msg.sender */\n      caller\n        /* \"contracts/FundMe.sol\":3574:3598  funders.push(msg.sender) */\n      swap1\n      dup1\n      0x01\n      dup2\n      sload\n      add\n      dup1\n      dup3\n      sstore\n      dup1\n      swap2\n      pop\n      pop\n      0x01\n      swap1\n      sub\n      swap1\n      0x00\n      mstore\n      keccak256(0x00, 0x20)\n      add\n      0x00\n      swap1\n      swap2\n      swap1\n      swap2\n      swap1\n      swap2\n      0x0100\n      exp\n      dup2\n      sload\n      dup2\n      0xffffffffffffffffffffffffffffffffffffffff\n      mul\n      not\n      and\n      swap1\n      dup4\n      0xffffffffffffffffffffffffffffffffffffffff\n      and\n      mul\n      or\n      swap1\n      sstore\n      pop\n        /* \"contracts/FundMe.sol\":3740:3749  msg.value */\n      callvalue\n        /* \"contracts/FundMe.sol\":3703:3724  addressToAmountFunded */\n      0x02\n        /* \"contracts/FundMe.sol\":3703:3736  addressToAmountFunded[msg.sender] */\n      0x00\n        /* \"contracts/FundMe.sol\":3725:3735  msg.sender */\n      caller\n        /* \"contracts/FundMe.sol\":3703:3736  addressToAmountFunded[msg.sender] */\n      0xffffffffffffffffffffffffffffffffffffffff\n      and\n      0xffffffffffffffffffffffffffffffffffffffff\n      and\n      dup2\n      mstore\n      0x20\n      add\n      swap1\n      dup2\n      mstore\n      0x20\n      add\n      0x00\n      keccak256\n      0x00\n        /* \"contracts/FundMe.sol\":3703:3749  addressToAmountFunded[msg.sender] += msg.value */\n      dup3\n      dup3\n      sload\n      tag_65\n      swap2\n      swap1\n      tag_66\n      jump\t// in\n    tag_65:\n      swap3\n      pop\n      pop\n      dup2\n      swap1\n      sstore\n      pop\n        /* \"contracts/FundMe.sol\":1693:3757  function fund() public payable {... */\n      jump\t// out\n        /* \"contracts/FundMe.sol\":1420:1444  address[] public funders */\n    tag_23:\n      0x01\n      dup2\n      dup2\n      sload\n      dup2\n      lt\n      tag_67\n      jumpi\n      0x00\n      dup1\n      revert\n    tag_67:\n      swap1\n      0x00\n      mstore\n      keccak256(0x00, 0x20)\n      add\n      0x00\n      swap2\n      pop\n      sload\n      swap1\n      0x0100\n      exp\n      swap1\n      div\n      0xffffffffffffffffffffffffffffffffffffffff\n      and\n      dup2\n      jump\t// out\n        /* \"contracts/FundMe.sol\":1337:1365  uint256 public minUSD = 7e18 */\n    tag_28:\n      sload(0x00)\n      dup2\n      jump\t// out\n        /* \"contracts/PriceConverterLibrary.sol\":1180:1738  function getConversionRate(uint256 ethAmount) internal view returns (uint256) {... */\n    tag_60:\n        /* \"contracts/PriceConverterLibrary.sol\":1249:1256  uint256 */\n      0x00\n        /* \"contracts/PriceConverterLibrary.sol\":1322:1338  uint256 ethPrice */\n      dup1\n        /* \"contracts/PriceConverterLibrary.sol\":1341:1351  getPrice() */\n      tag_70\n        /* \"contracts/PriceConverterLibrary.sol\":1341:1349  getPrice */\n      tag_71\n        /* \"contracts/PriceConverterLibrary.sol\":1341:1351  getPrice() */\n      jump\t// in\n    tag_70:\n        /* \"contracts/PriceConverterLibrary.sol\":1322:1351  uint256 ethPrice = getPrice() */\n      swap1\n      pop\n        /* \"contracts/PriceConverterLibrary.sol\":1629:1648  uint ethAmountInUsd */\n      0x00\n        /* \"contracts/PriceConverterLibrary.sol\":1672:1676  1e18 */\n      0x0de0b6b3a7640000\n        /* \"contracts/PriceConverterLibrary.sol\":1660:1669  ethAmount */\n      dup5\n        /* \"contracts/PriceConverterLibrary.sol\":1651:1659  ethPrice */\n      dup4\n        /* \"contracts/PriceConverterLibrary.sol\":1651:1669  ethPrice*ethAmount */\n      tag_72\n      swap2\n      swap1\n      tag_73\n      jump\t// in\n    tag_72:\n        /* \"contracts/PriceConverterLibrary.sol\":1651:1676  ethPrice*ethAmount / 1e18 */\n      tag_74\n      swap2\n      swap1\n      tag_75\n      jump\t// in\n    tag_74:\n        /* \"contracts/PriceConverterLibrary.sol\":1629:1676  uint ethAmountInUsd = ethPrice*ethAmount / 1e18 */\n      swap1\n      pop\n        /* \"contracts/PriceConverterLibrary.sol\":1716:1730  ethAmountInUsd */\n      dup1\n        /* \"contracts/PriceConverterLibrary.sol\":1709:1730  return ethAmountInUsd */\n      swap3\n      pop\n      pop\n      pop\n        /* \"contracts/PriceConverterLibrary.sol\":1180:1738  function getConversionRate(uint256 ethAmount) internal view returns (uint256) {... */\n      swap2\n      swap1\n      pop\n      jump\t// out\n        /* \"contracts/PriceConverterLibrary.sol\":475:1128  function getPrice() internal view returns (uint256) {... */\n    tag_71:\n        /* \"contracts/PriceConverterLibrary.sol\":518:525  uint256 */\n      0x00\n        /* \"contracts/PriceConverterLibrary.sol\":829:860  AggregatorV3Interface priceFeed */\n      dup1\n        /* \"contracts/PriceConverterLibrary.sol\":885:927  0x694AA1769357215DE4FAC081bf1f309aDC325306 */\n      0x694aa1769357215de4fac081bf1f309adc325306\n        /* \"contracts/PriceConverterLibrary.sol\":829:928  AggregatorV3Interface priceFeed = AggregatorV3Interface(0x694AA1769357215DE4FAC081bf1f309aDC325306) */\n      swap1\n      pop\n        /* \"contracts/PriceConverterLibrary.sol\":994:1007  int256 answer */\n      0x00\n        /* \"contracts/PriceConverterLibrary.sol\":1014:1023  priceFeed */\n      dup2\n        /* \"contracts/PriceConverterLibrary.sol\":1014:1039  priceFeed.latestRoundData */\n      0xffffffffffffffffffffffffffffffffffffffff\n      and\n      0xfeaf968c\n        /* \"contracts/PriceConverterLibrary.sol\":1014:1041  priceFeed.latestRoundData() */\n      mload(0x40)\n      dup2\n      0xffffffff\n      and\n      0xe0\n      shl\n      dup2\n      mstore\n      0x04\n      add\n      0xa0\n      mload(0x40)\n      dup1\n      dup4\n      sub\n      dup2\n      dup7\n      gas\n      staticcall\n      iszero\n      dup1\n      iszero\n      tag_78\n      jumpi\n      returndatasize\n      0x00\n      dup1\n      returndatacopy\n      revert(0x00, returndatasize)\n    tag_78:\n      pop\n      pop\n      pop\n      pop\n      mload(0x40)\n      returndatasize\n      not(0x1f)\n      0x1f\n      dup3\n      add\n      and\n      dup3\n      add\n      dup1\n      0x40\n      mstore\n      pop\n      dup2\n      add\n      swap1\n      tag_79\n      swap2\n      swap1\n      tag_80\n      jump\t// in\n    tag_79:\n        /* \"contracts/PriceConverterLibrary.sol\":992:1041  (,int256 answer,,,) = priceFeed.latestRoundData() */\n      pop\n      pop\n      pop\n      swap2\n      pop\n      pop\n        /* \"contracts/PriceConverterLibrary.sol\":1115:1119  1e10 */\n      0x02540be400\n        /* \"contracts/PriceConverterLibrary.sol\":1108:1114  answer */\n      dup2\n        /* \"contracts/PriceConverterLibrary.sol\":1108:1119  answer*1e10 */\n      tag_81\n      swap2\n      swap1\n      tag_82\n      jump\t// in\n    tag_81:\n        /* \"contracts/PriceConverterLibrary.sol\":1093:1120  return uint256(answer*1e10) */\n      swap3\n      pop\n      pop\n      pop\n        /* \"contracts/PriceConverterLibrary.sol\":475:1128  function getPrice() internal view returns (uint256) {... */\n      swap1\n      jump\t// out\n    tag_43:\n      dup3\n      dup1\n      sload\n      dup3\n      dup3\n      sstore\n      swap1\n      0x00\n      mstore\n      keccak256(0x00, 0x20)\n      swap1\n      dup2\n      add\n      swap3\n      dup3\n      iszero\n      tag_83\n      jumpi\n      swap2\n      0x20\n      mul\n      dup3\n      add\n    tag_84:\n      dup3\n      dup2\n      gt\n      iszero\n      tag_85\n      jumpi\n      dup3\n      mload\n      dup3\n      exp(0x0100, 0x00)\n      dup2\n      sload\n      dup2\n      0xffffffffffffffffffffffffffffffffffffffff\n      mul\n      not\n      and\n      swap1\n      dup4\n      0xffffffffffffffffffffffffffffffffffffffff\n      and\n      mul\n      or\n      swap1\n      sstore\n      pop\n      swap2\n      0x20\n      add\n      swap2\n      swap1\n      0x01\n      add\n      swap1\n      jump(tag_84)\n    tag_85:\n    tag_83:\n      pop\n      swap1\n      pop\n      tag_86\n      swap2\n      swap1\n      tag_87\n      jump\t// in\n    tag_86:\n      pop\n      swap1\n      jump\t// out\n    tag_87:\n    tag_88:\n      dup1\n      dup3\n      gt\n      iszero\n      tag_89\n      jumpi\n      0x00\n      dup2\n      0x00\n      swap1\n      sstore\n      pop\n      0x01\n      add\n      jump(tag_88)\n    tag_89:\n      pop\n      swap1\n      jump\t// out\n        /* \"#utility.yul\":88:205   */\n    tag_91:\n        /* \"#utility.yul\":197:198   */\n      0x00\n        /* \"#utility.yul\":194:195   */\n      dup1\n        /* \"#utility.yul\":187:199   */\n      revert\n        /* \"#utility.yul\":334:460   */\n    tag_93:\n        /* \"#utility.yul\":371:378   */\n      0x00\n        /* \"#utility.yul\":411:453   */\n      0xffffffffffffffffffffffffffffffffffffffff\n        /* \"#utility.yul\":404:409   */\n      dup3\n        /* \"#utility.yul\":400:454   */\n      and\n        /* \"#utility.yul\":389:454   */\n      swap1\n      pop\n        /* \"#utility.yul\":334:460   */\n      swap2\n      swap1\n      pop\n      jump\t// out\n        /* \"#utility.yul\":466:562   */\n    tag_94:\n        /* \"#utility.yul\":503:510   */\n      0x00\n        /* \"#utility.yul\":532:556   */\n      tag_127\n        /* \"#utility.yul\":550:555   */\n      dup3\n        /* \"#utility.yul\":532:556   */\n      tag_93\n      jump\t// in\n    tag_127:\n        /* \"#utility.yul\":521:556   */\n      swap1\n      pop\n        /* \"#utility.yul\":466:562   */\n      swap2\n      swap1\n      pop\n      jump\t// out\n        /* \"#utility.yul\":568:690   */\n    tag_95:\n        /* \"#utility.yul\":641:665   */\n      tag_129\n        /* \"#utility.yul\":659:664   */\n      dup2\n        /* \"#utility.yul\":641:665   */\n      tag_94\n      jump\t// in\n    tag_129:\n        /* \"#utility.yul\":634:639   */\n      dup2\n        /* \"#utility.yul\":631:666   */\n      eq\n        /* \"#utility.yul\":621:684   */\n      tag_130\n      jumpi\n        /* \"#utility.yul\":680:681   */\n      0x00\n        /* \"#utility.yul\":677:678   */\n      dup1\n        /* \"#utility.yul\":670:682   */\n      revert\n        /* \"#utility.yul\":621:684   */\n    tag_130:\n        /* \"#utility.yul\":568:690   */\n      pop\n      jump\t// out\n        /* \"#utility.yul\":696:835   */\n    tag_96:\n        /* \"#utility.yul\":742:747   */\n      0x00\n        /* \"#utility.yul\":780:786   */\n      dup2\n        /* \"#utility.yul\":767:787   */\n      calldataload\n        /* \"#utility.yul\":758:787   */\n      swap1\n      pop\n        /* \"#utility.yul\":796:829   */\n      tag_132\n        /* \"#utility.yul\":823:828   */\n      dup2\n        /* \"#utility.yul\":796:829   */\n      tag_95\n      jump\t// in\n    tag_132:\n        /* \"#utility.yul\":696:835   */\n      swap3\n      swap2\n      pop\n      pop\n      jump\t// out\n        /* \"#utility.yul\":841:1170   */\n    tag_13:\n        /* \"#utility.yul\":900:906   */\n      0x00\n        /* \"#utility.yul\":949:951   */\n      0x20\n        /* \"#utility.yul\":937:946   */\n      dup3\n        /* \"#utility.yul\":928:935   */\n      dup5\n        /* \"#utility.yul\":924:947   */\n      sub\n        /* \"#utility.yul\":920:952   */\n      slt\n        /* \"#utility.yul\":917:1036   */\n      iszero\n      tag_134\n      jumpi\n        /* \"#utility.yul\":955:1034   */\n      tag_135\n      tag_91\n      jump\t// in\n    tag_135:\n        /* \"#utility.yul\":917:1036   */\n    tag_134:\n        /* \"#utility.yul\":1075:1076   */\n      0x00\n        /* \"#utility.yul\":1100:1153   */\n      tag_136\n        /* \"#utility.yul\":1145:1152   */\n      dup5\n        /* \"#utility.yul\":1136:1142   */\n      dup3\n        /* \"#utility.yul\":1125:1134   */\n      dup6\n        /* \"#utility.yul\":1121:1143   */\n      add\n        /* \"#utility.yul\":1100:1153   */\n      tag_96\n      jump\t// in\n    tag_136:\n        /* \"#utility.yul\":1090:1153   */\n      swap2\n      pop\n        /* \"#utility.yul\":1046:1163   */\n      pop\n        /* \"#utility.yul\":841:1170   */\n      swap3\n      swap2\n      pop\n      pop\n      jump\t// out\n        /* \"#utility.yul\":1176:1253   */\n    tag_97:\n        /* \"#utility.yul\":1213:1220   */\n      0x00\n        /* \"#utility.yul\":1242:1247   */\n      dup2\n        /* \"#utility.yul\":1231:1247   */\n      swap1\n      pop\n        /* \"#utility.yul\":1176:1253   */\n      swap2\n      swap1\n      pop\n      jump\t// out\n        /* \"#utility.yul\":1259:1377   */\n    tag_98:\n        /* \"#utility.yul\":1346:1370   */\n      tag_139\n        /* \"#utility.yul\":1364:1369   */\n      dup2\n        /* \"#utility.yul\":1346:1370   */\n      tag_97\n      jump\t// in\n    tag_139:\n        /* \"#utility.yul\":1341:1344   */\n      dup3\n        /* \"#utility.yul\":1334:1371   */\n      mstore\n        /* \"#utility.yul\":1259:1377   */\n      pop\n      pop\n      jump\t// out\n        /* \"#utility.yul\":1383:1605   */\n    tag_16:\n        /* \"#utility.yul\":1476:1480   */\n      0x00\n        /* \"#utility.yul\":1514:1516   */\n      0x20\n        /* \"#utility.yul\":1503:1512   */\n      dup3\n        /* \"#utility.yul\":1499:1517   */\n      add\n        /* \"#utility.yul\":1491:1517   */\n      swap1\n      pop\n        /* \"#utility.yul\":1527:1598   */\n      tag_141\n        /* \"#utility.yul\":1595:1596   */\n      0x00\n        /* \"#utility.yul\":1584:1593   */\n      dup4\n        /* \"#utility.yul\":1580:1597   */\n      add\n        /* \"#utility.yul\":1571:1577   */\n      dup5\n        /* \"#utility.yul\":1527:1598   */\n      tag_98\n      jump\t// in\n    tag_141:\n        /* \"#utility.yul\":1383:1605   */\n      swap3\n      swap2\n      pop\n      pop\n      jump\t// out\n        /* \"#utility.yul\":1611:1733   */\n    tag_99:\n        /* \"#utility.yul\":1684:1708   */\n      tag_143\n        /* \"#utility.yul\":1702:1707   */\n      dup2\n        /* \"#utility.yul\":1684:1708   */\n      tag_97\n      jump\t// in\n    tag_143:\n        /* \"#utility.yul\":1677:1682   */\n      dup2\n        /* \"#utility.yul\":1674:1709   */\n      eq\n        /* \"#utility.yul\":1664:1727   */\n      tag_144\n      jumpi\n        /* \"#utility.yul\":1723:1724   */\n      0x00\n        /* \"#utility.yul\":1720:1721   */\n      dup1\n        /* \"#utility.yul\":1713:1725   */\n      revert\n        /* \"#utility.yul\":1664:1727   */\n    tag_144:\n        /* \"#utility.yul\":1611:1733   */\n      pop\n      jump\t// out\n        /* \"#utility.yul\":1739:1878   */\n    tag_100:\n        /* \"#utility.yul\":1785:1790   */\n      0x00\n        /* \"#utility.yul\":1823:1829   */\n      dup2\n        /* \"#utility.yul\":1810:1830   */\n      calldataload\n        /* \"#utility.yul\":1801:1830   */\n      swap1\n      pop\n        /* \"#utility.yul\":1839:1872   */\n      tag_146\n        /* \"#utility.yul\":1866:1871   */\n      dup2\n        /* \"#utility.yul\":1839:1872   */\n      tag_99\n      jump\t// in\n    tag_146:\n        /* \"#utility.yul\":1739:1878   */\n      swap3\n      swap2\n      pop\n      pop\n      jump\t// out\n        /* \"#utility.yul\":1884:2213   */\n    tag_22:\n        /* \"#utility.yul\":1943:1949   */\n      0x00\n        /* \"#utility.yul\":1992:1994   */\n      0x20\n        /* \"#utility.yul\":1980:1989   */\n      dup3\n        /* \"#utility.yul\":1971:1978   */\n      dup5\n        /* \"#utility.yul\":1967:1990   */\n      sub\n        /* \"#utility.yul\":1963:1995   */\n      slt\n        /* \"#utility.yul\":1960:2079   */\n      iszero\n      tag_148\n      jumpi\n        /* \"#utility.yul\":1998:2077   */\n      tag_149\n      tag_91\n      jump\t// in\n    tag_149:\n        /* \"#utility.yul\":1960:2079   */\n    tag_148:\n        /* \"#utility.yul\":2118:2119   */\n      0x00\n        /* \"#utility.yul\":2143:2196   */\n      tag_150\n        /* \"#utility.yul\":2188:2195   */\n      dup5\n        /* \"#utility.yul\":2179:2185   */\n      dup3\n        /* \"#utility.yul\":2168:2177   */\n      dup6\n        /* \"#utility.yul\":2164:2186   */\n      add\n        /* \"#utility.yul\":2143:2196   */\n      tag_100\n      jump\t// in\n    tag_150:\n        /* \"#utility.yul\":2133:2196   */\n      swap2\n      pop\n        /* \"#utility.yul\":2089:2206   */\n      pop\n        /* \"#utility.yul\":1884:2213   */\n      swap3\n      swap2\n      pop\n      pop\n      jump\t// out\n        /* \"#utility.yul\":2219:2337   */\n    tag_101:\n        /* \"#utility.yul\":2306:2330   */\n      tag_152\n        /* \"#utility.yul\":2324:2329   */\n      dup2\n        /* \"#utility.yul\":2306:2330   */\n      tag_94\n      jump\t// in\n    tag_152:\n        /* \"#utility.yul\":2301:2304   */\n      dup3\n        /* \"#utility.yul\":2294:2331   */\n      mstore\n        /* \"#utility.yul\":2219:2337   */\n      pop\n      pop\n      jump\t// out\n        /* \"#utility.yul\":2343:2565   */\n    tag_25:\n        /* \"#utility.yul\":2436:2440   */\n      0x00\n        /* \"#utility.yul\":2474:2476   */\n      0x20\n        /* \"#utility.yul\":2463:2472   */\n      dup3\n        /* \"#utility.yul\":2459:2477   */\n      add\n        /* \"#utility.yul\":2451:2477   */\n      swap1\n      pop\n        /* \"#utility.yul\":2487:2558   */\n      tag_154\n        /* \"#utility.yul\":2555:2556   */\n      0x00\n        /* \"#utility.yul\":2544:2553   */\n      dup4\n        /* \"#utility.yul\":2540:2557   */\n      add\n        /* \"#utility.yul\":2531:2537   */\n      dup5\n        /* \"#utility.yul\":2487:2558   */\n      tag_101\n      jump\t// in\n    tag_154:\n        /* \"#utility.yul\":2343:2565   */\n      swap3\n      swap2\n      pop\n      pop\n      jump\t// out\n        /* \"#utility.yul\":2571:2751   */\n    tag_36:\n        /* \"#utility.yul\":2619:2696   */\n      0x4e487b7100000000000000000000000000000000000000000000000000000000\n        /* \"#utility.yul\":2616:2617   */\n      0x00\n        /* \"#utility.yul\":2609:2697   */\n      mstore\n        /* \"#utility.yul\":2716:2720   */\n      0x32\n        /* \"#utility.yul\":2713:2714   */\n      0x04\n        /* \"#utility.yul\":2706:2721   */\n      mstore\n        /* \"#utility.yul\":2740:2744   */\n      0x24\n        /* \"#utility.yul\":2737:2738   */\n      0x00\n        /* \"#utility.yul\":2730:2745   */\n      revert\n        /* \"#utility.yul\":2757:2937   */\n    tag_40:\n        /* \"#utility.yul\":2805:2882   */\n      0x4e487b7100000000000000000000000000000000000000000000000000000000\n        /* \"#utility.yul\":2802:2803   */\n      0x00\n        /* \"#utility.yul\":2795:2883   */\n      mstore\n        /* \"#utility.yul\":2902:2906   */\n      0x41\n        /* \"#utility.yul\":2899:2900   */\n      0x04\n        /* \"#utility.yul\":2892:2907   */\n      mstore\n        /* \"#utility.yul\":2926:2930   */\n      0x24\n        /* \"#utility.yul\":2923:2924   */\n      0x00\n        /* \"#utility.yul\":2916:2931   */\n      revert\n        /* \"#utility.yul\":2943:3112   */\n    tag_102:\n        /* \"#utility.yul\":3027:3038   */\n      0x00\n        /* \"#utility.yul\":3061:3067   */\n      dup3\n        /* \"#utility.yul\":3056:3059   */\n      dup3\n        /* \"#utility.yul\":3049:3068   */\n      mstore\n        /* \"#utility.yul\":3101:3105   */\n      0x20\n        /* \"#utility.yul\":3096:3099   */\n      dup3\n        /* \"#utility.yul\":3092:3106   */\n      add\n        /* \"#utility.yul\":3077:3106   */\n      swap1\n      pop\n        /* \"#utility.yul\":2943:3112   */\n      swap3\n      swap2\n      pop\n      pop\n      jump\t// out\n        /* \"#utility.yul\":3118:3279   */\n    tag_103:\n        /* \"#utility.yul\":3258:3271   */\n      0x53656e64206661696c6564000000000000000000000000000000000000000000\n        /* \"#utility.yul\":3254:3255   */\n      0x00\n        /* \"#utility.yul\":3246:3252   */\n      dup3\n        /* \"#utility.yul\":3242:3256   */\n      add\n        /* \"#utility.yul\":3235:3272   */\n      mstore\n        /* \"#utility.yul\":3118:3279   */\n      pop\n      jump\t// out\n        /* \"#utility.yul\":3285:3651   */\n    tag_104:\n        /* \"#utility.yul\":3427:3430   */\n      0x00\n        /* \"#utility.yul\":3448:3515   */\n      tag_160\n        /* \"#utility.yul\":3512:3514   */\n      0x0b\n        /* \"#utility.yul\":3507:3510   */\n      dup4\n        /* \"#utility.yul\":3448:3515   */\n      tag_102\n      jump\t// in\n    tag_160:\n        /* \"#utility.yul\":3441:3515   */\n      swap2\n      pop\n        /* \"#utility.yul\":3524:3617   */\n      tag_161\n        /* \"#utility.yul\":3613:3616   */\n      dup3\n        /* \"#utility.yul\":3524:3617   */\n      tag_103\n      jump\t// in\n    tag_161:\n        /* \"#utility.yul\":3642:3644   */\n      0x20\n        /* \"#utility.yul\":3637:3640   */\n      dup3\n        /* \"#utility.yul\":3633:3645   */\n      add\n        /* \"#utility.yul\":3626:3645   */\n      swap1\n      pop\n        /* \"#utility.yul\":3285:3651   */\n      swap2\n      swap1\n      pop\n      jump\t// out\n        /* \"#utility.yul\":3657:4076   */\n    tag_49:\n        /* \"#utility.yul\":3823:3827   */\n      0x00\n        /* \"#utility.yul\":3861:3863   */\n      0x20\n        /* \"#utility.yul\":3850:3859   */\n      dup3\n        /* \"#utility.yul\":3846:3864   */\n      add\n        /* \"#utility.yul\":3838:3864   */\n      swap1\n      pop\n        /* \"#utility.yul\":3910:3919   */\n      dup2\n        /* \"#utility.yul\":3904:3908   */\n      dup2\n        /* \"#utility.yul\":3900:3920   */\n      sub\n        /* \"#utility.yul\":3896:3897   */\n      0x00\n        /* \"#utility.yul\":3885:3894   */\n      dup4\n        /* \"#utility.yul\":3881:3898   */\n      add\n        /* \"#utility.yul\":3874:3921   */\n      mstore\n        /* \"#utility.yul\":3938:4069   */\n      tag_163\n        /* \"#utility.yul\":4064:4068   */\n      dup2\n        /* \"#utility.yul\":3938:4069   */\n      tag_104\n      jump\t// in\n    tag_163:\n        /* \"#utility.yul\":3930:4069   */\n      swap1\n      pop\n        /* \"#utility.yul\":3657:4076   */\n      swap2\n      swap1\n      pop\n      jump\t// out\n        /* \"#utility.yul\":4082:4229   */\n    tag_105:\n        /* \"#utility.yul\":4183:4194   */\n      0x00\n        /* \"#utility.yul\":4220:4223   */\n      dup2\n        /* \"#utility.yul\":4205:4223   */\n      swap1\n      pop\n        /* \"#utility.yul\":4082:4229   */\n      swap3\n      swap2\n      pop\n      pop\n      jump\t// out\n        /* \"#utility.yul\":4235:4349   */\n    tag_106:\n      pop\n      jump\t// out\n        /* \"#utility.yul\":4355:4753   */\n    tag_107:\n        /* \"#utility.yul\":4514:4517   */\n      0x00\n        /* \"#utility.yul\":4535:4618   */\n      tag_167\n        /* \"#utility.yul\":4616:4617   */\n      0x00\n        /* \"#utility.yul\":4611:4614   */\n      dup4\n        /* \"#utility.yul\":4535:4618   */\n      tag_105\n      jump\t// in\n    tag_167:\n        /* \"#utility.yul\":4528:4618   */\n      swap2\n      pop\n        /* \"#utility.yul\":4627:4720   */\n      tag_168\n        /* \"#utility.yul\":4716:4719   */\n      dup3\n        /* \"#utility.yul\":4627:4720   */\n      tag_106\n      jump\t// in\n    tag_168:\n        /* \"#utility.yul\":4745:4746   */\n      0x00\n        /* \"#utility.yul\":4740:4743   */\n      dup3\n        /* \"#utility.yul\":4736:4747   */\n      add\n        /* \"#utility.yul\":4729:4747   */\n      swap1\n      pop\n        /* \"#utility.yul\":4355:4753   */\n      swap2\n      swap1\n      pop\n      jump\t// out\n        /* \"#utility.yul\":4759:5138   */\n    tag_51:\n        /* \"#utility.yul\":4943:4946   */\n      0x00\n        /* \"#utility.yul\":4965:5112   */\n      tag_170\n        /* \"#utility.yul\":5108:5111   */\n      dup3\n        /* \"#utility.yul\":4965:5112   */\n      tag_107\n      jump\t// in\n    tag_170:\n        /* \"#utility.yul\":4958:5112   */\n      swap2\n      pop\n        /* \"#utility.yul\":5129:5132   */\n      dup2\n        /* \"#utility.yul\":5122:5132   */\n      swap1\n      pop\n        /* \"#utility.yul\":4759:5138   */\n      swap2\n      swap1\n      pop\n      jump\t// out\n        /* \"#utility.yul\":5144:5305   */\n    tag_108:\n        /* \"#utility.yul\":5284:5297   */\n      0x43616c6c206661696c6564000000000000000000000000000000000000000000\n        /* \"#utility.yul\":5280:5281   */\n      0x00\n        /* \"#utility.yul\":5272:5278   */\n      dup3\n        /* \"#utility.yul\":5268:5282   */\n      add\n        /* \"#utility.yul\":5261:5298   */\n      mstore\n        /* \"#utility.yul\":5144:5305   */\n      pop\n      jump\t// out\n        /* \"#utility.yul\":5311:5677   */\n    tag_109:\n        /* \"#utility.yul\":5453:5456   */\n      0x00\n        /* \"#utility.yul\":5474:5541   */\n      tag_173\n        /* \"#utility.yul\":5538:5540   */\n      0x0b\n        /* \"#utility.yul\":5533:5536   */\n      dup4\n        /* \"#utility.yul\":5474:5541   */\n      tag_102\n      jump\t// in\n    tag_173:\n        /* \"#utility.yul\":5467:5541   */\n      swap2\n      pop\n        /* \"#utility.yul\":5550:5643   */\n      tag_174\n        /* \"#utility.yul\":5639:5642   */\n      dup3\n        /* \"#utility.yul\":5550:5643   */\n      tag_108\n      jump\t// in\n    tag_174:\n        /* \"#utility.yul\":5668:5670   */\n      0x20\n        /* \"#utility.yul\":5663:5666   */\n      dup3\n        /* \"#utility.yul\":5659:5671   */\n      add\n        /* \"#utility.yul\":5652:5671   */\n      swap1\n      pop\n        /* \"#utility.yul\":5311:5677   */\n      swap2\n      swap1\n      pop\n      jump\t// out\n        /* \"#utility.yul\":5683:6102   */\n    tag_57:\n        /* \"#utility.yul\":5849:5853   */\n      0x00\n        /* \"#utility.yul\":5887:5889   */\n      0x20\n        /* \"#utility.yul\":5876:5885   */\n      dup3\n        /* \"#utility.yul\":5872:5890   */\n      add\n        /* \"#utility.yul\":5864:5890   */\n      swap1\n      pop\n        /* \"#utility.yul\":5936:5945   */\n      dup2\n        /* \"#utility.yul\":5930:5934   */\n      dup2\n        /* \"#utility.yul\":5926:5946   */\n      sub\n        /* \"#utility.yul\":5922:5923   */\n      0x00\n        /* \"#utility.yul\":5911:5920   */\n      dup4\n        /* \"#utility.yul\":5907:5924   */\n      add\n        /* \"#utility.yul\":5900:5947   */\n      mstore\n        /* \"#utility.yul\":5964:6095   */\n      tag_176\n        /* \"#utility.yul\":6090:6094   */\n      dup2\n        /* \"#utility.yul\":5964:6095   */\n      tag_109\n      jump\t// in\n    tag_176:\n        /* \"#utility.yul\":5956:6095   */\n      swap1\n      pop\n        /* \"#utility.yul\":5683:6102   */\n      swap2\n      swap1\n      pop\n      jump\t// out\n        /* \"#utility.yul\":6108:6342   */\n    tag_110:\n        /* \"#utility.yul\":6248:6282   */\n      0x57687920736f204b616e6a7573212053656e642074686520656e746972652061\n        /* \"#utility.yul\":6244:6245   */\n      0x00\n        /* \"#utility.yul\":6236:6242   */\n      dup3\n        /* \"#utility.yul\":6232:6246   */\n      add\n        /* \"#utility.yul\":6225:6283   */\n      mstore\n        /* \"#utility.yul\":6317:6334   */\n      0x6d6f756e74207370656369666965640000000000000000000000000000000000\n        /* \"#utility.yul\":6312:6314   */\n      0x20\n        /* \"#utility.yul\":6304:6310   */\n      dup3\n        /* \"#utility.yul\":6300:6315   */\n      add\n        /* \"#utility.yul\":6293:6335   */\n      mstore\n        /* \"#utility.yul\":6108:6342   */\n      pop\n      jump\t// out\n        /* \"#utility.yul\":6348:6714   */\n    tag_111:\n        /* \"#utility.yul\":6490:6493   */\n      0x00\n        /* \"#utility.yul\":6511:6578   */\n      tag_179\n        /* \"#utility.yul\":6575:6577   */\n      0x2f\n        /* \"#utility.yul\":6570:6573   */\n      dup4\n        /* \"#utility.yul\":6511:6578   */\n      tag_102\n      jump\t// in\n    tag_179:\n        /* \"#utility.yul\":6504:6578   */\n      swap2\n      pop\n        /* \"#utility.yul\":6587:6680   */\n      tag_180\n        /* \"#utility.yul\":6676:6679   */\n      dup3\n        /* \"#utility.yul\":6587:6680   */\n      tag_110\n      jump\t// in\n    tag_180:\n        /* \"#utility.yul\":6705:6707   */\n      0x40\n        /* \"#utility.yul\":6700:6703   */\n      dup3\n        /* \"#utility.yul\":6696:6708   */\n      add\n        /* \"#utility.yul\":6689:6708   */\n      swap1\n      pop\n        /* \"#utility.yul\":6348:6714   */\n      swap2\n      swap1\n      pop\n      jump\t// out\n        /* \"#utility.yul\":6720:7139   */\n    tag_63:\n        /* \"#utility.yul\":6886:6890   */\n      0x00\n        /* \"#utility.yul\":6924:6926   */\n      0x20\n        /* \"#utility.yul\":6913:6922   */\n      dup3\n        /* \"#utility.yul\":6909:6927   */\n      add\n        /* \"#utility.yul\":6901:6927   */\n      swap1\n      pop\n        /* \"#utility.yul\":6973:6982   */\n      dup2\n        /* \"#utility.yul\":6967:6971   */\n      dup2\n        /* \"#utility.yul\":6963:6983   */\n      sub\n        /* \"#utility.yul\":6959:6960   */\n      0x00\n        /* \"#utility.yul\":6948:6957   */\n      dup4\n        /* \"#utility.yul\":6944:6961   */\n      add\n        /* \"#utility.yul\":6937:6984   */\n      mstore\n        /* \"#utility.yul\":7001:7132   */\n      tag_182\n        /* \"#utility.yul\":7127:7131   */\n      dup2\n        /* \"#utility.yul\":7001:7132   */\n      tag_111\n      jump\t// in\n    tag_182:\n        /* \"#utility.yul\":6993:7132   */\n      swap1\n      pop\n        /* \"#utility.yul\":6720:7139   */\n      swap2\n      swap1\n      pop\n      jump\t// out\n        /* \"#utility.yul\":7145:7325   */\n    tag_112:\n        /* \"#utility.yul\":7193:7270   */\n      0x4e487b7100000000000000000000000000000000000000000000000000000000\n        /* \"#utility.yul\":7190:7191   */\n      0x00\n        /* \"#utility.yul\":7183:7271   */\n      mstore\n        /* \"#utility.yul\":7290:7294   */\n      0x11\n        /* \"#utility.yul\":7287:7288   */\n      0x04\n        /* \"#utility.yul\":7280:7295   */\n      mstore\n        /* \"#utility.yul\":7314:7318   */\n      0x24\n        /* \"#utility.yul\":7311:7312   */\n      0x00\n        /* \"#utility.yul\":7304:7319   */\n      revert\n        /* \"#utility.yul\":7331:7522   */\n    tag_66:\n        /* \"#utility.yul\":7371:7374   */\n      0x00\n        /* \"#utility.yul\":7390:7410   */\n      tag_185\n        /* \"#utility.yul\":7408:7409   */\n      dup3\n        /* \"#utility.yul\":7390:7410   */\n      tag_97\n      jump\t// in\n    tag_185:\n        /* \"#utility.yul\":7385:7410   */\n      swap2\n      pop\n        /* \"#utility.yul\":7424:7444   */\n      tag_186\n        /* \"#utility.yul\":7442:7443   */\n      dup4\n        /* \"#utility.yul\":7424:7444   */\n      tag_97\n      jump\t// in\n    tag_186:\n        /* \"#utility.yul\":7419:7444   */\n      swap3\n      pop\n        /* \"#utility.yul\":7467:7468   */\n      dup3\n        /* \"#utility.yul\":7464:7465   */\n      dup3\n        /* \"#utility.yul\":7460:7469   */\n      add\n        /* \"#utility.yul\":7453:7469   */\n      swap1\n      pop\n        /* \"#utility.yul\":7488:7491   */\n      dup1\n        /* \"#utility.yul\":7485:7486   */\n      dup3\n        /* \"#utility.yul\":7482:7492   */\n      gt\n        /* \"#utility.yul\":7479:7515   */\n      iszero\n      tag_187\n      jumpi\n        /* \"#utility.yul\":7495:7513   */\n      tag_188\n      tag_112\n      jump\t// in\n    tag_188:\n        /* \"#utility.yul\":7479:7515   */\n    tag_187:\n        /* \"#utility.yul\":7331:7522   */\n      swap3\n      swap2\n      pop\n      pop\n      jump\t// out\n        /* \"#utility.yul\":7528:7938   */\n    tag_73:\n        /* \"#utility.yul\":7568:7575   */\n      0x00\n        /* \"#utility.yul\":7591:7611   */\n      tag_190\n        /* \"#utility.yul\":7609:7610   */\n      dup3\n        /* \"#utility.yul\":7591:7611   */\n      tag_97\n      jump\t// in\n    tag_190:\n        /* \"#utility.yul\":7586:7611   */\n      swap2\n      pop\n        /* \"#utility.yul\":7625:7645   */\n      tag_191\n        /* \"#utility.yul\":7643:7644   */\n      dup4\n        /* \"#utility.yul\":7625:7645   */\n      tag_97\n      jump\t// in\n    tag_191:\n        /* \"#utility.yul\":7620:7645   */\n      swap3\n      pop\n        /* \"#utility.yul\":7680:7681   */\n      dup3\n        /* \"#utility.yul\":7677:7678   */\n      dup3\n        /* \"#utility.yul\":7673:7682   */\n      mul\n        /* \"#utility.yul\":7702:7732   */\n      tag_192\n        /* \"#utility.yul\":7720:7731   */\n      dup2\n        /* \"#utility.yul\":7702:7732   */\n      tag_97\n      jump\t// in\n    tag_192:\n        /* \"#utility.yul\":7691:7732   */\n      swap2\n      pop\n        /* \"#utility.yul\":7881:7882   */\n      dup3\n        /* \"#utility.yul\":7872:7879   */\n      dup3\n        /* \"#utility.yul\":7868:7883   */\n      div\n        /* \"#utility.yul\":7865:7866   */\n      dup5\n        /* \"#utility.yul\":7862:7884   */\n      eq\n        /* \"#utility.yul\":7842:7843   */\n      dup4\n        /* \"#utility.yul\":7835:7844   */\n      iszero\n        /* \"#utility.yul\":7815:7898   */\n      or\n        /* \"#utility.yul\":7792:7931   */\n      tag_193\n      jumpi\n        /* \"#utility.yul\":7911:7929   */\n      tag_194\n      tag_112\n      jump\t// in\n    tag_194:\n        /* \"#utility.yul\":7792:7931   */\n    tag_193:\n        /* \"#utility.yul\":7576:7938   */\n      pop\n        /* \"#utility.yul\":7528:7938   */\n      swap3\n      swap2\n      pop\n      pop\n      jump\t// out\n        /* \"#utility.yul\":7944:8124   */\n    tag_113:\n        /* \"#utility.yul\":7992:8069   */\n      0x4e487b7100000000000000000000000000000000000000000000000000000000\n        /* \"#utility.yul\":7989:7990   */\n      0x00\n        /* \"#utility.yul\":7982:8070   */\n      mstore\n        /* \"#utility.yul\":8089:8093   */\n      0x12\n        /* \"#utility.yul\":8086:8087   */\n      0x04\n        /* \"#utility.yul\":8079:8094   */\n      mstore\n        /* \"#utility.yul\":8113:8117   */\n      0x24\n        /* \"#utility.yul\":8110:8111   */\n      0x00\n        /* \"#utility.yul\":8103:8118   */\n      revert\n        /* \"#utility.yul\":8130:8315   */\n    tag_75:\n        /* \"#utility.yul\":8170:8171   */\n      0x00\n        /* \"#utility.yul\":8187:8207   */\n      tag_197\n        /* \"#utility.yul\":8205:8206   */\n      dup3\n        /* \"#utility.yul\":8187:8207   */\n      tag_97\n      jump\t// in\n    tag_197:\n        /* \"#utility.yul\":8182:8207   */\n      swap2\n      pop\n        /* \"#utility.yul\":8221:8241   */\n      tag_198\n        /* \"#utility.yul\":8239:8240   */\n      dup4\n        /* \"#utility.yul\":8221:8241   */\n      tag_97\n      jump\t// in\n    tag_198:\n        /* \"#utility.yul\":8216:8241   */\n      swap3\n      pop\n        /* \"#utility.yul\":8260:8261   */\n      dup3\n        /* \"#utility.yul\":8250:8285   */\n      tag_199\n      jumpi\n        /* \"#utility.yul\":8265:8283   */\n      tag_200\n      tag_113\n      jump\t// in\n    tag_200:\n        /* \"#utility.yul\":8250:8285   */\n    tag_199:\n        /* \"#utility.yul\":8307:8308   */\n      dup3\n        /* \"#utility.yul\":8304:8305   */\n      dup3\n        /* \"#utility.yul\":8300:8309   */\n      div\n        /* \"#utility.yul\":8295:8309   */\n      swap1\n      pop\n        /* \"#utility.yul\":8130:8315   */\n      swap3\n      swap2\n      pop\n      pop\n      jump\t// out\n        /* \"#utility.yul\":8321:8426   */\n    tag_114:\n        /* \"#utility.yul\":8357:8364   */\n      0x00\n        /* \"#utility.yul\":8397:8419   */\n      0xffffffffffffffffffff\n        /* \"#utility.yul\":8390:8395   */\n      dup3\n        /* \"#utility.yul\":8386:8420   */\n      and\n        /* \"#utility.yul\":8375:8420   */\n      swap1\n      pop\n        /* \"#utility.yul\":8321:8426   */\n      swap2\n      swap1\n      pop\n      jump\t// out\n        /* \"#utility.yul\":8432:8552   */\n    tag_115:\n        /* \"#utility.yul\":8504:8527   */\n      tag_203\n        /* \"#utility.yul\":8521:8526   */\n      dup2\n        /* \"#utility.yul\":8504:8527   */\n      tag_114\n      jump\t// in\n    tag_203:\n        /* \"#utility.yul\":8497:8502   */\n      dup2\n        /* \"#utility.yul\":8494:8528   */\n      eq\n        /* \"#utility.yul\":8484:8546   */\n      tag_204\n      jumpi\n        /* \"#utility.yul\":8542:8543   */\n      0x00\n        /* \"#utility.yul\":8539:8540   */\n      dup1\n        /* \"#utility.yul\":8532:8544   */\n      revert\n        /* \"#utility.yul\":8484:8546   */\n    tag_204:\n        /* \"#utility.yul\":8432:8552   */\n      pop\n      jump\t// out\n        /* \"#utility.yul\":8558:8699   */\n    tag_116:\n        /* \"#utility.yul\":8614:8619   */\n      0x00\n        /* \"#utility.yul\":8645:8651   */\n      dup2\n        /* \"#utility.yul\":8639:8652   */\n      mload\n        /* \"#utility.yul\":8630:8652   */\n      swap1\n      pop\n        /* \"#utility.yul\":8661:8693   */\n      tag_206\n        /* \"#utility.yul\":8687:8692   */\n      dup2\n        /* \"#utility.yul\":8661:8693   */\n      tag_115\n      jump\t// in\n    tag_206:\n        /* \"#utility.yul\":8558:8699   */\n      swap3\n      swap2\n      pop\n      pop\n      jump\t// out\n        /* \"#utility.yul\":8705:8781   */\n    tag_117:\n        /* \"#utility.yul\":8741:8748   */\n      0x00\n        /* \"#utility.yul\":8770:8775   */\n      dup2\n        /* \"#utility.yul\":8759:8775   */\n      swap1\n      pop\n        /* \"#utility.yul\":8705:8781   */\n      swap2\n      swap1\n      pop\n      jump\t// out\n        /* \"#utility.yul\":8787:8907   */\n    tag_118:\n        /* \"#utility.yul\":8859:8882   */\n      tag_209\n        /* \"#utility.yul\":8876:8881   */\n      dup2\n        /* \"#utility.yul\":8859:8882   */\n      tag_117\n      jump\t// in\n    tag_209:\n        /* \"#utility.yul\":8852:8857   */\n      dup2\n        /* \"#utility.yul\":8849:8883   */\n      eq\n        /* \"#utility.yul\":8839:8901   */\n      tag_210\n      jumpi\n        /* \"#utility.yul\":8897:8898   */\n      0x00\n        /* \"#utility.yul\":8894:8895   */\n      dup1\n        /* \"#utility.yul\":8887:8899   */\n      revert\n        /* \"#utility.yul\":8839:8901   */\n    tag_210:\n        /* \"#utility.yul\":8787:8907   */\n      pop\n      jump\t// out\n        /* \"#utility.yul\":8913:9054   */\n    tag_119:\n        /* \"#utility.yul\":8969:8974   */\n      0x00\n        /* \"#utility.yul\":9000:9006   */\n      dup2\n        /* \"#utility.yul\":8994:9007   */\n      mload\n        /* \"#utility.yul\":8985:9007   */\n      swap1\n      pop\n        /* \"#utility.yul\":9016:9048   */\n      tag_212\n        /* \"#utility.yul\":9042:9047   */\n      dup2\n        /* \"#utility.yul\":9016:9048   */\n      tag_118\n      jump\t// in\n    tag_212:\n        /* \"#utility.yul\":8913:9054   */\n      swap3\n      swap2\n      pop\n      pop\n      jump\t// out\n        /* \"#utility.yul\":9060:9203   */\n    tag_120:\n        /* \"#utility.yul\":9117:9122   */\n      0x00\n        /* \"#utility.yul\":9148:9154   */\n      dup2\n        /* \"#utility.yul\":9142:9155   */\n      mload\n        /* \"#utility.yul\":9133:9155   */\n      swap1\n      pop\n        /* \"#utility.yul\":9164:9197   */\n      tag_214\n        /* \"#utility.yul\":9191:9196   */\n      dup2\n        /* \"#utility.yul\":9164:9197   */\n      tag_99\n      jump\t// in\n    tag_214:\n        /* \"#utility.yul\":9060:9203   */\n      swap3\n      swap2\n      pop\n      pop\n      jump\t// out\n        /* \"#utility.yul\":9209:10180   */\n    tag_80:\n        /* \"#utility.yul\":9312:9318   */\n      0x00\n        /* \"#utility.yul\":9320:9326   */\n      dup1\n        /* \"#utility.yul\":9328:9334   */\n      0x00\n        /* \"#utility.yul\":9336:9342   */\n      dup1\n        /* \"#utility.yul\":9344:9350   */\n      0x00\n        /* \"#utility.yul\":9393:9396   */\n      0xa0\n        /* \"#utility.yul\":9381:9390   */\n      dup7\n        /* \"#utility.yul\":9372:9379   */\n      dup9\n        /* \"#utility.yul\":9368:9391   */\n      sub\n        /* \"#utility.yul\":9364:9397   */\n      slt\n        /* \"#utility.yul\":9361:9481   */\n      iszero\n      tag_216\n      jumpi\n        /* \"#utility.yul\":9400:9479   */\n      tag_217\n      tag_91\n      jump\t// in\n    tag_217:\n        /* \"#utility.yul\":9361:9481   */\n    tag_216:\n        /* \"#utility.yul\":9520:9521   */\n      0x00\n        /* \"#utility.yul\":9545:9608   */\n      tag_218\n        /* \"#utility.yul\":9600:9607   */\n      dup9\n        /* \"#utility.yul\":9591:9597   */\n      dup3\n        /* \"#utility.yul\":9580:9589   */\n      dup10\n        /* \"#utility.yul\":9576:9598   */\n      add\n        /* \"#utility.yul\":9545:9608   */\n      tag_116\n      jump\t// in\n    tag_218:\n        /* \"#utility.yul\":9535:9608   */\n      swap6\n      pop\n        /* \"#utility.yul\":9491:9618   */\n      pop\n        /* \"#utility.yul\":9657:9659   */\n      0x20\n        /* \"#utility.yul\":9683:9746   */\n      tag_219\n        /* \"#utility.yul\":9738:9745   */\n      dup9\n        /* \"#utility.yul\":9729:9735   */\n      dup3\n        /* \"#utility.yul\":9718:9727   */\n      dup10\n        /* \"#utility.yul\":9714:9736   */\n      add\n        /* \"#utility.yul\":9683:9746   */\n      tag_119\n      jump\t// in\n    tag_219:\n        /* \"#utility.yul\":9673:9746   */\n      swap5\n      pop\n        /* \"#utility.yul\":9628:9756   */\n      pop\n        /* \"#utility.yul\":9795:9797   */\n      0x40\n        /* \"#utility.yul\":9821:9885   */\n      tag_220\n        /* \"#utility.yul\":9877:9884   */\n      dup9\n        /* \"#utility.yul\":9868:9874   */\n      dup3\n        /* \"#utility.yul\":9857:9866   */\n      dup10\n        /* \"#utility.yul\":9853:9875   */\n      add\n        /* \"#utility.yul\":9821:9885   */\n      tag_120\n      jump\t// in\n    tag_220:\n        /* \"#utility.yul\":9811:9885   */\n      swap4\n      pop\n        /* \"#utility.yul\":9766:9895   */\n      pop\n        /* \"#utility.yul\":9934:9936   */\n      0x60\n        /* \"#utility.yul\":9960:10024   */\n      tag_221\n        /* \"#utility.yul\":10016:10023   */\n      dup9\n        /* \"#utility.yul\":10007:10013   */\n      dup3\n        /* \"#utility.yul\":9996:10005   */\n      dup10\n        /* \"#utility.yul\":9992:10014   */\n      add\n        /* \"#utility.yul\":9960:10024   */\n      tag_120\n      jump\t// in\n    tag_221:\n        /* \"#utility.yul\":9950:10024   */\n      swap3\n      pop\n        /* \"#utility.yul\":9905:10034   */\n      pop\n        /* \"#utility.yul\":10073:10076   */\n      0x80\n        /* \"#utility.yul\":10100:10163   */\n      tag_222\n        /* \"#utility.yul\":10155:10162   */\n      dup9\n        /* \"#utility.yul\":10146:10152   */\n      dup3\n        /* \"#utility.yul\":10135:10144   */\n      dup10\n        /* \"#utility.yul\":10131:10153   */\n      add\n        /* \"#utility.yul\":10100:10163   */\n      tag_116\n      jump\t// in\n    tag_222:\n        /* \"#utility.yul\":10090:10163   */\n      swap2\n      pop\n        /* \"#utility.yul\":10044:10173   */\n      pop\n        /* \"#utility.yul\":9209:10180   */\n      swap3\n      swap6\n      pop\n      swap3\n      swap6\n      swap1\n      swap4\n      pop\n      jump\t// out\n        /* \"#utility.yul\":10186:10742   */\n    tag_82:\n        /* \"#utility.yul\":10225:10232   */\n      0x00\n        /* \"#utility.yul\":10248:10267   */\n      tag_224\n        /* \"#utility.yul\":10265:10266   */\n      dup3\n        /* \"#utility.yul\":10248:10267   */\n      tag_117\n      jump\t// in\n    tag_224:\n        /* \"#utility.yul\":10243:10267   */\n      swap2\n      pop\n        /* \"#utility.yul\":10281:10300   */\n      tag_225\n        /* \"#utility.yul\":10298:10299   */\n      dup4\n        /* \"#utility.yul\":10281:10300   */\n      tag_117\n      jump\t// in\n    tag_225:\n        /* \"#utility.yul\":10276:10300   */\n      swap3\n      pop\n        /* \"#utility.yul\":10335:10336   */\n      dup3\n        /* \"#utility.yul\":10332:10333   */\n      dup3\n        /* \"#utility.yul\":10328:10337   */\n      mul\n        /* \"#utility.yul\":10357:10386   */\n      tag_226\n        /* \"#utility.yul\":10374:10385   */\n      dup2\n        /* \"#utility.yul\":10357:10386   */\n      tag_117\n      jump\t// in\n    tag_226:\n        /* \"#utility.yul\":10346:10386   */\n      swap2\n      pop\n        /* \"#utility.yul\":10444:10510   */\n      0x8000000000000000000000000000000000000000000000000000000000000000\n        /* \"#utility.yul\":10441:10442   */\n      dup5\n        /* \"#utility.yul\":10438:10511   */\n      eq\n        /* \"#utility.yul\":10434:10435   */\n      0x00\n        /* \"#utility.yul\":10431:10432   */\n      dup5\n        /* \"#utility.yul\":10427:10436   */\n      slt\n        /* \"#utility.yul\":10423:10512   */\n      and\n        /* \"#utility.yul\":10420:10535   */\n      iszero\n      tag_227\n      jumpi\n        /* \"#utility.yul\":10515:10533   */\n      tag_228\n      tag_112\n      jump\t// in\n    tag_228:\n        /* \"#utility.yul\":10420:10535   */\n    tag_227:\n        /* \"#utility.yul\":10685:10686   */\n      dup3\n        /* \"#utility.yul\":10676:10683   */\n      dup3\n        /* \"#utility.yul\":10671:10687   */\n      sdiv\n        /* \"#utility.yul\":10668:10669   */\n      dup5\n        /* \"#utility.yul\":10665:10688   */\n      eq\n        /* \"#utility.yul\":10645:10646   */\n      dup4\n        /* \"#utility.yul\":10638:10647   */\n      iszero\n        /* \"#utility.yul\":10618:10702   */\n      or\n        /* \"#utility.yul\":10595:10735   */\n      tag_229\n      jumpi\n        /* \"#utility.yul\":10715:10733   */\n      tag_230\n      tag_112\n      jump\t// in\n    tag_230:\n        /* \"#utility.yul\":10595:10735   */\n    tag_229:\n        /* \"#utility.yul\":10233:10742   */\n      pop\n        /* \"#utility.yul\":10186:10742   */\n      swap3\n      swap2\n      pop\n      pop\n      jump\t// out\n\n    auxdata: 0xa26469706673582212208fd27e05c54eaee634718ebf494a06cf097c9883aa373efca26eac109a1c932f64736f6c634300081a0033\n}\n",
				"bytecode": {
					"linkReferences": {},
					"object": "6080604052676124fee993bc00005f553480156019575f80fd5b50610c2f806100275f395ff3fe608060405260043610610049575f3560e01c80633ccfd60b1461004d5780633e47d6f314610063578063b60d42881461009f578063dc0d3dff146100a9578063dc992aa0146100e5575b5f80fd5b348015610058575f80fd5b5061006161010f565b005b34801561006e575f80fd5b50610089600480360381019061008491906106a6565b610374565b60405161009691906106e9565b60405180910390f35b6100a7610389565b005b3480156100b4575f80fd5b506100cf60048036038101906100ca919061072c565b610489565b6040516100dc9190610766565b60405180910390f35b3480156100f0575f80fd5b506100f96104c4565b60405161010691906106e9565b60405180910390f35b5f5b6001805490508110156101ad575f600182815481106101335761013261077f565b5b905f5260205f20015f9054906101000a900473ffffffffffffffffffffffffffffffffffffffff1690505f60025f8373ffffffffffffffffffffffffffffffffffffffff1673ffffffffffffffffffffffffffffffffffffffff1681526020019081526020015f2081905550508080600101915050610111565b505f67ffffffffffffffff8111156101c8576101c76107ac565b5b6040519080825280602002602001820160405280156101f65781602001602082028036833780820191505090505b506001908051906020019061020c9291906105a6565b503373ffffffffffffffffffffffffffffffffffffffff166108fc4790811502906040515f60405180830381858888f19350505050158015610250573d5f803e3d5ffd5b505f3373ffffffffffffffffffffffffffffffffffffffff166108fc4790811502906040515f60405180830381858888f193505050509050806102c8576040517f08c379a00000000000000000000000000000000000000000000000000000000081526004016102bf90610833565b60405180910390fd5b5f3373ffffffffffffffffffffffffffffffffffffffff16476040516102ed9061087e565b5f6040518083038185875af1925050503d805f8114610327576040519150601f19603f3d011682016040523d82523d5f602084013e61032c565b606091505b5050905080610370576040517f08c379a0000000000000000000000000000000000000000000000000000000008152600401610367906108dc565b60405180910390fd5b5050565b6002602052805f5260405f205f915090505481565b5f54610394346104c9565b116103d4576040517f08c379a00000000000000000000000000000000000000000000000000000000081526004016103cb9061096a565b60405180910390fd5b600133908060018154018082558091505060019003905f5260205f20015f9091909190916101000a81548173ffffffffffffffffffffffffffffffffffffffff021916908373ffffffffffffffffffffffffffffffffffffffff1602179055503460025f3373ffffffffffffffffffffffffffffffffffffffff1673ffffffffffffffffffffffffffffffffffffffff1681526020019081526020015f205f82825461048091906109b5565b92505081905550565b60018181548110610498575f80fd5b905f5260205f20015f915054906101000a900473ffffffffffffffffffffffffffffffffffffffff1681565b5f5481565b5f806104d3610501565b90505f670de0b6b3a764000084836104eb91906109e8565b6104f59190610a56565b90508092505050919050565b5f8073694aa1769357215de4fac081bf1f309adc32530690505f8173ffffffffffffffffffffffffffffffffffffffff1663feaf968c6040518163ffffffff1660e01b815260040160a060405180830381865afa158015610564573d5f803e3d5ffd5b505050506040513d601f19601f820116820180604052508101906105889190610b0c565b5050509150506402540be4008161059f9190610b83565b9250505090565b828054828255905f5260205f2090810192821561061c579160200282015b8281111561061b578251825f6101000a81548173ffffffffffffffffffffffffffffffffffffffff021916908373ffffffffffffffffffffffffffffffffffffffff160217905550916020019190600101906105c4565b5b509050610629919061062d565b5090565b5b80821115610644575f815f90555060010161062e565b5090565b5f80fd5b5f73ffffffffffffffffffffffffffffffffffffffff82169050919050565b5f6106758261064c565b9050919050565b6106858161066b565b811461068f575f80fd5b50565b5f813590506106a08161067c565b92915050565b5f602082840312156106bb576106ba610648565b5b5f6106c884828501610692565b91505092915050565b5f819050919050565b6106e3816106d1565b82525050565b5f6020820190506106fc5f8301846106da565b92915050565b61070b816106d1565b8114610715575f80fd5b50565b5f8135905061072681610702565b92915050565b5f6020828403121561074157610740610648565b5b5f61074e84828501610718565b91505092915050565b6107608161066b565b82525050565b5f6020820190506107795f830184610757565b92915050565b7f4e487b71000000000000000000000000000000000000000000000000000000005f52603260045260245ffd5b7f4e487b71000000000000000000000000000000000000000000000000000000005f52604160045260245ffd5b5f82825260208201905092915050565b7f53656e64206661696c65640000000000000000000000000000000000000000005f82015250565b5f61081d600b836107d9565b9150610828826107e9565b602082019050919050565b5f6020820190508181035f83015261084a81610811565b9050919050565b5f81905092915050565b50565b5f6108695f83610851565b91506108748261085b565b5f82019050919050565b5f6108888261085e565b9150819050919050565b7f43616c6c206661696c65640000000000000000000000000000000000000000005f82015250565b5f6108c6600b836107d9565b91506108d182610892565b602082019050919050565b5f6020820190508181035f8301526108f3816108ba565b9050919050565b7f57687920736f204b616e6a7573212053656e642074686520656e7469726520615f8201527f6d6f756e74207370656369666965640000000000000000000000000000000000602082015250565b5f610954602f836107d9565b915061095f826108fa565b604082019050919050565b5f6020820190508181035f83015261098181610948565b9050919050565b7f4e487b71000000000000000000000000000000000000000000000000000000005f52601160045260245ffd5b5f6109bf826106d1565b91506109ca836106d1565b92508282019050808211156109e2576109e1610988565b5b92915050565b5f6109f2826106d1565b91506109fd836106d1565b9250828202610a0b816106d1565b91508282048414831517610a2257610a21610988565b5b5092915050565b7f4e487b71000000000000000000000000000000000000000000000000000000005f52601260045260245ffd5b5f610a60826106d1565b9150610a6b836106d1565b925082610a7b57610a7a610a29565b5b828204905092915050565b5f69ffffffffffffffffffff82169050919050565b610aa481610a86565b8114610aae575f80fd5b50565b5f81519050610abf81610a9b565b92915050565b5f819050919050565b610ad781610ac5565b8114610ae1575f80fd5b50565b5f81519050610af281610ace565b92915050565b5f81519050610b0681610702565b92915050565b5f805f805f60a08688031215610b2557610b24610648565b5b5f610b3288828901610ab1565b9550506020610b4388828901610ae4565b9450506040610b5488828901610af8565b9350506060610b6588828901610af8565b9250506080610b7688828901610ab1565b9150509295509295909350565b5f610b8d82610ac5565b9150610b9883610ac5565b9250828202610ba681610ac5565b91507f800000000000000000000000000000000000000000000000000000000000000084145f84121615610bdd57610bdc610988565b5b8282058414831517610bf257610bf1610988565b5b509291505056fea26469706673582212208fd27e05c54eaee634718ebf494a06cf097c9883aa373efca26eac109a1c932f64736f6c634300081a0033",
					"opcodes": "PUSH1 0x80 PUSH1 0x40 MSTORE PUSH8 0x6124FEE993BC0000 PUSH0 SSTORE CALLVALUE DUP1 ISZERO PUSH1 0x19 JUMPI PUSH0 DUP1 REVERT JUMPDEST POP PUSH2 0xC2F DUP1 PUSH2 0x27 PUSH0 CODECOPY PUSH0 RETURN INVALID PUSH1 0x80 PUSH1 0x40 MSTORE PUSH1 0x4 CALLDATASIZE LT PUSH2 0x49 JUMPI PUSH0 CALLDATALOAD PUSH1 0xE0 SHR DUP1 PUSH4 0x3CCFD60B EQ PUSH2 0x4D JUMPI DUP1 PUSH4 0x3E47D6F3 EQ PUSH2 0x63 JUMPI DUP1 PUSH4 0xB60D4288 EQ PUSH2 0x9F JUMPI DUP1 PUSH4 0xDC0D3DFF EQ PUSH2 0xA9 JUMPI DUP1 PUSH4 0xDC992AA0 EQ PUSH2 0xE5 JUMPI JUMPDEST PUSH0 DUP1 REVERT JUMPDEST CALLVALUE DUP1 ISZERO PUSH2 0x58 JUMPI PUSH0 DUP1 REVERT JUMPDEST POP PUSH2 0x61 PUSH2 0x10F JUMP JUMPDEST STOP JUMPDEST CALLVALUE DUP1 ISZERO PUSH2 0x6E JUMPI PUSH0 DUP1 REVERT JUMPDEST POP PUSH2 0x89 PUSH1 0x4 DUP1 CALLDATASIZE SUB DUP2 ADD SWAP1 PUSH2 0x84 SWAP2 SWAP1 PUSH2 0x6A6 JUMP JUMPDEST PUSH2 0x374 JUMP JUMPDEST PUSH1 0x40 MLOAD PUSH2 0x96 SWAP2 SWAP1 PUSH2 0x6E9 JUMP JUMPDEST PUSH1 0x40 MLOAD DUP1 SWAP2 SUB SWAP1 RETURN JUMPDEST PUSH2 0xA7 PUSH2 0x389 JUMP JUMPDEST STOP JUMPDEST CALLVALUE DUP1 ISZERO PUSH2 0xB4 JUMPI PUSH0 DUP1 REVERT JUMPDEST POP PUSH2 0xCF PUSH1 0x4 DUP1 CALLDATASIZE SUB DUP2 ADD SWAP1 PUSH2 0xCA SWAP2 SWAP1 PUSH2 0x72C JUMP JUMPDEST PUSH2 0x489 JUMP JUMPDEST PUSH1 0x40 MLOAD PUSH2 0xDC SWAP2 SWAP1 PUSH2 0x766 JUMP JUMPDEST PUSH1 0x40 MLOAD DUP1 SWAP2 SUB SWAP1 RETURN JUMPDEST CALLVALUE DUP1 ISZERO PUSH2 0xF0 JUMPI PUSH0 DUP1 REVERT JUMPDEST POP PUSH2 0xF9 PUSH2 0x4C4 JUMP JUMPDEST PUSH1 0x40 MLOAD PUSH2 0x106 SWAP2 SWAP1 PUSH2 0x6E9 JUMP JUMPDEST PUSH1 0x40 MLOAD DUP1 SWAP2 SUB SWAP1 RETURN JUMPDEST PUSH0 JUMPDEST PUSH1 0x1 DUP1 SLOAD SWAP1 POP DUP2 LT ISZERO PUSH2 0x1AD JUMPI PUSH0 PUSH1 0x1 DUP3 DUP2 SLOAD DUP2 LT PUSH2 0x133 JUMPI PUSH2 0x132 PUSH2 0x77F JUMP JUMPDEST JUMPDEST SWAP1 PUSH0 MSTORE PUSH1 0x20 PUSH0 KECCAK256 ADD PUSH0 SWAP1 SLOAD SWAP1 PUSH2 0x100 EXP SWAP1 DIV PUSH20 0xFFFFFFFFFFFFFFFFFFFFFFFFFFFFFFFFFFFFFFFF AND SWAP1 POP PUSH0 PUSH1 0x2 PUSH0 DUP4 PUSH20 0xFFFFFFFFFFFFFFFFFFFFFFFFFFFFFFFFFFFFFFFF AND PUSH20 0xFFFFFFFFFFFFFFFFFFFFFFFFFFFFFFFFFFFFFFFF AND DUP2 MSTORE PUSH1 0x20 ADD SWAP1 DUP2 MSTORE PUSH1 0x20 ADD PUSH0 KECCAK256 DUP2 SWAP1 SSTORE POP POP DUP1 DUP1 PUSH1 0x1 ADD SWAP2 POP POP PUSH2 0x111 JUMP JUMPDEST POP PUSH0 PUSH8 0xFFFFFFFFFFFFFFFF DUP2 GT ISZERO PUSH2 0x1C8 JUMPI PUSH2 0x1C7 PUSH2 0x7AC JUMP JUMPDEST JUMPDEST PUSH1 0x40 MLOAD SWAP1 DUP1 DUP3 MSTORE DUP1 PUSH1 0x20 MUL PUSH1 0x20 ADD DUP3 ADD PUSH1 0x40 MSTORE DUP1 ISZERO PUSH2 0x1F6 JUMPI DUP2 PUSH1 0x20 ADD PUSH1 0x20 DUP3 MUL DUP1 CALLDATASIZE DUP4 CALLDATACOPY DUP1 DUP3 ADD SWAP2 POP POP SWAP1 POP JUMPDEST POP PUSH1 0x1 SWAP1 DUP1 MLOAD SWAP1 PUSH1 0x20 ADD SWAP1 PUSH2 0x20C SWAP3 SWAP2 SWAP1 PUSH2 0x5A6 JUMP JUMPDEST POP CALLER PUSH20 0xFFFFFFFFFFFFFFFFFFFFFFFFFFFFFFFFFFFFFFFF AND PUSH2 0x8FC SELFBALANCE SWAP1 DUP2 ISZERO MUL SWAP1 PUSH1 0x40 MLOAD PUSH0 PUSH1 0x40 MLOAD DUP1 DUP4 SUB DUP2 DUP6 DUP9 DUP9 CALL SWAP4 POP POP POP POP ISZERO DUP1 ISZERO PUSH2 0x250 JUMPI RETURNDATASIZE PUSH0 DUP1 RETURNDATACOPY RETURNDATASIZE PUSH0 REVERT JUMPDEST POP PUSH0 CALLER PUSH20 0xFFFFFFFFFFFFFFFFFFFFFFFFFFFFFFFFFFFFFFFF AND PUSH2 0x8FC SELFBALANCE SWAP1 DUP2 ISZERO MUL SWAP1 PUSH1 0x40 MLOAD PUSH0 PUSH1 0x40 MLOAD DUP1 DUP4 SUB DUP2 DUP6 DUP9 DUP9 CALL SWAP4 POP POP POP POP SWAP1 POP DUP1 PUSH2 0x2C8 JUMPI PUSH1 0x40 MLOAD PUSH32 0x8C379A000000000000000000000000000000000000000000000000000000000 DUP2 MSTORE PUSH1 0x4 ADD PUSH2 0x2BF SWAP1 PUSH2 0x833 JUMP JUMPDEST PUSH1 0x40 MLOAD DUP1 SWAP2 SUB SWAP1 REVERT JUMPDEST PUSH0 CALLER PUSH20 0xFFFFFFFFFFFFFFFFFFFFFFFFFFFFFFFFFFFFFFFF AND SELFBALANCE PUSH1 0x40 MLOAD PUSH2 0x2ED SWAP1 PUSH2 0x87E JUMP JUMPDEST PUSH0 PUSH1 0x40 MLOAD DUP1 DUP4 SUB DUP2 DUP6 DUP8 GAS CALL SWAP3 POP POP POP RETURNDATASIZE DUP1 PUSH0 DUP2 EQ PUSH2 0x327 JUMPI PUSH1 0x40 MLOAD SWAP2 POP PUSH1 0x1F NOT PUSH1 0x3F RETURNDATASIZE ADD AND DUP3 ADD PUSH1 0x40 MSTORE RETURNDATASIZE DUP3 MSTORE RETURNDATASIZE PUSH0 PUSH1 0x20 DUP5 ADD RETURNDATACOPY PUSH2 0x32C JUMP JUMPDEST PUSH1 0x60 SWAP2 POP JUMPDEST POP POP SWAP1 POP DUP1 PUSH2 0x370 JUMPI PUSH1 0x40 MLOAD PUSH32 0x8C379A000000000000000000000000000000000000000000000000000000000 DUP2 MSTORE PUSH1 0x4 ADD PUSH2 0x367 SWAP1 PUSH2 0x8DC JUMP JUMPDEST PUSH1 0x40 MLOAD DUP1 SWAP2 SUB SWAP1 REVERT JUMPDEST POP POP JUMP JUMPDEST PUSH1 0x2 PUSH1 0x20 MSTORE DUP1 PUSH0 MSTORE PUSH1 0x40 PUSH0 KECCAK256 PUSH0 SWAP2 POP SWAP1 POP SLOAD DUP2 JUMP JUMPDEST PUSH0 SLOAD PUSH2 0x394 CALLVALUE PUSH2 0x4C9 JUMP JUMPDEST GT PUSH2 0x3D4 JUMPI PUSH1 0x40 MLOAD PUSH32 0x8C379A000000000000000000000000000000000000000000000000000000000 DUP2 MSTORE PUSH1 0x4 ADD PUSH2 0x3CB SWAP1 PUSH2 0x96A JUMP JUMPDEST PUSH1 0x40 MLOAD DUP1 SWAP2 SUB SWAP1 REVERT JUMPDEST PUSH1 0x1 CALLER SWAP1 DUP1 PUSH1 0x1 DUP2 SLOAD ADD DUP1 DUP3 SSTORE DUP1 SWAP2 POP POP PUSH1 0x1 SWAP1 SUB SWAP1 PUSH0 MSTORE PUSH1 0x20 PUSH0 KECCAK256 ADD PUSH0 SWAP1 SWAP2 SWAP1 SWAP2 SWAP1 SWAP2 PUSH2 0x100 EXP DUP2 SLOAD DUP2 PUSH20 0xFFFFFFFFFFFFFFFFFFFFFFFFFFFFFFFFFFFFFFFF MUL NOT AND SWAP1 DUP4 PUSH20 0xFFFFFFFFFFFFFFFFFFFFFFFFFFFFFFFFFFFFFFFF AND MUL OR SWAP1 SSTORE POP CALLVALUE PUSH1 0x2 PUSH0 CALLER PUSH20 0xFFFFFFFFFFFFFFFFFFFFFFFFFFFFFFFFFFFFFFFF AND PUSH20 0xFFFFFFFFFFFFFFFFFFFFFFFFFFFFFFFFFFFFFFFF AND DUP2 MSTORE PUSH1 0x20 ADD SWAP1 DUP2 MSTORE PUSH1 0x20 ADD PUSH0 KECCAK256 PUSH0 DUP3 DUP3 SLOAD PUSH2 0x480 SWAP2 SWAP1 PUSH2 0x9B5 JUMP JUMPDEST SWAP3 POP POP DUP2 SWAP1 SSTORE POP JUMP JUMPDEST PUSH1 0x1 DUP2 DUP2 SLOAD DUP2 LT PUSH2 0x498 JUMPI PUSH0 DUP1 REVERT JUMPDEST SWAP1 PUSH0 MSTORE PUSH1 0x20 PUSH0 KECCAK256 ADD PUSH0 SWAP2 POP SLOAD SWAP1 PUSH2 0x100 EXP SWAP1 DIV PUSH20 0xFFFFFFFFFFFFFFFFFFFFFFFFFFFFFFFFFFFFFFFF AND DUP2 JUMP JUMPDEST PUSH0 SLOAD DUP2 JUMP JUMPDEST PUSH0 DUP1 PUSH2 0x4D3 PUSH2 0x501 JUMP JUMPDEST SWAP1 POP PUSH0 PUSH8 0xDE0B6B3A7640000 DUP5 DUP4 PUSH2 0x4EB SWAP2 SWAP1 PUSH2 0x9E8 JUMP JUMPDEST PUSH2 0x4F5 SWAP2 SWAP1 PUSH2 0xA56 JUMP JUMPDEST SWAP1 POP DUP1 SWAP3 POP POP POP SWAP2 SWAP1 POP JUMP JUMPDEST PUSH0 DUP1 PUSH20 0x694AA1769357215DE4FAC081BF1F309ADC325306 SWAP1 POP PUSH0 DUP2 PUSH20 0xFFFFFFFFFFFFFFFFFFFFFFFFFFFFFFFFFFFFFFFF AND PUSH4 0xFEAF968C PUSH1 0x40 MLOAD DUP2 PUSH4 0xFFFFFFFF AND PUSH1 0xE0 SHL DUP2 MSTORE PUSH1 0x4 ADD PUSH1 0xA0 PUSH1 0x40 MLOAD DUP1 DUP4 SUB DUP2 DUP7 GAS STATICCALL ISZERO DUP1 ISZERO PUSH2 0x564 JUMPI RETURNDATASIZE PUSH0 DUP1 RETURNDATACOPY RETURNDATASIZE PUSH0 REVERT JUMPDEST POP POP POP POP PUSH1 0x40 MLOAD RETURNDATASIZE PUSH1 0x1F NOT PUSH1 0x1F DUP3 ADD AND DUP3 ADD DUP1 PUSH1 0x40 MSTORE POP DUP2 ADD SWAP1 PUSH2 0x588 SWAP2 SWAP1 PUSH2 0xB0C JUMP JUMPDEST POP POP POP SWAP2 POP POP PUSH5 0x2540BE400 DUP2 PUSH2 0x59F SWAP2 SWAP1 PUSH2 0xB83 JUMP JUMPDEST SWAP3 POP POP POP SWAP1 JUMP JUMPDEST DUP3 DUP1 SLOAD DUP3 DUP3 SSTORE SWAP1 PUSH0 MSTORE PUSH1 0x20 PUSH0 KECCAK256 SWAP1 DUP2 ADD SWAP3 DUP3 ISZERO PUSH2 0x61C JUMPI SWAP2 PUSH1 0x20 MUL DUP3 ADD JUMPDEST DUP3 DUP2 GT ISZERO PUSH2 0x61B JUMPI DUP3 MLOAD DUP3 PUSH0 PUSH2 0x100 EXP DUP2 SLOAD DUP2 PUSH20 0xFFFFFFFFFFFFFFFFFFFFFFFFFFFFFFFFFFFFFFFF MUL NOT AND SWAP1 DUP4 PUSH20 0xFFFFFFFFFFFFFFFFFFFFFFFFFFFFFFFFFFFFFFFF AND MUL OR SWAP1 SSTORE POP SWAP2 PUSH1 0x20 ADD SWAP2 SWAP1 PUSH1 0x1 ADD SWAP1 PUSH2 0x5C4 JUMP JUMPDEST JUMPDEST POP SWAP1 POP PUSH2 0x629 SWAP2 SWAP1 PUSH2 0x62D JUMP JUMPDEST POP SWAP1 JUMP JUMPDEST JUMPDEST DUP1 DUP3 GT ISZERO PUSH2 0x644 JUMPI PUSH0 DUP2 PUSH0 SWAP1 SSTORE POP PUSH1 0x1 ADD PUSH2 0x62E JUMP JUMPDEST POP SWAP1 JUMP JUMPDEST PUSH0 DUP1 REVERT JUMPDEST PUSH0 PUSH20 0xFFFFFFFFFFFFFFFFFFFFFFFFFFFFFFFFFFFFFFFF DUP3 AND SWAP1 POP SWAP2 SWAP1 POP JUMP JUMPDEST PUSH0 PUSH2 0x675 DUP3 PUSH2 0x64C JUMP JUMPDEST SWAP1 POP SWAP2 SWAP1 POP JUMP JUMPDEST PUSH2 0x685 DUP2 PUSH2 0x66B JUMP JUMPDEST DUP2 EQ PUSH2 0x68F JUMPI PUSH0 DUP1 REVERT JUMPDEST POP JUMP JUMPDEST PUSH0 DUP2 CALLDATALOAD SWAP1 POP PUSH2 0x6A0 DUP2 PUSH2 0x67C JUMP JUMPDEST SWAP3 SWAP2 POP POP JUMP JUMPDEST PUSH0 PUSH1 0x20 DUP3 DUP5 SUB SLT ISZERO PUSH2 0x6BB JUMPI PUSH2 0x6BA PUSH2 0x648 JUMP JUMPDEST JUMPDEST PUSH0 PUSH2 0x6C8 DUP5 DUP3 DUP6 ADD PUSH2 0x692 JUMP JUMPDEST SWAP2 POP POP SWAP3 SWAP2 POP POP JUMP JUMPDEST PUSH0 DUP2 SWAP1 POP SWAP2 SWAP1 POP JUMP JUMPDEST PUSH2 0x6E3 DUP2 PUSH2 0x6D1 JUMP JUMPDEST DUP3 MSTORE POP POP JUMP JUMPDEST PUSH0 PUSH1 0x20 DUP3 ADD SWAP1 POP PUSH2 0x6FC PUSH0 DUP4 ADD DUP5 PUSH2 0x6DA JUMP JUMPDEST SWAP3 SWAP2 POP POP JUMP JUMPDEST PUSH2 0x70B DUP2 PUSH2 0x6D1 JUMP JUMPDEST DUP2 EQ PUSH2 0x715 JUMPI PUSH0 DUP1 REVERT JUMPDEST POP JUMP JUMPDEST PUSH0 DUP2 CALLDATALOAD SWAP1 POP PUSH2 0x726 DUP2 PUSH2 0x702 JUMP JUMPDEST SWAP3 SWAP2 POP POP JUMP JUMPDEST PUSH0 PUSH1 0x20 DUP3 DUP5 SUB SLT ISZERO PUSH2 0x741 JUMPI PUSH2 0x740 PUSH2 0x648 JUMP JUMPDEST JUMPDEST PUSH0 PUSH2 0x74E DUP5 DUP3 DUP6 ADD PUSH2 0x718 JUMP JUMPDEST SWAP2 POP POP SWAP3 SWAP2 POP POP JUMP JUMPDEST PUSH2 0x760 DUP2 PUSH2 0x66B JUMP JUMPDEST DUP3 MSTORE POP POP JUMP JUMPDEST PUSH0 PUSH1 0x20 DUP3 ADD SWAP1 POP PUSH2 0x779 PUSH0 DUP4 ADD DUP5 PUSH2 0x757 JUMP JUMPDEST SWAP3 SWAP2 POP POP JUMP JUMPDEST PUSH32 0x4E487B7100000000000000000000000000000000000000000000000000000000 PUSH0 MSTORE PUSH1 0x32 PUSH1 0x4 MSTORE PUSH1 0x24 PUSH0 REVERT JUMPDEST PUSH32 0x4E487B7100000000000000000000000000000000000000000000000000000000 PUSH0 MSTORE PUSH1 0x41 PUSH1 0x4 MSTORE PUSH1 0x24 PUSH0 REVERT JUMPDEST PUSH0 DUP3 DUP3 MSTORE PUSH1 0x20 DUP3 ADD SWAP1 POP SWAP3 SWAP2 POP POP JUMP JUMPDEST PUSH32 0x53656E64206661696C6564000000000000000000000000000000000000000000 PUSH0 DUP3 ADD MSTORE POP JUMP JUMPDEST PUSH0 PUSH2 0x81D PUSH1 0xB DUP4 PUSH2 0x7D9 JUMP JUMPDEST SWAP2 POP PUSH2 0x828 DUP3 PUSH2 0x7E9 JUMP JUMPDEST PUSH1 0x20 DUP3 ADD SWAP1 POP SWAP2 SWAP1 POP JUMP JUMPDEST PUSH0 PUSH1 0x20 DUP3 ADD SWAP1 POP DUP2 DUP2 SUB PUSH0 DUP4 ADD MSTORE PUSH2 0x84A DUP2 PUSH2 0x811 JUMP JUMPDEST SWAP1 POP SWAP2 SWAP1 POP JUMP JUMPDEST PUSH0 DUP2 SWAP1 POP SWAP3 SWAP2 POP POP JUMP JUMPDEST POP JUMP JUMPDEST PUSH0 PUSH2 0x869 PUSH0 DUP4 PUSH2 0x851 JUMP JUMPDEST SWAP2 POP PUSH2 0x874 DUP3 PUSH2 0x85B JUMP JUMPDEST PUSH0 DUP3 ADD SWAP1 POP SWAP2 SWAP1 POP JUMP JUMPDEST PUSH0 PUSH2 0x888 DUP3 PUSH2 0x85E JUMP JUMPDEST SWAP2 POP DUP2 SWAP1 POP SWAP2 SWAP1 POP JUMP JUMPDEST PUSH32 0x43616C6C206661696C6564000000000000000000000000000000000000000000 PUSH0 DUP3 ADD MSTORE POP JUMP JUMPDEST PUSH0 PUSH2 0x8C6 PUSH1 0xB DUP4 PUSH2 0x7D9 JUMP JUMPDEST SWAP2 POP PUSH2 0x8D1 DUP3 PUSH2 0x892 JUMP JUMPDEST PUSH1 0x20 DUP3 ADD SWAP1 POP SWAP2 SWAP1 POP JUMP JUMPDEST PUSH0 PUSH1 0x20 DUP3 ADD SWAP1 POP DUP2 DUP2 SUB PUSH0 DUP4 ADD MSTORE PUSH2 0x8F3 DUP2 PUSH2 0x8BA JUMP JUMPDEST SWAP1 POP SWAP2 SWAP1 POP JUMP JUMPDEST PUSH32 0x57687920736F204B616E6A7573212053656E642074686520656E746972652061 PUSH0 DUP3 ADD MSTORE PUSH32 0x6D6F756E74207370656369666965640000000000000000000000000000000000 PUSH1 0x20 DUP3 ADD MSTORE POP JUMP JUMPDEST PUSH0 PUSH2 0x954 PUSH1 0x2F DUP4 PUSH2 0x7D9 JUMP JUMPDEST SWAP2 POP PUSH2 0x95F DUP3 PUSH2 0x8FA JUMP JUMPDEST PUSH1 0x40 DUP3 ADD SWAP1 POP SWAP2 SWAP1 POP JUMP JUMPDEST PUSH0 PUSH1 0x20 DUP3 ADD SWAP1 POP DUP2 DUP2 SUB PUSH0 DUP4 ADD MSTORE PUSH2 0x981 DUP2 PUSH2 0x948 JUMP JUMPDEST SWAP1 POP SWAP2 SWAP1 POP JUMP JUMPDEST PUSH32 0x4E487B7100000000000000000000000000000000000000000000000000000000 PUSH0 MSTORE PUSH1 0x11 PUSH1 0x4 MSTORE PUSH1 0x24 PUSH0 REVERT JUMPDEST PUSH0 PUSH2 0x9BF DUP3 PUSH2 0x6D1 JUMP JUMPDEST SWAP2 POP PUSH2 0x9CA DUP4 PUSH2 0x6D1 JUMP JUMPDEST SWAP3 POP DUP3 DUP3 ADD SWAP1 POP DUP1 DUP3 GT ISZERO PUSH2 0x9E2 JUMPI PUSH2 0x9E1 PUSH2 0x988 JUMP JUMPDEST JUMPDEST SWAP3 SWAP2 POP POP JUMP JUMPDEST PUSH0 PUSH2 0x9F2 DUP3 PUSH2 0x6D1 JUMP JUMPDEST SWAP2 POP PUSH2 0x9FD DUP4 PUSH2 0x6D1 JUMP JUMPDEST SWAP3 POP DUP3 DUP3 MUL PUSH2 0xA0B DUP2 PUSH2 0x6D1 JUMP JUMPDEST SWAP2 POP DUP3 DUP3 DIV DUP5 EQ DUP4 ISZERO OR PUSH2 0xA22 JUMPI PUSH2 0xA21 PUSH2 0x988 JUMP JUMPDEST JUMPDEST POP SWAP3 SWAP2 POP POP JUMP JUMPDEST PUSH32 0x4E487B7100000000000000000000000000000000000000000000000000000000 PUSH0 MSTORE PUSH1 0x12 PUSH1 0x4 MSTORE PUSH1 0x24 PUSH0 REVERT JUMPDEST PUSH0 PUSH2 0xA60 DUP3 PUSH2 0x6D1 JUMP JUMPDEST SWAP2 POP PUSH2 0xA6B DUP4 PUSH2 0x6D1 JUMP JUMPDEST SWAP3 POP DUP3 PUSH2 0xA7B JUMPI PUSH2 0xA7A PUSH2 0xA29 JUMP JUMPDEST JUMPDEST DUP3 DUP3 DIV SWAP1 POP SWAP3 SWAP2 POP POP JUMP JUMPDEST PUSH0 PUSH10 0xFFFFFFFFFFFFFFFFFFFF DUP3 AND SWAP1 POP SWAP2 SWAP1 POP JUMP JUMPDEST PUSH2 0xAA4 DUP2 PUSH2 0xA86 JUMP JUMPDEST DUP2 EQ PUSH2 0xAAE JUMPI PUSH0 DUP1 REVERT JUMPDEST POP JUMP JUMPDEST PUSH0 DUP2 MLOAD SWAP1 POP PUSH2 0xABF DUP2 PUSH2 0xA9B JUMP JUMPDEST SWAP3 SWAP2 POP POP JUMP JUMPDEST PUSH0 DUP2 SWAP1 POP SWAP2 SWAP1 POP JUMP JUMPDEST PUSH2 0xAD7 DUP2 PUSH2 0xAC5 JUMP JUMPDEST DUP2 EQ PUSH2 0xAE1 JUMPI PUSH0 DUP1 REVERT JUMPDEST POP JUMP JUMPDEST PUSH0 DUP2 MLOAD SWAP1 POP PUSH2 0xAF2 DUP2 PUSH2 0xACE JUMP JUMPDEST SWAP3 SWAP2 POP POP JUMP JUMPDEST PUSH0 DUP2 MLOAD SWAP1 POP PUSH2 0xB06 DUP2 PUSH2 0x702 JUMP JUMPDEST SWAP3 SWAP2 POP POP JUMP JUMPDEST PUSH0 DUP1 PUSH0 DUP1 PUSH0 PUSH1 0xA0 DUP7 DUP9 SUB SLT ISZERO PUSH2 0xB25 JUMPI PUSH2 0xB24 PUSH2 0x648 JUMP JUMPDEST JUMPDEST PUSH0 PUSH2 0xB32 DUP9 DUP3 DUP10 ADD PUSH2 0xAB1 JUMP JUMPDEST SWAP6 POP POP PUSH1 0x20 PUSH2 0xB43 DUP9 DUP3 DUP10 ADD PUSH2 0xAE4 JUMP JUMPDEST SWAP5 POP POP PUSH1 0x40 PUSH2 0xB54 DUP9 DUP3 DUP10 ADD PUSH2 0xAF8 JUMP JUMPDEST SWAP4 POP POP PUSH1 0x60 PUSH2 0xB65 DUP9 DUP3 DUP10 ADD PUSH2 0xAF8 JUMP JUMPDEST SWAP3 POP POP PUSH1 0x80 PUSH2 0xB76 DUP9 DUP3 DUP10 ADD PUSH2 0xAB1 JUMP JUMPDEST SWAP2 POP POP SWAP3 SWAP6 POP SWAP3 SWAP6 SWAP1 SWAP4 POP JUMP JUMPDEST PUSH0 PUSH2 0xB8D DUP3 PUSH2 0xAC5 JUMP JUMPDEST SWAP2 POP PUSH2 0xB98 DUP4 PUSH2 0xAC5 JUMP JUMPDEST SWAP3 POP DUP3 DUP3 MUL PUSH2 0xBA6 DUP2 PUSH2 0xAC5 JUMP JUMPDEST SWAP2 POP PUSH32 0x8000000000000000000000000000000000000000000000000000000000000000 DUP5 EQ PUSH0 DUP5 SLT AND ISZERO PUSH2 0xBDD JUMPI PUSH2 0xBDC PUSH2 0x988 JUMP JUMPDEST JUMPDEST DUP3 DUP3 SDIV DUP5 EQ DUP4 ISZERO OR PUSH2 0xBF2 JUMPI PUSH2 0xBF1 PUSH2 0x988 JUMP JUMPDEST JUMPDEST POP SWAP3 SWAP2 POP POP JUMP INVALID LOG2 PUSH5 0x6970667358 0x22 SLT KECCAK256 DUP16 0xD2 PUSH31 0x5C54EAEE634718EBF494A06CF097C9883AA373EFCA26EAC109A1C932F6473 PUSH16 0x6C634300081A00330000000000000000 "
				},
				"gasEstimates": {
					"creation": {
						"codeDepositCost": "623800",
						"executionCost": "22760",
						"totalCost": "646560"
					},
					"external": {
						"addressToAmountFunded(address)": "2802",
						"fund()": "infinite",
						"funders(uint256)": "4988",
						"minUSD()": "2490",
						"withdraw()": "infinite"
					}
				},
				"methodIdentifiers": {
					"addressToAmountFunded(address)": "3e47d6f3",
					"fund()": "b60d4288",
					"funders(uint256)": "dc0d3dff",
					"minUSD()": "dc992aa0",
					"withdraw()": "3ccfd60b"
				}
			},
			"storageLayout": {
				"storage": [
					{
						"astId": 55,
						"contract": "contracts/FundMe.sol:FundMe",
						"label": "minUSD",
						"offset": 0,
						"slot": "0",
						"type": "t_uint256"
					},
					{
						"astId": 58,
						"contract": "contracts/FundMe.sol:FundMe",
						"label": "funders",
						"offset": 0,
						"slot": "1",
						"type": "t_array(t_address)dyn_storage"
					},
					{
						"astId": 62,
						"contract": "contracts/FundMe.sol:FundMe",
						"label": "addressToAmountFunded",
						"offset": 0,
						"slot": "2",
						"type": "t_mapping(t_address,t_uint256)"
					}
				],
				"types": {
					"t_address": {
						"encoding": "inplace",
						"label": "address",
						"numberOfBytes": "20"
					},
					"t_array(t_address)dyn_storage": {
						"base": "t_address",
						"encoding": "dynamic_array",
						"label": "address[]",
						"numberOfBytes": "32"
					},
					"t_mapping(t_address,t_uint256)": {
						"encoding": "mapping",
						"key": "t_address",
						"label": "mapping(address => uint256)",
						"numberOfBytes": "32",
						"value": "t_uint256"
					},
					"t_uint256": {
						"encoding": "inplace",
						"label": "uint256",
						"numberOfBytes": "32"
					}
				}
			},
			"userdoc": {
				"kind": "user",
				"methods": {},
				"version": 1
			}
		}
	}
}