{
	"contracts/FundMe.sol": {
		"FundMe": {
			"abi": [
				{
					"inputs": [],
					"stateMutability": "nonpayable",
					"type": "constructor"
				},
				{
					"inputs": [
						{
							"internalType": "address",
							"name": "funder",
							"type": "address"
						}
					],
					"name": "addressToAmountFunded",
					"outputs": [
						{
							"internalType": "uint256",
							"name": "amountFunded",
							"type": "uint256"
						}
					],
					"stateMutability": "view",
					"type": "function"
				},
				{
					"inputs": [],
					"name": "fund",
					"outputs": [],
					"stateMutability": "payable",
					"type": "function"
				},
				{
					"inputs": [
						{
							"internalType": "uint256",
							"name": "",
							"type": "uint256"
						}
					],
					"name": "funders",
					"outputs": [
						{
							"internalType": "address",
							"name": "",
							"type": "address"
						}
					],
					"stateMutability": "view",
					"type": "function"
				},
				{
					"inputs": [],
					"name": "minUSD",
					"outputs": [
						{
							"internalType": "uint256",
							"name": "",
							"type": "uint256"
						}
					],
					"stateMutability": "view",
					"type": "function"
				},
				{
					"inputs": [],
					"name": "owner",
					"outputs": [
						{
							"internalType": "address",
							"name": "",
							"type": "address"
						}
					],
					"stateMutability": "view",
					"type": "function"
				},
				{
					"inputs": [],
					"name": "withdraw",
					"outputs": [],
					"stateMutability": "nonpayable",
					"type": "function"
				}
			],
			"devdoc": {
				"kind": "dev",
				"methods": {},
				"version": 1
			},
			"evm": {
				"assembly": "    /* \"contracts/FundMe.sol\":1103:6082  contract FundMe {... */\n  mstore(0x40, 0x80)\n    /* \"contracts/FundMe.sol\":1361:1365  7e18 */\n  0x6124fee993bc0000\n    /* \"contracts/FundMe.sol\":1337:1365  uint256 public minUSD = 7e18 */\n  0x00\n  sstore\n    /* \"contracts/FundMe.sol\":1700:1752  constructor () {... */\n  callvalue\n  dup1\n  iszero\n  tag_1\n  jumpi\n  0x00\n  dup1\n  revert\ntag_1:\n  pop\n    /* \"contracts/FundMe.sol\":1734:1744  msg.sender */\n  caller\n    /* \"contracts/FundMe.sol\":1726:1731  owner */\n  0x03\n  0x00\n    /* \"contracts/FundMe.sol\":1726:1744  owner = msg.sender */\n  0x0100\n  exp\n  dup2\n  sload\n  dup2\n  0xffffffffffffffffffffffffffffffffffffffff\n  mul\n  not\n  and\n  swap1\n  dup4\n  0xffffffffffffffffffffffffffffffffffffffff\n  and\n  mul\n  or\n  swap1\n  sstore\n  pop\n    /* \"contracts/FundMe.sol\":1103:6082  contract FundMe {... */\n  dataSize(sub_0)\n  dup1\n  dataOffset(sub_0)\n  0x00\n  codecopy\n  0x00\n  return\nstop\n\nsub_0: assembly {\n        /* \"contracts/FundMe.sol\":1103:6082  contract FundMe {... */\n      mstore(0x40, 0x80)\n      jumpi(tag_1, lt(calldatasize, 0x04))\n      shr(0xe0, calldataload(0x00))\n      dup1\n      0x3ccfd60b\n      eq\n      tag_2\n      jumpi\n      dup1\n      0x3e47d6f3\n      eq\n      tag_3\n      jumpi\n      dup1\n      0x8da5cb5b\n      eq\n      tag_4\n      jumpi\n      dup1\n      0xb60d4288\n      eq\n      tag_5\n      jumpi\n      dup1\n      0xdc0d3dff\n      eq\n      tag_6\n      jumpi\n      dup1\n      0xdc992aa0\n      eq\n      tag_7\n      jumpi\n    tag_1:\n      0x00\n      dup1\n      revert\n        /* \"contracts/FundMe.sol\":4292:5793  function withdraw() public onlyOwner {... */\n    tag_2:\n      callvalue\n      dup1\n      iszero\n      tag_8\n      jumpi\n      0x00\n      dup1\n      revert\n    tag_8:\n      pop\n      tag_9\n      tag_10\n      jump\t// in\n    tag_9:\n      stop\n        /* \"contracts/FundMe.sol\":1504:1580  mapping(address funder => uint256 amountFunded) public addressToAmountFunded */\n    tag_3:\n      callvalue\n      dup1\n      iszero\n      tag_11\n      jumpi\n      0x00\n      dup1\n      revert\n    tag_11:\n      pop\n      tag_12\n      0x04\n      dup1\n      calldatasize\n      sub\n      dup2\n      add\n      swap1\n      tag_13\n      swap2\n      swap1\n      tag_14\n      jump\t// in\n    tag_13:\n      tag_15\n      jump\t// in\n    tag_12:\n      mload(0x40)\n      tag_16\n      swap2\n      swap1\n      tag_17\n      jump\t// in\n    tag_16:\n      mload(0x40)\n      dup1\n      swap2\n      sub\n      swap1\n      return\n        /* \"contracts/FundMe.sol\":1673:1693  address public owner */\n    tag_4:\n      callvalue\n      dup1\n      iszero\n      tag_18\n      jumpi\n      0x00\n      dup1\n      revert\n    tag_18:\n      pop\n      tag_19\n      tag_20\n      jump\t// in\n    tag_19:\n      mload(0x40)\n      tag_21\n      swap2\n      swap1\n      tag_22\n      jump\t// in\n    tag_21:\n      mload(0x40)\n      dup1\n      swap2\n      sub\n      swap1\n      return\n        /* \"contracts/FundMe.sol\":1864:3928  function fund() public payable {... */\n    tag_5:\n      tag_23\n      tag_24\n      jump\t// in\n    tag_23:\n      stop\n        /* \"contracts/FundMe.sol\":1420:1444  address[] public funders */\n    tag_6:\n      callvalue\n      dup1\n      iszero\n      tag_25\n      jumpi\n      0x00\n      dup1\n      revert\n    tag_25:\n      pop\n      tag_26\n      0x04\n      dup1\n      calldatasize\n      sub\n      dup2\n      add\n      swap1\n      tag_27\n      swap2\n      swap1\n      tag_28\n      jump\t// in\n    tag_27:\n      tag_29\n      jump\t// in\n    tag_26:\n      mload(0x40)\n      tag_30\n      swap2\n      swap1\n      tag_22\n      jump\t// in\n    tag_30:\n      mload(0x40)\n      dup1\n      swap2\n      sub\n      swap1\n      return\n        /* \"contracts/FundMe.sol\":1337:1365  uint256 public minUSD = 7e18 */\n    tag_7:\n      callvalue\n      dup1\n      iszero\n      tag_31\n      jumpi\n      0x00\n      dup1\n      revert\n    tag_31:\n      pop\n      tag_32\n      tag_33\n      jump\t// in\n    tag_32:\n      mload(0x40)\n      tag_34\n      swap2\n      swap1\n      tag_17\n      jump\t// in\n    tag_34:\n      mload(0x40)\n      dup1\n      swap2\n      sub\n      swap1\n      return\n        /* \"contracts/FundMe.sol\":4292:5793  function withdraw() public onlyOwner {... */\n    tag_10:\n        /* \"contracts/FundMe.sol\":5970:5975  owner */\n      0x03\n      0x00\n      swap1\n      sload\n      swap1\n      0x0100\n      exp\n      swap1\n      div\n      0xffffffffffffffffffffffffffffffffffffffff\n      and\n        /* \"contracts/FundMe.sol\":5956:5975  msg.sender == owner */\n      0xffffffffffffffffffffffffffffffffffffffff\n      and\n        /* \"contracts/FundMe.sol\":5956:5966  msg.sender */\n      caller\n        /* \"contracts/FundMe.sol\":5956:5975  msg.sender == owner */\n      0xffffffffffffffffffffffffffffffffffffffff\n      and\n      eq\n        /* \"contracts/FundMe.sol\":5948:6004  require(msg.sender == owner, \"Sender needs to be owner\") */\n      tag_36\n      jumpi\n      mload(0x40)\n      0x08c379a000000000000000000000000000000000000000000000000000000000\n      dup2\n      mstore\n      0x04\n      add\n      tag_37\n      swap1\n      tag_38\n      jump\t// in\n    tag_37:\n      mload(0x40)\n      dup1\n      swap2\n      sub\n      swap1\n      revert\n    tag_36:\n        /* \"contracts/FundMe.sol\":4347:4366  uint256 funderIndex */\n      0x00\n        /* \"contracts/FundMe.sol\":4342:4529  for (uint256 funderIndex = 0; funderIndex < funders.length; funderIndex++) {... */\n    tag_40:\n        /* \"contracts/FundMe.sol\":4386:4393  funders */\n      0x01\n        /* \"contracts/FundMe.sol\":4386:4400  funders.length */\n      dup1\n      sload\n      swap1\n      pop\n        /* \"contracts/FundMe.sol\":4372:4383  funderIndex */\n      dup2\n        /* \"contracts/FundMe.sol\":4372:4400  funderIndex < funders.length */\n      lt\n        /* \"contracts/FundMe.sol\":4342:4529  for (uint256 funderIndex = 0; funderIndex < funders.length; funderIndex++) {... */\n      iszero\n      tag_41\n      jumpi\n        /* \"contracts/FundMe.sol\":4432:4446  address funder */\n      0x00\n        /* \"contracts/FundMe.sol\":4449:4456  funders */\n      0x01\n        /* \"contracts/FundMe.sol\":4457:4468  funderIndex */\n      dup3\n        /* \"contracts/FundMe.sol\":4449:4469  funders[funderIndex] */\n      dup2\n      sload\n      dup2\n      lt\n      tag_43\n      jumpi\n      tag_44\n      tag_45\n      jump\t// in\n    tag_44:\n    tag_43:\n      swap1\n      0x00\n      mstore\n      keccak256(0x00, 0x20)\n      add\n      0x00\n      swap1\n      sload\n      swap1\n      0x0100\n      exp\n      swap1\n      div\n      0xffffffffffffffffffffffffffffffffffffffff\n      and\n        /* \"contracts/FundMe.sol\":4432:4469  address funder = funders[funderIndex] */\n      swap1\n      pop\n        /* \"contracts/FundMe.sol\":4516:4517  0 */\n      0x00\n        /* \"contracts/FundMe.sol\":4484:4505  addressToAmountFunded */\n      0x02\n        /* \"contracts/FundMe.sol\":4484:4513  addressToAmountFunded[funder] */\n      0x00\n        /* \"contracts/FundMe.sol\":4506:4512  funder */\n      dup4\n        /* \"contracts/FundMe.sol\":4484:4513  addressToAmountFunded[funder] */\n      0xffffffffffffffffffffffffffffffffffffffff\n      and\n      0xffffffffffffffffffffffffffffffffffffffff\n      and\n      dup2\n      mstore\n      0x20\n      add\n      swap1\n      dup2\n      mstore\n      0x20\n      add\n      0x00\n      keccak256\n        /* \"contracts/FundMe.sol\":4484:4517  addressToAmountFunded[funder] = 0 */\n      dup2\n      swap1\n      sstore\n      pop\n        /* \"contracts/FundMe.sol\":4417:4529  {... */\n      pop\n        /* \"contracts/FundMe.sol\":4402:4415  funderIndex++ */\n      dup1\n      dup1\n      0x01\n      add\n      swap2\n      pop\n      pop\n        /* \"contracts/FundMe.sol\":4342:4529  for (uint256 funderIndex = 0; funderIndex < funders.length; funderIndex++) {... */\n      jump(tag_40)\n    tag_41:\n      pop\n        /* \"contracts/FundMe.sol\":4626:4627  0 */\n      0x00\n        /* \"contracts/FundMe.sol\":4612:4628  new address[](0) */\n      0xffffffffffffffff\n      dup2\n      gt\n      iszero\n      tag_47\n      jumpi\n      tag_48\n      tag_49\n      jump\t// in\n    tag_48:\n    tag_47:\n      mload(0x40)\n      swap1\n      dup1\n      dup3\n      mstore\n      dup1\n      0x20\n      mul\n      0x20\n      add\n      dup3\n      add\n      0x40\n      mstore\n      dup1\n      iszero\n      tag_50\n      jumpi\n      dup2\n      0x20\n      add\n      0x20\n      dup3\n      mul\n      dup1\n      calldatasize\n      dup4\n      calldatacopy\n      dup1\n      dup3\n      add\n      swap2\n      pop\n      pop\n      swap1\n      pop\n    tag_50:\n      pop\n        /* \"contracts/FundMe.sol\":4602:4609  funders */\n      0x01\n        /* \"contracts/FundMe.sol\":4602:4628  funders = new address[](0) */\n      swap1\n      dup1\n      mload\n      swap1\n      0x20\n      add\n      swap1\n      tag_51\n      swap3\n      swap2\n      swap1\n      tag_52\n      jump\t// in\n    tag_51:\n      pop\n        /* \"contracts/FundMe.sol\":5079:5089  msg.sender */\n      caller\n        /* \"contracts/FundMe.sol\":5070:5099  payable (msg.sender).transfer */\n      0xffffffffffffffffffffffffffffffffffffffff\n      and\n        /* \"contracts/FundMe.sol\":5070:5122  payable (msg.sender).transfer(address(this).balance) */\n      0x08fc\n        /* \"contracts/FundMe.sol\":5100:5121  address(this).balance */\n      selfbalance\n        /* \"contracts/FundMe.sol\":5070:5122  payable (msg.sender).transfer(address(this).balance) */\n      swap1\n      dup2\n      iszero\n      mul\n      swap1\n      mload(0x40)\n      0x00\n      mload(0x40)\n      dup1\n      dup4\n      sub\n      dup2\n      dup6\n      dup9\n      dup9\n      call\n      swap4\n      pop\n      pop\n      pop\n      pop\n      iszero\n      dup1\n      iszero\n      tag_54\n      jumpi\n      returndatasize\n      0x00\n      dup1\n      returndatacopy\n      revert(0x00, returndatasize)\n    tag_54:\n      pop\n        /* \"contracts/FundMe.sol\":5210:5226  bool sendSuccess */\n      0x00\n        /* \"contracts/FundMe.sol\":5237:5247  msg.sender */\n      caller\n        /* \"contracts/FundMe.sol\":5229:5253  payable(msg.sender).send */\n      0xffffffffffffffffffffffffffffffffffffffff\n      and\n        /* \"contracts/FundMe.sol\":5229:5276  payable(msg.sender).send(address(this).balance) */\n      0x08fc\n        /* \"contracts/FundMe.sol\":5254:5275  address(this).balance */\n      selfbalance\n        /* \"contracts/FundMe.sol\":5229:5276  payable(msg.sender).send(address(this).balance) */\n      swap1\n      dup2\n      iszero\n      mul\n      swap1\n      mload(0x40)\n      0x00\n      mload(0x40)\n      dup1\n      dup4\n      sub\n      dup2\n      dup6\n      dup9\n      dup9\n      call\n      swap4\n      pop\n      pop\n      pop\n      pop\n        /* \"contracts/FundMe.sol\":5210:5276  bool sendSuccess = payable(msg.sender).send(address(this).balance) */\n      swap1\n      pop\n        /* \"contracts/FundMe.sol\":5295:5306  sendSuccess */\n      dup1\n        /* \"contracts/FundMe.sol\":5287:5322  require(sendSuccess, \"Send failed\") */\n      tag_56\n      jumpi\n      mload(0x40)\n      0x08c379a000000000000000000000000000000000000000000000000000000000\n      dup2\n      mstore\n      0x04\n      add\n      tag_57\n      swap1\n      tag_58\n      jump\t// in\n    tag_57:\n      mload(0x40)\n      dup1\n      swap2\n      sub\n      swap1\n      revert\n    tag_56:\n        /* \"contracts/FundMe.sol\":5556:5572  bool callSuccess */\n      0x00\n        /* \"contracts/FundMe.sol\":5587:5597  msg.sender */\n      caller\n        /* \"contracts/FundMe.sol\":5578:5603  payable (msg.sender).call */\n      0xffffffffffffffffffffffffffffffffffffffff\n      and\n        /* \"contracts/FundMe.sol\":5611:5632  address(this).balance */\n      selfbalance\n        /* \"contracts/FundMe.sol\":5578:5637  payable (msg.sender).call{value: address(this).balance}(\"\") */\n      mload(0x40)\n      tag_59\n      swap1\n      tag_60\n      jump\t// in\n    tag_59:\n      0x00\n      mload(0x40)\n      dup1\n      dup4\n      sub\n      dup2\n      dup6\n      dup8\n      gas\n      call\n      swap3\n      pop\n      pop\n      pop\n      returndatasize\n      dup1\n      0x00\n      dup2\n      eq\n      tag_63\n      jumpi\n      mload(0x40)\n      swap2\n      pop\n      and(add(returndatasize, 0x3f), not(0x1f))\n      dup3\n      add\n      0x40\n      mstore\n      returndatasize\n      dup3\n      mstore\n      returndatasize\n      0x00\n      0x20\n      dup5\n      add\n      returndatacopy\n      jump(tag_62)\n    tag_63:\n      0x60\n      swap2\n      pop\n    tag_62:\n      pop\n        /* \"contracts/FundMe.sol\":5555:5637  (bool callSuccess, ) = payable (msg.sender).call{value: address(this).balance}(\"\") */\n      pop\n      swap1\n      pop\n        /* \"contracts/FundMe.sol\":5656:5667  callSuccess */\n      dup1\n        /* \"contracts/FundMe.sol\":5648:5683  require(callSuccess, \"Call failed\") */\n      tag_64\n      jumpi\n      mload(0x40)\n      0x08c379a000000000000000000000000000000000000000000000000000000000\n      dup2\n      mstore\n      0x04\n      add\n      tag_65\n      swap1\n      tag_66\n      jump\t// in\n    tag_65:\n      mload(0x40)\n      dup1\n      swap2\n      sub\n      swap1\n      revert\n    tag_64:\n        /* \"contracts/FundMe.sol\":4329:5793  {... */\n      pop\n      pop\n        /* \"contracts/FundMe.sol\":4292:5793  function withdraw() public onlyOwner {... */\n      jump\t// out\n        /* \"contracts/FundMe.sol\":1504:1580  mapping(address funder => uint256 amountFunded) public addressToAmountFunded */\n    tag_15:\n      mstore(0x20, 0x02)\n      dup1\n      0x00\n      mstore\n      keccak256(0x00, 0x40)\n      0x00\n      swap2\n      pop\n      swap1\n      pop\n      sload\n      dup2\n      jump\t// out\n        /* \"contracts/FundMe.sol\":1673:1693  address public owner */\n    tag_20:\n      0x03\n      0x00\n      swap1\n      sload\n      swap1\n      0x0100\n      exp\n      swap1\n      div\n      0xffffffffffffffffffffffffffffffffffffffff\n      and\n      dup2\n      jump\t// out\n        /* \"contracts/FundMe.sol\":1864:3928  function fund() public payable {... */\n    tag_24:\n        /* \"contracts/FundMe.sol\":2760:2766  minUSD */\n      sload(0x00)\n        /* \"contracts/FundMe.sol\":2728:2757  msg.value.getConversionRate() */\n      tag_68\n        /* \"contracts/FundMe.sol\":2728:2737  msg.value */\n      callvalue\n        /* \"contracts/FundMe.sol\":2728:2755  msg.value.getConversionRate */\n      tag_69\n        /* \"contracts/FundMe.sol\":2728:2757  msg.value.getConversionRate() */\n      jump\t// in\n    tag_68:\n        /* \"contracts/FundMe.sol\":2728:2766  msg.value.getConversionRate() > minUSD */\n      gt\n        /* \"contracts/FundMe.sol\":2720:2818  require(msg.value.getConversionRate() > minUSD, \"Why so Kanjus! Send the entire amount specified\") */\n      tag_70\n      jumpi\n      mload(0x40)\n      0x08c379a000000000000000000000000000000000000000000000000000000000\n      dup2\n      mstore\n      0x04\n      add\n      tag_71\n      swap1\n      tag_72\n      jump\t// in\n    tag_71:\n      mload(0x40)\n      dup1\n      swap2\n      sub\n      swap1\n      revert\n    tag_70:\n        /* \"contracts/FundMe.sol\":3745:3752  funders */\n      0x01\n        /* \"contracts/FundMe.sol\":3758:3768  msg.sender */\n      caller\n        /* \"contracts/FundMe.sol\":3745:3769  funders.push(msg.sender) */\n      swap1\n      dup1\n      0x01\n      dup2\n      sload\n      add\n      dup1\n      dup3\n      sstore\n      dup1\n      swap2\n      pop\n      pop\n      0x01\n      swap1\n      sub\n      swap1\n      0x00\n      mstore\n      keccak256(0x00, 0x20)\n      add\n      0x00\n      swap1\n      swap2\n      swap1\n      swap2\n      swap1\n      swap2\n      0x0100\n      exp\n      dup2\n      sload\n      dup2\n      0xffffffffffffffffffffffffffffffffffffffff\n      mul\n      not\n      and\n      swap1\n      dup4\n      0xffffffffffffffffffffffffffffffffffffffff\n      and\n      mul\n      or\n      swap1\n      sstore\n      pop\n        /* \"contracts/FundMe.sol\":3911:3920  msg.value */\n      callvalue\n        /* \"contracts/FundMe.sol\":3874:3895  addressToAmountFunded */\n      0x02\n        /* \"contracts/FundMe.sol\":3874:3907  addressToAmountFunded[msg.sender] */\n      0x00\n        /* \"contracts/FundMe.sol\":3896:3906  msg.sender */\n      caller\n        /* \"contracts/FundMe.sol\":3874:3907  addressToAmountFunded[msg.sender] */\n      0xffffffffffffffffffffffffffffffffffffffff\n      and\n      0xffffffffffffffffffffffffffffffffffffffff\n      and\n      dup2\n      mstore\n      0x20\n      add\n      swap1\n      dup2\n      mstore\n      0x20\n      add\n      0x00\n      keccak256\n      0x00\n        /* \"contracts/FundMe.sol\":3874:3920  addressToAmountFunded[msg.sender] += msg.value */\n      dup3\n      dup3\n      sload\n      tag_74\n      swap2\n      swap1\n      tag_75\n      jump\t// in\n    tag_74:\n      swap3\n      pop\n      pop\n      dup2\n      swap1\n      sstore\n      pop\n        /* \"contracts/FundMe.sol\":1864:3928  function fund() public payable {... */\n      jump\t// out\n        /* \"contracts/FundMe.sol\":1420:1444  address[] public funders */\n    tag_29:\n      0x01\n      dup2\n      dup2\n      sload\n      dup2\n      lt\n      tag_76\n      jumpi\n      0x00\n      dup1\n      revert\n    tag_76:\n      swap1\n      0x00\n      mstore\n      keccak256(0x00, 0x20)\n      add\n      0x00\n      swap2\n      pop\n      sload\n      swap1\n      0x0100\n      exp\n      swap1\n      div\n      0xffffffffffffffffffffffffffffffffffffffff\n      and\n      dup2\n      jump\t// out\n        /* \"contracts/FundMe.sol\":1337:1365  uint256 public minUSD = 7e18 */\n    tag_33:\n      sload(0x00)\n      dup2\n      jump\t// out\n        /* \"contracts/PriceConverterLibrary.sol\":1180:1738  function getConversionRate(uint256 ethAmount) internal view returns (uint256) {... */\n    tag_69:\n        /* \"contracts/PriceConverterLibrary.sol\":1249:1256  uint256 */\n      0x00\n        /* \"contracts/PriceConverterLibrary.sol\":1322:1338  uint256 ethPrice */\n      dup1\n        /* \"contracts/PriceConverterLibrary.sol\":1341:1351  getPrice() */\n      tag_79\n        /* \"contracts/PriceConverterLibrary.sol\":1341:1349  getPrice */\n      tag_80\n        /* \"contracts/PriceConverterLibrary.sol\":1341:1351  getPrice() */\n      jump\t// in\n    tag_79:\n        /* \"contracts/PriceConverterLibrary.sol\":1322:1351  uint256 ethPrice = getPrice() */\n      swap1\n      pop\n        /* \"contracts/PriceConverterLibrary.sol\":1629:1648  uint ethAmountInUsd */\n      0x00\n        /* \"contracts/PriceConverterLibrary.sol\":1672:1676  1e18 */\n      0x0de0b6b3a7640000\n        /* \"contracts/PriceConverterLibrary.sol\":1660:1669  ethAmount */\n      dup5\n        /* \"contracts/PriceConverterLibrary.sol\":1651:1659  ethPrice */\n      dup4\n        /* \"contracts/PriceConverterLibrary.sol\":1651:1669  ethPrice*ethAmount */\n      tag_81\n      swap2\n      swap1\n      tag_82\n      jump\t// in\n    tag_81:\n        /* \"contracts/PriceConverterLibrary.sol\":1651:1676  ethPrice*ethAmount / 1e18 */\n      tag_83\n      swap2\n      swap1\n      tag_84\n      jump\t// in\n    tag_83:\n        /* \"contracts/PriceConverterLibrary.sol\":1629:1676  uint ethAmountInUsd = ethPrice*ethAmount / 1e18 */\n      swap1\n      pop\n        /* \"contracts/PriceConverterLibrary.sol\":1716:1730  ethAmountInUsd */\n      dup1\n        /* \"contracts/PriceConverterLibrary.sol\":1709:1730  return ethAmountInUsd */\n      swap3\n      pop\n      pop\n      pop\n        /* \"contracts/PriceConverterLibrary.sol\":1180:1738  function getConversionRate(uint256 ethAmount) internal view returns (uint256) {... */\n      swap2\n      swap1\n      pop\n      jump\t// out\n        /* \"contracts/PriceConverterLibrary.sol\":475:1128  function getPrice() internal view returns (uint256) {... */\n    tag_80:\n        /* \"contracts/PriceConverterLibrary.sol\":518:525  uint256 */\n      0x00\n        /* \"contracts/PriceConverterLibrary.sol\":829:860  AggregatorV3Interface priceFeed */\n      dup1\n        /* \"contracts/PriceConverterLibrary.sol\":885:927  0x694AA1769357215DE4FAC081bf1f309aDC325306 */\n      0x694aa1769357215de4fac081bf1f309adc325306\n        /* \"contracts/PriceConverterLibrary.sol\":829:928  AggregatorV3Interface priceFeed = AggregatorV3Interface(0x694AA1769357215DE4FAC081bf1f309aDC325306) */\n      swap1\n      pop\n        /* \"contracts/PriceConverterLibrary.sol\":994:1007  int256 answer */\n      0x00\n        /* \"contracts/PriceConverterLibrary.sol\":1014:1023  priceFeed */\n      dup2\n        /* \"contracts/PriceConverterLibrary.sol\":1014:1039  priceFeed.latestRoundData */\n      0xffffffffffffffffffffffffffffffffffffffff\n      and\n      0xfeaf968c\n        /* \"contracts/PriceConverterLibrary.sol\":1014:1041  priceFeed.latestRoundData() */\n      mload(0x40)\n      dup2\n      0xffffffff\n      and\n      0xe0\n      shl\n      dup2\n      mstore\n      0x04\n      add\n      0xa0\n      mload(0x40)\n      dup1\n      dup4\n      sub\n      dup2\n      dup7\n      gas\n      staticcall\n      iszero\n      dup1\n      iszero\n      tag_87\n      jumpi\n      returndatasize\n      0x00\n      dup1\n      returndatacopy\n      revert(0x00, returndatasize)\n    tag_87:\n      pop\n      pop\n      pop\n      pop\n      mload(0x40)\n      returndatasize\n      not(0x1f)\n      0x1f\n      dup3\n      add\n      and\n      dup3\n      add\n      dup1\n      0x40\n      mstore\n      pop\n      dup2\n      add\n      swap1\n      tag_88\n      swap2\n      swap1\n      tag_89\n      jump\t// in\n    tag_88:\n        /* \"contracts/PriceConverterLibrary.sol\":992:1041  (,int256 answer,,,) = priceFeed.latestRoundData() */\n      pop\n      pop\n      pop\n      swap2\n      pop\n      pop\n        /* \"contracts/PriceConverterLibrary.sol\":1115:1119  1e10 */\n      0x02540be400\n        /* \"contracts/PriceConverterLibrary.sol\":1108:1114  answer */\n      dup2\n        /* \"contracts/PriceConverterLibrary.sol\":1108:1119  answer*1e10 */\n      tag_90\n      swap2\n      swap1\n      tag_91\n      jump\t// in\n    tag_90:\n        /* \"contracts/PriceConverterLibrary.sol\":1093:1120  return uint256(answer*1e10) */\n      swap3\n      pop\n      pop\n      pop\n        /* \"contracts/PriceConverterLibrary.sol\":475:1128  function getPrice() internal view returns (uint256) {... */\n      swap1\n      jump\t// out\n    tag_52:\n      dup3\n      dup1\n      sload\n      dup3\n      dup3\n      sstore\n      swap1\n      0x00\n      mstore\n      keccak256(0x00, 0x20)\n      swap1\n      dup2\n      add\n      swap3\n      dup3\n      iszero\n      tag_92\n      jumpi\n      swap2\n      0x20\n      mul\n      dup3\n      add\n    tag_93:\n      dup3\n      dup2\n      gt\n      iszero\n      tag_94\n      jumpi\n      dup3\n      mload\n      dup3\n      exp(0x0100, 0x00)\n      dup2\n      sload\n      dup2\n      0xffffffffffffffffffffffffffffffffffffffff\n      mul\n      not\n      and\n      swap1\n      dup4\n      0xffffffffffffffffffffffffffffffffffffffff\n      and\n      mul\n      or\n      swap1\n      sstore\n      pop\n      swap2\n      0x20\n      add\n      swap2\n      swap1\n      0x01\n      add\n      swap1\n      jump(tag_93)\n    tag_94:\n    tag_92:\n      pop\n      swap1\n      pop\n      tag_95\n      swap2\n      swap1\n      tag_96\n      jump\t// in\n    tag_95:\n      pop\n      swap1\n      jump\t// out\n    tag_96:\n    tag_97:\n      dup1\n      dup3\n      gt\n      iszero\n      tag_98\n      jumpi\n      0x00\n      dup2\n      0x00\n      swap1\n      sstore\n      pop\n      0x01\n      add\n      jump(tag_97)\n    tag_98:\n      pop\n      swap1\n      jump\t// out\n        /* \"#utility.yul\":88:205   */\n    tag_100:\n        /* \"#utility.yul\":197:198   */\n      0x00\n        /* \"#utility.yul\":194:195   */\n      dup1\n        /* \"#utility.yul\":187:199   */\n      revert\n        /* \"#utility.yul\":334:460   */\n    tag_102:\n        /* \"#utility.yul\":371:378   */\n      0x00\n        /* \"#utility.yul\":411:453   */\n      0xffffffffffffffffffffffffffffffffffffffff\n        /* \"#utility.yul\":404:409   */\n      dup3\n        /* \"#utility.yul\":400:454   */\n      and\n        /* \"#utility.yul\":389:454   */\n      swap1\n      pop\n        /* \"#utility.yul\":334:460   */\n      swap2\n      swap1\n      pop\n      jump\t// out\n        /* \"#utility.yul\":466:562   */\n    tag_103:\n        /* \"#utility.yul\":503:510   */\n      0x00\n        /* \"#utility.yul\":532:556   */\n      tag_138\n        /* \"#utility.yul\":550:555   */\n      dup3\n        /* \"#utility.yul\":532:556   */\n      tag_102\n      jump\t// in\n    tag_138:\n        /* \"#utility.yul\":521:556   */\n      swap1\n      pop\n        /* \"#utility.yul\":466:562   */\n      swap2\n      swap1\n      pop\n      jump\t// out\n        /* \"#utility.yul\":568:690   */\n    tag_104:\n        /* \"#utility.yul\":641:665   */\n      tag_140\n        /* \"#utility.yul\":659:664   */\n      dup2\n        /* \"#utility.yul\":641:665   */\n      tag_103\n      jump\t// in\n    tag_140:\n        /* \"#utility.yul\":634:639   */\n      dup2\n        /* \"#utility.yul\":631:666   */\n      eq\n        /* \"#utility.yul\":621:684   */\n      tag_141\n      jumpi\n        /* \"#utility.yul\":680:681   */\n      0x00\n        /* \"#utility.yul\":677:678   */\n      dup1\n        /* \"#utility.yul\":670:682   */\n      revert\n        /* \"#utility.yul\":621:684   */\n    tag_141:\n        /* \"#utility.yul\":568:690   */\n      pop\n      jump\t// out\n        /* \"#utility.yul\":696:835   */\n    tag_105:\n        /* \"#utility.yul\":742:747   */\n      0x00\n        /* \"#utility.yul\":780:786   */\n      dup2\n        /* \"#utility.yul\":767:787   */\n      calldataload\n        /* \"#utility.yul\":758:787   */\n      swap1\n      pop\n        /* \"#utility.yul\":796:829   */\n      tag_143\n        /* \"#utility.yul\":823:828   */\n      dup2\n        /* \"#utility.yul\":796:829   */\n      tag_104\n      jump\t// in\n    tag_143:\n        /* \"#utility.yul\":696:835   */\n      swap3\n      swap2\n      pop\n      pop\n      jump\t// out\n        /* \"#utility.yul\":841:1170   */\n    tag_14:\n        /* \"#utility.yul\":900:906   */\n      0x00\n        /* \"#utility.yul\":949:951   */\n      0x20\n        /* \"#utility.yul\":937:946   */\n      dup3\n        /* \"#utility.yul\":928:935   */\n      dup5\n        /* \"#utility.yul\":924:947   */\n      sub\n        /* \"#utility.yul\":920:952   */\n      slt\n        /* \"#utility.yul\":917:1036   */\n      iszero\n      tag_145\n      jumpi\n        /* \"#utility.yul\":955:1034   */\n      tag_146\n      tag_100\n      jump\t// in\n    tag_146:\n        /* \"#utility.yul\":917:1036   */\n    tag_145:\n        /* \"#utility.yul\":1075:1076   */\n      0x00\n        /* \"#utility.yul\":1100:1153   */\n      tag_147\n        /* \"#utility.yul\":1145:1152   */\n      dup5\n        /* \"#utility.yul\":1136:1142   */\n      dup3\n        /* \"#utility.yul\":1125:1134   */\n      dup6\n        /* \"#utility.yul\":1121:1143   */\n      add\n        /* \"#utility.yul\":1100:1153   */\n      tag_105\n      jump\t// in\n    tag_147:\n        /* \"#utility.yul\":1090:1153   */\n      swap2\n      pop\n        /* \"#utility.yul\":1046:1163   */\n      pop\n        /* \"#utility.yul\":841:1170   */\n      swap3\n      swap2\n      pop\n      pop\n      jump\t// out\n        /* \"#utility.yul\":1176:1253   */\n    tag_106:\n        /* \"#utility.yul\":1213:1220   */\n      0x00\n        /* \"#utility.yul\":1242:1247   */\n      dup2\n        /* \"#utility.yul\":1231:1247   */\n      swap1\n      pop\n        /* \"#utility.yul\":1176:1253   */\n      swap2\n      swap1\n      pop\n      jump\t// out\n        /* \"#utility.yul\":1259:1377   */\n    tag_107:\n        /* \"#utility.yul\":1346:1370   */\n      tag_150\n        /* \"#utility.yul\":1364:1369   */\n      dup2\n        /* \"#utility.yul\":1346:1370   */\n      tag_106\n      jump\t// in\n    tag_150:\n        /* \"#utility.yul\":1341:1344   */\n      dup3\n        /* \"#utility.yul\":1334:1371   */\n      mstore\n        /* \"#utility.yul\":1259:1377   */\n      pop\n      pop\n      jump\t// out\n        /* \"#utility.yul\":1383:1605   */\n    tag_17:\n        /* \"#utility.yul\":1476:1480   */\n      0x00\n        /* \"#utility.yul\":1514:1516   */\n      0x20\n        /* \"#utility.yul\":1503:1512   */\n      dup3\n        /* \"#utility.yul\":1499:1517   */\n      add\n        /* \"#utility.yul\":1491:1517   */\n      swap1\n      pop\n        /* \"#utility.yul\":1527:1598   */\n      tag_152\n        /* \"#utility.yul\":1595:1596   */\n      0x00\n        /* \"#utility.yul\":1584:1593   */\n      dup4\n        /* \"#utility.yul\":1580:1597   */\n      add\n        /* \"#utility.yul\":1571:1577   */\n      dup5\n        /* \"#utility.yul\":1527:1598   */\n      tag_107\n      jump\t// in\n    tag_152:\n        /* \"#utility.yul\":1383:1605   */\n      swap3\n      swap2\n      pop\n      pop\n      jump\t// out\n        /* \"#utility.yul\":1611:1729   */\n    tag_108:\n        /* \"#utility.yul\":1698:1722   */\n      tag_154\n        /* \"#utility.yul\":1716:1721   */\n      dup2\n        /* \"#utility.yul\":1698:1722   */\n      tag_103\n      jump\t// in\n    tag_154:\n        /* \"#utility.yul\":1693:1696   */\n      dup3\n        /* \"#utility.yul\":1686:1723   */\n      mstore\n        /* \"#utility.yul\":1611:1729   */\n      pop\n      pop\n      jump\t// out\n        /* \"#utility.yul\":1735:1957   */\n    tag_22:\n        /* \"#utility.yul\":1828:1832   */\n      0x00\n        /* \"#utility.yul\":1866:1868   */\n      0x20\n        /* \"#utility.yul\":1855:1864   */\n      dup3\n        /* \"#utility.yul\":1851:1869   */\n      add\n        /* \"#utility.yul\":1843:1869   */\n      swap1\n      pop\n        /* \"#utility.yul\":1879:1950   */\n      tag_156\n        /* \"#utility.yul\":1947:1948   */\n      0x00\n        /* \"#utility.yul\":1936:1945   */\n      dup4\n        /* \"#utility.yul\":1932:1949   */\n      add\n        /* \"#utility.yul\":1923:1929   */\n      dup5\n        /* \"#utility.yul\":1879:1950   */\n      tag_108\n      jump\t// in\n    tag_156:\n        /* \"#utility.yul\":1735:1957   */\n      swap3\n      swap2\n      pop\n      pop\n      jump\t// out\n        /* \"#utility.yul\":1963:2085   */\n    tag_109:\n        /* \"#utility.yul\":2036:2060   */\n      tag_158\n        /* \"#utility.yul\":2054:2059   */\n      dup2\n        /* \"#utility.yul\":2036:2060   */\n      tag_106\n      jump\t// in\n    tag_158:\n        /* \"#utility.yul\":2029:2034   */\n      dup2\n        /* \"#utility.yul\":2026:2061   */\n      eq\n        /* \"#utility.yul\":2016:2079   */\n      tag_159\n      jumpi\n        /* \"#utility.yul\":2075:2076   */\n      0x00\n        /* \"#utility.yul\":2072:2073   */\n      dup1\n        /* \"#utility.yul\":2065:2077   */\n      revert\n        /* \"#utility.yul\":2016:2079   */\n    tag_159:\n        /* \"#utility.yul\":1963:2085   */\n      pop\n      jump\t// out\n        /* \"#utility.yul\":2091:2230   */\n    tag_110:\n        /* \"#utility.yul\":2137:2142   */\n      0x00\n        /* \"#utility.yul\":2175:2181   */\n      dup2\n        /* \"#utility.yul\":2162:2182   */\n      calldataload\n        /* \"#utility.yul\":2153:2182   */\n      swap1\n      pop\n        /* \"#utility.yul\":2191:2224   */\n      tag_161\n        /* \"#utility.yul\":2218:2223   */\n      dup2\n        /* \"#utility.yul\":2191:2224   */\n      tag_109\n      jump\t// in\n    tag_161:\n        /* \"#utility.yul\":2091:2230   */\n      swap3\n      swap2\n      pop\n      pop\n      jump\t// out\n        /* \"#utility.yul\":2236:2565   */\n    tag_28:\n        /* \"#utility.yul\":2295:2301   */\n      0x00\n        /* \"#utility.yul\":2344:2346   */\n      0x20\n        /* \"#utility.yul\":2332:2341   */\n      dup3\n        /* \"#utility.yul\":2323:2330   */\n      dup5\n        /* \"#utility.yul\":2319:2342   */\n      sub\n        /* \"#utility.yul\":2315:2347   */\n      slt\n        /* \"#utility.yul\":2312:2431   */\n      iszero\n      tag_163\n      jumpi\n        /* \"#utility.yul\":2350:2429   */\n      tag_164\n      tag_100\n      jump\t// in\n    tag_164:\n        /* \"#utility.yul\":2312:2431   */\n    tag_163:\n        /* \"#utility.yul\":2470:2471   */\n      0x00\n        /* \"#utility.yul\":2495:2548   */\n      tag_165\n        /* \"#utility.yul\":2540:2547   */\n      dup5\n        /* \"#utility.yul\":2531:2537   */\n      dup3\n        /* \"#utility.yul\":2520:2529   */\n      dup6\n        /* \"#utility.yul\":2516:2538   */\n      add\n        /* \"#utility.yul\":2495:2548   */\n      tag_110\n      jump\t// in\n    tag_165:\n        /* \"#utility.yul\":2485:2548   */\n      swap2\n      pop\n        /* \"#utility.yul\":2441:2558   */\n      pop\n        /* \"#utility.yul\":2236:2565   */\n      swap3\n      swap2\n      pop\n      pop\n      jump\t// out\n        /* \"#utility.yul\":2571:2740   */\n    tag_111:\n        /* \"#utility.yul\":2655:2666   */\n      0x00\n        /* \"#utility.yul\":2689:2695   */\n      dup3\n        /* \"#utility.yul\":2684:2687   */\n      dup3\n        /* \"#utility.yul\":2677:2696   */\n      mstore\n        /* \"#utility.yul\":2729:2733   */\n      0x20\n        /* \"#utility.yul\":2724:2727   */\n      dup3\n        /* \"#utility.yul\":2720:2734   */\n      add\n        /* \"#utility.yul\":2705:2734   */\n      swap1\n      pop\n        /* \"#utility.yul\":2571:2740   */\n      swap3\n      swap2\n      pop\n      pop\n      jump\t// out\n        /* \"#utility.yul\":2746:2920   */\n    tag_112:\n        /* \"#utility.yul\":2886:2912   */\n      0x53656e646572206e6565647320746f206265206f776e65720000000000000000\n        /* \"#utility.yul\":2882:2883   */\n      0x00\n        /* \"#utility.yul\":2874:2880   */\n      dup3\n        /* \"#utility.yul\":2870:2884   */\n      add\n        /* \"#utility.yul\":2863:2913   */\n      mstore\n        /* \"#utility.yul\":2746:2920   */\n      pop\n      jump\t// out\n        /* \"#utility.yul\":2926:3292   */\n    tag_113:\n        /* \"#utility.yul\":3068:3071   */\n      0x00\n        /* \"#utility.yul\":3089:3156   */\n      tag_169\n        /* \"#utility.yul\":3153:3155   */\n      0x18\n        /* \"#utility.yul\":3148:3151   */\n      dup4\n        /* \"#utility.yul\":3089:3156   */\n      tag_111\n      jump\t// in\n    tag_169:\n        /* \"#utility.yul\":3082:3156   */\n      swap2\n      pop\n        /* \"#utility.yul\":3165:3258   */\n      tag_170\n        /* \"#utility.yul\":3254:3257   */\n      dup3\n        /* \"#utility.yul\":3165:3258   */\n      tag_112\n      jump\t// in\n    tag_170:\n        /* \"#utility.yul\":3283:3285   */\n      0x20\n        /* \"#utility.yul\":3278:3281   */\n      dup3\n        /* \"#utility.yul\":3274:3286   */\n      add\n        /* \"#utility.yul\":3267:3286   */\n      swap1\n      pop\n        /* \"#utility.yul\":2926:3292   */\n      swap2\n      swap1\n      pop\n      jump\t// out\n        /* \"#utility.yul\":3298:3717   */\n    tag_38:\n        /* \"#utility.yul\":3464:3468   */\n      0x00\n        /* \"#utility.yul\":3502:3504   */\n      0x20\n        /* \"#utility.yul\":3491:3500   */\n      dup3\n        /* \"#utility.yul\":3487:3505   */\n      add\n        /* \"#utility.yul\":3479:3505   */\n      swap1\n      pop\n        /* \"#utility.yul\":3551:3560   */\n      dup2\n        /* \"#utility.yul\":3545:3549   */\n      dup2\n        /* \"#utility.yul\":3541:3561   */\n      sub\n        /* \"#utility.yul\":3537:3538   */\n      0x00\n        /* \"#utility.yul\":3526:3535   */\n      dup4\n        /* \"#utility.yul\":3522:3539   */\n      add\n        /* \"#utility.yul\":3515:3562   */\n      mstore\n        /* \"#utility.yul\":3579:3710   */\n      tag_172\n        /* \"#utility.yul\":3705:3709   */\n      dup2\n        /* \"#utility.yul\":3579:3710   */\n      tag_113\n      jump\t// in\n    tag_172:\n        /* \"#utility.yul\":3571:3710   */\n      swap1\n      pop\n        /* \"#utility.yul\":3298:3717   */\n      swap2\n      swap1\n      pop\n      jump\t// out\n        /* \"#utility.yul\":3723:3903   */\n    tag_45:\n        /* \"#utility.yul\":3771:3848   */\n      0x4e487b7100000000000000000000000000000000000000000000000000000000\n        /* \"#utility.yul\":3768:3769   */\n      0x00\n        /* \"#utility.yul\":3761:3849   */\n      mstore\n        /* \"#utility.yul\":3868:3872   */\n      0x32\n        /* \"#utility.yul\":3865:3866   */\n      0x04\n        /* \"#utility.yul\":3858:3873   */\n      mstore\n        /* \"#utility.yul\":3892:3896   */\n      0x24\n        /* \"#utility.yul\":3889:3890   */\n      0x00\n        /* \"#utility.yul\":3882:3897   */\n      revert\n        /* \"#utility.yul\":3909:4089   */\n    tag_49:\n        /* \"#utility.yul\":3957:4034   */\n      0x4e487b7100000000000000000000000000000000000000000000000000000000\n        /* \"#utility.yul\":3954:3955   */\n      0x00\n        /* \"#utility.yul\":3947:4035   */\n      mstore\n        /* \"#utility.yul\":4054:4058   */\n      0x41\n        /* \"#utility.yul\":4051:4052   */\n      0x04\n        /* \"#utility.yul\":4044:4059   */\n      mstore\n        /* \"#utility.yul\":4078:4082   */\n      0x24\n        /* \"#utility.yul\":4075:4076   */\n      0x00\n        /* \"#utility.yul\":4068:4083   */\n      revert\n        /* \"#utility.yul\":4095:4256   */\n    tag_114:\n        /* \"#utility.yul\":4235:4248   */\n      0x53656e64206661696c6564000000000000000000000000000000000000000000\n        /* \"#utility.yul\":4231:4232   */\n      0x00\n        /* \"#utility.yul\":4223:4229   */\n      dup3\n        /* \"#utility.yul\":4219:4233   */\n      add\n        /* \"#utility.yul\":4212:4249   */\n      mstore\n        /* \"#utility.yul\":4095:4256   */\n      pop\n      jump\t// out\n        /* \"#utility.yul\":4262:4628   */\n    tag_115:\n        /* \"#utility.yul\":4404:4407   */\n      0x00\n        /* \"#utility.yul\":4425:4492   */\n      tag_177\n        /* \"#utility.yul\":4489:4491   */\n      0x0b\n        /* \"#utility.yul\":4484:4487   */\n      dup4\n        /* \"#utility.yul\":4425:4492   */\n      tag_111\n      jump\t// in\n    tag_177:\n        /* \"#utility.yul\":4418:4492   */\n      swap2\n      pop\n        /* \"#utility.yul\":4501:4594   */\n      tag_178\n        /* \"#utility.yul\":4590:4593   */\n      dup3\n        /* \"#utility.yul\":4501:4594   */\n      tag_114\n      jump\t// in\n    tag_178:\n        /* \"#utility.yul\":4619:4621   */\n      0x20\n        /* \"#utility.yul\":4614:4617   */\n      dup3\n        /* \"#utility.yul\":4610:4622   */\n      add\n        /* \"#utility.yul\":4603:4622   */\n      swap1\n      pop\n        /* \"#utility.yul\":4262:4628   */\n      swap2\n      swap1\n      pop\n      jump\t// out\n        /* \"#utility.yul\":4634:5053   */\n    tag_58:\n        /* \"#utility.yul\":4800:4804   */\n      0x00\n        /* \"#utility.yul\":4838:4840   */\n      0x20\n        /* \"#utility.yul\":4827:4836   */\n      dup3\n        /* \"#utility.yul\":4823:4841   */\n      add\n        /* \"#utility.yul\":4815:4841   */\n      swap1\n      pop\n        /* \"#utility.yul\":4887:4896   */\n      dup2\n        /* \"#utility.yul\":4881:4885   */\n      dup2\n        /* \"#utility.yul\":4877:4897   */\n      sub\n        /* \"#utility.yul\":4873:4874   */\n      0x00\n        /* \"#utility.yul\":4862:4871   */\n      dup4\n        /* \"#utility.yul\":4858:4875   */\n      add\n        /* \"#utility.yul\":4851:4898   */\n      mstore\n        /* \"#utility.yul\":4915:5046   */\n      tag_180\n        /* \"#utility.yul\":5041:5045   */\n      dup2\n        /* \"#utility.yul\":4915:5046   */\n      tag_115\n      jump\t// in\n    tag_180:\n        /* \"#utility.yul\":4907:5046   */\n      swap1\n      pop\n        /* \"#utility.yul\":4634:5053   */\n      swap2\n      swap1\n      pop\n      jump\t// out\n        /* \"#utility.yul\":5059:5206   */\n    tag_116:\n        /* \"#utility.yul\":5160:5171   */\n      0x00\n        /* \"#utility.yul\":5197:5200   */\n      dup2\n        /* \"#utility.yul\":5182:5200   */\n      swap1\n      pop\n        /* \"#utility.yul\":5059:5206   */\n      swap3\n      swap2\n      pop\n      pop\n      jump\t// out\n        /* \"#utility.yul\":5212:5326   */\n    tag_117:\n      pop\n      jump\t// out\n        /* \"#utility.yul\":5332:5730   */\n    tag_118:\n        /* \"#utility.yul\":5491:5494   */\n      0x00\n        /* \"#utility.yul\":5512:5595   */\n      tag_184\n        /* \"#utility.yul\":5593:5594   */\n      0x00\n        /* \"#utility.yul\":5588:5591   */\n      dup4\n        /* \"#utility.yul\":5512:5595   */\n      tag_116\n      jump\t// in\n    tag_184:\n        /* \"#utility.yul\":5505:5595   */\n      swap2\n      pop\n        /* \"#utility.yul\":5604:5697   */\n      tag_185\n        /* \"#utility.yul\":5693:5696   */\n      dup3\n        /* \"#utility.yul\":5604:5697   */\n      tag_117\n      jump\t// in\n    tag_185:\n        /* \"#utility.yul\":5722:5723   */\n      0x00\n        /* \"#utility.yul\":5717:5720   */\n      dup3\n        /* \"#utility.yul\":5713:5724   */\n      add\n        /* \"#utility.yul\":5706:5724   */\n      swap1\n      pop\n        /* \"#utility.yul\":5332:5730   */\n      swap2\n      swap1\n      pop\n      jump\t// out\n        /* \"#utility.yul\":5736:6115   */\n    tag_60:\n        /* \"#utility.yul\":5920:5923   */\n      0x00\n        /* \"#utility.yul\":5942:6089   */\n      tag_187\n        /* \"#utility.yul\":6085:6088   */\n      dup3\n        /* \"#utility.yul\":5942:6089   */\n      tag_118\n      jump\t// in\n    tag_187:\n        /* \"#utility.yul\":5935:6089   */\n      swap2\n      pop\n        /* \"#utility.yul\":6106:6109   */\n      dup2\n        /* \"#utility.yul\":6099:6109   */\n      swap1\n      pop\n        /* \"#utility.yul\":5736:6115   */\n      swap2\n      swap1\n      pop\n      jump\t// out\n        /* \"#utility.yul\":6121:6282   */\n    tag_119:\n        /* \"#utility.yul\":6261:6274   */\n      0x43616c6c206661696c6564000000000000000000000000000000000000000000\n        /* \"#utility.yul\":6257:6258   */\n      0x00\n        /* \"#utility.yul\":6249:6255   */\n      dup3\n        /* \"#utility.yul\":6245:6259   */\n      add\n        /* \"#utility.yul\":6238:6275   */\n      mstore\n        /* \"#utility.yul\":6121:6282   */\n      pop\n      jump\t// out\n        /* \"#utility.yul\":6288:6654   */\n    tag_120:\n        /* \"#utility.yul\":6430:6433   */\n      0x00\n        /* \"#utility.yul\":6451:6518   */\n      tag_190\n        /* \"#utility.yul\":6515:6517   */\n      0x0b\n        /* \"#utility.yul\":6510:6513   */\n      dup4\n        /* \"#utility.yul\":6451:6518   */\n      tag_111\n      jump\t// in\n    tag_190:\n        /* \"#utility.yul\":6444:6518   */\n      swap2\n      pop\n        /* \"#utility.yul\":6527:6620   */\n      tag_191\n        /* \"#utility.yul\":6616:6619   */\n      dup3\n        /* \"#utility.yul\":6527:6620   */\n      tag_119\n      jump\t// in\n    tag_191:\n        /* \"#utility.yul\":6645:6647   */\n      0x20\n        /* \"#utility.yul\":6640:6643   */\n      dup3\n        /* \"#utility.yul\":6636:6648   */\n      add\n        /* \"#utility.yul\":6629:6648   */\n      swap1\n      pop\n        /* \"#utility.yul\":6288:6654   */\n      swap2\n      swap1\n      pop\n      jump\t// out\n        /* \"#utility.yul\":6660:7079   */\n    tag_66:\n        /* \"#utility.yul\":6826:6830   */\n      0x00\n        /* \"#utility.yul\":6864:6866   */\n      0x20\n        /* \"#utility.yul\":6853:6862   */\n      dup3\n        /* \"#utility.yul\":6849:6867   */\n      add\n        /* \"#utility.yul\":6841:6867   */\n      swap1\n      pop\n        /* \"#utility.yul\":6913:6922   */\n      dup2\n        /* \"#utility.yul\":6907:6911   */\n      dup2\n        /* \"#utility.yul\":6903:6923   */\n      sub\n        /* \"#utility.yul\":6899:6900   */\n      0x00\n        /* \"#utility.yul\":6888:6897   */\n      dup4\n        /* \"#utility.yul\":6884:6901   */\n      add\n        /* \"#utility.yul\":6877:6924   */\n      mstore\n        /* \"#utility.yul\":6941:7072   */\n      tag_193\n        /* \"#utility.yul\":7067:7071   */\n      dup2\n        /* \"#utility.yul\":6941:7072   */\n      tag_120\n      jump\t// in\n    tag_193:\n        /* \"#utility.yul\":6933:7072   */\n      swap1\n      pop\n        /* \"#utility.yul\":6660:7079   */\n      swap2\n      swap1\n      pop\n      jump\t// out\n        /* \"#utility.yul\":7085:7319   */\n    tag_121:\n        /* \"#utility.yul\":7225:7259   */\n      0x57687920736f204b616e6a7573212053656e642074686520656e746972652061\n        /* \"#utility.yul\":7221:7222   */\n      0x00\n        /* \"#utility.yul\":7213:7219   */\n      dup3\n        /* \"#utility.yul\":7209:7223   */\n      add\n        /* \"#utility.yul\":7202:7260   */\n      mstore\n        /* \"#utility.yul\":7294:7311   */\n      0x6d6f756e74207370656369666965640000000000000000000000000000000000\n        /* \"#utility.yul\":7289:7291   */\n      0x20\n        /* \"#utility.yul\":7281:7287   */\n      dup3\n        /* \"#utility.yul\":7277:7292   */\n      add\n        /* \"#utility.yul\":7270:7312   */\n      mstore\n        /* \"#utility.yul\":7085:7319   */\n      pop\n      jump\t// out\n        /* \"#utility.yul\":7325:7691   */\n    tag_122:\n        /* \"#utility.yul\":7467:7470   */\n      0x00\n        /* \"#utility.yul\":7488:7555   */\n      tag_196\n        /* \"#utility.yul\":7552:7554   */\n      0x2f\n        /* \"#utility.yul\":7547:7550   */\n      dup4\n        /* \"#utility.yul\":7488:7555   */\n      tag_111\n      jump\t// in\n    tag_196:\n        /* \"#utility.yul\":7481:7555   */\n      swap2\n      pop\n        /* \"#utility.yul\":7564:7657   */\n      tag_197\n        /* \"#utility.yul\":7653:7656   */\n      dup3\n        /* \"#utility.yul\":7564:7657   */\n      tag_121\n      jump\t// in\n    tag_197:\n        /* \"#utility.yul\":7682:7684   */\n      0x40\n        /* \"#utility.yul\":7677:7680   */\n      dup3\n        /* \"#utility.yul\":7673:7685   */\n      add\n        /* \"#utility.yul\":7666:7685   */\n      swap1\n      pop\n        /* \"#utility.yul\":7325:7691   */\n      swap2\n      swap1\n      pop\n      jump\t// out\n        /* \"#utility.yul\":7697:8116   */\n    tag_72:\n        /* \"#utility.yul\":7863:7867   */\n      0x00\n        /* \"#utility.yul\":7901:7903   */\n      0x20\n        /* \"#utility.yul\":7890:7899   */\n      dup3\n        /* \"#utility.yul\":7886:7904   */\n      add\n        /* \"#utility.yul\":7878:7904   */\n      swap1\n      pop\n        /* \"#utility.yul\":7950:7959   */\n      dup2\n        /* \"#utility.yul\":7944:7948   */\n      dup2\n        /* \"#utility.yul\":7940:7960   */\n      sub\n        /* \"#utility.yul\":7936:7937   */\n      0x00\n        /* \"#utility.yul\":7925:7934   */\n      dup4\n        /* \"#utility.yul\":7921:7938   */\n      add\n        /* \"#utility.yul\":7914:7961   */\n      mstore\n        /* \"#utility.yul\":7978:8109   */\n      tag_199\n        /* \"#utility.yul\":8104:8108   */\n      dup2\n        /* \"#utility.yul\":7978:8109   */\n      tag_122\n      jump\t// in\n    tag_199:\n        /* \"#utility.yul\":7970:8109   */\n      swap1\n      pop\n        /* \"#utility.yul\":7697:8116   */\n      swap2\n      swap1\n      pop\n      jump\t// out\n        /* \"#utility.yul\":8122:8302   */\n    tag_123:\n        /* \"#utility.yul\":8170:8247   */\n      0x4e487b7100000000000000000000000000000000000000000000000000000000\n        /* \"#utility.yul\":8167:8168   */\n      0x00\n        /* \"#utility.yul\":8160:8248   */\n      mstore\n        /* \"#utility.yul\":8267:8271   */\n      0x11\n        /* \"#utility.yul\":8264:8265   */\n      0x04\n        /* \"#utility.yul\":8257:8272   */\n      mstore\n        /* \"#utility.yul\":8291:8295   */\n      0x24\n        /* \"#utility.yul\":8288:8289   */\n      0x00\n        /* \"#utility.yul\":8281:8296   */\n      revert\n        /* \"#utility.yul\":8308:8499   */\n    tag_75:\n        /* \"#utility.yul\":8348:8351   */\n      0x00\n        /* \"#utility.yul\":8367:8387   */\n      tag_202\n        /* \"#utility.yul\":8385:8386   */\n      dup3\n        /* \"#utility.yul\":8367:8387   */\n      tag_106\n      jump\t// in\n    tag_202:\n        /* \"#utility.yul\":8362:8387   */\n      swap2\n      pop\n        /* \"#utility.yul\":8401:8421   */\n      tag_203\n        /* \"#utility.yul\":8419:8420   */\n      dup4\n        /* \"#utility.yul\":8401:8421   */\n      tag_106\n      jump\t// in\n    tag_203:\n        /* \"#utility.yul\":8396:8421   */\n      swap3\n      pop\n        /* \"#utility.yul\":8444:8445   */\n      dup3\n        /* \"#utility.yul\":8441:8442   */\n      dup3\n        /* \"#utility.yul\":8437:8446   */\n      add\n        /* \"#utility.yul\":8430:8446   */\n      swap1\n      pop\n        /* \"#utility.yul\":8465:8468   */\n      dup1\n        /* \"#utility.yul\":8462:8463   */\n      dup3\n        /* \"#utility.yul\":8459:8469   */\n      gt\n        /* \"#utility.yul\":8456:8492   */\n      iszero\n      tag_204\n      jumpi\n        /* \"#utility.yul\":8472:8490   */\n      tag_205\n      tag_123\n      jump\t// in\n    tag_205:\n        /* \"#utility.yul\":8456:8492   */\n    tag_204:\n        /* \"#utility.yul\":8308:8499   */\n      swap3\n      swap2\n      pop\n      pop\n      jump\t// out\n        /* \"#utility.yul\":8505:8915   */\n    tag_82:\n        /* \"#utility.yul\":8545:8552   */\n      0x00\n        /* \"#utility.yul\":8568:8588   */\n      tag_207\n        /* \"#utility.yul\":8586:8587   */\n      dup3\n        /* \"#utility.yul\":8568:8588   */\n      tag_106\n      jump\t// in\n    tag_207:\n        /* \"#utility.yul\":8563:8588   */\n      swap2\n      pop\n        /* \"#utility.yul\":8602:8622   */\n      tag_208\n        /* \"#utility.yul\":8620:8621   */\n      dup4\n        /* \"#utility.yul\":8602:8622   */\n      tag_106\n      jump\t// in\n    tag_208:\n        /* \"#utility.yul\":8597:8622   */\n      swap3\n      pop\n        /* \"#utility.yul\":8657:8658   */\n      dup3\n        /* \"#utility.yul\":8654:8655   */\n      dup3\n        /* \"#utility.yul\":8650:8659   */\n      mul\n        /* \"#utility.yul\":8679:8709   */\n      tag_209\n        /* \"#utility.yul\":8697:8708   */\n      dup2\n        /* \"#utility.yul\":8679:8709   */\n      tag_106\n      jump\t// in\n    tag_209:\n        /* \"#utility.yul\":8668:8709   */\n      swap2\n      pop\n        /* \"#utility.yul\":8858:8859   */\n      dup3\n        /* \"#utility.yul\":8849:8856   */\n      dup3\n        /* \"#utility.yul\":8845:8860   */\n      div\n        /* \"#utility.yul\":8842:8843   */\n      dup5\n        /* \"#utility.yul\":8839:8861   */\n      eq\n        /* \"#utility.yul\":8819:8820   */\n      dup4\n        /* \"#utility.yul\":8812:8821   */\n      iszero\n        /* \"#utility.yul\":8792:8875   */\n      or\n        /* \"#utility.yul\":8769:8908   */\n      tag_210\n      jumpi\n        /* \"#utility.yul\":8888:8906   */\n      tag_211\n      tag_123\n      jump\t// in\n    tag_211:\n        /* \"#utility.yul\":8769:8908   */\n    tag_210:\n        /* \"#utility.yul\":8553:8915   */\n      pop\n        /* \"#utility.yul\":8505:8915   */\n      swap3\n      swap2\n      pop\n      pop\n      jump\t// out\n        /* \"#utility.yul\":8921:9101   */\n    tag_124:\n        /* \"#utility.yul\":8969:9046   */\n      0x4e487b7100000000000000000000000000000000000000000000000000000000\n        /* \"#utility.yul\":8966:8967   */\n      0x00\n        /* \"#utility.yul\":8959:9047   */\n      mstore\n        /* \"#utility.yul\":9066:9070   */\n      0x12\n        /* \"#utility.yul\":9063:9064   */\n      0x04\n        /* \"#utility.yul\":9056:9071   */\n      mstore\n        /* \"#utility.yul\":9090:9094   */\n      0x24\n        /* \"#utility.yul\":9087:9088   */\n      0x00\n        /* \"#utility.yul\":9080:9095   */\n      revert\n        /* \"#utility.yul\":9107:9292   */\n    tag_84:\n        /* \"#utility.yul\":9147:9148   */\n      0x00\n        /* \"#utility.yul\":9164:9184   */\n      tag_214\n        /* \"#utility.yul\":9182:9183   */\n      dup3\n        /* \"#utility.yul\":9164:9184   */\n      tag_106\n      jump\t// in\n    tag_214:\n        /* \"#utility.yul\":9159:9184   */\n      swap2\n      pop\n        /* \"#utility.yul\":9198:9218   */\n      tag_215\n        /* \"#utility.yul\":9216:9217   */\n      dup4\n        /* \"#utility.yul\":9198:9218   */\n      tag_106\n      jump\t// in\n    tag_215:\n        /* \"#utility.yul\":9193:9218   */\n      swap3\n      pop\n        /* \"#utility.yul\":9237:9238   */\n      dup3\n        /* \"#utility.yul\":9227:9262   */\n      tag_216\n      jumpi\n        /* \"#utility.yul\":9242:9260   */\n      tag_217\n      tag_124\n      jump\t// in\n    tag_217:\n        /* \"#utility.yul\":9227:9262   */\n    tag_216:\n        /* \"#utility.yul\":9284:9285   */\n      dup3\n        /* \"#utility.yul\":9281:9282   */\n      dup3\n        /* \"#utility.yul\":9277:9286   */\n      div\n        /* \"#utility.yul\":9272:9286   */\n      swap1\n      pop\n        /* \"#utility.yul\":9107:9292   */\n      swap3\n      swap2\n      pop\n      pop\n      jump\t// out\n        /* \"#utility.yul\":9298:9403   */\n    tag_125:\n        /* \"#utility.yul\":9334:9341   */\n      0x00\n        /* \"#utility.yul\":9374:9396   */\n      0xffffffffffffffffffff\n        /* \"#utility.yul\":9367:9372   */\n      dup3\n        /* \"#utility.yul\":9363:9397   */\n      and\n        /* \"#utility.yul\":9352:9397   */\n      swap1\n      pop\n        /* \"#utility.yul\":9298:9403   */\n      swap2\n      swap1\n      pop\n      jump\t// out\n        /* \"#utility.yul\":9409:9529   */\n    tag_126:\n        /* \"#utility.yul\":9481:9504   */\n      tag_220\n        /* \"#utility.yul\":9498:9503   */\n      dup2\n        /* \"#utility.yul\":9481:9504   */\n      tag_125\n      jump\t// in\n    tag_220:\n        /* \"#utility.yul\":9474:9479   */\n      dup2\n        /* \"#utility.yul\":9471:9505   */\n      eq\n        /* \"#utility.yul\":9461:9523   */\n      tag_221\n      jumpi\n        /* \"#utility.yul\":9519:9520   */\n      0x00\n        /* \"#utility.yul\":9516:9517   */\n      dup1\n        /* \"#utility.yul\":9509:9521   */\n      revert\n        /* \"#utility.yul\":9461:9523   */\n    tag_221:\n        /* \"#utility.yul\":9409:9529   */\n      pop\n      jump\t// out\n        /* \"#utility.yul\":9535:9676   */\n    tag_127:\n        /* \"#utility.yul\":9591:9596   */\n      0x00\n        /* \"#utility.yul\":9622:9628   */\n      dup2\n        /* \"#utility.yul\":9616:9629   */\n      mload\n        /* \"#utility.yul\":9607:9629   */\n      swap1\n      pop\n        /* \"#utility.yul\":9638:9670   */\n      tag_223\n        /* \"#utility.yul\":9664:9669   */\n      dup2\n        /* \"#utility.yul\":9638:9670   */\n      tag_126\n      jump\t// in\n    tag_223:\n        /* \"#utility.yul\":9535:9676   */\n      swap3\n      swap2\n      pop\n      pop\n      jump\t// out\n        /* \"#utility.yul\":9682:9758   */\n    tag_128:\n        /* \"#utility.yul\":9718:9725   */\n      0x00\n        /* \"#utility.yul\":9747:9752   */\n      dup2\n        /* \"#utility.yul\":9736:9752   */\n      swap1\n      pop\n        /* \"#utility.yul\":9682:9758   */\n      swap2\n      swap1\n      pop\n      jump\t// out\n        /* \"#utility.yul\":9764:9884   */\n    tag_129:\n        /* \"#utility.yul\":9836:9859   */\n      tag_226\n        /* \"#utility.yul\":9853:9858   */\n      dup2\n        /* \"#utility.yul\":9836:9859   */\n      tag_128\n      jump\t// in\n    tag_226:\n        /* \"#utility.yul\":9829:9834   */\n      dup2\n        /* \"#utility.yul\":9826:9860   */\n      eq\n        /* \"#utility.yul\":9816:9878   */\n      tag_227\n      jumpi\n        /* \"#utility.yul\":9874:9875   */\n      0x00\n        /* \"#utility.yul\":9871:9872   */\n      dup1\n        /* \"#utility.yul\":9864:9876   */\n      revert\n        /* \"#utility.yul\":9816:9878   */\n    tag_227:\n        /* \"#utility.yul\":9764:9884   */\n      pop\n      jump\t// out\n        /* \"#utility.yul\":9890:10031   */\n    tag_130:\n        /* \"#utility.yul\":9946:9951   */\n      0x00\n        /* \"#utility.yul\":9977:9983   */\n      dup2\n        /* \"#utility.yul\":9971:9984   */\n      mload\n        /* \"#utility.yul\":9962:9984   */\n      swap1\n      pop\n        /* \"#utility.yul\":9993:10025   */\n      tag_229\n        /* \"#utility.yul\":10019:10024   */\n      dup2\n        /* \"#utility.yul\":9993:10025   */\n      tag_129\n      jump\t// in\n    tag_229:\n        /* \"#utility.yul\":9890:10031   */\n      swap3\n      swap2\n      pop\n      pop\n      jump\t// out\n        /* \"#utility.yul\":10037:10180   */\n    tag_131:\n        /* \"#utility.yul\":10094:10099   */\n      0x00\n        /* \"#utility.yul\":10125:10131   */\n      dup2\n        /* \"#utility.yul\":10119:10132   */\n      mload\n        /* \"#utility.yul\":10110:10132   */\n      swap1\n      pop\n        /* \"#utility.yul\":10141:10174   */\n      tag_231\n        /* \"#utility.yul\":10168:10173   */\n      dup2\n        /* \"#utility.yul\":10141:10174   */\n      tag_109\n      jump\t// in\n    tag_231:\n        /* \"#utility.yul\":10037:10180   */\n      swap3\n      swap2\n      pop\n      pop\n      jump\t// out\n        /* \"#utility.yul\":10186:11157   */\n    tag_89:\n        /* \"#utility.yul\":10289:10295   */\n      0x00\n        /* \"#utility.yul\":10297:10303   */\n      dup1\n        /* \"#utility.yul\":10305:10311   */\n      0x00\n        /* \"#utility.yul\":10313:10319   */\n      dup1\n        /* \"#utility.yul\":10321:10327   */\n      0x00\n        /* \"#utility.yul\":10370:10373   */\n      0xa0\n        /* \"#utility.yul\":10358:10367   */\n      dup7\n        /* \"#utility.yul\":10349:10356   */\n      dup9\n        /* \"#utility.yul\":10345:10368   */\n      sub\n        /* \"#utility.yul\":10341:10374   */\n      slt\n        /* \"#utility.yul\":10338:10458   */\n      iszero\n      tag_233\n      jumpi\n        /* \"#utility.yul\":10377:10456   */\n      tag_234\n      tag_100\n      jump\t// in\n    tag_234:\n        /* \"#utility.yul\":10338:10458   */\n    tag_233:\n        /* \"#utility.yul\":10497:10498   */\n      0x00\n        /* \"#utility.yul\":10522:10585   */\n      tag_235\n        /* \"#utility.yul\":10577:10584   */\n      dup9\n        /* \"#utility.yul\":10568:10574   */\n      dup3\n        /* \"#utility.yul\":10557:10566   */\n      dup10\n        /* \"#utility.yul\":10553:10575   */\n      add\n        /* \"#utility.yul\":10522:10585   */\n      tag_127\n      jump\t// in\n    tag_235:\n        /* \"#utility.yul\":10512:10585   */\n      swap6\n      pop\n        /* \"#utility.yul\":10468:10595   */\n      pop\n        /* \"#utility.yul\":10634:10636   */\n      0x20\n        /* \"#utility.yul\":10660:10723   */\n      tag_236\n        /* \"#utility.yul\":10715:10722   */\n      dup9\n        /* \"#utility.yul\":10706:10712   */\n      dup3\n        /* \"#utility.yul\":10695:10704   */\n      dup10\n        /* \"#utility.yul\":10691:10713   */\n      add\n        /* \"#utility.yul\":10660:10723   */\n      tag_130\n      jump\t// in\n    tag_236:\n        /* \"#utility.yul\":10650:10723   */\n      swap5\n      pop\n        /* \"#utility.yul\":10605:10733   */\n      pop\n        /* \"#utility.yul\":10772:10774   */\n      0x40\n        /* \"#utility.yul\":10798:10862   */\n      tag_237\n        /* \"#utility.yul\":10854:10861   */\n      dup9\n        /* \"#utility.yul\":10845:10851   */\n      dup3\n        /* \"#utility.yul\":10834:10843   */\n      dup10\n        /* \"#utility.yul\":10830:10852   */\n      add\n        /* \"#utility.yul\":10798:10862   */\n      tag_131\n      jump\t// in\n    tag_237:\n        /* \"#utility.yul\":10788:10862   */\n      swap4\n      pop\n        /* \"#utility.yul\":10743:10872   */\n      pop\n        /* \"#utility.yul\":10911:10913   */\n      0x60\n        /* \"#utility.yul\":10937:11001   */\n      tag_238\n        /* \"#utility.yul\":10993:11000   */\n      dup9\n        /* \"#utility.yul\":10984:10990   */\n      dup3\n        /* \"#utility.yul\":10973:10982   */\n      dup10\n        /* \"#utility.yul\":10969:10991   */\n      add\n        /* \"#utility.yul\":10937:11001   */\n      tag_131\n      jump\t// in\n    tag_238:\n        /* \"#utility.yul\":10927:11001   */\n      swap3\n      pop\n        /* \"#utility.yul\":10882:11011   */\n      pop\n        /* \"#utility.yul\":11050:11053   */\n      0x80\n        /* \"#utility.yul\":11077:11140   */\n      tag_239\n        /* \"#utility.yul\":11132:11139   */\n      dup9\n        /* \"#utility.yul\":11123:11129   */\n      dup3\n        /* \"#utility.yul\":11112:11121   */\n      dup10\n        /* \"#utility.yul\":11108:11130   */\n      add\n        /* \"#utility.yul\":11077:11140   */\n      tag_127\n      jump\t// in\n    tag_239:\n        /* \"#utility.yul\":11067:11140   */\n      swap2\n      pop\n        /* \"#utility.yul\":11021:11150   */\n      pop\n        /* \"#utility.yul\":10186:11157   */\n      swap3\n      swap6\n      pop\n      swap3\n      swap6\n      swap1\n      swap4\n      pop\n      jump\t// out\n        /* \"#utility.yul\":11163:11719   */\n    tag_91:\n        /* \"#utility.yul\":11202:11209   */\n      0x00\n        /* \"#utility.yul\":11225:11244   */\n      tag_241\n        /* \"#utility.yul\":11242:11243   */\n      dup3\n        /* \"#utility.yul\":11225:11244   */\n      tag_128\n      jump\t// in\n    tag_241:\n        /* \"#utility.yul\":11220:11244   */\n      swap2\n      pop\n        /* \"#utility.yul\":11258:11277   */\n      tag_242\n        /* \"#utility.yul\":11275:11276   */\n      dup4\n        /* \"#utility.yul\":11258:11277   */\n      tag_128\n      jump\t// in\n    tag_242:\n        /* \"#utility.yul\":11253:11277   */\n      swap3\n      pop\n        /* \"#utility.yul\":11312:11313   */\n      dup3\n        /* \"#utility.yul\":11309:11310   */\n      dup3\n        /* \"#utility.yul\":11305:11314   */\n      mul\n        /* \"#utility.yul\":11334:11363   */\n      tag_243\n        /* \"#utility.yul\":11351:11362   */\n      dup2\n        /* \"#utility.yul\":11334:11363   */\n      tag_128\n      jump\t// in\n    tag_243:\n        /* \"#utility.yul\":11323:11363   */\n      swap2\n      pop\n        /* \"#utility.yul\":11421:11487   */\n      0x8000000000000000000000000000000000000000000000000000000000000000\n        /* \"#utility.yul\":11418:11419   */\n      dup5\n        /* \"#utility.yul\":11415:11488   */\n      eq\n        /* \"#utility.yul\":11411:11412   */\n      0x00\n        /* \"#utility.yul\":11408:11409   */\n      dup5\n        /* \"#utility.yul\":11404:11413   */\n      slt\n        /* \"#utility.yul\":11400:11489   */\n      and\n        /* \"#utility.yul\":11397:11512   */\n      iszero\n      tag_244\n      jumpi\n        /* \"#utility.yul\":11492:11510   */\n      tag_245\n      tag_123\n      jump\t// in\n    tag_245:\n        /* \"#utility.yul\":11397:11512   */\n    tag_244:\n        /* \"#utility.yul\":11662:11663   */\n      dup3\n        /* \"#utility.yul\":11653:11660   */\n      dup3\n        /* \"#utility.yul\":11648:11664   */\n      sdiv\n        /* \"#utility.yul\":11645:11646   */\n      dup5\n        /* \"#utility.yul\":11642:11665   */\n      eq\n        /* \"#utility.yul\":11622:11623   */\n      dup4\n        /* \"#utility.yul\":11615:11624   */\n      iszero\n        /* \"#utility.yul\":11595:11679   */\n      or\n        /* \"#utility.yul\":11572:11712   */\n      tag_246\n      jumpi\n        /* \"#utility.yul\":11692:11710   */\n      tag_247\n      tag_123\n      jump\t// in\n    tag_247:\n        /* \"#utility.yul\":11572:11712   */\n    tag_246:\n        /* \"#utility.yul\":11210:11719   */\n      pop\n        /* \"#utility.yul\":11163:11719   */\n      swap3\n      swap2\n      pop\n      pop\n      jump\t// out\n\n    auxdata: 0xa264697066735822122007618f4aafb98f72e43c3415efc2179336005622243887a286a038a7e33796d164736f6c634300081a0033\n}\n",
				"bytecode": {
					"linkReferences": {},
					"object": "6080604052676124fee993bc00005f553480156019575f80fd5b503360035f6101000a81548173ffffffffffffffffffffffffffffffffffffffff021916908373ffffffffffffffffffffffffffffffffffffffff160217905550610d80806100675f395ff3fe608060405260043610610054575f3560e01c80633ccfd60b146100585780633e47d6f31461006e5780638da5cb5b146100aa578063b60d4288146100d4578063dc0d3dff146100de578063dc992aa01461011a575b5f80fd5b348015610063575f80fd5b5061006c610144565b005b348015610079575f80fd5b50610094600480360381019061008f919061078f565b610438565b6040516100a191906107d2565b60405180910390f35b3480156100b5575f80fd5b506100be61044d565b6040516100cb91906107fa565b60405180910390f35b6100dc610472565b005b3480156100e9575f80fd5b5061010460048036038101906100ff919061083d565b610572565b60405161011191906107fa565b60405180910390f35b348015610125575f80fd5b5061012e6105ad565b60405161013b91906107d2565b60405180910390f35b60035f9054906101000a900473ffffffffffffffffffffffffffffffffffffffff1673ffffffffffffffffffffffffffffffffffffffff163373ffffffffffffffffffffffffffffffffffffffff16146101d3576040517f08c379a00000000000000000000000000000000000000000000000000000000081526004016101ca906108c2565b60405180910390fd5b5f5b600180549050811015610271575f600182815481106101f7576101f66108e0565b5b905f5260205f20015f9054906101000a900473ffffffffffffffffffffffffffffffffffffffff1690505f60025f8373ffffffffffffffffffffffffffffffffffffffff1673ffffffffffffffffffffffffffffffffffffffff1681526020019081526020015f20819055505080806001019150506101d5565b505f67ffffffffffffffff81111561028c5761028b61090d565b5b6040519080825280602002602001820160405280156102ba5781602001602082028036833780820191505090505b50600190805190602001906102d092919061068f565b503373ffffffffffffffffffffffffffffffffffffffff166108fc4790811502906040515f60405180830381858888f19350505050158015610314573d5f803e3d5ffd5b505f3373ffffffffffffffffffffffffffffffffffffffff166108fc4790811502906040515f60405180830381858888f1935050505090508061038c576040517f08c379a000000000000000000000000000000000000000000000000000000000815260040161038390610984565b60405180910390fd5b5f3373ffffffffffffffffffffffffffffffffffffffff16476040516103b1906109cf565b5f6040518083038185875af1925050503d805f81146103eb576040519150601f19603f3d011682016040523d82523d5f602084013e6103f0565b606091505b5050905080610434576040517f08c379a000000000000000000000000000000000000000000000000000000000815260040161042b90610a2d565b60405180910390fd5b5050565b6002602052805f5260405f205f915090505481565b60035f9054906101000a900473ffffffffffffffffffffffffffffffffffffffff1681565b5f5461047d346105b2565b116104bd576040517f08c379a00000000000000000000000000000000000000000000000000000000081526004016104b490610abb565b60405180910390fd5b600133908060018154018082558091505060019003905f5260205f20015f9091909190916101000a81548173ffffffffffffffffffffffffffffffffffffffff021916908373ffffffffffffffffffffffffffffffffffffffff1602179055503460025f3373ffffffffffffffffffffffffffffffffffffffff1673ffffffffffffffffffffffffffffffffffffffff1681526020019081526020015f205f8282546105699190610b06565b92505081905550565b60018181548110610581575f80fd5b905f5260205f20015f915054906101000a900473ffffffffffffffffffffffffffffffffffffffff1681565b5f5481565b5f806105bc6105ea565b90505f670de0b6b3a764000084836105d49190610b39565b6105de9190610ba7565b90508092505050919050565b5f8073694aa1769357215de4fac081bf1f309adc32530690505f8173ffffffffffffffffffffffffffffffffffffffff1663feaf968c6040518163ffffffff1660e01b815260040160a060405180830381865afa15801561064d573d5f803e3d5ffd5b505050506040513d601f19601f820116820180604052508101906106719190610c5d565b5050509150506402540be400816106889190610cd4565b9250505090565b828054828255905f5260205f20908101928215610705579160200282015b82811115610704578251825f6101000a81548173ffffffffffffffffffffffffffffffffffffffff021916908373ffffffffffffffffffffffffffffffffffffffff160217905550916020019190600101906106ad565b5b5090506107129190610716565b5090565b5b8082111561072d575f815f905550600101610717565b5090565b5f80fd5b5f73ffffffffffffffffffffffffffffffffffffffff82169050919050565b5f61075e82610735565b9050919050565b61076e81610754565b8114610778575f80fd5b50565b5f8135905061078981610765565b92915050565b5f602082840312156107a4576107a3610731565b5b5f6107b18482850161077b565b91505092915050565b5f819050919050565b6107cc816107ba565b82525050565b5f6020820190506107e55f8301846107c3565b92915050565b6107f481610754565b82525050565b5f60208201905061080d5f8301846107eb565b92915050565b61081c816107ba565b8114610826575f80fd5b50565b5f8135905061083781610813565b92915050565b5f6020828403121561085257610851610731565b5b5f61085f84828501610829565b91505092915050565b5f82825260208201905092915050565b7f53656e646572206e6565647320746f206265206f776e657200000000000000005f82015250565b5f6108ac601883610868565b91506108b782610878565b602082019050919050565b5f6020820190508181035f8301526108d9816108a0565b9050919050565b7f4e487b71000000000000000000000000000000000000000000000000000000005f52603260045260245ffd5b7f4e487b71000000000000000000000000000000000000000000000000000000005f52604160045260245ffd5b7f53656e64206661696c65640000000000000000000000000000000000000000005f82015250565b5f61096e600b83610868565b91506109798261093a565b602082019050919050565b5f6020820190508181035f83015261099b81610962565b9050919050565b5f81905092915050565b50565b5f6109ba5f836109a2565b91506109c5826109ac565b5f82019050919050565b5f6109d9826109af565b9150819050919050565b7f43616c6c206661696c65640000000000000000000000000000000000000000005f82015250565b5f610a17600b83610868565b9150610a22826109e3565b602082019050919050565b5f6020820190508181035f830152610a4481610a0b565b9050919050565b7f57687920736f204b616e6a7573212053656e642074686520656e7469726520615f8201527f6d6f756e74207370656369666965640000000000000000000000000000000000602082015250565b5f610aa5602f83610868565b9150610ab082610a4b565b604082019050919050565b5f6020820190508181035f830152610ad281610a99565b9050919050565b7f4e487b71000000000000000000000000000000000000000000000000000000005f52601160045260245ffd5b5f610b10826107ba565b9150610b1b836107ba565b9250828201905080821115610b3357610b32610ad9565b5b92915050565b5f610b43826107ba565b9150610b4e836107ba565b9250828202610b5c816107ba565b91508282048414831517610b7357610b72610ad9565b5b5092915050565b7f4e487b71000000000000000000000000000000000000000000000000000000005f52601260045260245ffd5b5f610bb1826107ba565b9150610bbc836107ba565b925082610bcc57610bcb610b7a565b5b828204905092915050565b5f69ffffffffffffffffffff82169050919050565b610bf581610bd7565b8114610bff575f80fd5b50565b5f81519050610c1081610bec565b92915050565b5f819050919050565b610c2881610c16565b8114610c32575f80fd5b50565b5f81519050610c4381610c1f565b92915050565b5f81519050610c5781610813565b92915050565b5f805f805f60a08688031215610c7657610c75610731565b5b5f610c8388828901610c02565b9550506020610c9488828901610c35565b9450506040610ca588828901610c49565b9350506060610cb688828901610c49565b9250506080610cc788828901610c02565b9150509295509295909350565b5f610cde82610c16565b9150610ce983610c16565b9250828202610cf781610c16565b91507f800000000000000000000000000000000000000000000000000000000000000084145f84121615610d2e57610d2d610ad9565b5b8282058414831517610d4357610d42610ad9565b5b509291505056fea264697066735822122007618f4aafb98f72e43c3415efc2179336005622243887a286a038a7e33796d164736f6c634300081a0033",
					"opcodes": "PUSH1 0x80 PUSH1 0x40 MSTORE PUSH8 0x6124FEE993BC0000 PUSH0 SSTORE CALLVALUE DUP1 ISZERO PUSH1 0x19 JUMPI PUSH0 DUP1 REVERT JUMPDEST POP CALLER PUSH1 0x3 PUSH0 PUSH2 0x100 EXP DUP2 SLOAD DUP2 PUSH20 0xFFFFFFFFFFFFFFFFFFFFFFFFFFFFFFFFFFFFFFFF MUL NOT AND SWAP1 DUP4 PUSH20 0xFFFFFFFFFFFFFFFFFFFFFFFFFFFFFFFFFFFFFFFF AND MUL OR SWAP1 SSTORE POP PUSH2 0xD80 DUP1 PUSH2 0x67 PUSH0 CODECOPY PUSH0 RETURN INVALID PUSH1 0x80 PUSH1 0x40 MSTORE PUSH1 0x4 CALLDATASIZE LT PUSH2 0x54 JUMPI PUSH0 CALLDATALOAD PUSH1 0xE0 SHR DUP1 PUSH4 0x3CCFD60B EQ PUSH2 0x58 JUMPI DUP1 PUSH4 0x3E47D6F3 EQ PUSH2 0x6E JUMPI DUP1 PUSH4 0x8DA5CB5B EQ PUSH2 0xAA JUMPI DUP1 PUSH4 0xB60D4288 EQ PUSH2 0xD4 JUMPI DUP1 PUSH4 0xDC0D3DFF EQ PUSH2 0xDE JUMPI DUP1 PUSH4 0xDC992AA0 EQ PUSH2 0x11A JUMPI JUMPDEST PUSH0 DUP1 REVERT JUMPDEST CALLVALUE DUP1 ISZERO PUSH2 0x63 JUMPI PUSH0 DUP1 REVERT JUMPDEST POP PUSH2 0x6C PUSH2 0x144 JUMP JUMPDEST STOP JUMPDEST CALLVALUE DUP1 ISZERO PUSH2 0x79 JUMPI PUSH0 DUP1 REVERT JUMPDEST POP PUSH2 0x94 PUSH1 0x4 DUP1 CALLDATASIZE SUB DUP2 ADD SWAP1 PUSH2 0x8F SWAP2 SWAP1 PUSH2 0x78F JUMP JUMPDEST PUSH2 0x438 JUMP JUMPDEST PUSH1 0x40 MLOAD PUSH2 0xA1 SWAP2 SWAP1 PUSH2 0x7D2 JUMP JUMPDEST PUSH1 0x40 MLOAD DUP1 SWAP2 SUB SWAP1 RETURN JUMPDEST CALLVALUE DUP1 ISZERO PUSH2 0xB5 JUMPI PUSH0 DUP1 REVERT JUMPDEST POP PUSH2 0xBE PUSH2 0x44D JUMP JUMPDEST PUSH1 0x40 MLOAD PUSH2 0xCB SWAP2 SWAP1 PUSH2 0x7FA JUMP JUMPDEST PUSH1 0x40 MLOAD DUP1 SWAP2 SUB SWAP1 RETURN JUMPDEST PUSH2 0xDC PUSH2 0x472 JUMP JUMPDEST STOP JUMPDEST CALLVALUE DUP1 ISZERO PUSH2 0xE9 JUMPI PUSH0 DUP1 REVERT JUMPDEST POP PUSH2 0x104 PUSH1 0x4 DUP1 CALLDATASIZE SUB DUP2 ADD SWAP1 PUSH2 0xFF SWAP2 SWAP1 PUSH2 0x83D JUMP JUMPDEST PUSH2 0x572 JUMP JUMPDEST PUSH1 0x40 MLOAD PUSH2 0x111 SWAP2 SWAP1 PUSH2 0x7FA JUMP JUMPDEST PUSH1 0x40 MLOAD DUP1 SWAP2 SUB SWAP1 RETURN JUMPDEST CALLVALUE DUP1 ISZERO PUSH2 0x125 JUMPI PUSH0 DUP1 REVERT JUMPDEST POP PUSH2 0x12E PUSH2 0x5AD JUMP JUMPDEST PUSH1 0x40 MLOAD PUSH2 0x13B SWAP2 SWAP1 PUSH2 0x7D2 JUMP JUMPDEST PUSH1 0x40 MLOAD DUP1 SWAP2 SUB SWAP1 RETURN JUMPDEST PUSH1 0x3 PUSH0 SWAP1 SLOAD SWAP1 PUSH2 0x100 EXP SWAP1 DIV PUSH20 0xFFFFFFFFFFFFFFFFFFFFFFFFFFFFFFFFFFFFFFFF AND PUSH20 0xFFFFFFFFFFFFFFFFFFFFFFFFFFFFFFFFFFFFFFFF AND CALLER PUSH20 0xFFFFFFFFFFFFFFFFFFFFFFFFFFFFFFFFFFFFFFFF AND EQ PUSH2 0x1D3 JUMPI PUSH1 0x40 MLOAD PUSH32 0x8C379A000000000000000000000000000000000000000000000000000000000 DUP2 MSTORE PUSH1 0x4 ADD PUSH2 0x1CA SWAP1 PUSH2 0x8C2 JUMP JUMPDEST PUSH1 0x40 MLOAD DUP1 SWAP2 SUB SWAP1 REVERT JUMPDEST PUSH0 JUMPDEST PUSH1 0x1 DUP1 SLOAD SWAP1 POP DUP2 LT ISZERO PUSH2 0x271 JUMPI PUSH0 PUSH1 0x1 DUP3 DUP2 SLOAD DUP2 LT PUSH2 0x1F7 JUMPI PUSH2 0x1F6 PUSH2 0x8E0 JUMP JUMPDEST JUMPDEST SWAP1 PUSH0 MSTORE PUSH1 0x20 PUSH0 KECCAK256 ADD PUSH0 SWAP1 SLOAD SWAP1 PUSH2 0x100 EXP SWAP1 DIV PUSH20 0xFFFFFFFFFFFFFFFFFFFFFFFFFFFFFFFFFFFFFFFF AND SWAP1 POP PUSH0 PUSH1 0x2 PUSH0 DUP4 PUSH20 0xFFFFFFFFFFFFFFFFFFFFFFFFFFFFFFFFFFFFFFFF AND PUSH20 0xFFFFFFFFFFFFFFFFFFFFFFFFFFFFFFFFFFFFFFFF AND DUP2 MSTORE PUSH1 0x20 ADD SWAP1 DUP2 MSTORE PUSH1 0x20 ADD PUSH0 KECCAK256 DUP2 SWAP1 SSTORE POP POP DUP1 DUP1 PUSH1 0x1 ADD SWAP2 POP POP PUSH2 0x1D5 JUMP JUMPDEST POP PUSH0 PUSH8 0xFFFFFFFFFFFFFFFF DUP2 GT ISZERO PUSH2 0x28C JUMPI PUSH2 0x28B PUSH2 0x90D JUMP JUMPDEST JUMPDEST PUSH1 0x40 MLOAD SWAP1 DUP1 DUP3 MSTORE DUP1 PUSH1 0x20 MUL PUSH1 0x20 ADD DUP3 ADD PUSH1 0x40 MSTORE DUP1 ISZERO PUSH2 0x2BA JUMPI DUP2 PUSH1 0x20 ADD PUSH1 0x20 DUP3 MUL DUP1 CALLDATASIZE DUP4 CALLDATACOPY DUP1 DUP3 ADD SWAP2 POP POP SWAP1 POP JUMPDEST POP PUSH1 0x1 SWAP1 DUP1 MLOAD SWAP1 PUSH1 0x20 ADD SWAP1 PUSH2 0x2D0 SWAP3 SWAP2 SWAP1 PUSH2 0x68F JUMP JUMPDEST POP CALLER PUSH20 0xFFFFFFFFFFFFFFFFFFFFFFFFFFFFFFFFFFFFFFFF AND PUSH2 0x8FC SELFBALANCE SWAP1 DUP2 ISZERO MUL SWAP1 PUSH1 0x40 MLOAD PUSH0 PUSH1 0x40 MLOAD DUP1 DUP4 SUB DUP2 DUP6 DUP9 DUP9 CALL SWAP4 POP POP POP POP ISZERO DUP1 ISZERO PUSH2 0x314 JUMPI RETURNDATASIZE PUSH0 DUP1 RETURNDATACOPY RETURNDATASIZE PUSH0 REVERT JUMPDEST POP PUSH0 CALLER PUSH20 0xFFFFFFFFFFFFFFFFFFFFFFFFFFFFFFFFFFFFFFFF AND PUSH2 0x8FC SELFBALANCE SWAP1 DUP2 ISZERO MUL SWAP1 PUSH1 0x40 MLOAD PUSH0 PUSH1 0x40 MLOAD DUP1 DUP4 SUB DUP2 DUP6 DUP9 DUP9 CALL SWAP4 POP POP POP POP SWAP1 POP DUP1 PUSH2 0x38C JUMPI PUSH1 0x40 MLOAD PUSH32 0x8C379A000000000000000000000000000000000000000000000000000000000 DUP2 MSTORE PUSH1 0x4 ADD PUSH2 0x383 SWAP1 PUSH2 0x984 JUMP JUMPDEST PUSH1 0x40 MLOAD DUP1 SWAP2 SUB SWAP1 REVERT JUMPDEST PUSH0 CALLER PUSH20 0xFFFFFFFFFFFFFFFFFFFFFFFFFFFFFFFFFFFFFFFF AND SELFBALANCE PUSH1 0x40 MLOAD PUSH2 0x3B1 SWAP1 PUSH2 0x9CF JUMP JUMPDEST PUSH0 PUSH1 0x40 MLOAD DUP1 DUP4 SUB DUP2 DUP6 DUP8 GAS CALL SWAP3 POP POP POP RETURNDATASIZE DUP1 PUSH0 DUP2 EQ PUSH2 0x3EB JUMPI PUSH1 0x40 MLOAD SWAP2 POP PUSH1 0x1F NOT PUSH1 0x3F RETURNDATASIZE ADD AND DUP3 ADD PUSH1 0x40 MSTORE RETURNDATASIZE DUP3 MSTORE RETURNDATASIZE PUSH0 PUSH1 0x20 DUP5 ADD RETURNDATACOPY PUSH2 0x3F0 JUMP JUMPDEST PUSH1 0x60 SWAP2 POP JUMPDEST POP POP SWAP1 POP DUP1 PUSH2 0x434 JUMPI PUSH1 0x40 MLOAD PUSH32 0x8C379A000000000000000000000000000000000000000000000000000000000 DUP2 MSTORE PUSH1 0x4 ADD PUSH2 0x42B SWAP1 PUSH2 0xA2D JUMP JUMPDEST PUSH1 0x40 MLOAD DUP1 SWAP2 SUB SWAP1 REVERT JUMPDEST POP POP JUMP JUMPDEST PUSH1 0x2 PUSH1 0x20 MSTORE DUP1 PUSH0 MSTORE PUSH1 0x40 PUSH0 KECCAK256 PUSH0 SWAP2 POP SWAP1 POP SLOAD DUP2 JUMP JUMPDEST PUSH1 0x3 PUSH0 SWAP1 SLOAD SWAP1 PUSH2 0x100 EXP SWAP1 DIV PUSH20 0xFFFFFFFFFFFFFFFFFFFFFFFFFFFFFFFFFFFFFFFF AND DUP2 JUMP JUMPDEST PUSH0 SLOAD PUSH2 0x47D CALLVALUE PUSH2 0x5B2 JUMP JUMPDEST GT PUSH2 0x4BD JUMPI PUSH1 0x40 MLOAD PUSH32 0x8C379A000000000000000000000000000000000000000000000000000000000 DUP2 MSTORE PUSH1 0x4 ADD PUSH2 0x4B4 SWAP1 PUSH2 0xABB JUMP JUMPDEST PUSH1 0x40 MLOAD DUP1 SWAP2 SUB SWAP1 REVERT JUMPDEST PUSH1 0x1 CALLER SWAP1 DUP1 PUSH1 0x1 DUP2 SLOAD ADD DUP1 DUP3 SSTORE DUP1 SWAP2 POP POP PUSH1 0x1 SWAP1 SUB SWAP1 PUSH0 MSTORE PUSH1 0x20 PUSH0 KECCAK256 ADD PUSH0 SWAP1 SWAP2 SWAP1 SWAP2 SWAP1 SWAP2 PUSH2 0x100 EXP DUP2 SLOAD DUP2 PUSH20 0xFFFFFFFFFFFFFFFFFFFFFFFFFFFFFFFFFFFFFFFF MUL NOT AND SWAP1 DUP4 PUSH20 0xFFFFFFFFFFFFFFFFFFFFFFFFFFFFFFFFFFFFFFFF AND MUL OR SWAP1 SSTORE POP CALLVALUE PUSH1 0x2 PUSH0 CALLER PUSH20 0xFFFFFFFFFFFFFFFFFFFFFFFFFFFFFFFFFFFFFFFF AND PUSH20 0xFFFFFFFFFFFFFFFFFFFFFFFFFFFFFFFFFFFFFFFF AND DUP2 MSTORE PUSH1 0x20 ADD SWAP1 DUP2 MSTORE PUSH1 0x20 ADD PUSH0 KECCAK256 PUSH0 DUP3 DUP3 SLOAD PUSH2 0x569 SWAP2 SWAP1 PUSH2 0xB06 JUMP JUMPDEST SWAP3 POP POP DUP2 SWAP1 SSTORE POP JUMP JUMPDEST PUSH1 0x1 DUP2 DUP2 SLOAD DUP2 LT PUSH2 0x581 JUMPI PUSH0 DUP1 REVERT JUMPDEST SWAP1 PUSH0 MSTORE PUSH1 0x20 PUSH0 KECCAK256 ADD PUSH0 SWAP2 POP SLOAD SWAP1 PUSH2 0x100 EXP SWAP1 DIV PUSH20 0xFFFFFFFFFFFFFFFFFFFFFFFFFFFFFFFFFFFFFFFF AND DUP2 JUMP JUMPDEST PUSH0 SLOAD DUP2 JUMP JUMPDEST PUSH0 DUP1 PUSH2 0x5BC PUSH2 0x5EA JUMP JUMPDEST SWAP1 POP PUSH0 PUSH8 0xDE0B6B3A7640000 DUP5 DUP4 PUSH2 0x5D4 SWAP2 SWAP1 PUSH2 0xB39 JUMP JUMPDEST PUSH2 0x5DE SWAP2 SWAP1 PUSH2 0xBA7 JUMP JUMPDEST SWAP1 POP DUP1 SWAP3 POP POP POP SWAP2 SWAP1 POP JUMP JUMPDEST PUSH0 DUP1 PUSH20 0x694AA1769357215DE4FAC081BF1F309ADC325306 SWAP1 POP PUSH0 DUP2 PUSH20 0xFFFFFFFFFFFFFFFFFFFFFFFFFFFFFFFFFFFFFFFF AND PUSH4 0xFEAF968C PUSH1 0x40 MLOAD DUP2 PUSH4 0xFFFFFFFF AND PUSH1 0xE0 SHL DUP2 MSTORE PUSH1 0x4 ADD PUSH1 0xA0 PUSH1 0x40 MLOAD DUP1 DUP4 SUB DUP2 DUP7 GAS STATICCALL ISZERO DUP1 ISZERO PUSH2 0x64D JUMPI RETURNDATASIZE PUSH0 DUP1 RETURNDATACOPY RETURNDATASIZE PUSH0 REVERT JUMPDEST POP POP POP POP PUSH1 0x40 MLOAD RETURNDATASIZE PUSH1 0x1F NOT PUSH1 0x1F DUP3 ADD AND DUP3 ADD DUP1 PUSH1 0x40 MSTORE POP DUP2 ADD SWAP1 PUSH2 0x671 SWAP2 SWAP1 PUSH2 0xC5D JUMP JUMPDEST POP POP POP SWAP2 POP POP PUSH5 0x2540BE400 DUP2 PUSH2 0x688 SWAP2 SWAP1 PUSH2 0xCD4 JUMP JUMPDEST SWAP3 POP POP POP SWAP1 JUMP JUMPDEST DUP3 DUP1 SLOAD DUP3 DUP3 SSTORE SWAP1 PUSH0 MSTORE PUSH1 0x20 PUSH0 KECCAK256 SWAP1 DUP2 ADD SWAP3 DUP3 ISZERO PUSH2 0x705 JUMPI SWAP2 PUSH1 0x20 MUL DUP3 ADD JUMPDEST DUP3 DUP2 GT ISZERO PUSH2 0x704 JUMPI DUP3 MLOAD DUP3 PUSH0 PUSH2 0x100 EXP DUP2 SLOAD DUP2 PUSH20 0xFFFFFFFFFFFFFFFFFFFFFFFFFFFFFFFFFFFFFFFF MUL NOT AND SWAP1 DUP4 PUSH20 0xFFFFFFFFFFFFFFFFFFFFFFFFFFFFFFFFFFFFFFFF AND MUL OR SWAP1 SSTORE POP SWAP2 PUSH1 0x20 ADD SWAP2 SWAP1 PUSH1 0x1 ADD SWAP1 PUSH2 0x6AD JUMP JUMPDEST JUMPDEST POP SWAP1 POP PUSH2 0x712 SWAP2 SWAP1 PUSH2 0x716 JUMP JUMPDEST POP SWAP1 JUMP JUMPDEST JUMPDEST DUP1 DUP3 GT ISZERO PUSH2 0x72D JUMPI PUSH0 DUP2 PUSH0 SWAP1 SSTORE POP PUSH1 0x1 ADD PUSH2 0x717 JUMP JUMPDEST POP SWAP1 JUMP JUMPDEST PUSH0 DUP1 REVERT JUMPDEST PUSH0 PUSH20 0xFFFFFFFFFFFFFFFFFFFFFFFFFFFFFFFFFFFFFFFF DUP3 AND SWAP1 POP SWAP2 SWAP1 POP JUMP JUMPDEST PUSH0 PUSH2 0x75E DUP3 PUSH2 0x735 JUMP JUMPDEST SWAP1 POP SWAP2 SWAP1 POP JUMP JUMPDEST PUSH2 0x76E DUP2 PUSH2 0x754 JUMP JUMPDEST DUP2 EQ PUSH2 0x778 JUMPI PUSH0 DUP1 REVERT JUMPDEST POP JUMP JUMPDEST PUSH0 DUP2 CALLDATALOAD SWAP1 POP PUSH2 0x789 DUP2 PUSH2 0x765 JUMP JUMPDEST SWAP3 SWAP2 POP POP JUMP JUMPDEST PUSH0 PUSH1 0x20 DUP3 DUP5 SUB SLT ISZERO PUSH2 0x7A4 JUMPI PUSH2 0x7A3 PUSH2 0x731 JUMP JUMPDEST JUMPDEST PUSH0 PUSH2 0x7B1 DUP5 DUP3 DUP6 ADD PUSH2 0x77B JUMP JUMPDEST SWAP2 POP POP SWAP3 SWAP2 POP POP JUMP JUMPDEST PUSH0 DUP2 SWAP1 POP SWAP2 SWAP1 POP JUMP JUMPDEST PUSH2 0x7CC DUP2 PUSH2 0x7BA JUMP JUMPDEST DUP3 MSTORE POP POP JUMP JUMPDEST PUSH0 PUSH1 0x20 DUP3 ADD SWAP1 POP PUSH2 0x7E5 PUSH0 DUP4 ADD DUP5 PUSH2 0x7C3 JUMP JUMPDEST SWAP3 SWAP2 POP POP JUMP JUMPDEST PUSH2 0x7F4 DUP2 PUSH2 0x754 JUMP JUMPDEST DUP3 MSTORE POP POP JUMP JUMPDEST PUSH0 PUSH1 0x20 DUP3 ADD SWAP1 POP PUSH2 0x80D PUSH0 DUP4 ADD DUP5 PUSH2 0x7EB JUMP JUMPDEST SWAP3 SWAP2 POP POP JUMP JUMPDEST PUSH2 0x81C DUP2 PUSH2 0x7BA JUMP JUMPDEST DUP2 EQ PUSH2 0x826 JUMPI PUSH0 DUP1 REVERT JUMPDEST POP JUMP JUMPDEST PUSH0 DUP2 CALLDATALOAD SWAP1 POP PUSH2 0x837 DUP2 PUSH2 0x813 JUMP JUMPDEST SWAP3 SWAP2 POP POP JUMP JUMPDEST PUSH0 PUSH1 0x20 DUP3 DUP5 SUB SLT ISZERO PUSH2 0x852 JUMPI PUSH2 0x851 PUSH2 0x731 JUMP JUMPDEST JUMPDEST PUSH0 PUSH2 0x85F DUP5 DUP3 DUP6 ADD PUSH2 0x829 JUMP JUMPDEST SWAP2 POP POP SWAP3 SWAP2 POP POP JUMP JUMPDEST PUSH0 DUP3 DUP3 MSTORE PUSH1 0x20 DUP3 ADD SWAP1 POP SWAP3 SWAP2 POP POP JUMP JUMPDEST PUSH32 0x53656E646572206E6565647320746F206265206F776E65720000000000000000 PUSH0 DUP3 ADD MSTORE POP JUMP JUMPDEST PUSH0 PUSH2 0x8AC PUSH1 0x18 DUP4 PUSH2 0x868 JUMP JUMPDEST SWAP2 POP PUSH2 0x8B7 DUP3 PUSH2 0x878 JUMP JUMPDEST PUSH1 0x20 DUP3 ADD SWAP1 POP SWAP2 SWAP1 POP JUMP JUMPDEST PUSH0 PUSH1 0x20 DUP3 ADD SWAP1 POP DUP2 DUP2 SUB PUSH0 DUP4 ADD MSTORE PUSH2 0x8D9 DUP2 PUSH2 0x8A0 JUMP JUMPDEST SWAP1 POP SWAP2 SWAP1 POP JUMP JUMPDEST PUSH32 0x4E487B7100000000000000000000000000000000000000000000000000000000 PUSH0 MSTORE PUSH1 0x32 PUSH1 0x4 MSTORE PUSH1 0x24 PUSH0 REVERT JUMPDEST PUSH32 0x4E487B7100000000000000000000000000000000000000000000000000000000 PUSH0 MSTORE PUSH1 0x41 PUSH1 0x4 MSTORE PUSH1 0x24 PUSH0 REVERT JUMPDEST PUSH32 0x53656E64206661696C6564000000000000000000000000000000000000000000 PUSH0 DUP3 ADD MSTORE POP JUMP JUMPDEST PUSH0 PUSH2 0x96E PUSH1 0xB DUP4 PUSH2 0x868 JUMP JUMPDEST SWAP2 POP PUSH2 0x979 DUP3 PUSH2 0x93A JUMP JUMPDEST PUSH1 0x20 DUP3 ADD SWAP1 POP SWAP2 SWAP1 POP JUMP JUMPDEST PUSH0 PUSH1 0x20 DUP3 ADD SWAP1 POP DUP2 DUP2 SUB PUSH0 DUP4 ADD MSTORE PUSH2 0x99B DUP2 PUSH2 0x962 JUMP JUMPDEST SWAP1 POP SWAP2 SWAP1 POP JUMP JUMPDEST PUSH0 DUP2 SWAP1 POP SWAP3 SWAP2 POP POP JUMP JUMPDEST POP JUMP JUMPDEST PUSH0 PUSH2 0x9BA PUSH0 DUP4 PUSH2 0x9A2 JUMP JUMPDEST SWAP2 POP PUSH2 0x9C5 DUP3 PUSH2 0x9AC JUMP JUMPDEST PUSH0 DUP3 ADD SWAP1 POP SWAP2 SWAP1 POP JUMP JUMPDEST PUSH0 PUSH2 0x9D9 DUP3 PUSH2 0x9AF JUMP JUMPDEST SWAP2 POP DUP2 SWAP1 POP SWAP2 SWAP1 POP JUMP JUMPDEST PUSH32 0x43616C6C206661696C6564000000000000000000000000000000000000000000 PUSH0 DUP3 ADD MSTORE POP JUMP JUMPDEST PUSH0 PUSH2 0xA17 PUSH1 0xB DUP4 PUSH2 0x868 JUMP JUMPDEST SWAP2 POP PUSH2 0xA22 DUP3 PUSH2 0x9E3 JUMP JUMPDEST PUSH1 0x20 DUP3 ADD SWAP1 POP SWAP2 SWAP1 POP JUMP JUMPDEST PUSH0 PUSH1 0x20 DUP3 ADD SWAP1 POP DUP2 DUP2 SUB PUSH0 DUP4 ADD MSTORE PUSH2 0xA44 DUP2 PUSH2 0xA0B JUMP JUMPDEST SWAP1 POP SWAP2 SWAP1 POP JUMP JUMPDEST PUSH32 0x57687920736F204B616E6A7573212053656E642074686520656E746972652061 PUSH0 DUP3 ADD MSTORE PUSH32 0x6D6F756E74207370656369666965640000000000000000000000000000000000 PUSH1 0x20 DUP3 ADD MSTORE POP JUMP JUMPDEST PUSH0 PUSH2 0xAA5 PUSH1 0x2F DUP4 PUSH2 0x868 JUMP JUMPDEST SWAP2 POP PUSH2 0xAB0 DUP3 PUSH2 0xA4B JUMP JUMPDEST PUSH1 0x40 DUP3 ADD SWAP1 POP SWAP2 SWAP1 POP JUMP JUMPDEST PUSH0 PUSH1 0x20 DUP3 ADD SWAP1 POP DUP2 DUP2 SUB PUSH0 DUP4 ADD MSTORE PUSH2 0xAD2 DUP2 PUSH2 0xA99 JUMP JUMPDEST SWAP1 POP SWAP2 SWAP1 POP JUMP JUMPDEST PUSH32 0x4E487B7100000000000000000000000000000000000000000000000000000000 PUSH0 MSTORE PUSH1 0x11 PUSH1 0x4 MSTORE PUSH1 0x24 PUSH0 REVERT JUMPDEST PUSH0 PUSH2 0xB10 DUP3 PUSH2 0x7BA JUMP JUMPDEST SWAP2 POP PUSH2 0xB1B DUP4 PUSH2 0x7BA JUMP JUMPDEST SWAP3 POP DUP3 DUP3 ADD SWAP1 POP DUP1 DUP3 GT ISZERO PUSH2 0xB33 JUMPI PUSH2 0xB32 PUSH2 0xAD9 JUMP JUMPDEST JUMPDEST SWAP3 SWAP2 POP POP JUMP JUMPDEST PUSH0 PUSH2 0xB43 DUP3 PUSH2 0x7BA JUMP JUMPDEST SWAP2 POP PUSH2 0xB4E DUP4 PUSH2 0x7BA JUMP JUMPDEST SWAP3 POP DUP3 DUP3 MUL PUSH2 0xB5C DUP2 PUSH2 0x7BA JUMP JUMPDEST SWAP2 POP DUP3 DUP3 DIV DUP5 EQ DUP4 ISZERO OR PUSH2 0xB73 JUMPI PUSH2 0xB72 PUSH2 0xAD9 JUMP JUMPDEST JUMPDEST POP SWAP3 SWAP2 POP POP JUMP JUMPDEST PUSH32 0x4E487B7100000000000000000000000000000000000000000000000000000000 PUSH0 MSTORE PUSH1 0x12 PUSH1 0x4 MSTORE PUSH1 0x24 PUSH0 REVERT JUMPDEST PUSH0 PUSH2 0xBB1 DUP3 PUSH2 0x7BA JUMP JUMPDEST SWAP2 POP PUSH2 0xBBC DUP4 PUSH2 0x7BA JUMP JUMPDEST SWAP3 POP DUP3 PUSH2 0xBCC JUMPI PUSH2 0xBCB PUSH2 0xB7A JUMP JUMPDEST JUMPDEST DUP3 DUP3 DIV SWAP1 POP SWAP3 SWAP2 POP POP JUMP JUMPDEST PUSH0 PUSH10 0xFFFFFFFFFFFFFFFFFFFF DUP3 AND SWAP1 POP SWAP2 SWAP1 POP JUMP JUMPDEST PUSH2 0xBF5 DUP2 PUSH2 0xBD7 JUMP JUMPDEST DUP2 EQ PUSH2 0xBFF JUMPI PUSH0 DUP1 REVERT JUMPDEST POP JUMP JUMPDEST PUSH0 DUP2 MLOAD SWAP1 POP PUSH2 0xC10 DUP2 PUSH2 0xBEC JUMP JUMPDEST SWAP3 SWAP2 POP POP JUMP JUMPDEST PUSH0 DUP2 SWAP1 POP SWAP2 SWAP1 POP JUMP JUMPDEST PUSH2 0xC28 DUP2 PUSH2 0xC16 JUMP JUMPDEST DUP2 EQ PUSH2 0xC32 JUMPI PUSH0 DUP1 REVERT JUMPDEST POP JUMP JUMPDEST PUSH0 DUP2 MLOAD SWAP1 POP PUSH2 0xC43 DUP2 PUSH2 0xC1F JUMP JUMPDEST SWAP3 SWAP2 POP POP JUMP JUMPDEST PUSH0 DUP2 MLOAD SWAP1 POP PUSH2 0xC57 DUP2 PUSH2 0x813 JUMP JUMPDEST SWAP3 SWAP2 POP POP JUMP JUMPDEST PUSH0 DUP1 PUSH0 DUP1 PUSH0 PUSH1 0xA0 DUP7 DUP9 SUB SLT ISZERO PUSH2 0xC76 JUMPI PUSH2 0xC75 PUSH2 0x731 JUMP JUMPDEST JUMPDEST PUSH0 PUSH2 0xC83 DUP9 DUP3 DUP10 ADD PUSH2 0xC02 JUMP JUMPDEST SWAP6 POP POP PUSH1 0x20 PUSH2 0xC94 DUP9 DUP3 DUP10 ADD PUSH2 0xC35 JUMP JUMPDEST SWAP5 POP POP PUSH1 0x40 PUSH2 0xCA5 DUP9 DUP3 DUP10 ADD PUSH2 0xC49 JUMP JUMPDEST SWAP4 POP POP PUSH1 0x60 PUSH2 0xCB6 DUP9 DUP3 DUP10 ADD PUSH2 0xC49 JUMP JUMPDEST SWAP3 POP POP PUSH1 0x80 PUSH2 0xCC7 DUP9 DUP3 DUP10 ADD PUSH2 0xC02 JUMP JUMPDEST SWAP2 POP POP SWAP3 SWAP6 POP SWAP3 SWAP6 SWAP1 SWAP4 POP JUMP JUMPDEST PUSH0 PUSH2 0xCDE DUP3 PUSH2 0xC16 JUMP JUMPDEST SWAP2 POP PUSH2 0xCE9 DUP4 PUSH2 0xC16 JUMP JUMPDEST SWAP3 POP DUP3 DUP3 MUL PUSH2 0xCF7 DUP2 PUSH2 0xC16 JUMP JUMPDEST SWAP2 POP PUSH32 0x8000000000000000000000000000000000000000000000000000000000000000 DUP5 EQ PUSH0 DUP5 SLT AND ISZERO PUSH2 0xD2E JUMPI PUSH2 0xD2D PUSH2 0xAD9 JUMP JUMPDEST JUMPDEST DUP3 DUP3 SDIV DUP5 EQ DUP4 ISZERO OR PUSH2 0xD43 JUMPI PUSH2 0xD42 PUSH2 0xAD9 JUMP JUMPDEST JUMPDEST POP SWAP3 SWAP2 POP POP JUMP INVALID LOG2 PUSH5 0x6970667358 0x22 SLT KECCAK256 SMOD PUSH2 0x8F4A 0xAF 0xB9 DUP16 PUSH19 0xE43C3415EFC2179336005622243887A286A038 0xA7 0xE3 CALLDATACOPY SWAP7 0xD1 PUSH5 0x736F6C6343 STOP ADDMOD BYTE STOP CALLER "
				},
				"gasEstimates": {
					"creation": {
						"codeDepositCost": "691200",
						"executionCost": "47089",
						"totalCost": "738289"
					},
					"external": {
						"addressToAmountFunded(address)": "2802",
						"fund()": "infinite",
						"funders(uint256)": "5010",
						"minUSD()": "2512",
						"owner()": "2530",
						"withdraw()": "infinite"
					}
				},
				"methodIdentifiers": {
					"addressToAmountFunded(address)": "3e47d6f3",
					"fund()": "b60d4288",
					"funders(uint256)": "dc0d3dff",
					"minUSD()": "dc992aa0",
					"owner()": "8da5cb5b",
					"withdraw()": "3ccfd60b"
				}
			},
			"storageLayout": {
				"storage": [
					{
						"astId": 55,
						"contract": "contracts/FundMe.sol:FundMe",
						"label": "minUSD",
						"offset": 0,
						"slot": "0",
						"type": "t_uint256"
					},
					{
						"astId": 58,
						"contract": "contracts/FundMe.sol:FundMe",
						"label": "funders",
						"offset": 0,
						"slot": "1",
						"type": "t_array(t_address)dyn_storage"
					},
					{
						"astId": 62,
						"contract": "contracts/FundMe.sol:FundMe",
						"label": "addressToAmountFunded",
						"offset": 0,
						"slot": "2",
						"type": "t_mapping(t_address,t_uint256)"
					},
					{
						"astId": 64,
						"contract": "contracts/FundMe.sol:FundMe",
						"label": "owner",
						"offset": 0,
						"slot": "3",
						"type": "t_address"
					}
				],
				"types": {
					"t_address": {
						"encoding": "inplace",
						"label": "address",
						"numberOfBytes": "20"
					},
					"t_array(t_address)dyn_storage": {
						"base": "t_address",
						"encoding": "dynamic_array",
						"label": "address[]",
						"numberOfBytes": "32"
					},
					"t_mapping(t_address,t_uint256)": {
						"encoding": "mapping",
						"key": "t_address",
						"label": "mapping(address => uint256)",
						"numberOfBytes": "32",
						"value": "t_uint256"
					},
					"t_uint256": {
						"encoding": "inplace",
						"label": "uint256",
						"numberOfBytes": "32"
					}
				}
			},
			"userdoc": {
				"kind": "user",
				"methods": {},
				"version": 1
			}
		}
	}
}