{
	"contracts/FundMe.sol": {
		"FundMe": {
			"abi": [
				{
					"inputs": [
						{
							"internalType": "address",
							"name": "funder",
							"type": "address"
						}
					],
					"name": "addressToAmountFunded",
					"outputs": [
						{
							"internalType": "uint256",
							"name": "amountFunded",
							"type": "uint256"
						}
					],
					"stateMutability": "view",
					"type": "function"
				},
				{
					"inputs": [],
					"name": "fund",
					"outputs": [],
					"stateMutability": "payable",
					"type": "function"
				},
				{
					"inputs": [
						{
							"internalType": "uint256",
							"name": "",
							"type": "uint256"
						}
					],
					"name": "funders",
					"outputs": [
						{
							"internalType": "address",
							"name": "",
							"type": "address"
						}
					],
					"stateMutability": "view",
					"type": "function"
				},
				{
					"inputs": [],
					"name": "minUSD",
					"outputs": [
						{
							"internalType": "uint256",
							"name": "",
							"type": "uint256"
						}
					],
					"stateMutability": "view",
					"type": "function"
				}
			],
			"devdoc": {
				"kind": "dev",
				"methods": {},
				"version": 1
			},
			"evm": {
				"assembly": "    /* \"contracts/FundMe.sol\":1103:3751  contract FundMe {... */\n  mstore(0x40, 0x80)\n    /* \"contracts/FundMe.sol\":1361:1365  7e18 */\n  0x6124fee993bc0000\n    /* \"contracts/FundMe.sol\":1337:1365  uint256 public minUSD = 7e18 */\n  0x00\n  sstore\n    /* \"contracts/FundMe.sol\":1103:3751  contract FundMe {... */\n  callvalue\n  dup1\n  iszero\n  tag_1\n  jumpi\n  0x00\n  dup1\n  revert\ntag_1:\n  pop\n  dataSize(sub_0)\n  dup1\n  dataOffset(sub_0)\n  0x00\n  codecopy\n  0x00\n  return\nstop\n\nsub_0: assembly {\n        /* \"contracts/FundMe.sol\":1103:3751  contract FundMe {... */\n      mstore(0x40, 0x80)\n      jumpi(tag_1, lt(calldatasize, 0x04))\n      shr(0xe0, calldataload(0x00))\n      dup1\n      0x3e47d6f3\n      eq\n      tag_2\n      jumpi\n      dup1\n      0xb60d4288\n      eq\n      tag_3\n      jumpi\n      dup1\n      0xdc0d3dff\n      eq\n      tag_4\n      jumpi\n      dup1\n      0xdc992aa0\n      eq\n      tag_5\n      jumpi\n    tag_1:\n      0x00\n      dup1\n      revert\n        /* \"contracts/FundMe.sol\":1504:1580  mapping(address funder => uint256 amountFunded) public addressToAmountFunded */\n    tag_2:\n      callvalue\n      dup1\n      iszero\n      tag_6\n      jumpi\n      0x00\n      dup1\n      revert\n    tag_6:\n      pop\n      tag_7\n      0x04\n      dup1\n      calldatasize\n      sub\n      dup2\n      add\n      swap1\n      tag_8\n      swap2\n      swap1\n      tag_9\n      jump\t// in\n    tag_8:\n      tag_10\n      jump\t// in\n    tag_7:\n      mload(0x40)\n      tag_11\n      swap2\n      swap1\n      tag_12\n      jump\t// in\n    tag_11:\n      mload(0x40)\n      dup1\n      swap2\n      sub\n      swap1\n      return\n        /* \"contracts/FundMe.sol\":1693:3746  function fund() public payable {... */\n    tag_3:\n      tag_13\n      tag_14\n      jump\t// in\n    tag_13:\n      stop\n        /* \"contracts/FundMe.sol\":1420:1444  address[] public funders */\n    tag_4:\n      callvalue\n      dup1\n      iszero\n      tag_15\n      jumpi\n      0x00\n      dup1\n      revert\n    tag_15:\n      pop\n      tag_16\n      0x04\n      dup1\n      calldatasize\n      sub\n      dup2\n      add\n      swap1\n      tag_17\n      swap2\n      swap1\n      tag_18\n      jump\t// in\n    tag_17:\n      tag_19\n      jump\t// in\n    tag_16:\n      mload(0x40)\n      tag_20\n      swap2\n      swap1\n      tag_21\n      jump\t// in\n    tag_20:\n      mload(0x40)\n      dup1\n      swap2\n      sub\n      swap1\n      return\n        /* \"contracts/FundMe.sol\":1337:1365  uint256 public minUSD = 7e18 */\n    tag_5:\n      callvalue\n      dup1\n      iszero\n      tag_22\n      jumpi\n      0x00\n      dup1\n      revert\n    tag_22:\n      pop\n      tag_23\n      tag_24\n      jump\t// in\n    tag_23:\n      mload(0x40)\n      tag_25\n      swap2\n      swap1\n      tag_12\n      jump\t// in\n    tag_25:\n      mload(0x40)\n      dup1\n      swap2\n      sub\n      swap1\n      return\n        /* \"contracts/FundMe.sol\":1504:1580  mapping(address funder => uint256 amountFunded) public addressToAmountFunded */\n    tag_10:\n      mstore(0x20, 0x02)\n      dup1\n      0x00\n      mstore\n      keccak256(0x00, 0x40)\n      0x00\n      swap2\n      pop\n      swap1\n      pop\n      sload\n      dup2\n      jump\t// out\n        /* \"contracts/FundMe.sol\":1693:3746  function fund() public payable {... */\n    tag_14:\n        /* \"contracts/FundMe.sol\":2589:2595  minUSD */\n      sload(0x00)\n        /* \"contracts/FundMe.sol\":2557:2586  msg.value.getConversionRate() */\n      tag_27\n        /* \"contracts/FundMe.sol\":2557:2566  msg.value */\n      callvalue\n        /* \"contracts/FundMe.sol\":2557:2584  msg.value.getConversionRate */\n      tag_28\n        /* \"contracts/FundMe.sol\":2557:2586  msg.value.getConversionRate() */\n      jump\t// in\n    tag_27:\n        /* \"contracts/FundMe.sol\":2557:2595  msg.value.getConversionRate() > minUSD */\n      gt\n        /* \"contracts/FundMe.sol\":2549:2647  require(msg.value.getConversionRate() > minUSD, \"Why so Kanjus! Send the entire amount specified\") */\n      tag_29\n      jumpi\n      mload(0x40)\n      0x08c379a000000000000000000000000000000000000000000000000000000000\n      dup2\n      mstore\n      0x04\n      add\n      tag_30\n      swap1\n      tag_31\n      jump\t// in\n    tag_30:\n      mload(0x40)\n      dup1\n      swap2\n      sub\n      swap1\n      revert\n    tag_29:\n        /* \"contracts/FundMe.sol\":3574:3581  funders */\n      0x01\n        /* \"contracts/FundMe.sol\":3587:3597  msg.sender */\n      caller\n        /* \"contracts/FundMe.sol\":3574:3598  funders.push(msg.sender) */\n      swap1\n      dup1\n      0x01\n      dup2\n      sload\n      add\n      dup1\n      dup3\n      sstore\n      dup1\n      swap2\n      pop\n      pop\n      0x01\n      swap1\n      sub\n      swap1\n      0x00\n      mstore\n      keccak256(0x00, 0x20)\n      add\n      0x00\n      swap1\n      swap2\n      swap1\n      swap2\n      swap1\n      swap2\n      0x0100\n      exp\n      dup2\n      sload\n      dup2\n      0xffffffffffffffffffffffffffffffffffffffff\n      mul\n      not\n      and\n      swap1\n      dup4\n      0xffffffffffffffffffffffffffffffffffffffff\n      and\n      mul\n      or\n      swap1\n      sstore\n      pop\n        /* \"contracts/FundMe.sol\":3729:3738  msg.value */\n      callvalue\n        /* \"contracts/FundMe.sol\":3693:3714  addressToAmountFunded */\n      0x02\n        /* \"contracts/FundMe.sol\":3693:3726  addressToAmountFunded[msg.sender] */\n      0x00\n        /* \"contracts/FundMe.sol\":3715:3725  msg.sender */\n      caller\n        /* \"contracts/FundMe.sol\":3693:3726  addressToAmountFunded[msg.sender] */\n      0xffffffffffffffffffffffffffffffffffffffff\n      and\n      0xffffffffffffffffffffffffffffffffffffffff\n      and\n      dup2\n      mstore\n      0x20\n      add\n      swap1\n      dup2\n      mstore\n      0x20\n      add\n      0x00\n      keccak256\n      sload\n        /* \"contracts/FundMe.sol\":3693:3738  addressToAmountFunded[msg.sender] + msg.value */\n      tag_33\n      swap2\n      swap1\n      tag_34\n      jump\t// in\n    tag_33:\n        /* \"contracts/FundMe.sol\":3657:3678  addressToAmountFunded */\n      0x02\n        /* \"contracts/FundMe.sol\":3657:3690  addressToAmountFunded[msg.sender] */\n      0x00\n        /* \"contracts/FundMe.sol\":3679:3689  msg.sender */\n      caller\n        /* \"contracts/FundMe.sol\":3657:3690  addressToAmountFunded[msg.sender] */\n      0xffffffffffffffffffffffffffffffffffffffff\n      and\n      0xffffffffffffffffffffffffffffffffffffffff\n      and\n      dup2\n      mstore\n      0x20\n      add\n      swap1\n      dup2\n      mstore\n      0x20\n      add\n      0x00\n      keccak256\n        /* \"contracts/FundMe.sol\":3657:3738  addressToAmountFunded[msg.sender] = addressToAmountFunded[msg.sender] + msg.value */\n      dup2\n      swap1\n      sstore\n      pop\n        /* \"contracts/FundMe.sol\":1693:3746  function fund() public payable {... */\n      jump\t// out\n        /* \"contracts/FundMe.sol\":1420:1444  address[] public funders */\n    tag_19:\n      0x01\n      dup2\n      dup2\n      sload\n      dup2\n      lt\n      tag_35\n      jumpi\n      0x00\n      dup1\n      revert\n    tag_35:\n      swap1\n      0x00\n      mstore\n      keccak256(0x00, 0x20)\n      add\n      0x00\n      swap2\n      pop\n      sload\n      swap1\n      0x0100\n      exp\n      swap1\n      div\n      0xffffffffffffffffffffffffffffffffffffffff\n      and\n      dup2\n      jump\t// out\n        /* \"contracts/FundMe.sol\":1337:1365  uint256 public minUSD = 7e18 */\n    tag_24:\n      sload(0x00)\n      dup2\n      jump\t// out\n        /* \"contracts/PriceConverterLibrary.sol\":1180:1738  function getConversionRate(uint256 ethAmount) internal view returns (uint256) {... */\n    tag_28:\n        /* \"contracts/PriceConverterLibrary.sol\":1249:1256  uint256 */\n      0x00\n        /* \"contracts/PriceConverterLibrary.sol\":1322:1338  uint256 ethPrice */\n      dup1\n        /* \"contracts/PriceConverterLibrary.sol\":1341:1351  getPrice() */\n      tag_38\n        /* \"contracts/PriceConverterLibrary.sol\":1341:1349  getPrice */\n      tag_39\n        /* \"contracts/PriceConverterLibrary.sol\":1341:1351  getPrice() */\n      jump\t// in\n    tag_38:\n        /* \"contracts/PriceConverterLibrary.sol\":1322:1351  uint256 ethPrice = getPrice() */\n      swap1\n      pop\n        /* \"contracts/PriceConverterLibrary.sol\":1629:1648  uint ethAmountInUsd */\n      0x00\n        /* \"contracts/PriceConverterLibrary.sol\":1672:1676  1e18 */\n      0x0de0b6b3a7640000\n        /* \"contracts/PriceConverterLibrary.sol\":1660:1669  ethAmount */\n      dup5\n        /* \"contracts/PriceConverterLibrary.sol\":1651:1659  ethPrice */\n      dup4\n        /* \"contracts/PriceConverterLibrary.sol\":1651:1669  ethPrice*ethAmount */\n      tag_40\n      swap2\n      swap1\n      tag_41\n      jump\t// in\n    tag_40:\n        /* \"contracts/PriceConverterLibrary.sol\":1651:1676  ethPrice*ethAmount / 1e18 */\n      tag_42\n      swap2\n      swap1\n      tag_43\n      jump\t// in\n    tag_42:\n        /* \"contracts/PriceConverterLibrary.sol\":1629:1676  uint ethAmountInUsd = ethPrice*ethAmount / 1e18 */\n      swap1\n      pop\n        /* \"contracts/PriceConverterLibrary.sol\":1716:1730  ethAmountInUsd */\n      dup1\n        /* \"contracts/PriceConverterLibrary.sol\":1709:1730  return ethAmountInUsd */\n      swap3\n      pop\n      pop\n      pop\n        /* \"contracts/PriceConverterLibrary.sol\":1180:1738  function getConversionRate(uint256 ethAmount) internal view returns (uint256) {... */\n      swap2\n      swap1\n      pop\n      jump\t// out\n        /* \"contracts/PriceConverterLibrary.sol\":475:1128  function getPrice() internal view returns (uint256) {... */\n    tag_39:\n        /* \"contracts/PriceConverterLibrary.sol\":518:525  uint256 */\n      0x00\n        /* \"contracts/PriceConverterLibrary.sol\":829:860  AggregatorV3Interface priceFeed */\n      dup1\n        /* \"contracts/PriceConverterLibrary.sol\":885:927  0x694AA1769357215DE4FAC081bf1f309aDC325306 */\n      0x694aa1769357215de4fac081bf1f309adc325306\n        /* \"contracts/PriceConverterLibrary.sol\":829:928  AggregatorV3Interface priceFeed = AggregatorV3Interface(0x694AA1769357215DE4FAC081bf1f309aDC325306) */\n      swap1\n      pop\n        /* \"contracts/PriceConverterLibrary.sol\":994:1007  int256 answer */\n      0x00\n        /* \"contracts/PriceConverterLibrary.sol\":1014:1023  priceFeed */\n      dup2\n        /* \"contracts/PriceConverterLibrary.sol\":1014:1039  priceFeed.latestRoundData */\n      0xffffffffffffffffffffffffffffffffffffffff\n      and\n      0xfeaf968c\n        /* \"contracts/PriceConverterLibrary.sol\":1014:1041  priceFeed.latestRoundData() */\n      mload(0x40)\n      dup2\n      0xffffffff\n      and\n      0xe0\n      shl\n      dup2\n      mstore\n      0x04\n      add\n      0xa0\n      mload(0x40)\n      dup1\n      dup4\n      sub\n      dup2\n      dup7\n      gas\n      staticcall\n      iszero\n      dup1\n      iszero\n      tag_46\n      jumpi\n      returndatasize\n      0x00\n      dup1\n      returndatacopy\n      revert(0x00, returndatasize)\n    tag_46:\n      pop\n      pop\n      pop\n      pop\n      mload(0x40)\n      returndatasize\n      not(0x1f)\n      0x1f\n      dup3\n      add\n      and\n      dup3\n      add\n      dup1\n      0x40\n      mstore\n      pop\n      dup2\n      add\n      swap1\n      tag_47\n      swap2\n      swap1\n      tag_48\n      jump\t// in\n    tag_47:\n        /* \"contracts/PriceConverterLibrary.sol\":992:1041  (,int256 answer,,,) = priceFeed.latestRoundData() */\n      pop\n      pop\n      pop\n      swap2\n      pop\n      pop\n        /* \"contracts/PriceConverterLibrary.sol\":1115:1119  1e10 */\n      0x02540be400\n        /* \"contracts/PriceConverterLibrary.sol\":1108:1114  answer */\n      dup2\n        /* \"contracts/PriceConverterLibrary.sol\":1108:1119  answer*1e10 */\n      tag_49\n      swap2\n      swap1\n      tag_50\n      jump\t// in\n    tag_49:\n        /* \"contracts/PriceConverterLibrary.sol\":1093:1120  return uint256(answer*1e10) */\n      swap3\n      pop\n      pop\n      pop\n        /* \"contracts/PriceConverterLibrary.sol\":475:1128  function getPrice() internal view returns (uint256) {... */\n      swap1\n      jump\t// out\n        /* \"#utility.yul\":88:205   */\n    tag_52:\n        /* \"#utility.yul\":197:198   */\n      0x00\n        /* \"#utility.yul\":194:195   */\n      dup1\n        /* \"#utility.yul\":187:199   */\n      revert\n        /* \"#utility.yul\":334:460   */\n    tag_54:\n        /* \"#utility.yul\":371:378   */\n      0x00\n        /* \"#utility.yul\":411:453   */\n      0xffffffffffffffffffffffffffffffffffffffff\n        /* \"#utility.yul\":404:409   */\n      dup3\n        /* \"#utility.yul\":400:454   */\n      and\n        /* \"#utility.yul\":389:454   */\n      swap1\n      pop\n        /* \"#utility.yul\":334:460   */\n      swap2\n      swap1\n      pop\n      jump\t// out\n        /* \"#utility.yul\":466:562   */\n    tag_55:\n        /* \"#utility.yul\":503:510   */\n      0x00\n        /* \"#utility.yul\":532:556   */\n      tag_81\n        /* \"#utility.yul\":550:555   */\n      dup3\n        /* \"#utility.yul\":532:556   */\n      tag_54\n      jump\t// in\n    tag_81:\n        /* \"#utility.yul\":521:556   */\n      swap1\n      pop\n        /* \"#utility.yul\":466:562   */\n      swap2\n      swap1\n      pop\n      jump\t// out\n        /* \"#utility.yul\":568:690   */\n    tag_56:\n        /* \"#utility.yul\":641:665   */\n      tag_83\n        /* \"#utility.yul\":659:664   */\n      dup2\n        /* \"#utility.yul\":641:665   */\n      tag_55\n      jump\t// in\n    tag_83:\n        /* \"#utility.yul\":634:639   */\n      dup2\n        /* \"#utility.yul\":631:666   */\n      eq\n        /* \"#utility.yul\":621:684   */\n      tag_84\n      jumpi\n        /* \"#utility.yul\":680:681   */\n      0x00\n        /* \"#utility.yul\":677:678   */\n      dup1\n        /* \"#utility.yul\":670:682   */\n      revert\n        /* \"#utility.yul\":621:684   */\n    tag_84:\n        /* \"#utility.yul\":568:690   */\n      pop\n      jump\t// out\n        /* \"#utility.yul\":696:835   */\n    tag_57:\n        /* \"#utility.yul\":742:747   */\n      0x00\n        /* \"#utility.yul\":780:786   */\n      dup2\n        /* \"#utility.yul\":767:787   */\n      calldataload\n        /* \"#utility.yul\":758:787   */\n      swap1\n      pop\n        /* \"#utility.yul\":796:829   */\n      tag_86\n        /* \"#utility.yul\":823:828   */\n      dup2\n        /* \"#utility.yul\":796:829   */\n      tag_56\n      jump\t// in\n    tag_86:\n        /* \"#utility.yul\":696:835   */\n      swap3\n      swap2\n      pop\n      pop\n      jump\t// out\n        /* \"#utility.yul\":841:1170   */\n    tag_9:\n        /* \"#utility.yul\":900:906   */\n      0x00\n        /* \"#utility.yul\":949:951   */\n      0x20\n        /* \"#utility.yul\":937:946   */\n      dup3\n        /* \"#utility.yul\":928:935   */\n      dup5\n        /* \"#utility.yul\":924:947   */\n      sub\n        /* \"#utility.yul\":920:952   */\n      slt\n        /* \"#utility.yul\":917:1036   */\n      iszero\n      tag_88\n      jumpi\n        /* \"#utility.yul\":955:1034   */\n      tag_89\n      tag_52\n      jump\t// in\n    tag_89:\n        /* \"#utility.yul\":917:1036   */\n    tag_88:\n        /* \"#utility.yul\":1075:1076   */\n      0x00\n        /* \"#utility.yul\":1100:1153   */\n      tag_90\n        /* \"#utility.yul\":1145:1152   */\n      dup5\n        /* \"#utility.yul\":1136:1142   */\n      dup3\n        /* \"#utility.yul\":1125:1134   */\n      dup6\n        /* \"#utility.yul\":1121:1143   */\n      add\n        /* \"#utility.yul\":1100:1153   */\n      tag_57\n      jump\t// in\n    tag_90:\n        /* \"#utility.yul\":1090:1153   */\n      swap2\n      pop\n        /* \"#utility.yul\":1046:1163   */\n      pop\n        /* \"#utility.yul\":841:1170   */\n      swap3\n      swap2\n      pop\n      pop\n      jump\t// out\n        /* \"#utility.yul\":1176:1253   */\n    tag_58:\n        /* \"#utility.yul\":1213:1220   */\n      0x00\n        /* \"#utility.yul\":1242:1247   */\n      dup2\n        /* \"#utility.yul\":1231:1247   */\n      swap1\n      pop\n        /* \"#utility.yul\":1176:1253   */\n      swap2\n      swap1\n      pop\n      jump\t// out\n        /* \"#utility.yul\":1259:1377   */\n    tag_59:\n        /* \"#utility.yul\":1346:1370   */\n      tag_93\n        /* \"#utility.yul\":1364:1369   */\n      dup2\n        /* \"#utility.yul\":1346:1370   */\n      tag_58\n      jump\t// in\n    tag_93:\n        /* \"#utility.yul\":1341:1344   */\n      dup3\n        /* \"#utility.yul\":1334:1371   */\n      mstore\n        /* \"#utility.yul\":1259:1377   */\n      pop\n      pop\n      jump\t// out\n        /* \"#utility.yul\":1383:1605   */\n    tag_12:\n        /* \"#utility.yul\":1476:1480   */\n      0x00\n        /* \"#utility.yul\":1514:1516   */\n      0x20\n        /* \"#utility.yul\":1503:1512   */\n      dup3\n        /* \"#utility.yul\":1499:1517   */\n      add\n        /* \"#utility.yul\":1491:1517   */\n      swap1\n      pop\n        /* \"#utility.yul\":1527:1598   */\n      tag_95\n        /* \"#utility.yul\":1595:1596   */\n      0x00\n        /* \"#utility.yul\":1584:1593   */\n      dup4\n        /* \"#utility.yul\":1580:1597   */\n      add\n        /* \"#utility.yul\":1571:1577   */\n      dup5\n        /* \"#utility.yul\":1527:1598   */\n      tag_59\n      jump\t// in\n    tag_95:\n        /* \"#utility.yul\":1383:1605   */\n      swap3\n      swap2\n      pop\n      pop\n      jump\t// out\n        /* \"#utility.yul\":1611:1733   */\n    tag_60:\n        /* \"#utility.yul\":1684:1708   */\n      tag_97\n        /* \"#utility.yul\":1702:1707   */\n      dup2\n        /* \"#utility.yul\":1684:1708   */\n      tag_58\n      jump\t// in\n    tag_97:\n        /* \"#utility.yul\":1677:1682   */\n      dup2\n        /* \"#utility.yul\":1674:1709   */\n      eq\n        /* \"#utility.yul\":1664:1727   */\n      tag_98\n      jumpi\n        /* \"#utility.yul\":1723:1724   */\n      0x00\n        /* \"#utility.yul\":1720:1721   */\n      dup1\n        /* \"#utility.yul\":1713:1725   */\n      revert\n        /* \"#utility.yul\":1664:1727   */\n    tag_98:\n        /* \"#utility.yul\":1611:1733   */\n      pop\n      jump\t// out\n        /* \"#utility.yul\":1739:1878   */\n    tag_61:\n        /* \"#utility.yul\":1785:1790   */\n      0x00\n        /* \"#utility.yul\":1823:1829   */\n      dup2\n        /* \"#utility.yul\":1810:1830   */\n      calldataload\n        /* \"#utility.yul\":1801:1830   */\n      swap1\n      pop\n        /* \"#utility.yul\":1839:1872   */\n      tag_100\n        /* \"#utility.yul\":1866:1871   */\n      dup2\n        /* \"#utility.yul\":1839:1872   */\n      tag_60\n      jump\t// in\n    tag_100:\n        /* \"#utility.yul\":1739:1878   */\n      swap3\n      swap2\n      pop\n      pop\n      jump\t// out\n        /* \"#utility.yul\":1884:2213   */\n    tag_18:\n        /* \"#utility.yul\":1943:1949   */\n      0x00\n        /* \"#utility.yul\":1992:1994   */\n      0x20\n        /* \"#utility.yul\":1980:1989   */\n      dup3\n        /* \"#utility.yul\":1971:1978   */\n      dup5\n        /* \"#utility.yul\":1967:1990   */\n      sub\n        /* \"#utility.yul\":1963:1995   */\n      slt\n        /* \"#utility.yul\":1960:2079   */\n      iszero\n      tag_102\n      jumpi\n        /* \"#utility.yul\":1998:2077   */\n      tag_103\n      tag_52\n      jump\t// in\n    tag_103:\n        /* \"#utility.yul\":1960:2079   */\n    tag_102:\n        /* \"#utility.yul\":2118:2119   */\n      0x00\n        /* \"#utility.yul\":2143:2196   */\n      tag_104\n        /* \"#utility.yul\":2188:2195   */\n      dup5\n        /* \"#utility.yul\":2179:2185   */\n      dup3\n        /* \"#utility.yul\":2168:2177   */\n      dup6\n        /* \"#utility.yul\":2164:2186   */\n      add\n        /* \"#utility.yul\":2143:2196   */\n      tag_61\n      jump\t// in\n    tag_104:\n        /* \"#utility.yul\":2133:2196   */\n      swap2\n      pop\n        /* \"#utility.yul\":2089:2206   */\n      pop\n        /* \"#utility.yul\":1884:2213   */\n      swap3\n      swap2\n      pop\n      pop\n      jump\t// out\n        /* \"#utility.yul\":2219:2337   */\n    tag_62:\n        /* \"#utility.yul\":2306:2330   */\n      tag_106\n        /* \"#utility.yul\":2324:2329   */\n      dup2\n        /* \"#utility.yul\":2306:2330   */\n      tag_55\n      jump\t// in\n    tag_106:\n        /* \"#utility.yul\":2301:2304   */\n      dup3\n        /* \"#utility.yul\":2294:2331   */\n      mstore\n        /* \"#utility.yul\":2219:2337   */\n      pop\n      pop\n      jump\t// out\n        /* \"#utility.yul\":2343:2565   */\n    tag_21:\n        /* \"#utility.yul\":2436:2440   */\n      0x00\n        /* \"#utility.yul\":2474:2476   */\n      0x20\n        /* \"#utility.yul\":2463:2472   */\n      dup3\n        /* \"#utility.yul\":2459:2477   */\n      add\n        /* \"#utility.yul\":2451:2477   */\n      swap1\n      pop\n        /* \"#utility.yul\":2487:2558   */\n      tag_108\n        /* \"#utility.yul\":2555:2556   */\n      0x00\n        /* \"#utility.yul\":2544:2553   */\n      dup4\n        /* \"#utility.yul\":2540:2557   */\n      add\n        /* \"#utility.yul\":2531:2537   */\n      dup5\n        /* \"#utility.yul\":2487:2558   */\n      tag_62\n      jump\t// in\n    tag_108:\n        /* \"#utility.yul\":2343:2565   */\n      swap3\n      swap2\n      pop\n      pop\n      jump\t// out\n        /* \"#utility.yul\":2571:2740   */\n    tag_63:\n        /* \"#utility.yul\":2655:2666   */\n      0x00\n        /* \"#utility.yul\":2689:2695   */\n      dup3\n        /* \"#utility.yul\":2684:2687   */\n      dup3\n        /* \"#utility.yul\":2677:2696   */\n      mstore\n        /* \"#utility.yul\":2729:2733   */\n      0x20\n        /* \"#utility.yul\":2724:2727   */\n      dup3\n        /* \"#utility.yul\":2720:2734   */\n      add\n        /* \"#utility.yul\":2705:2734   */\n      swap1\n      pop\n        /* \"#utility.yul\":2571:2740   */\n      swap3\n      swap2\n      pop\n      pop\n      jump\t// out\n        /* \"#utility.yul\":2746:2980   */\n    tag_64:\n        /* \"#utility.yul\":2886:2920   */\n      0x57687920736f204b616e6a7573212053656e642074686520656e746972652061\n        /* \"#utility.yul\":2882:2883   */\n      0x00\n        /* \"#utility.yul\":2874:2880   */\n      dup3\n        /* \"#utility.yul\":2870:2884   */\n      add\n        /* \"#utility.yul\":2863:2921   */\n      mstore\n        /* \"#utility.yul\":2955:2972   */\n      0x6d6f756e74207370656369666965640000000000000000000000000000000000\n        /* \"#utility.yul\":2950:2952   */\n      0x20\n        /* \"#utility.yul\":2942:2948   */\n      dup3\n        /* \"#utility.yul\":2938:2953   */\n      add\n        /* \"#utility.yul\":2931:2973   */\n      mstore\n        /* \"#utility.yul\":2746:2980   */\n      pop\n      jump\t// out\n        /* \"#utility.yul\":2986:3352   */\n    tag_65:\n        /* \"#utility.yul\":3128:3131   */\n      0x00\n        /* \"#utility.yul\":3149:3216   */\n      tag_112\n        /* \"#utility.yul\":3213:3215   */\n      0x2f\n        /* \"#utility.yul\":3208:3211   */\n      dup4\n        /* \"#utility.yul\":3149:3216   */\n      tag_63\n      jump\t// in\n    tag_112:\n        /* \"#utility.yul\":3142:3216   */\n      swap2\n      pop\n        /* \"#utility.yul\":3225:3318   */\n      tag_113\n        /* \"#utility.yul\":3314:3317   */\n      dup3\n        /* \"#utility.yul\":3225:3318   */\n      tag_64\n      jump\t// in\n    tag_113:\n        /* \"#utility.yul\":3343:3345   */\n      0x40\n        /* \"#utility.yul\":3338:3341   */\n      dup3\n        /* \"#utility.yul\":3334:3346   */\n      add\n        /* \"#utility.yul\":3327:3346   */\n      swap1\n      pop\n        /* \"#utility.yul\":2986:3352   */\n      swap2\n      swap1\n      pop\n      jump\t// out\n        /* \"#utility.yul\":3358:3777   */\n    tag_31:\n        /* \"#utility.yul\":3524:3528   */\n      0x00\n        /* \"#utility.yul\":3562:3564   */\n      0x20\n        /* \"#utility.yul\":3551:3560   */\n      dup3\n        /* \"#utility.yul\":3547:3565   */\n      add\n        /* \"#utility.yul\":3539:3565   */\n      swap1\n      pop\n        /* \"#utility.yul\":3611:3620   */\n      dup2\n        /* \"#utility.yul\":3605:3609   */\n      dup2\n        /* \"#utility.yul\":3601:3621   */\n      sub\n        /* \"#utility.yul\":3597:3598   */\n      0x00\n        /* \"#utility.yul\":3586:3595   */\n      dup4\n        /* \"#utility.yul\":3582:3599   */\n      add\n        /* \"#utility.yul\":3575:3622   */\n      mstore\n        /* \"#utility.yul\":3639:3770   */\n      tag_115\n        /* \"#utility.yul\":3765:3769   */\n      dup2\n        /* \"#utility.yul\":3639:3770   */\n      tag_65\n      jump\t// in\n    tag_115:\n        /* \"#utility.yul\":3631:3770   */\n      swap1\n      pop\n        /* \"#utility.yul\":3358:3777   */\n      swap2\n      swap1\n      pop\n      jump\t// out\n        /* \"#utility.yul\":3783:3963   */\n    tag_66:\n        /* \"#utility.yul\":3831:3908   */\n      0x4e487b7100000000000000000000000000000000000000000000000000000000\n        /* \"#utility.yul\":3828:3829   */\n      0x00\n        /* \"#utility.yul\":3821:3909   */\n      mstore\n        /* \"#utility.yul\":3928:3932   */\n      0x11\n        /* \"#utility.yul\":3925:3926   */\n      0x04\n        /* \"#utility.yul\":3918:3933   */\n      mstore\n        /* \"#utility.yul\":3952:3956   */\n      0x24\n        /* \"#utility.yul\":3949:3950   */\n      0x00\n        /* \"#utility.yul\":3942:3957   */\n      revert\n        /* \"#utility.yul\":3969:4160   */\n    tag_34:\n        /* \"#utility.yul\":4009:4012   */\n      0x00\n        /* \"#utility.yul\":4028:4048   */\n      tag_118\n        /* \"#utility.yul\":4046:4047   */\n      dup3\n        /* \"#utility.yul\":4028:4048   */\n      tag_58\n      jump\t// in\n    tag_118:\n        /* \"#utility.yul\":4023:4048   */\n      swap2\n      pop\n        /* \"#utility.yul\":4062:4082   */\n      tag_119\n        /* \"#utility.yul\":4080:4081   */\n      dup4\n        /* \"#utility.yul\":4062:4082   */\n      tag_58\n      jump\t// in\n    tag_119:\n        /* \"#utility.yul\":4057:4082   */\n      swap3\n      pop\n        /* \"#utility.yul\":4105:4106   */\n      dup3\n        /* \"#utility.yul\":4102:4103   */\n      dup3\n        /* \"#utility.yul\":4098:4107   */\n      add\n        /* \"#utility.yul\":4091:4107   */\n      swap1\n      pop\n        /* \"#utility.yul\":4126:4129   */\n      dup1\n        /* \"#utility.yul\":4123:4124   */\n      dup3\n        /* \"#utility.yul\":4120:4130   */\n      gt\n        /* \"#utility.yul\":4117:4153   */\n      iszero\n      tag_120\n      jumpi\n        /* \"#utility.yul\":4133:4151   */\n      tag_121\n      tag_66\n      jump\t// in\n    tag_121:\n        /* \"#utility.yul\":4117:4153   */\n    tag_120:\n        /* \"#utility.yul\":3969:4160   */\n      swap3\n      swap2\n      pop\n      pop\n      jump\t// out\n        /* \"#utility.yul\":4166:4576   */\n    tag_41:\n        /* \"#utility.yul\":4206:4213   */\n      0x00\n        /* \"#utility.yul\":4229:4249   */\n      tag_123\n        /* \"#utility.yul\":4247:4248   */\n      dup3\n        /* \"#utility.yul\":4229:4249   */\n      tag_58\n      jump\t// in\n    tag_123:\n        /* \"#utility.yul\":4224:4249   */\n      swap2\n      pop\n        /* \"#utility.yul\":4263:4283   */\n      tag_124\n        /* \"#utility.yul\":4281:4282   */\n      dup4\n        /* \"#utility.yul\":4263:4283   */\n      tag_58\n      jump\t// in\n    tag_124:\n        /* \"#utility.yul\":4258:4283   */\n      swap3\n      pop\n        /* \"#utility.yul\":4318:4319   */\n      dup3\n        /* \"#utility.yul\":4315:4316   */\n      dup3\n        /* \"#utility.yul\":4311:4320   */\n      mul\n        /* \"#utility.yul\":4340:4370   */\n      tag_125\n        /* \"#utility.yul\":4358:4369   */\n      dup2\n        /* \"#utility.yul\":4340:4370   */\n      tag_58\n      jump\t// in\n    tag_125:\n        /* \"#utility.yul\":4329:4370   */\n      swap2\n      pop\n        /* \"#utility.yul\":4519:4520   */\n      dup3\n        /* \"#utility.yul\":4510:4517   */\n      dup3\n        /* \"#utility.yul\":4506:4521   */\n      div\n        /* \"#utility.yul\":4503:4504   */\n      dup5\n        /* \"#utility.yul\":4500:4522   */\n      eq\n        /* \"#utility.yul\":4480:4481   */\n      dup4\n        /* \"#utility.yul\":4473:4482   */\n      iszero\n        /* \"#utility.yul\":4453:4536   */\n      or\n        /* \"#utility.yul\":4430:4569   */\n      tag_126\n      jumpi\n        /* \"#utility.yul\":4549:4567   */\n      tag_127\n      tag_66\n      jump\t// in\n    tag_127:\n        /* \"#utility.yul\":4430:4569   */\n    tag_126:\n        /* \"#utility.yul\":4214:4576   */\n      pop\n        /* \"#utility.yul\":4166:4576   */\n      swap3\n      swap2\n      pop\n      pop\n      jump\t// out\n        /* \"#utility.yul\":4582:4762   */\n    tag_67:\n        /* \"#utility.yul\":4630:4707   */\n      0x4e487b7100000000000000000000000000000000000000000000000000000000\n        /* \"#utility.yul\":4627:4628   */\n      0x00\n        /* \"#utility.yul\":4620:4708   */\n      mstore\n        /* \"#utility.yul\":4727:4731   */\n      0x12\n        /* \"#utility.yul\":4724:4725   */\n      0x04\n        /* \"#utility.yul\":4717:4732   */\n      mstore\n        /* \"#utility.yul\":4751:4755   */\n      0x24\n        /* \"#utility.yul\":4748:4749   */\n      0x00\n        /* \"#utility.yul\":4741:4756   */\n      revert\n        /* \"#utility.yul\":4768:4953   */\n    tag_43:\n        /* \"#utility.yul\":4808:4809   */\n      0x00\n        /* \"#utility.yul\":4825:4845   */\n      tag_130\n        /* \"#utility.yul\":4843:4844   */\n      dup3\n        /* \"#utility.yul\":4825:4845   */\n      tag_58\n      jump\t// in\n    tag_130:\n        /* \"#utility.yul\":4820:4845   */\n      swap2\n      pop\n        /* \"#utility.yul\":4859:4879   */\n      tag_131\n        /* \"#utility.yul\":4877:4878   */\n      dup4\n        /* \"#utility.yul\":4859:4879   */\n      tag_58\n      jump\t// in\n    tag_131:\n        /* \"#utility.yul\":4854:4879   */\n      swap3\n      pop\n        /* \"#utility.yul\":4898:4899   */\n      dup3\n        /* \"#utility.yul\":4888:4923   */\n      tag_132\n      jumpi\n        /* \"#utility.yul\":4903:4921   */\n      tag_133\n      tag_67\n      jump\t// in\n    tag_133:\n        /* \"#utility.yul\":4888:4923   */\n    tag_132:\n        /* \"#utility.yul\":4945:4946   */\n      dup3\n        /* \"#utility.yul\":4942:4943   */\n      dup3\n        /* \"#utility.yul\":4938:4947   */\n      div\n        /* \"#utility.yul\":4933:4947   */\n      swap1\n      pop\n        /* \"#utility.yul\":4768:4953   */\n      swap3\n      swap2\n      pop\n      pop\n      jump\t// out\n        /* \"#utility.yul\":4959:5064   */\n    tag_68:\n        /* \"#utility.yul\":4995:5002   */\n      0x00\n        /* \"#utility.yul\":5035:5057   */\n      0xffffffffffffffffffff\n        /* \"#utility.yul\":5028:5033   */\n      dup3\n        /* \"#utility.yul\":5024:5058   */\n      and\n        /* \"#utility.yul\":5013:5058   */\n      swap1\n      pop\n        /* \"#utility.yul\":4959:5064   */\n      swap2\n      swap1\n      pop\n      jump\t// out\n        /* \"#utility.yul\":5070:5190   */\n    tag_69:\n        /* \"#utility.yul\":5142:5165   */\n      tag_136\n        /* \"#utility.yul\":5159:5164   */\n      dup2\n        /* \"#utility.yul\":5142:5165   */\n      tag_68\n      jump\t// in\n    tag_136:\n        /* \"#utility.yul\":5135:5140   */\n      dup2\n        /* \"#utility.yul\":5132:5166   */\n      eq\n        /* \"#utility.yul\":5122:5184   */\n      tag_137\n      jumpi\n        /* \"#utility.yul\":5180:5181   */\n      0x00\n        /* \"#utility.yul\":5177:5178   */\n      dup1\n        /* \"#utility.yul\":5170:5182   */\n      revert\n        /* \"#utility.yul\":5122:5184   */\n    tag_137:\n        /* \"#utility.yul\":5070:5190   */\n      pop\n      jump\t// out\n        /* \"#utility.yul\":5196:5337   */\n    tag_70:\n        /* \"#utility.yul\":5252:5257   */\n      0x00\n        /* \"#utility.yul\":5283:5289   */\n      dup2\n        /* \"#utility.yul\":5277:5290   */\n      mload\n        /* \"#utility.yul\":5268:5290   */\n      swap1\n      pop\n        /* \"#utility.yul\":5299:5331   */\n      tag_139\n        /* \"#utility.yul\":5325:5330   */\n      dup2\n        /* \"#utility.yul\":5299:5331   */\n      tag_69\n      jump\t// in\n    tag_139:\n        /* \"#utility.yul\":5196:5337   */\n      swap3\n      swap2\n      pop\n      pop\n      jump\t// out\n        /* \"#utility.yul\":5343:5419   */\n    tag_71:\n        /* \"#utility.yul\":5379:5386   */\n      0x00\n        /* \"#utility.yul\":5408:5413   */\n      dup2\n        /* \"#utility.yul\":5397:5413   */\n      swap1\n      pop\n        /* \"#utility.yul\":5343:5419   */\n      swap2\n      swap1\n      pop\n      jump\t// out\n        /* \"#utility.yul\":5425:5545   */\n    tag_72:\n        /* \"#utility.yul\":5497:5520   */\n      tag_142\n        /* \"#utility.yul\":5514:5519   */\n      dup2\n        /* \"#utility.yul\":5497:5520   */\n      tag_71\n      jump\t// in\n    tag_142:\n        /* \"#utility.yul\":5490:5495   */\n      dup2\n        /* \"#utility.yul\":5487:5521   */\n      eq\n        /* \"#utility.yul\":5477:5539   */\n      tag_143\n      jumpi\n        /* \"#utility.yul\":5535:5536   */\n      0x00\n        /* \"#utility.yul\":5532:5533   */\n      dup1\n        /* \"#utility.yul\":5525:5537   */\n      revert\n        /* \"#utility.yul\":5477:5539   */\n    tag_143:\n        /* \"#utility.yul\":5425:5545   */\n      pop\n      jump\t// out\n        /* \"#utility.yul\":5551:5692   */\n    tag_73:\n        /* \"#utility.yul\":5607:5612   */\n      0x00\n        /* \"#utility.yul\":5638:5644   */\n      dup2\n        /* \"#utility.yul\":5632:5645   */\n      mload\n        /* \"#utility.yul\":5623:5645   */\n      swap1\n      pop\n        /* \"#utility.yul\":5654:5686   */\n      tag_145\n        /* \"#utility.yul\":5680:5685   */\n      dup2\n        /* \"#utility.yul\":5654:5686   */\n      tag_72\n      jump\t// in\n    tag_145:\n        /* \"#utility.yul\":5551:5692   */\n      swap3\n      swap2\n      pop\n      pop\n      jump\t// out\n        /* \"#utility.yul\":5698:5841   */\n    tag_74:\n        /* \"#utility.yul\":5755:5760   */\n      0x00\n        /* \"#utility.yul\":5786:5792   */\n      dup2\n        /* \"#utility.yul\":5780:5793   */\n      mload\n        /* \"#utility.yul\":5771:5793   */\n      swap1\n      pop\n        /* \"#utility.yul\":5802:5835   */\n      tag_147\n        /* \"#utility.yul\":5829:5834   */\n      dup2\n        /* \"#utility.yul\":5802:5835   */\n      tag_60\n      jump\t// in\n    tag_147:\n        /* \"#utility.yul\":5698:5841   */\n      swap3\n      swap2\n      pop\n      pop\n      jump\t// out\n        /* \"#utility.yul\":5847:6818   */\n    tag_48:\n        /* \"#utility.yul\":5950:5956   */\n      0x00\n        /* \"#utility.yul\":5958:5964   */\n      dup1\n        /* \"#utility.yul\":5966:5972   */\n      0x00\n        /* \"#utility.yul\":5974:5980   */\n      dup1\n        /* \"#utility.yul\":5982:5988   */\n      0x00\n        /* \"#utility.yul\":6031:6034   */\n      0xa0\n        /* \"#utility.yul\":6019:6028   */\n      dup7\n        /* \"#utility.yul\":6010:6017   */\n      dup9\n        /* \"#utility.yul\":6006:6029   */\n      sub\n        /* \"#utility.yul\":6002:6035   */\n      slt\n        /* \"#utility.yul\":5999:6119   */\n      iszero\n      tag_149\n      jumpi\n        /* \"#utility.yul\":6038:6117   */\n      tag_150\n      tag_52\n      jump\t// in\n    tag_150:\n        /* \"#utility.yul\":5999:6119   */\n    tag_149:\n        /* \"#utility.yul\":6158:6159   */\n      0x00\n        /* \"#utility.yul\":6183:6246   */\n      tag_151\n        /* \"#utility.yul\":6238:6245   */\n      dup9\n        /* \"#utility.yul\":6229:6235   */\n      dup3\n        /* \"#utility.yul\":6218:6227   */\n      dup10\n        /* \"#utility.yul\":6214:6236   */\n      add\n        /* \"#utility.yul\":6183:6246   */\n      tag_70\n      jump\t// in\n    tag_151:\n        /* \"#utility.yul\":6173:6246   */\n      swap6\n      pop\n        /* \"#utility.yul\":6129:6256   */\n      pop\n        /* \"#utility.yul\":6295:6297   */\n      0x20\n        /* \"#utility.yul\":6321:6384   */\n      tag_152\n        /* \"#utility.yul\":6376:6383   */\n      dup9\n        /* \"#utility.yul\":6367:6373   */\n      dup3\n        /* \"#utility.yul\":6356:6365   */\n      dup10\n        /* \"#utility.yul\":6352:6374   */\n      add\n        /* \"#utility.yul\":6321:6384   */\n      tag_73\n      jump\t// in\n    tag_152:\n        /* \"#utility.yul\":6311:6384   */\n      swap5\n      pop\n        /* \"#utility.yul\":6266:6394   */\n      pop\n        /* \"#utility.yul\":6433:6435   */\n      0x40\n        /* \"#utility.yul\":6459:6523   */\n      tag_153\n        /* \"#utility.yul\":6515:6522   */\n      dup9\n        /* \"#utility.yul\":6506:6512   */\n      dup3\n        /* \"#utility.yul\":6495:6504   */\n      dup10\n        /* \"#utility.yul\":6491:6513   */\n      add\n        /* \"#utility.yul\":6459:6523   */\n      tag_74\n      jump\t// in\n    tag_153:\n        /* \"#utility.yul\":6449:6523   */\n      swap4\n      pop\n        /* \"#utility.yul\":6404:6533   */\n      pop\n        /* \"#utility.yul\":6572:6574   */\n      0x60\n        /* \"#utility.yul\":6598:6662   */\n      tag_154\n        /* \"#utility.yul\":6654:6661   */\n      dup9\n        /* \"#utility.yul\":6645:6651   */\n      dup3\n        /* \"#utility.yul\":6634:6643   */\n      dup10\n        /* \"#utility.yul\":6630:6652   */\n      add\n        /* \"#utility.yul\":6598:6662   */\n      tag_74\n      jump\t// in\n    tag_154:\n        /* \"#utility.yul\":6588:6662   */\n      swap3\n      pop\n        /* \"#utility.yul\":6543:6672   */\n      pop\n        /* \"#utility.yul\":6711:6714   */\n      0x80\n        /* \"#utility.yul\":6738:6801   */\n      tag_155\n        /* \"#utility.yul\":6793:6800   */\n      dup9\n        /* \"#utility.yul\":6784:6790   */\n      dup3\n        /* \"#utility.yul\":6773:6782   */\n      dup10\n        /* \"#utility.yul\":6769:6791   */\n      add\n        /* \"#utility.yul\":6738:6801   */\n      tag_70\n      jump\t// in\n    tag_155:\n        /* \"#utility.yul\":6728:6801   */\n      swap2\n      pop\n        /* \"#utility.yul\":6682:6811   */\n      pop\n        /* \"#utility.yul\":5847:6818   */\n      swap3\n      swap6\n      pop\n      swap3\n      swap6\n      swap1\n      swap4\n      pop\n      jump\t// out\n        /* \"#utility.yul\":6824:7380   */\n    tag_50:\n        /* \"#utility.yul\":6863:6870   */\n      0x00\n        /* \"#utility.yul\":6886:6905   */\n      tag_157\n        /* \"#utility.yul\":6903:6904   */\n      dup3\n        /* \"#utility.yul\":6886:6905   */\n      tag_71\n      jump\t// in\n    tag_157:\n        /* \"#utility.yul\":6881:6905   */\n      swap2\n      pop\n        /* \"#utility.yul\":6919:6938   */\n      tag_158\n        /* \"#utility.yul\":6936:6937   */\n      dup4\n        /* \"#utility.yul\":6919:6938   */\n      tag_71\n      jump\t// in\n    tag_158:\n        /* \"#utility.yul\":6914:6938   */\n      swap3\n      pop\n        /* \"#utility.yul\":6973:6974   */\n      dup3\n        /* \"#utility.yul\":6970:6971   */\n      dup3\n        /* \"#utility.yul\":6966:6975   */\n      mul\n        /* \"#utility.yul\":6995:7024   */\n      tag_159\n        /* \"#utility.yul\":7012:7023   */\n      dup2\n        /* \"#utility.yul\":6995:7024   */\n      tag_71\n      jump\t// in\n    tag_159:\n        /* \"#utility.yul\":6984:7024   */\n      swap2\n      pop\n        /* \"#utility.yul\":7082:7148   */\n      0x8000000000000000000000000000000000000000000000000000000000000000\n        /* \"#utility.yul\":7079:7080   */\n      dup5\n        /* \"#utility.yul\":7076:7149   */\n      eq\n        /* \"#utility.yul\":7072:7073   */\n      0x00\n        /* \"#utility.yul\":7069:7070   */\n      dup5\n        /* \"#utility.yul\":7065:7074   */\n      slt\n        /* \"#utility.yul\":7061:7150   */\n      and\n        /* \"#utility.yul\":7058:7173   */\n      iszero\n      tag_160\n      jumpi\n        /* \"#utility.yul\":7153:7171   */\n      tag_161\n      tag_66\n      jump\t// in\n    tag_161:\n        /* \"#utility.yul\":7058:7173   */\n    tag_160:\n        /* \"#utility.yul\":7323:7324   */\n      dup3\n        /* \"#utility.yul\":7314:7321   */\n      dup3\n        /* \"#utility.yul\":7309:7325   */\n      sdiv\n        /* \"#utility.yul\":7306:7307   */\n      dup5\n        /* \"#utility.yul\":7303:7326   */\n      eq\n        /* \"#utility.yul\":7283:7284   */\n      dup4\n        /* \"#utility.yul\":7276:7285   */\n      iszero\n        /* \"#utility.yul\":7256:7340   */\n      or\n        /* \"#utility.yul\":7233:7373   */\n      tag_162\n      jumpi\n        /* \"#utility.yul\":7353:7371   */\n      tag_163\n      tag_66\n      jump\t// in\n    tag_163:\n        /* \"#utility.yul\":7233:7373   */\n    tag_162:\n        /* \"#utility.yul\":6871:7380   */\n      pop\n        /* \"#utility.yul\":6824:7380   */\n      swap3\n      swap2\n      pop\n      pop\n      jump\t// out\n\n    auxdata: 0xa2646970667358221220f0c83b9cae97bee60e13bceecdda7aa8b9dda387fa89d4879693519a8d37477464736f6c634300081a0033\n}\n",
				"bytecode": {
					"linkReferences": {},
					"object": "6080604052676124fee993bc00005f553480156019575f80fd5b506107d3806100275f395ff3fe60806040526004361061003e575f3560e01c80633e47d6f314610042578063b60d42881461007e578063dc0d3dff14610088578063dc992aa0146100c4575b5f80fd5b34801561004d575f80fd5b50610068600480360381019061006391906103b5565b6100ee565b60405161007591906103f8565b60405180910390f35b610086610103565b005b348015610093575f80fd5b506100ae60048036038101906100a9919061043b565b61023a565b6040516100bb9190610475565b60405180910390f35b3480156100cf575f80fd5b506100d8610275565b6040516100e591906103f8565b60405180910390f35b6002602052805f5260405f205f915090505481565b5f5461010e3461027a565b1161014e576040517f08c379a00000000000000000000000000000000000000000000000000000000081526004016101459061050e565b60405180910390fd5b600133908060018154018082558091505060019003905f5260205f20015f9091909190916101000a81548173ffffffffffffffffffffffffffffffffffffffff021916908373ffffffffffffffffffffffffffffffffffffffff1602179055503460025f3373ffffffffffffffffffffffffffffffffffffffff1673ffffffffffffffffffffffffffffffffffffffff1681526020019081526020015f20546101f79190610559565b60025f3373ffffffffffffffffffffffffffffffffffffffff1673ffffffffffffffffffffffffffffffffffffffff1681526020019081526020015f2081905550565b60018181548110610249575f80fd5b905f5260205f20015f915054906101000a900473ffffffffffffffffffffffffffffffffffffffff1681565b5f5481565b5f806102846102b2565b90505f670de0b6b3a7640000848361029c919061058c565b6102a691906105fa565b90508092505050919050565b5f8073694aa1769357215de4fac081bf1f309adc32530690505f8173ffffffffffffffffffffffffffffffffffffffff1663feaf968c6040518163ffffffff1660e01b815260040160a060405180830381865afa158015610315573d5f803e3d5ffd5b505050506040513d601f19601f8201168201806040525081019061033991906106b0565b5050509150506402540be400816103509190610727565b9250505090565b5f80fd5b5f73ffffffffffffffffffffffffffffffffffffffff82169050919050565b5f6103848261035b565b9050919050565b6103948161037a565b811461039e575f80fd5b50565b5f813590506103af8161038b565b92915050565b5f602082840312156103ca576103c9610357565b5b5f6103d7848285016103a1565b91505092915050565b5f819050919050565b6103f2816103e0565b82525050565b5f60208201905061040b5f8301846103e9565b92915050565b61041a816103e0565b8114610424575f80fd5b50565b5f8135905061043581610411565b92915050565b5f602082840312156104505761044f610357565b5b5f61045d84828501610427565b91505092915050565b61046f8161037a565b82525050565b5f6020820190506104885f830184610466565b92915050565b5f82825260208201905092915050565b7f57687920736f204b616e6a7573212053656e642074686520656e7469726520615f8201527f6d6f756e74207370656369666965640000000000000000000000000000000000602082015250565b5f6104f8602f8361048e565b91506105038261049e565b604082019050919050565b5f6020820190508181035f830152610525816104ec565b9050919050565b7f4e487b71000000000000000000000000000000000000000000000000000000005f52601160045260245ffd5b5f610563826103e0565b915061056e836103e0565b92508282019050808211156105865761058561052c565b5b92915050565b5f610596826103e0565b91506105a1836103e0565b92508282026105af816103e0565b915082820484148315176105c6576105c561052c565b5b5092915050565b7f4e487b71000000000000000000000000000000000000000000000000000000005f52601260045260245ffd5b5f610604826103e0565b915061060f836103e0565b92508261061f5761061e6105cd565b5b828204905092915050565b5f69ffffffffffffffffffff82169050919050565b6106488161062a565b8114610652575f80fd5b50565b5f815190506106638161063f565b92915050565b5f819050919050565b61067b81610669565b8114610685575f80fd5b50565b5f8151905061069681610672565b92915050565b5f815190506106aa81610411565b92915050565b5f805f805f60a086880312156106c9576106c8610357565b5b5f6106d688828901610655565b95505060206106e788828901610688565b94505060406106f88882890161069c565b93505060606107098882890161069c565b925050608061071a88828901610655565b9150509295509295909350565b5f61073182610669565b915061073c83610669565b925082820261074a81610669565b91507f800000000000000000000000000000000000000000000000000000000000000084145f841216156107815761078061052c565b5b82820584148315176107965761079561052c565b5b509291505056fea2646970667358221220f0c83b9cae97bee60e13bceecdda7aa8b9dda387fa89d4879693519a8d37477464736f6c634300081a0033",
					"opcodes": "PUSH1 0x80 PUSH1 0x40 MSTORE PUSH8 0x6124FEE993BC0000 PUSH0 SSTORE CALLVALUE DUP1 ISZERO PUSH1 0x19 JUMPI PUSH0 DUP1 REVERT JUMPDEST POP PUSH2 0x7D3 DUP1 PUSH2 0x27 PUSH0 CODECOPY PUSH0 RETURN INVALID PUSH1 0x80 PUSH1 0x40 MSTORE PUSH1 0x4 CALLDATASIZE LT PUSH2 0x3E JUMPI PUSH0 CALLDATALOAD PUSH1 0xE0 SHR DUP1 PUSH4 0x3E47D6F3 EQ PUSH2 0x42 JUMPI DUP1 PUSH4 0xB60D4288 EQ PUSH2 0x7E JUMPI DUP1 PUSH4 0xDC0D3DFF EQ PUSH2 0x88 JUMPI DUP1 PUSH4 0xDC992AA0 EQ PUSH2 0xC4 JUMPI JUMPDEST PUSH0 DUP1 REVERT JUMPDEST CALLVALUE DUP1 ISZERO PUSH2 0x4D JUMPI PUSH0 DUP1 REVERT JUMPDEST POP PUSH2 0x68 PUSH1 0x4 DUP1 CALLDATASIZE SUB DUP2 ADD SWAP1 PUSH2 0x63 SWAP2 SWAP1 PUSH2 0x3B5 JUMP JUMPDEST PUSH2 0xEE JUMP JUMPDEST PUSH1 0x40 MLOAD PUSH2 0x75 SWAP2 SWAP1 PUSH2 0x3F8 JUMP JUMPDEST PUSH1 0x40 MLOAD DUP1 SWAP2 SUB SWAP1 RETURN JUMPDEST PUSH2 0x86 PUSH2 0x103 JUMP JUMPDEST STOP JUMPDEST CALLVALUE DUP1 ISZERO PUSH2 0x93 JUMPI PUSH0 DUP1 REVERT JUMPDEST POP PUSH2 0xAE PUSH1 0x4 DUP1 CALLDATASIZE SUB DUP2 ADD SWAP1 PUSH2 0xA9 SWAP2 SWAP1 PUSH2 0x43B JUMP JUMPDEST PUSH2 0x23A JUMP JUMPDEST PUSH1 0x40 MLOAD PUSH2 0xBB SWAP2 SWAP1 PUSH2 0x475 JUMP JUMPDEST PUSH1 0x40 MLOAD DUP1 SWAP2 SUB SWAP1 RETURN JUMPDEST CALLVALUE DUP1 ISZERO PUSH2 0xCF JUMPI PUSH0 DUP1 REVERT JUMPDEST POP PUSH2 0xD8 PUSH2 0x275 JUMP JUMPDEST PUSH1 0x40 MLOAD PUSH2 0xE5 SWAP2 SWAP1 PUSH2 0x3F8 JUMP JUMPDEST PUSH1 0x40 MLOAD DUP1 SWAP2 SUB SWAP1 RETURN JUMPDEST PUSH1 0x2 PUSH1 0x20 MSTORE DUP1 PUSH0 MSTORE PUSH1 0x40 PUSH0 KECCAK256 PUSH0 SWAP2 POP SWAP1 POP SLOAD DUP2 JUMP JUMPDEST PUSH0 SLOAD PUSH2 0x10E CALLVALUE PUSH2 0x27A JUMP JUMPDEST GT PUSH2 0x14E JUMPI PUSH1 0x40 MLOAD PUSH32 0x8C379A000000000000000000000000000000000000000000000000000000000 DUP2 MSTORE PUSH1 0x4 ADD PUSH2 0x145 SWAP1 PUSH2 0x50E JUMP JUMPDEST PUSH1 0x40 MLOAD DUP1 SWAP2 SUB SWAP1 REVERT JUMPDEST PUSH1 0x1 CALLER SWAP1 DUP1 PUSH1 0x1 DUP2 SLOAD ADD DUP1 DUP3 SSTORE DUP1 SWAP2 POP POP PUSH1 0x1 SWAP1 SUB SWAP1 PUSH0 MSTORE PUSH1 0x20 PUSH0 KECCAK256 ADD PUSH0 SWAP1 SWAP2 SWAP1 SWAP2 SWAP1 SWAP2 PUSH2 0x100 EXP DUP2 SLOAD DUP2 PUSH20 0xFFFFFFFFFFFFFFFFFFFFFFFFFFFFFFFFFFFFFFFF MUL NOT AND SWAP1 DUP4 PUSH20 0xFFFFFFFFFFFFFFFFFFFFFFFFFFFFFFFFFFFFFFFF AND MUL OR SWAP1 SSTORE POP CALLVALUE PUSH1 0x2 PUSH0 CALLER PUSH20 0xFFFFFFFFFFFFFFFFFFFFFFFFFFFFFFFFFFFFFFFF AND PUSH20 0xFFFFFFFFFFFFFFFFFFFFFFFFFFFFFFFFFFFFFFFF AND DUP2 MSTORE PUSH1 0x20 ADD SWAP1 DUP2 MSTORE PUSH1 0x20 ADD PUSH0 KECCAK256 SLOAD PUSH2 0x1F7 SWAP2 SWAP1 PUSH2 0x559 JUMP JUMPDEST PUSH1 0x2 PUSH0 CALLER PUSH20 0xFFFFFFFFFFFFFFFFFFFFFFFFFFFFFFFFFFFFFFFF AND PUSH20 0xFFFFFFFFFFFFFFFFFFFFFFFFFFFFFFFFFFFFFFFF AND DUP2 MSTORE PUSH1 0x20 ADD SWAP1 DUP2 MSTORE PUSH1 0x20 ADD PUSH0 KECCAK256 DUP2 SWAP1 SSTORE POP JUMP JUMPDEST PUSH1 0x1 DUP2 DUP2 SLOAD DUP2 LT PUSH2 0x249 JUMPI PUSH0 DUP1 REVERT JUMPDEST SWAP1 PUSH0 MSTORE PUSH1 0x20 PUSH0 KECCAK256 ADD PUSH0 SWAP2 POP SLOAD SWAP1 PUSH2 0x100 EXP SWAP1 DIV PUSH20 0xFFFFFFFFFFFFFFFFFFFFFFFFFFFFFFFFFFFFFFFF AND DUP2 JUMP JUMPDEST PUSH0 SLOAD DUP2 JUMP JUMPDEST PUSH0 DUP1 PUSH2 0x284 PUSH2 0x2B2 JUMP JUMPDEST SWAP1 POP PUSH0 PUSH8 0xDE0B6B3A7640000 DUP5 DUP4 PUSH2 0x29C SWAP2 SWAP1 PUSH2 0x58C JUMP JUMPDEST PUSH2 0x2A6 SWAP2 SWAP1 PUSH2 0x5FA JUMP JUMPDEST SWAP1 POP DUP1 SWAP3 POP POP POP SWAP2 SWAP1 POP JUMP JUMPDEST PUSH0 DUP1 PUSH20 0x694AA1769357215DE4FAC081BF1F309ADC325306 SWAP1 POP PUSH0 DUP2 PUSH20 0xFFFFFFFFFFFFFFFFFFFFFFFFFFFFFFFFFFFFFFFF AND PUSH4 0xFEAF968C PUSH1 0x40 MLOAD DUP2 PUSH4 0xFFFFFFFF AND PUSH1 0xE0 SHL DUP2 MSTORE PUSH1 0x4 ADD PUSH1 0xA0 PUSH1 0x40 MLOAD DUP1 DUP4 SUB DUP2 DUP7 GAS STATICCALL ISZERO DUP1 ISZERO PUSH2 0x315 JUMPI RETURNDATASIZE PUSH0 DUP1 RETURNDATACOPY RETURNDATASIZE PUSH0 REVERT JUMPDEST POP POP POP POP PUSH1 0x40 MLOAD RETURNDATASIZE PUSH1 0x1F NOT PUSH1 0x1F DUP3 ADD AND DUP3 ADD DUP1 PUSH1 0x40 MSTORE POP DUP2 ADD SWAP1 PUSH2 0x339 SWAP2 SWAP1 PUSH2 0x6B0 JUMP JUMPDEST POP POP POP SWAP2 POP POP PUSH5 0x2540BE400 DUP2 PUSH2 0x350 SWAP2 SWAP1 PUSH2 0x727 JUMP JUMPDEST SWAP3 POP POP POP SWAP1 JUMP JUMPDEST PUSH0 DUP1 REVERT JUMPDEST PUSH0 PUSH20 0xFFFFFFFFFFFFFFFFFFFFFFFFFFFFFFFFFFFFFFFF DUP3 AND SWAP1 POP SWAP2 SWAP1 POP JUMP JUMPDEST PUSH0 PUSH2 0x384 DUP3 PUSH2 0x35B JUMP JUMPDEST SWAP1 POP SWAP2 SWAP1 POP JUMP JUMPDEST PUSH2 0x394 DUP2 PUSH2 0x37A JUMP JUMPDEST DUP2 EQ PUSH2 0x39E JUMPI PUSH0 DUP1 REVERT JUMPDEST POP JUMP JUMPDEST PUSH0 DUP2 CALLDATALOAD SWAP1 POP PUSH2 0x3AF DUP2 PUSH2 0x38B JUMP JUMPDEST SWAP3 SWAP2 POP POP JUMP JUMPDEST PUSH0 PUSH1 0x20 DUP3 DUP5 SUB SLT ISZERO PUSH2 0x3CA JUMPI PUSH2 0x3C9 PUSH2 0x357 JUMP JUMPDEST JUMPDEST PUSH0 PUSH2 0x3D7 DUP5 DUP3 DUP6 ADD PUSH2 0x3A1 JUMP JUMPDEST SWAP2 POP POP SWAP3 SWAP2 POP POP JUMP JUMPDEST PUSH0 DUP2 SWAP1 POP SWAP2 SWAP1 POP JUMP JUMPDEST PUSH2 0x3F2 DUP2 PUSH2 0x3E0 JUMP JUMPDEST DUP3 MSTORE POP POP JUMP JUMPDEST PUSH0 PUSH1 0x20 DUP3 ADD SWAP1 POP PUSH2 0x40B PUSH0 DUP4 ADD DUP5 PUSH2 0x3E9 JUMP JUMPDEST SWAP3 SWAP2 POP POP JUMP JUMPDEST PUSH2 0x41A DUP2 PUSH2 0x3E0 JUMP JUMPDEST DUP2 EQ PUSH2 0x424 JUMPI PUSH0 DUP1 REVERT JUMPDEST POP JUMP JUMPDEST PUSH0 DUP2 CALLDATALOAD SWAP1 POP PUSH2 0x435 DUP2 PUSH2 0x411 JUMP JUMPDEST SWAP3 SWAP2 POP POP JUMP JUMPDEST PUSH0 PUSH1 0x20 DUP3 DUP5 SUB SLT ISZERO PUSH2 0x450 JUMPI PUSH2 0x44F PUSH2 0x357 JUMP JUMPDEST JUMPDEST PUSH0 PUSH2 0x45D DUP5 DUP3 DUP6 ADD PUSH2 0x427 JUMP JUMPDEST SWAP2 POP POP SWAP3 SWAP2 POP POP JUMP JUMPDEST PUSH2 0x46F DUP2 PUSH2 0x37A JUMP JUMPDEST DUP3 MSTORE POP POP JUMP JUMPDEST PUSH0 PUSH1 0x20 DUP3 ADD SWAP1 POP PUSH2 0x488 PUSH0 DUP4 ADD DUP5 PUSH2 0x466 JUMP JUMPDEST SWAP3 SWAP2 POP POP JUMP JUMPDEST PUSH0 DUP3 DUP3 MSTORE PUSH1 0x20 DUP3 ADD SWAP1 POP SWAP3 SWAP2 POP POP JUMP JUMPDEST PUSH32 0x57687920736F204B616E6A7573212053656E642074686520656E746972652061 PUSH0 DUP3 ADD MSTORE PUSH32 0x6D6F756E74207370656369666965640000000000000000000000000000000000 PUSH1 0x20 DUP3 ADD MSTORE POP JUMP JUMPDEST PUSH0 PUSH2 0x4F8 PUSH1 0x2F DUP4 PUSH2 0x48E JUMP JUMPDEST SWAP2 POP PUSH2 0x503 DUP3 PUSH2 0x49E JUMP JUMPDEST PUSH1 0x40 DUP3 ADD SWAP1 POP SWAP2 SWAP1 POP JUMP JUMPDEST PUSH0 PUSH1 0x20 DUP3 ADD SWAP1 POP DUP2 DUP2 SUB PUSH0 DUP4 ADD MSTORE PUSH2 0x525 DUP2 PUSH2 0x4EC JUMP JUMPDEST SWAP1 POP SWAP2 SWAP1 POP JUMP JUMPDEST PUSH32 0x4E487B7100000000000000000000000000000000000000000000000000000000 PUSH0 MSTORE PUSH1 0x11 PUSH1 0x4 MSTORE PUSH1 0x24 PUSH0 REVERT JUMPDEST PUSH0 PUSH2 0x563 DUP3 PUSH2 0x3E0 JUMP JUMPDEST SWAP2 POP PUSH2 0x56E DUP4 PUSH2 0x3E0 JUMP JUMPDEST SWAP3 POP DUP3 DUP3 ADD SWAP1 POP DUP1 DUP3 GT ISZERO PUSH2 0x586 JUMPI PUSH2 0x585 PUSH2 0x52C JUMP JUMPDEST JUMPDEST SWAP3 SWAP2 POP POP JUMP JUMPDEST PUSH0 PUSH2 0x596 DUP3 PUSH2 0x3E0 JUMP JUMPDEST SWAP2 POP PUSH2 0x5A1 DUP4 PUSH2 0x3E0 JUMP JUMPDEST SWAP3 POP DUP3 DUP3 MUL PUSH2 0x5AF DUP2 PUSH2 0x3E0 JUMP JUMPDEST SWAP2 POP DUP3 DUP3 DIV DUP5 EQ DUP4 ISZERO OR PUSH2 0x5C6 JUMPI PUSH2 0x5C5 PUSH2 0x52C JUMP JUMPDEST JUMPDEST POP SWAP3 SWAP2 POP POP JUMP JUMPDEST PUSH32 0x4E487B7100000000000000000000000000000000000000000000000000000000 PUSH0 MSTORE PUSH1 0x12 PUSH1 0x4 MSTORE PUSH1 0x24 PUSH0 REVERT JUMPDEST PUSH0 PUSH2 0x604 DUP3 PUSH2 0x3E0 JUMP JUMPDEST SWAP2 POP PUSH2 0x60F DUP4 PUSH2 0x3E0 JUMP JUMPDEST SWAP3 POP DUP3 PUSH2 0x61F JUMPI PUSH2 0x61E PUSH2 0x5CD JUMP JUMPDEST JUMPDEST DUP3 DUP3 DIV SWAP1 POP SWAP3 SWAP2 POP POP JUMP JUMPDEST PUSH0 PUSH10 0xFFFFFFFFFFFFFFFFFFFF DUP3 AND SWAP1 POP SWAP2 SWAP1 POP JUMP JUMPDEST PUSH2 0x648 DUP2 PUSH2 0x62A JUMP JUMPDEST DUP2 EQ PUSH2 0x652 JUMPI PUSH0 DUP1 REVERT JUMPDEST POP JUMP JUMPDEST PUSH0 DUP2 MLOAD SWAP1 POP PUSH2 0x663 DUP2 PUSH2 0x63F JUMP JUMPDEST SWAP3 SWAP2 POP POP JUMP JUMPDEST PUSH0 DUP2 SWAP1 POP SWAP2 SWAP1 POP JUMP JUMPDEST PUSH2 0x67B DUP2 PUSH2 0x669 JUMP JUMPDEST DUP2 EQ PUSH2 0x685 JUMPI PUSH0 DUP1 REVERT JUMPDEST POP JUMP JUMPDEST PUSH0 DUP2 MLOAD SWAP1 POP PUSH2 0x696 DUP2 PUSH2 0x672 JUMP JUMPDEST SWAP3 SWAP2 POP POP JUMP JUMPDEST PUSH0 DUP2 MLOAD SWAP1 POP PUSH2 0x6AA DUP2 PUSH2 0x411 JUMP JUMPDEST SWAP3 SWAP2 POP POP JUMP JUMPDEST PUSH0 DUP1 PUSH0 DUP1 PUSH0 PUSH1 0xA0 DUP7 DUP9 SUB SLT ISZERO PUSH2 0x6C9 JUMPI PUSH2 0x6C8 PUSH2 0x357 JUMP JUMPDEST JUMPDEST PUSH0 PUSH2 0x6D6 DUP9 DUP3 DUP10 ADD PUSH2 0x655 JUMP JUMPDEST SWAP6 POP POP PUSH1 0x20 PUSH2 0x6E7 DUP9 DUP3 DUP10 ADD PUSH2 0x688 JUMP JUMPDEST SWAP5 POP POP PUSH1 0x40 PUSH2 0x6F8 DUP9 DUP3 DUP10 ADD PUSH2 0x69C JUMP JUMPDEST SWAP4 POP POP PUSH1 0x60 PUSH2 0x709 DUP9 DUP3 DUP10 ADD PUSH2 0x69C JUMP JUMPDEST SWAP3 POP POP PUSH1 0x80 PUSH2 0x71A DUP9 DUP3 DUP10 ADD PUSH2 0x655 JUMP JUMPDEST SWAP2 POP POP SWAP3 SWAP6 POP SWAP3 SWAP6 SWAP1 SWAP4 POP JUMP JUMPDEST PUSH0 PUSH2 0x731 DUP3 PUSH2 0x669 JUMP JUMPDEST SWAP2 POP PUSH2 0x73C DUP4 PUSH2 0x669 JUMP JUMPDEST SWAP3 POP DUP3 DUP3 MUL PUSH2 0x74A DUP2 PUSH2 0x669 JUMP JUMPDEST SWAP2 POP PUSH32 0x8000000000000000000000000000000000000000000000000000000000000000 DUP5 EQ PUSH0 DUP5 SLT AND ISZERO PUSH2 0x781 JUMPI PUSH2 0x780 PUSH2 0x52C JUMP JUMPDEST JUMPDEST DUP3 DUP3 SDIV DUP5 EQ DUP4 ISZERO OR PUSH2 0x796 JUMPI PUSH2 0x795 PUSH2 0x52C JUMP JUMPDEST JUMPDEST POP SWAP3 SWAP2 POP POP JUMP INVALID LOG2 PUSH5 0x6970667358 0x22 SLT KECCAK256 CREATE 0xC8 EXTCODESIZE SWAP13 0xAE SWAP8 0xBE 0xE6 0xE SGT 0xBC 0xEE 0xCD 0xDA PUSH27 0xA8B9DDA387FA89D4879693519A8D37477464736F6C634300081A00 CALLER "
				},
				"gasEstimates": {
					"creation": {
						"codeDepositCost": "400600",
						"executionCost": "22539",
						"totalCost": "423139"
					},
					"external": {
						"addressToAmountFunded(address)": "2780",
						"fund()": "infinite",
						"funders(uint256)": "4966",
						"minUSD()": "2468"
					}
				},
				"methodIdentifiers": {
					"addressToAmountFunded(address)": "3e47d6f3",
					"fund()": "b60d4288",
					"funders(uint256)": "dc0d3dff",
					"minUSD()": "dc992aa0"
				}
			},
			"storageLayout": {
				"storage": [
					{
						"astId": 55,
						"contract": "contracts/FundMe.sol:FundMe",
						"label": "minUSD",
						"offset": 0,
						"slot": "0",
						"type": "t_uint256"
					},
					{
						"astId": 58,
						"contract": "contracts/FundMe.sol:FundMe",
						"label": "funders",
						"offset": 0,
						"slot": "1",
						"type": "t_array(t_address)dyn_storage"
					},
					{
						"astId": 62,
						"contract": "contracts/FundMe.sol:FundMe",
						"label": "addressToAmountFunded",
						"offset": 0,
						"slot": "2",
						"type": "t_mapping(t_address,t_uint256)"
					}
				],
				"types": {
					"t_address": {
						"encoding": "inplace",
						"label": "address",
						"numberOfBytes": "20"
					},
					"t_array(t_address)dyn_storage": {
						"base": "t_address",
						"encoding": "dynamic_array",
						"label": "address[]",
						"numberOfBytes": "32"
					},
					"t_mapping(t_address,t_uint256)": {
						"encoding": "mapping",
						"key": "t_address",
						"label": "mapping(address => uint256)",
						"numberOfBytes": "32",
						"value": "t_uint256"
					},
					"t_uint256": {
						"encoding": "inplace",
						"label": "uint256",
						"numberOfBytes": "32"
					}
				}
			},
			"userdoc": {
				"kind": "user",
				"methods": {},
				"version": 1
			}
		}
	}
}