{
	"contracts/FundMe.sol": {
		"FundMe": {
			"abi": [
				{
					"inputs": [],
					"stateMutability": "nonpayable",
					"type": "constructor"
				},
				{
					"inputs": [],
					"name": "NotOwner",
					"type": "error"
				},
				{
					"stateMutability": "payable",
					"type": "fallback"
				},
				{
					"inputs": [],
					"name": "MIN_USD",
					"outputs": [
						{
							"internalType": "uint256",
							"name": "",
							"type": "uint256"
						}
					],
					"stateMutability": "view",
					"type": "function"
				},
				{
					"inputs": [
						{
							"internalType": "address",
							"name": "funder",
							"type": "address"
						}
					],
					"name": "addressToAmountFunded",
					"outputs": [
						{
							"internalType": "uint256",
							"name": "amountFunded",
							"type": "uint256"
						}
					],
					"stateMutability": "view",
					"type": "function"
				},
				{
					"inputs": [],
					"name": "fund",
					"outputs": [],
					"stateMutability": "payable",
					"type": "function"
				},
				{
					"inputs": [
						{
							"internalType": "uint256",
							"name": "",
							"type": "uint256"
						}
					],
					"name": "funders",
					"outputs": [
						{
							"internalType": "address",
							"name": "",
							"type": "address"
						}
					],
					"stateMutability": "view",
					"type": "function"
				},
				{
					"inputs": [],
					"name": "i_owner",
					"outputs": [
						{
							"internalType": "address",
							"name": "",
							"type": "address"
						}
					],
					"stateMutability": "view",
					"type": "function"
				},
				{
					"inputs": [],
					"name": "withdraw",
					"outputs": [],
					"stateMutability": "nonpayable",
					"type": "function"
				},
				{
					"stateMutability": "payable",
					"type": "receive"
				}
			],
			"devdoc": {
				"kind": "dev",
				"methods": {},
				"version": 1
			},
			"evm": {
				"assembly": "    /* \"contracts/FundMe.sol\":1157:6742  contract FundMe {... */\n  mstore(0x40, 0xa0)\n    /* \"contracts/FundMe.sol\":1844:1898  constructor () {... */\n  callvalue\n  dup1\n  iszero\n  tag_1\n  jumpi\n  0x00\n  dup1\n  revert\ntag_1:\n  pop\n    /* \"contracts/FundMe.sol\":1880:1890  msg.sender */\n  caller\n    /* \"contracts/FundMe.sol\":1870:1890  i_owner = msg.sender */\n  0xffffffffffffffffffffffffffffffffffffffff\n  and\n  0x80\n  dup2\n  0xffffffffffffffffffffffffffffffffffffffff\n  and\n  dup2\n  mstore\n  pop\n  pop\n    /* \"contracts/FundMe.sol\":1157:6742  contract FundMe {... */\n  mload(0x80)\n  codecopy(0x00, dataOffset(sub_0), dataSize(sub_0))\n  0x00\n  assignImmutable(\"0x35bb2e240092263378f77ea1e9c278099a33b604c4c4e26d13ea227e8bb74470\")\n  return(0x00, dataSize(sub_0))\nstop\n\nsub_0: assembly {\n        /* \"contracts/FundMe.sol\":1157:6742  contract FundMe {... */\n      mstore(0x40, 0x80)\n      jumpi(tag_1, lt(calldatasize, 0x04))\n      shr(0xe0, calldataload(0x00))\n      dup1\n      0x213dbea2\n      eq\n      tag_3\n      jumpi\n      dup1\n      0x3ccfd60b\n      eq\n      tag_4\n      jumpi\n      dup1\n      0x3e47d6f3\n      eq\n      tag_5\n      jumpi\n      dup1\n      0xb60d4288\n      eq\n      tag_6\n      jumpi\n      dup1\n      0xdba6335f\n      eq\n      tag_7\n      jumpi\n      dup1\n      0xdc0d3dff\n      eq\n      tag_8\n      jumpi\n      jump(tag_2)\n    tag_1:\n      jumpi(tag_2, calldatasize)\n        /* \"contracts/FundMe.sol\":6662:6668  fund() */\n      tag_11\n        /* \"contracts/FundMe.sol\":6662:6666  fund */\n      tag_12\n        /* \"contracts/FundMe.sol\":6662:6668  fund() */\n      jump\t// in\n    tag_11:\n        /* \"contracts/FundMe.sol\":1157:6742  contract FundMe {... */\n      stop\n    tag_2:\n        /* \"contracts/FundMe.sol\":6723:6729  fund() */\n      tag_15\n        /* \"contracts/FundMe.sol\":6723:6727  fund */\n      tag_12\n        /* \"contracts/FundMe.sol\":6723:6729  fund() */\n      jump\t// in\n    tag_15:\n        /* \"contracts/FundMe.sol\":1157:6742  contract FundMe {... */\n      stop\n        /* \"contracts/FundMe.sol\":1424:1462  uint256 public constant MIN_USD = 7e18 */\n    tag_3:\n      callvalue\n      dup1\n      iszero\n      tag_16\n      jumpi\n      0x00\n      dup1\n      revert\n    tag_16:\n      pop\n      tag_17\n      tag_18\n      jump\t// in\n    tag_17:\n      mload(0x40)\n      tag_19\n      swap2\n      swap1\n      tag_20\n      jump\t// in\n    tag_19:\n      mload(0x40)\n      dup1\n      swap2\n      sub\n      swap1\n      return\n        /* \"contracts/FundMe.sol\":4442:5945  function withdraw() public onlyi_Owner {... */\n    tag_4:\n      callvalue\n      dup1\n      iszero\n      tag_21\n      jumpi\n      0x00\n      dup1\n      revert\n    tag_21:\n      pop\n      tag_22\n      tag_23\n      jump\t// in\n    tag_22:\n      stop\n        /* \"contracts/FundMe.sol\":1601:1677  mapping(address funder => uint256 amountFunded) public addressToAmountFunded */\n    tag_5:\n      callvalue\n      dup1\n      iszero\n      tag_24\n      jumpi\n      0x00\n      dup1\n      revert\n    tag_24:\n      pop\n      tag_25\n      0x04\n      dup1\n      calldatasize\n      sub\n      dup2\n      add\n      swap1\n      tag_26\n      swap2\n      swap1\n      tag_27\n      jump\t// in\n    tag_26:\n      tag_28\n      jump\t// in\n    tag_25:\n      mload(0x40)\n      tag_29\n      swap2\n      swap1\n      tag_20\n      jump\t// in\n    tag_29:\n      mload(0x40)\n      dup1\n      swap2\n      sub\n      swap1\n      return\n        /* \"contracts/FundMe.sol\":2010:4076  function fund() public payable {... */\n    tag_6:\n      tag_30\n      tag_12\n      jump\t// in\n    tag_30:\n      stop\n        /* \"contracts/FundMe.sol\":1805:1837  address public immutable i_owner */\n    tag_7:\n      callvalue\n      dup1\n      iszero\n      tag_31\n      jumpi\n      0x00\n      dup1\n      revert\n    tag_31:\n      pop\n      tag_32\n      tag_33\n      jump\t// in\n    tag_32:\n      mload(0x40)\n      tag_34\n      swap2\n      swap1\n      tag_35\n      jump\t// in\n    tag_34:\n      mload(0x40)\n      dup1\n      swap2\n      sub\n      swap1\n      return\n        /* \"contracts/FundMe.sol\":1517:1541  address[] public funders */\n    tag_8:\n      callvalue\n      dup1\n      iszero\n      tag_36\n      jumpi\n      0x00\n      dup1\n      revert\n    tag_36:\n      pop\n      tag_37\n      0x04\n      dup1\n      calldatasize\n      sub\n      dup2\n      add\n      swap1\n      tag_38\n      swap2\n      swap1\n      tag_39\n      jump\t// in\n    tag_38:\n      tag_40\n      jump\t// in\n    tag_37:\n      mload(0x40)\n      tag_41\n      swap2\n      swap1\n      tag_35\n      jump\t// in\n    tag_41:\n      mload(0x40)\n      dup1\n      swap2\n      sub\n      swap1\n      return\n        /* \"contracts/FundMe.sol\":2010:4076  function fund() public payable {... */\n    tag_12:\n        /* \"contracts/FundMe.sol\":1458:1462  7e18 */\n      0x6124fee993bc0000\n        /* \"contracts/FundMe.sol\":2874:2903  msg.value.getConversionRate() */\n      tag_43\n        /* \"contracts/FundMe.sol\":2874:2883  msg.value */\n      callvalue\n        /* \"contracts/FundMe.sol\":2874:2901  msg.value.getConversionRate */\n      tag_44\n        /* \"contracts/FundMe.sol\":2874:2903  msg.value.getConversionRate() */\n      jump\t// in\n    tag_43:\n        /* \"contracts/FundMe.sol\":2874:2913  msg.value.getConversionRate() > MIN_USD */\n      gt\n        /* \"contracts/FundMe.sol\":2866:2965  require(msg.value.getConversionRate() > MIN_USD, \"Why so Kanjus! Send the entire amount specified\") */\n      tag_45\n      jumpi\n      mload(0x40)\n      0x08c379a000000000000000000000000000000000000000000000000000000000\n      dup2\n      mstore\n      0x04\n      add\n      tag_46\n      swap1\n      tag_47\n      jump\t// in\n    tag_46:\n      mload(0x40)\n      dup1\n      swap2\n      sub\n      swap1\n      revert\n    tag_45:\n        /* \"contracts/FundMe.sol\":3893:3900  funders */\n      0x00\n        /* \"contracts/FundMe.sol\":3906:3916  msg.sender */\n      caller\n        /* \"contracts/FundMe.sol\":3893:3917  funders.push(msg.sender) */\n      swap1\n      dup1\n      0x01\n      dup2\n      sload\n      add\n      dup1\n      dup3\n      sstore\n      dup1\n      swap2\n      pop\n      pop\n      0x01\n      swap1\n      sub\n      swap1\n      0x00\n      mstore\n      keccak256(0x00, 0x20)\n      add\n      0x00\n      swap1\n      swap2\n      swap1\n      swap2\n      swap1\n      swap2\n      0x0100\n      exp\n      dup2\n      sload\n      dup2\n      0xffffffffffffffffffffffffffffffffffffffff\n      mul\n      not\n      and\n      swap1\n      dup4\n      0xffffffffffffffffffffffffffffffffffffffff\n      and\n      mul\n      or\n      swap1\n      sstore\n      pop\n        /* \"contracts/FundMe.sol\":4059:4068  msg.value */\n      callvalue\n        /* \"contracts/FundMe.sol\":4022:4043  addressToAmountFunded */\n      0x01\n        /* \"contracts/FundMe.sol\":4022:4055  addressToAmountFunded[msg.sender] */\n      0x00\n        /* \"contracts/FundMe.sol\":4044:4054  msg.sender */\n      caller\n        /* \"contracts/FundMe.sol\":4022:4055  addressToAmountFunded[msg.sender] */\n      0xffffffffffffffffffffffffffffffffffffffff\n      and\n      0xffffffffffffffffffffffffffffffffffffffff\n      and\n      dup2\n      mstore\n      0x20\n      add\n      swap1\n      dup2\n      mstore\n      0x20\n      add\n      0x00\n      keccak256\n      0x00\n        /* \"contracts/FundMe.sol\":4022:4068  addressToAmountFunded[msg.sender] += msg.value */\n      dup3\n      dup3\n      sload\n      tag_49\n      swap2\n      swap1\n      tag_50\n      jump\t// in\n    tag_49:\n      swap3\n      pop\n      pop\n      dup2\n      swap1\n      sstore\n      pop\n        /* \"contracts/FundMe.sol\":2010:4076  function fund() public payable {... */\n      jump\t// out\n        /* \"contracts/FundMe.sol\":1424:1462  uint256 public constant MIN_USD = 7e18 */\n    tag_18:\n        /* \"contracts/FundMe.sol\":1458:1462  7e18 */\n      0x6124fee993bc0000\n        /* \"contracts/FundMe.sol\":1424:1462  uint256 public constant MIN_USD = 7e18 */\n      dup2\n      jump\t// out\n        /* \"contracts/FundMe.sol\":4442:5945  function withdraw() public onlyi_Owner {... */\n    tag_23:\n        /* \"contracts/FundMe.sol\":6223:6230  i_owner */\n      immutable(\"0x35bb2e240092263378f77ea1e9c278099a33b604c4c4e26d13ea227e8bb74470\")\n        /* \"contracts/FundMe.sol\":6209:6230  msg.sender != i_owner */\n      0xffffffffffffffffffffffffffffffffffffffff\n      and\n        /* \"contracts/FundMe.sol\":6209:6219  msg.sender */\n      caller\n        /* \"contracts/FundMe.sol\":6209:6230  msg.sender != i_owner */\n      0xffffffffffffffffffffffffffffffffffffffff\n      and\n      eq\n        /* \"contracts/FundMe.sol\":6205:6254  if (msg.sender != i_owner) { revert NotOwner(); } */\n      tag_52\n      jumpi\n        /* \"contracts/FundMe.sol\":6241:6251  NotOwner() */\n      mload(0x40)\n      0x30cd747100000000000000000000000000000000000000000000000000000000\n      dup2\n      mstore\n      0x04\n      add\n      mload(0x40)\n      dup1\n      swap2\n      sub\n      swap1\n      revert\n        /* \"contracts/FundMe.sol\":6205:6254  if (msg.sender != i_owner) { revert NotOwner(); } */\n    tag_52:\n        /* \"contracts/FundMe.sol\":4499:4518  uint256 funderIndex */\n      0x00\n        /* \"contracts/FundMe.sol\":4494:4681  for (uint256 funderIndex = 0; funderIndex < funders.length; funderIndex++) {... */\n    tag_54:\n        /* \"contracts/FundMe.sol\":4538:4545  funders */\n      0x00\n        /* \"contracts/FundMe.sol\":4538:4552  funders.length */\n      dup1\n      sload\n      swap1\n      pop\n        /* \"contracts/FundMe.sol\":4524:4535  funderIndex */\n      dup2\n        /* \"contracts/FundMe.sol\":4524:4552  funderIndex < funders.length */\n      lt\n        /* \"contracts/FundMe.sol\":4494:4681  for (uint256 funderIndex = 0; funderIndex < funders.length; funderIndex++) {... */\n      iszero\n      tag_55\n      jumpi\n        /* \"contracts/FundMe.sol\":4584:4598  address funder */\n      0x00\n        /* \"contracts/FundMe.sol\":4601:4608  funders */\n      dup1\n        /* \"contracts/FundMe.sol\":4609:4620  funderIndex */\n      dup3\n        /* \"contracts/FundMe.sol\":4601:4621  funders[funderIndex] */\n      dup2\n      sload\n      dup2\n      lt\n      tag_57\n      jumpi\n      tag_58\n      tag_59\n      jump\t// in\n    tag_58:\n    tag_57:\n      swap1\n      0x00\n      mstore\n      keccak256(0x00, 0x20)\n      add\n      0x00\n      swap1\n      sload\n      swap1\n      0x0100\n      exp\n      swap1\n      div\n      0xffffffffffffffffffffffffffffffffffffffff\n      and\n        /* \"contracts/FundMe.sol\":4584:4621  address funder = funders[funderIndex] */\n      swap1\n      pop\n        /* \"contracts/FundMe.sol\":4668:4669  0 */\n      0x00\n        /* \"contracts/FundMe.sol\":4636:4657  addressToAmountFunded */\n      0x01\n        /* \"contracts/FundMe.sol\":4636:4665  addressToAmountFunded[funder] */\n      0x00\n        /* \"contracts/FundMe.sol\":4658:4664  funder */\n      dup4\n        /* \"contracts/FundMe.sol\":4636:4665  addressToAmountFunded[funder] */\n      0xffffffffffffffffffffffffffffffffffffffff\n      and\n      0xffffffffffffffffffffffffffffffffffffffff\n      and\n      dup2\n      mstore\n      0x20\n      add\n      swap1\n      dup2\n      mstore\n      0x20\n      add\n      0x00\n      keccak256\n        /* \"contracts/FundMe.sol\":4636:4669  addressToAmountFunded[funder] = 0 */\n      dup2\n      swap1\n      sstore\n      pop\n        /* \"contracts/FundMe.sol\":4569:4681  {... */\n      pop\n        /* \"contracts/FundMe.sol\":4554:4567  funderIndex++ */\n      dup1\n      dup1\n      0x01\n      add\n      swap2\n      pop\n      pop\n        /* \"contracts/FundMe.sol\":4494:4681  for (uint256 funderIndex = 0; funderIndex < funders.length; funderIndex++) {... */\n      jump(tag_54)\n    tag_55:\n      pop\n        /* \"contracts/FundMe.sol\":4778:4779  0 */\n      0x00\n        /* \"contracts/FundMe.sol\":4764:4780  new address[](0) */\n      0xffffffffffffffff\n      dup2\n      gt\n      iszero\n      tag_61\n      jumpi\n      tag_62\n      tag_63\n      jump\t// in\n    tag_62:\n    tag_61:\n      mload(0x40)\n      swap1\n      dup1\n      dup3\n      mstore\n      dup1\n      0x20\n      mul\n      0x20\n      add\n      dup3\n      add\n      0x40\n      mstore\n      dup1\n      iszero\n      tag_64\n      jumpi\n      dup2\n      0x20\n      add\n      0x20\n      dup3\n      mul\n      dup1\n      calldatasize\n      dup4\n      calldatacopy\n      dup1\n      dup3\n      add\n      swap2\n      pop\n      pop\n      swap1\n      pop\n    tag_64:\n      pop\n        /* \"contracts/FundMe.sol\":4754:4761  funders */\n      0x00\n        /* \"contracts/FundMe.sol\":4754:4780  funders = new address[](0) */\n      swap1\n      dup1\n      mload\n      swap1\n      0x20\n      add\n      swap1\n      tag_65\n      swap3\n      swap2\n      swap1\n      tag_66\n      jump\t// in\n    tag_65:\n      pop\n        /* \"contracts/FundMe.sol\":5231:5241  msg.sender */\n      caller\n        /* \"contracts/FundMe.sol\":5222:5251  payable (msg.sender).transfer */\n      0xffffffffffffffffffffffffffffffffffffffff\n      and\n        /* \"contracts/FundMe.sol\":5222:5274  payable (msg.sender).transfer(address(this).balance) */\n      0x08fc\n        /* \"contracts/FundMe.sol\":5252:5273  address(this).balance */\n      selfbalance\n        /* \"contracts/FundMe.sol\":5222:5274  payable (msg.sender).transfer(address(this).balance) */\n      swap1\n      dup2\n      iszero\n      mul\n      swap1\n      mload(0x40)\n      0x00\n      mload(0x40)\n      dup1\n      dup4\n      sub\n      dup2\n      dup6\n      dup9\n      dup9\n      call\n      swap4\n      pop\n      pop\n      pop\n      pop\n      iszero\n      dup1\n      iszero\n      tag_68\n      jumpi\n      returndatasize\n      0x00\n      dup1\n      returndatacopy\n      revert(0x00, returndatasize)\n    tag_68:\n      pop\n        /* \"contracts/FundMe.sol\":5362:5378  bool sendSuccess */\n      0x00\n        /* \"contracts/FundMe.sol\":5389:5399  msg.sender */\n      caller\n        /* \"contracts/FundMe.sol\":5381:5405  payable(msg.sender).send */\n      0xffffffffffffffffffffffffffffffffffffffff\n      and\n        /* \"contracts/FundMe.sol\":5381:5428  payable(msg.sender).send(address(this).balance) */\n      0x08fc\n        /* \"contracts/FundMe.sol\":5406:5427  address(this).balance */\n      selfbalance\n        /* \"contracts/FundMe.sol\":5381:5428  payable(msg.sender).send(address(this).balance) */\n      swap1\n      dup2\n      iszero\n      mul\n      swap1\n      mload(0x40)\n      0x00\n      mload(0x40)\n      dup1\n      dup4\n      sub\n      dup2\n      dup6\n      dup9\n      dup9\n      call\n      swap4\n      pop\n      pop\n      pop\n      pop\n        /* \"contracts/FundMe.sol\":5362:5428  bool sendSuccess = payable(msg.sender).send(address(this).balance) */\n      swap1\n      pop\n        /* \"contracts/FundMe.sol\":5447:5458  sendSuccess */\n      dup1\n        /* \"contracts/FundMe.sol\":5439:5474  require(sendSuccess, \"Send failed\") */\n      tag_70\n      jumpi\n      mload(0x40)\n      0x08c379a000000000000000000000000000000000000000000000000000000000\n      dup2\n      mstore\n      0x04\n      add\n      tag_71\n      swap1\n      tag_72\n      jump\t// in\n    tag_71:\n      mload(0x40)\n      dup1\n      swap2\n      sub\n      swap1\n      revert\n    tag_70:\n        /* \"contracts/FundMe.sol\":5708:5724  bool callSuccess */\n      0x00\n        /* \"contracts/FundMe.sol\":5739:5749  msg.sender */\n      caller\n        /* \"contracts/FundMe.sol\":5730:5755  payable (msg.sender).call */\n      0xffffffffffffffffffffffffffffffffffffffff\n      and\n        /* \"contracts/FundMe.sol\":5763:5784  address(this).balance */\n      selfbalance\n        /* \"contracts/FundMe.sol\":5730:5789  payable (msg.sender).call{value: address(this).balance}(\"\") */\n      mload(0x40)\n      tag_73\n      swap1\n      tag_74\n      jump\t// in\n    tag_73:\n      0x00\n      mload(0x40)\n      dup1\n      dup4\n      sub\n      dup2\n      dup6\n      dup8\n      gas\n      call\n      swap3\n      pop\n      pop\n      pop\n      returndatasize\n      dup1\n      0x00\n      dup2\n      eq\n      tag_77\n      jumpi\n      mload(0x40)\n      swap2\n      pop\n      and(add(returndatasize, 0x3f), not(0x1f))\n      dup3\n      add\n      0x40\n      mstore\n      returndatasize\n      dup3\n      mstore\n      returndatasize\n      0x00\n      0x20\n      dup5\n      add\n      returndatacopy\n      jump(tag_76)\n    tag_77:\n      0x60\n      swap2\n      pop\n    tag_76:\n      pop\n        /* \"contracts/FundMe.sol\":5707:5789  (bool callSuccess, ) = payable (msg.sender).call{value: address(this).balance}(\"\") */\n      pop\n      swap1\n      pop\n        /* \"contracts/FundMe.sol\":5808:5819  callSuccess */\n      dup1\n        /* \"contracts/FundMe.sol\":5800:5835  require(callSuccess, \"Call failed\") */\n      tag_78\n      jumpi\n      mload(0x40)\n      0x08c379a000000000000000000000000000000000000000000000000000000000\n      dup2\n      mstore\n      0x04\n      add\n      tag_79\n      swap1\n      tag_80\n      jump\t// in\n    tag_79:\n      mload(0x40)\n      dup1\n      swap2\n      sub\n      swap1\n      revert\n    tag_78:\n        /* \"contracts/FundMe.sol\":4481:5945  {... */\n      pop\n      pop\n        /* \"contracts/FundMe.sol\":4442:5945  function withdraw() public onlyi_Owner {... */\n      jump\t// out\n        /* \"contracts/FundMe.sol\":1601:1677  mapping(address funder => uint256 amountFunded) public addressToAmountFunded */\n    tag_28:\n      mstore(0x20, 0x01)\n      dup1\n      0x00\n      mstore\n      keccak256(0x00, 0x40)\n      0x00\n      swap2\n      pop\n      swap1\n      pop\n      sload\n      dup2\n      jump\t// out\n        /* \"contracts/FundMe.sol\":1805:1837  address public immutable i_owner */\n    tag_33:\n      immutable(\"0x35bb2e240092263378f77ea1e9c278099a33b604c4c4e26d13ea227e8bb74470\")\n      dup2\n      jump\t// out\n        /* \"contracts/FundMe.sol\":1517:1541  address[] public funders */\n    tag_40:\n      0x00\n      dup2\n      dup2\n      sload\n      dup2\n      lt\n      tag_81\n      jumpi\n      0x00\n      dup1\n      revert\n    tag_81:\n      swap1\n      0x00\n      mstore\n      keccak256(0x00, 0x20)\n      add\n      0x00\n      swap2\n      pop\n      sload\n      swap1\n      0x0100\n      exp\n      swap1\n      div\n      0xffffffffffffffffffffffffffffffffffffffff\n      and\n      dup2\n      jump\t// out\n        /* \"contracts/PriceConverterLibrary.sol\":1180:1738  function getConversionRate(uint256 ethAmount) internal view returns (uint256) {... */\n    tag_44:\n        /* \"contracts/PriceConverterLibrary.sol\":1249:1256  uint256 */\n      0x00\n        /* \"contracts/PriceConverterLibrary.sol\":1322:1338  uint256 ethPrice */\n      dup1\n        /* \"contracts/PriceConverterLibrary.sol\":1341:1351  getPrice() */\n      tag_84\n        /* \"contracts/PriceConverterLibrary.sol\":1341:1349  getPrice */\n      tag_85\n        /* \"contracts/PriceConverterLibrary.sol\":1341:1351  getPrice() */\n      jump\t// in\n    tag_84:\n        /* \"contracts/PriceConverterLibrary.sol\":1322:1351  uint256 ethPrice = getPrice() */\n      swap1\n      pop\n        /* \"contracts/PriceConverterLibrary.sol\":1629:1648  uint ethAmountInUsd */\n      0x00\n        /* \"contracts/PriceConverterLibrary.sol\":1672:1676  1e18 */\n      0x0de0b6b3a7640000\n        /* \"contracts/PriceConverterLibrary.sol\":1660:1669  ethAmount */\n      dup5\n        /* \"contracts/PriceConverterLibrary.sol\":1651:1659  ethPrice */\n      dup4\n        /* \"contracts/PriceConverterLibrary.sol\":1651:1669  ethPrice*ethAmount */\n      tag_86\n      swap2\n      swap1\n      tag_87\n      jump\t// in\n    tag_86:\n        /* \"contracts/PriceConverterLibrary.sol\":1651:1676  ethPrice*ethAmount / 1e18 */\n      tag_88\n      swap2\n      swap1\n      tag_89\n      jump\t// in\n    tag_88:\n        /* \"contracts/PriceConverterLibrary.sol\":1629:1676  uint ethAmountInUsd = ethPrice*ethAmount / 1e18 */\n      swap1\n      pop\n        /* \"contracts/PriceConverterLibrary.sol\":1716:1730  ethAmountInUsd */\n      dup1\n        /* \"contracts/PriceConverterLibrary.sol\":1709:1730  return ethAmountInUsd */\n      swap3\n      pop\n      pop\n      pop\n        /* \"contracts/PriceConverterLibrary.sol\":1180:1738  function getConversionRate(uint256 ethAmount) internal view returns (uint256) {... */\n      swap2\n      swap1\n      pop\n      jump\t// out\n        /* \"contracts/PriceConverterLibrary.sol\":475:1128  function getPrice() internal view returns (uint256) {... */\n    tag_85:\n        /* \"contracts/PriceConverterLibrary.sol\":518:525  uint256 */\n      0x00\n        /* \"contracts/PriceConverterLibrary.sol\":829:860  AggregatorV3Interface priceFeed */\n      dup1\n        /* \"contracts/PriceConverterLibrary.sol\":885:927  0x694AA1769357215DE4FAC081bf1f309aDC325306 */\n      0x694aa1769357215de4fac081bf1f309adc325306\n        /* \"contracts/PriceConverterLibrary.sol\":829:928  AggregatorV3Interface priceFeed = AggregatorV3Interface(0x694AA1769357215DE4FAC081bf1f309aDC325306) */\n      swap1\n      pop\n        /* \"contracts/PriceConverterLibrary.sol\":994:1007  int256 answer */\n      0x00\n        /* \"contracts/PriceConverterLibrary.sol\":1014:1023  priceFeed */\n      dup2\n        /* \"contracts/PriceConverterLibrary.sol\":1014:1039  priceFeed.latestRoundData */\n      0xffffffffffffffffffffffffffffffffffffffff\n      and\n      0xfeaf968c\n        /* \"contracts/PriceConverterLibrary.sol\":1014:1041  priceFeed.latestRoundData() */\n      mload(0x40)\n      dup2\n      0xffffffff\n      and\n      0xe0\n      shl\n      dup2\n      mstore\n      0x04\n      add\n      0xa0\n      mload(0x40)\n      dup1\n      dup4\n      sub\n      dup2\n      dup7\n      gas\n      staticcall\n      iszero\n      dup1\n      iszero\n      tag_92\n      jumpi\n      returndatasize\n      0x00\n      dup1\n      returndatacopy\n      revert(0x00, returndatasize)\n    tag_92:\n      pop\n      pop\n      pop\n      pop\n      mload(0x40)\n      returndatasize\n      not(0x1f)\n      0x1f\n      dup3\n      add\n      and\n      dup3\n      add\n      dup1\n      0x40\n      mstore\n      pop\n      dup2\n      add\n      swap1\n      tag_93\n      swap2\n      swap1\n      tag_94\n      jump\t// in\n    tag_93:\n        /* \"contracts/PriceConverterLibrary.sol\":992:1041  (,int256 answer,,,) = priceFeed.latestRoundData() */\n      pop\n      pop\n      pop\n      swap2\n      pop\n      pop\n        /* \"contracts/PriceConverterLibrary.sol\":1115:1119  1e10 */\n      0x02540be400\n        /* \"contracts/PriceConverterLibrary.sol\":1108:1114  answer */\n      dup2\n        /* \"contracts/PriceConverterLibrary.sol\":1108:1119  answer*1e10 */\n      tag_95\n      swap2\n      swap1\n      tag_96\n      jump\t// in\n    tag_95:\n        /* \"contracts/PriceConverterLibrary.sol\":1093:1120  return uint256(answer*1e10) */\n      swap3\n      pop\n      pop\n      pop\n        /* \"contracts/PriceConverterLibrary.sol\":475:1128  function getPrice() internal view returns (uint256) {... */\n      swap1\n      jump\t// out\n    tag_66:\n      dup3\n      dup1\n      sload\n      dup3\n      dup3\n      sstore\n      swap1\n      0x00\n      mstore\n      keccak256(0x00, 0x20)\n      swap1\n      dup2\n      add\n      swap3\n      dup3\n      iszero\n      tag_97\n      jumpi\n      swap2\n      0x20\n      mul\n      dup3\n      add\n    tag_98:\n      dup3\n      dup2\n      gt\n      iszero\n      tag_99\n      jumpi\n      dup3\n      mload\n      dup3\n      exp(0x0100, 0x00)\n      dup2\n      sload\n      dup2\n      0xffffffffffffffffffffffffffffffffffffffff\n      mul\n      not\n      and\n      swap1\n      dup4\n      0xffffffffffffffffffffffffffffffffffffffff\n      and\n      mul\n      or\n      swap1\n      sstore\n      pop\n      swap2\n      0x20\n      add\n      swap2\n      swap1\n      0x01\n      add\n      swap1\n      jump(tag_98)\n    tag_99:\n    tag_97:\n      pop\n      swap1\n      pop\n      tag_100\n      swap2\n      swap1\n      tag_101\n      jump\t// in\n    tag_100:\n      pop\n      swap1\n      jump\t// out\n    tag_101:\n    tag_102:\n      dup1\n      dup3\n      gt\n      iszero\n      tag_103\n      jumpi\n      0x00\n      dup2\n      0x00\n      swap1\n      sstore\n      pop\n      0x01\n      add\n      jump(tag_102)\n    tag_103:\n      pop\n      swap1\n      jump\t// out\n        /* \"#utility.yul\":7:84   */\n    tag_104:\n        /* \"#utility.yul\":44:51   */\n      0x00\n        /* \"#utility.yul\":73:78   */\n      dup2\n        /* \"#utility.yul\":62:78   */\n      swap1\n      pop\n        /* \"#utility.yul\":7:84   */\n      swap2\n      swap1\n      pop\n      jump\t// out\n        /* \"#utility.yul\":90:208   */\n    tag_105:\n        /* \"#utility.yul\":177:201   */\n      tag_138\n        /* \"#utility.yul\":195:200   */\n      dup2\n        /* \"#utility.yul\":177:201   */\n      tag_104\n      jump\t// in\n    tag_138:\n        /* \"#utility.yul\":172:175   */\n      dup3\n        /* \"#utility.yul\":165:202   */\n      mstore\n        /* \"#utility.yul\":90:208   */\n      pop\n      pop\n      jump\t// out\n        /* \"#utility.yul\":214:436   */\n    tag_20:\n        /* \"#utility.yul\":307:311   */\n      0x00\n        /* \"#utility.yul\":345:347   */\n      0x20\n        /* \"#utility.yul\":334:343   */\n      dup3\n        /* \"#utility.yul\":330:348   */\n      add\n        /* \"#utility.yul\":322:348   */\n      swap1\n      pop\n        /* \"#utility.yul\":358:429   */\n      tag_140\n        /* \"#utility.yul\":426:427   */\n      0x00\n        /* \"#utility.yul\":415:424   */\n      dup4\n        /* \"#utility.yul\":411:428   */\n      add\n        /* \"#utility.yul\":402:408   */\n      dup5\n        /* \"#utility.yul\":358:429   */\n      tag_105\n      jump\t// in\n    tag_140:\n        /* \"#utility.yul\":214:436   */\n      swap3\n      swap2\n      pop\n      pop\n      jump\t// out\n        /* \"#utility.yul\":523:640   */\n    tag_107:\n        /* \"#utility.yul\":632:633   */\n      0x00\n        /* \"#utility.yul\":629:630   */\n      dup1\n        /* \"#utility.yul\":622:634   */\n      revert\n        /* \"#utility.yul\":769:895   */\n    tag_109:\n        /* \"#utility.yul\":806:813   */\n      0x00\n        /* \"#utility.yul\":846:888   */\n      0xffffffffffffffffffffffffffffffffffffffff\n        /* \"#utility.yul\":839:844   */\n      dup3\n        /* \"#utility.yul\":835:889   */\n      and\n        /* \"#utility.yul\":824:889   */\n      swap1\n      pop\n        /* \"#utility.yul\":769:895   */\n      swap2\n      swap1\n      pop\n      jump\t// out\n        /* \"#utility.yul\":901:997   */\n    tag_110:\n        /* \"#utility.yul\":938:945   */\n      0x00\n        /* \"#utility.yul\":967:991   */\n      tag_146\n        /* \"#utility.yul\":985:990   */\n      dup3\n        /* \"#utility.yul\":967:991   */\n      tag_109\n      jump\t// in\n    tag_146:\n        /* \"#utility.yul\":956:991   */\n      swap1\n      pop\n        /* \"#utility.yul\":901:997   */\n      swap2\n      swap1\n      pop\n      jump\t// out\n        /* \"#utility.yul\":1003:1125   */\n    tag_111:\n        /* \"#utility.yul\":1076:1100   */\n      tag_148\n        /* \"#utility.yul\":1094:1099   */\n      dup2\n        /* \"#utility.yul\":1076:1100   */\n      tag_110\n      jump\t// in\n    tag_148:\n        /* \"#utility.yul\":1069:1074   */\n      dup2\n        /* \"#utility.yul\":1066:1101   */\n      eq\n        /* \"#utility.yul\":1056:1119   */\n      tag_149\n      jumpi\n        /* \"#utility.yul\":1115:1116   */\n      0x00\n        /* \"#utility.yul\":1112:1113   */\n      dup1\n        /* \"#utility.yul\":1105:1117   */\n      revert\n        /* \"#utility.yul\":1056:1119   */\n    tag_149:\n        /* \"#utility.yul\":1003:1125   */\n      pop\n      jump\t// out\n        /* \"#utility.yul\":1131:1270   */\n    tag_112:\n        /* \"#utility.yul\":1177:1182   */\n      0x00\n        /* \"#utility.yul\":1215:1221   */\n      dup2\n        /* \"#utility.yul\":1202:1222   */\n      calldataload\n        /* \"#utility.yul\":1193:1222   */\n      swap1\n      pop\n        /* \"#utility.yul\":1231:1264   */\n      tag_151\n        /* \"#utility.yul\":1258:1263   */\n      dup2\n        /* \"#utility.yul\":1231:1264   */\n      tag_111\n      jump\t// in\n    tag_151:\n        /* \"#utility.yul\":1131:1270   */\n      swap3\n      swap2\n      pop\n      pop\n      jump\t// out\n        /* \"#utility.yul\":1276:1605   */\n    tag_27:\n        /* \"#utility.yul\":1335:1341   */\n      0x00\n        /* \"#utility.yul\":1384:1386   */\n      0x20\n        /* \"#utility.yul\":1372:1381   */\n      dup3\n        /* \"#utility.yul\":1363:1370   */\n      dup5\n        /* \"#utility.yul\":1359:1382   */\n      sub\n        /* \"#utility.yul\":1355:1387   */\n      slt\n        /* \"#utility.yul\":1352:1471   */\n      iszero\n      tag_153\n      jumpi\n        /* \"#utility.yul\":1390:1469   */\n      tag_154\n      tag_107\n      jump\t// in\n    tag_154:\n        /* \"#utility.yul\":1352:1471   */\n    tag_153:\n        /* \"#utility.yul\":1510:1511   */\n      0x00\n        /* \"#utility.yul\":1535:1588   */\n      tag_155\n        /* \"#utility.yul\":1580:1587   */\n      dup5\n        /* \"#utility.yul\":1571:1577   */\n      dup3\n        /* \"#utility.yul\":1560:1569   */\n      dup6\n        /* \"#utility.yul\":1556:1578   */\n      add\n        /* \"#utility.yul\":1535:1588   */\n      tag_112\n      jump\t// in\n    tag_155:\n        /* \"#utility.yul\":1525:1588   */\n      swap2\n      pop\n        /* \"#utility.yul\":1481:1598   */\n      pop\n        /* \"#utility.yul\":1276:1605   */\n      swap3\n      swap2\n      pop\n      pop\n      jump\t// out\n        /* \"#utility.yul\":1611:1729   */\n    tag_113:\n        /* \"#utility.yul\":1698:1722   */\n      tag_157\n        /* \"#utility.yul\":1716:1721   */\n      dup2\n        /* \"#utility.yul\":1698:1722   */\n      tag_110\n      jump\t// in\n    tag_157:\n        /* \"#utility.yul\":1693:1696   */\n      dup3\n        /* \"#utility.yul\":1686:1723   */\n      mstore\n        /* \"#utility.yul\":1611:1729   */\n      pop\n      pop\n      jump\t// out\n        /* \"#utility.yul\":1735:1957   */\n    tag_35:\n        /* \"#utility.yul\":1828:1832   */\n      0x00\n        /* \"#utility.yul\":1866:1868   */\n      0x20\n        /* \"#utility.yul\":1855:1864   */\n      dup3\n        /* \"#utility.yul\":1851:1869   */\n      add\n        /* \"#utility.yul\":1843:1869   */\n      swap1\n      pop\n        /* \"#utility.yul\":1879:1950   */\n      tag_159\n        /* \"#utility.yul\":1947:1948   */\n      0x00\n        /* \"#utility.yul\":1936:1945   */\n      dup4\n        /* \"#utility.yul\":1932:1949   */\n      add\n        /* \"#utility.yul\":1923:1929   */\n      dup5\n        /* \"#utility.yul\":1879:1950   */\n      tag_113\n      jump\t// in\n    tag_159:\n        /* \"#utility.yul\":1735:1957   */\n      swap3\n      swap2\n      pop\n      pop\n      jump\t// out\n        /* \"#utility.yul\":1963:2085   */\n    tag_114:\n        /* \"#utility.yul\":2036:2060   */\n      tag_161\n        /* \"#utility.yul\":2054:2059   */\n      dup2\n        /* \"#utility.yul\":2036:2060   */\n      tag_104\n      jump\t// in\n    tag_161:\n        /* \"#utility.yul\":2029:2034   */\n      dup2\n        /* \"#utility.yul\":2026:2061   */\n      eq\n        /* \"#utility.yul\":2016:2079   */\n      tag_162\n      jumpi\n        /* \"#utility.yul\":2075:2076   */\n      0x00\n        /* \"#utility.yul\":2072:2073   */\n      dup1\n        /* \"#utility.yul\":2065:2077   */\n      revert\n        /* \"#utility.yul\":2016:2079   */\n    tag_162:\n        /* \"#utility.yul\":1963:2085   */\n      pop\n      jump\t// out\n        /* \"#utility.yul\":2091:2230   */\n    tag_115:\n        /* \"#utility.yul\":2137:2142   */\n      0x00\n        /* \"#utility.yul\":2175:2181   */\n      dup2\n        /* \"#utility.yul\":2162:2182   */\n      calldataload\n        /* \"#utility.yul\":2153:2182   */\n      swap1\n      pop\n        /* \"#utility.yul\":2191:2224   */\n      tag_164\n        /* \"#utility.yul\":2218:2223   */\n      dup2\n        /* \"#utility.yul\":2191:2224   */\n      tag_114\n      jump\t// in\n    tag_164:\n        /* \"#utility.yul\":2091:2230   */\n      swap3\n      swap2\n      pop\n      pop\n      jump\t// out\n        /* \"#utility.yul\":2236:2565   */\n    tag_39:\n        /* \"#utility.yul\":2295:2301   */\n      0x00\n        /* \"#utility.yul\":2344:2346   */\n      0x20\n        /* \"#utility.yul\":2332:2341   */\n      dup3\n        /* \"#utility.yul\":2323:2330   */\n      dup5\n        /* \"#utility.yul\":2319:2342   */\n      sub\n        /* \"#utility.yul\":2315:2347   */\n      slt\n        /* \"#utility.yul\":2312:2431   */\n      iszero\n      tag_166\n      jumpi\n        /* \"#utility.yul\":2350:2429   */\n      tag_167\n      tag_107\n      jump\t// in\n    tag_167:\n        /* \"#utility.yul\":2312:2431   */\n    tag_166:\n        /* \"#utility.yul\":2470:2471   */\n      0x00\n        /* \"#utility.yul\":2495:2548   */\n      tag_168\n        /* \"#utility.yul\":2540:2547   */\n      dup5\n        /* \"#utility.yul\":2531:2537   */\n      dup3\n        /* \"#utility.yul\":2520:2529   */\n      dup6\n        /* \"#utility.yul\":2516:2538   */\n      add\n        /* \"#utility.yul\":2495:2548   */\n      tag_115\n      jump\t// in\n    tag_168:\n        /* \"#utility.yul\":2485:2548   */\n      swap2\n      pop\n        /* \"#utility.yul\":2441:2558   */\n      pop\n        /* \"#utility.yul\":2236:2565   */\n      swap3\n      swap2\n      pop\n      pop\n      jump\t// out\n        /* \"#utility.yul\":2571:2740   */\n    tag_116:\n        /* \"#utility.yul\":2655:2666   */\n      0x00\n        /* \"#utility.yul\":2689:2695   */\n      dup3\n        /* \"#utility.yul\":2684:2687   */\n      dup3\n        /* \"#utility.yul\":2677:2696   */\n      mstore\n        /* \"#utility.yul\":2729:2733   */\n      0x20\n        /* \"#utility.yul\":2724:2727   */\n      dup3\n        /* \"#utility.yul\":2720:2734   */\n      add\n        /* \"#utility.yul\":2705:2734   */\n      swap1\n      pop\n        /* \"#utility.yul\":2571:2740   */\n      swap3\n      swap2\n      pop\n      pop\n      jump\t// out\n        /* \"#utility.yul\":2746:2980   */\n    tag_117:\n        /* \"#utility.yul\":2886:2920   */\n      0x57687920736f204b616e6a7573212053656e642074686520656e746972652061\n        /* \"#utility.yul\":2882:2883   */\n      0x00\n        /* \"#utility.yul\":2874:2880   */\n      dup3\n        /* \"#utility.yul\":2870:2884   */\n      add\n        /* \"#utility.yul\":2863:2921   */\n      mstore\n        /* \"#utility.yul\":2955:2972   */\n      0x6d6f756e74207370656369666965640000000000000000000000000000000000\n        /* \"#utility.yul\":2950:2952   */\n      0x20\n        /* \"#utility.yul\":2942:2948   */\n      dup3\n        /* \"#utility.yul\":2938:2953   */\n      add\n        /* \"#utility.yul\":2931:2973   */\n      mstore\n        /* \"#utility.yul\":2746:2980   */\n      pop\n      jump\t// out\n        /* \"#utility.yul\":2986:3352   */\n    tag_118:\n        /* \"#utility.yul\":3128:3131   */\n      0x00\n        /* \"#utility.yul\":3149:3216   */\n      tag_172\n        /* \"#utility.yul\":3213:3215   */\n      0x2f\n        /* \"#utility.yul\":3208:3211   */\n      dup4\n        /* \"#utility.yul\":3149:3216   */\n      tag_116\n      jump\t// in\n    tag_172:\n        /* \"#utility.yul\":3142:3216   */\n      swap2\n      pop\n        /* \"#utility.yul\":3225:3318   */\n      tag_173\n        /* \"#utility.yul\":3314:3317   */\n      dup3\n        /* \"#utility.yul\":3225:3318   */\n      tag_117\n      jump\t// in\n    tag_173:\n        /* \"#utility.yul\":3343:3345   */\n      0x40\n        /* \"#utility.yul\":3338:3341   */\n      dup3\n        /* \"#utility.yul\":3334:3346   */\n      add\n        /* \"#utility.yul\":3327:3346   */\n      swap1\n      pop\n        /* \"#utility.yul\":2986:3352   */\n      swap2\n      swap1\n      pop\n      jump\t// out\n        /* \"#utility.yul\":3358:3777   */\n    tag_47:\n        /* \"#utility.yul\":3524:3528   */\n      0x00\n        /* \"#utility.yul\":3562:3564   */\n      0x20\n        /* \"#utility.yul\":3551:3560   */\n      dup3\n        /* \"#utility.yul\":3547:3565   */\n      add\n        /* \"#utility.yul\":3539:3565   */\n      swap1\n      pop\n        /* \"#utility.yul\":3611:3620   */\n      dup2\n        /* \"#utility.yul\":3605:3609   */\n      dup2\n        /* \"#utility.yul\":3601:3621   */\n      sub\n        /* \"#utility.yul\":3597:3598   */\n      0x00\n        /* \"#utility.yul\":3586:3595   */\n      dup4\n        /* \"#utility.yul\":3582:3599   */\n      add\n        /* \"#utility.yul\":3575:3622   */\n      mstore\n        /* \"#utility.yul\":3639:3770   */\n      tag_175\n        /* \"#utility.yul\":3765:3769   */\n      dup2\n        /* \"#utility.yul\":3639:3770   */\n      tag_118\n      jump\t// in\n    tag_175:\n        /* \"#utility.yul\":3631:3770   */\n      swap1\n      pop\n        /* \"#utility.yul\":3358:3777   */\n      swap2\n      swap1\n      pop\n      jump\t// out\n        /* \"#utility.yul\":3783:3963   */\n    tag_119:\n        /* \"#utility.yul\":3831:3908   */\n      0x4e487b7100000000000000000000000000000000000000000000000000000000\n        /* \"#utility.yul\":3828:3829   */\n      0x00\n        /* \"#utility.yul\":3821:3909   */\n      mstore\n        /* \"#utility.yul\":3928:3932   */\n      0x11\n        /* \"#utility.yul\":3925:3926   */\n      0x04\n        /* \"#utility.yul\":3918:3933   */\n      mstore\n        /* \"#utility.yul\":3952:3956   */\n      0x24\n        /* \"#utility.yul\":3949:3950   */\n      0x00\n        /* \"#utility.yul\":3942:3957   */\n      revert\n        /* \"#utility.yul\":3969:4160   */\n    tag_50:\n        /* \"#utility.yul\":4009:4012   */\n      0x00\n        /* \"#utility.yul\":4028:4048   */\n      tag_178\n        /* \"#utility.yul\":4046:4047   */\n      dup3\n        /* \"#utility.yul\":4028:4048   */\n      tag_104\n      jump\t// in\n    tag_178:\n        /* \"#utility.yul\":4023:4048   */\n      swap2\n      pop\n        /* \"#utility.yul\":4062:4082   */\n      tag_179\n        /* \"#utility.yul\":4080:4081   */\n      dup4\n        /* \"#utility.yul\":4062:4082   */\n      tag_104\n      jump\t// in\n    tag_179:\n        /* \"#utility.yul\":4057:4082   */\n      swap3\n      pop\n        /* \"#utility.yul\":4105:4106   */\n      dup3\n        /* \"#utility.yul\":4102:4103   */\n      dup3\n        /* \"#utility.yul\":4098:4107   */\n      add\n        /* \"#utility.yul\":4091:4107   */\n      swap1\n      pop\n        /* \"#utility.yul\":4126:4129   */\n      dup1\n        /* \"#utility.yul\":4123:4124   */\n      dup3\n        /* \"#utility.yul\":4120:4130   */\n      gt\n        /* \"#utility.yul\":4117:4153   */\n      iszero\n      tag_180\n      jumpi\n        /* \"#utility.yul\":4133:4151   */\n      tag_181\n      tag_119\n      jump\t// in\n    tag_181:\n        /* \"#utility.yul\":4117:4153   */\n    tag_180:\n        /* \"#utility.yul\":3969:4160   */\n      swap3\n      swap2\n      pop\n      pop\n      jump\t// out\n        /* \"#utility.yul\":4166:4346   */\n    tag_59:\n        /* \"#utility.yul\":4214:4291   */\n      0x4e487b7100000000000000000000000000000000000000000000000000000000\n        /* \"#utility.yul\":4211:4212   */\n      0x00\n        /* \"#utility.yul\":4204:4292   */\n      mstore\n        /* \"#utility.yul\":4311:4315   */\n      0x32\n        /* \"#utility.yul\":4308:4309   */\n      0x04\n        /* \"#utility.yul\":4301:4316   */\n      mstore\n        /* \"#utility.yul\":4335:4339   */\n      0x24\n        /* \"#utility.yul\":4332:4333   */\n      0x00\n        /* \"#utility.yul\":4325:4340   */\n      revert\n        /* \"#utility.yul\":4352:4532   */\n    tag_63:\n        /* \"#utility.yul\":4400:4477   */\n      0x4e487b7100000000000000000000000000000000000000000000000000000000\n        /* \"#utility.yul\":4397:4398   */\n      0x00\n        /* \"#utility.yul\":4390:4478   */\n      mstore\n        /* \"#utility.yul\":4497:4501   */\n      0x41\n        /* \"#utility.yul\":4494:4495   */\n      0x04\n        /* \"#utility.yul\":4487:4502   */\n      mstore\n        /* \"#utility.yul\":4521:4525   */\n      0x24\n        /* \"#utility.yul\":4518:4519   */\n      0x00\n        /* \"#utility.yul\":4511:4526   */\n      revert\n        /* \"#utility.yul\":4538:4699   */\n    tag_120:\n        /* \"#utility.yul\":4678:4691   */\n      0x53656e64206661696c6564000000000000000000000000000000000000000000\n        /* \"#utility.yul\":4674:4675   */\n      0x00\n        /* \"#utility.yul\":4666:4672   */\n      dup3\n        /* \"#utility.yul\":4662:4676   */\n      add\n        /* \"#utility.yul\":4655:4692   */\n      mstore\n        /* \"#utility.yul\":4538:4699   */\n      pop\n      jump\t// out\n        /* \"#utility.yul\":4705:5071   */\n    tag_121:\n        /* \"#utility.yul\":4847:4850   */\n      0x00\n        /* \"#utility.yul\":4868:4935   */\n      tag_186\n        /* \"#utility.yul\":4932:4934   */\n      0x0b\n        /* \"#utility.yul\":4927:4930   */\n      dup4\n        /* \"#utility.yul\":4868:4935   */\n      tag_116\n      jump\t// in\n    tag_186:\n        /* \"#utility.yul\":4861:4935   */\n      swap2\n      pop\n        /* \"#utility.yul\":4944:5037   */\n      tag_187\n        /* \"#utility.yul\":5033:5036   */\n      dup3\n        /* \"#utility.yul\":4944:5037   */\n      tag_120\n      jump\t// in\n    tag_187:\n        /* \"#utility.yul\":5062:5064   */\n      0x20\n        /* \"#utility.yul\":5057:5060   */\n      dup3\n        /* \"#utility.yul\":5053:5065   */\n      add\n        /* \"#utility.yul\":5046:5065   */\n      swap1\n      pop\n        /* \"#utility.yul\":4705:5071   */\n      swap2\n      swap1\n      pop\n      jump\t// out\n        /* \"#utility.yul\":5077:5496   */\n    tag_72:\n        /* \"#utility.yul\":5243:5247   */\n      0x00\n        /* \"#utility.yul\":5281:5283   */\n      0x20\n        /* \"#utility.yul\":5270:5279   */\n      dup3\n        /* \"#utility.yul\":5266:5284   */\n      add\n        /* \"#utility.yul\":5258:5284   */\n      swap1\n      pop\n        /* \"#utility.yul\":5330:5339   */\n      dup2\n        /* \"#utility.yul\":5324:5328   */\n      dup2\n        /* \"#utility.yul\":5320:5340   */\n      sub\n        /* \"#utility.yul\":5316:5317   */\n      0x00\n        /* \"#utility.yul\":5305:5314   */\n      dup4\n        /* \"#utility.yul\":5301:5318   */\n      add\n        /* \"#utility.yul\":5294:5341   */\n      mstore\n        /* \"#utility.yul\":5358:5489   */\n      tag_189\n        /* \"#utility.yul\":5484:5488   */\n      dup2\n        /* \"#utility.yul\":5358:5489   */\n      tag_121\n      jump\t// in\n    tag_189:\n        /* \"#utility.yul\":5350:5489   */\n      swap1\n      pop\n        /* \"#utility.yul\":5077:5496   */\n      swap2\n      swap1\n      pop\n      jump\t// out\n        /* \"#utility.yul\":5502:5649   */\n    tag_122:\n        /* \"#utility.yul\":5603:5614   */\n      0x00\n        /* \"#utility.yul\":5640:5643   */\n      dup2\n        /* \"#utility.yul\":5625:5643   */\n      swap1\n      pop\n        /* \"#utility.yul\":5502:5649   */\n      swap3\n      swap2\n      pop\n      pop\n      jump\t// out\n        /* \"#utility.yul\":5655:5769   */\n    tag_123:\n      pop\n      jump\t// out\n        /* \"#utility.yul\":5775:6173   */\n    tag_124:\n        /* \"#utility.yul\":5934:5937   */\n      0x00\n        /* \"#utility.yul\":5955:6038   */\n      tag_193\n        /* \"#utility.yul\":6036:6037   */\n      0x00\n        /* \"#utility.yul\":6031:6034   */\n      dup4\n        /* \"#utility.yul\":5955:6038   */\n      tag_122\n      jump\t// in\n    tag_193:\n        /* \"#utility.yul\":5948:6038   */\n      swap2\n      pop\n        /* \"#utility.yul\":6047:6140   */\n      tag_194\n        /* \"#utility.yul\":6136:6139   */\n      dup3\n        /* \"#utility.yul\":6047:6140   */\n      tag_123\n      jump\t// in\n    tag_194:\n        /* \"#utility.yul\":6165:6166   */\n      0x00\n        /* \"#utility.yul\":6160:6163   */\n      dup3\n        /* \"#utility.yul\":6156:6167   */\n      add\n        /* \"#utility.yul\":6149:6167   */\n      swap1\n      pop\n        /* \"#utility.yul\":5775:6173   */\n      swap2\n      swap1\n      pop\n      jump\t// out\n        /* \"#utility.yul\":6179:6558   */\n    tag_74:\n        /* \"#utility.yul\":6363:6366   */\n      0x00\n        /* \"#utility.yul\":6385:6532   */\n      tag_196\n        /* \"#utility.yul\":6528:6531   */\n      dup3\n        /* \"#utility.yul\":6385:6532   */\n      tag_124\n      jump\t// in\n    tag_196:\n        /* \"#utility.yul\":6378:6532   */\n      swap2\n      pop\n        /* \"#utility.yul\":6549:6552   */\n      dup2\n        /* \"#utility.yul\":6542:6552   */\n      swap1\n      pop\n        /* \"#utility.yul\":6179:6558   */\n      swap2\n      swap1\n      pop\n      jump\t// out\n        /* \"#utility.yul\":6564:6725   */\n    tag_125:\n        /* \"#utility.yul\":6704:6717   */\n      0x43616c6c206661696c6564000000000000000000000000000000000000000000\n        /* \"#utility.yul\":6700:6701   */\n      0x00\n        /* \"#utility.yul\":6692:6698   */\n      dup3\n        /* \"#utility.yul\":6688:6702   */\n      add\n        /* \"#utility.yul\":6681:6718   */\n      mstore\n        /* \"#utility.yul\":6564:6725   */\n      pop\n      jump\t// out\n        /* \"#utility.yul\":6731:7097   */\n    tag_126:\n        /* \"#utility.yul\":6873:6876   */\n      0x00\n        /* \"#utility.yul\":6894:6961   */\n      tag_199\n        /* \"#utility.yul\":6958:6960   */\n      0x0b\n        /* \"#utility.yul\":6953:6956   */\n      dup4\n        /* \"#utility.yul\":6894:6961   */\n      tag_116\n      jump\t// in\n    tag_199:\n        /* \"#utility.yul\":6887:6961   */\n      swap2\n      pop\n        /* \"#utility.yul\":6970:7063   */\n      tag_200\n        /* \"#utility.yul\":7059:7062   */\n      dup3\n        /* \"#utility.yul\":6970:7063   */\n      tag_125\n      jump\t// in\n    tag_200:\n        /* \"#utility.yul\":7088:7090   */\n      0x20\n        /* \"#utility.yul\":7083:7086   */\n      dup3\n        /* \"#utility.yul\":7079:7091   */\n      add\n        /* \"#utility.yul\":7072:7091   */\n      swap1\n      pop\n        /* \"#utility.yul\":6731:7097   */\n      swap2\n      swap1\n      pop\n      jump\t// out\n        /* \"#utility.yul\":7103:7522   */\n    tag_80:\n        /* \"#utility.yul\":7269:7273   */\n      0x00\n        /* \"#utility.yul\":7307:7309   */\n      0x20\n        /* \"#utility.yul\":7296:7305   */\n      dup3\n        /* \"#utility.yul\":7292:7310   */\n      add\n        /* \"#utility.yul\":7284:7310   */\n      swap1\n      pop\n        /* \"#utility.yul\":7356:7365   */\n      dup2\n        /* \"#utility.yul\":7350:7354   */\n      dup2\n        /* \"#utility.yul\":7346:7366   */\n      sub\n        /* \"#utility.yul\":7342:7343   */\n      0x00\n        /* \"#utility.yul\":7331:7340   */\n      dup4\n        /* \"#utility.yul\":7327:7344   */\n      add\n        /* \"#utility.yul\":7320:7367   */\n      mstore\n        /* \"#utility.yul\":7384:7515   */\n      tag_202\n        /* \"#utility.yul\":7510:7514   */\n      dup2\n        /* \"#utility.yul\":7384:7515   */\n      tag_126\n      jump\t// in\n    tag_202:\n        /* \"#utility.yul\":7376:7515   */\n      swap1\n      pop\n        /* \"#utility.yul\":7103:7522   */\n      swap2\n      swap1\n      pop\n      jump\t// out\n        /* \"#utility.yul\":7528:7938   */\n    tag_87:\n        /* \"#utility.yul\":7568:7575   */\n      0x00\n        /* \"#utility.yul\":7591:7611   */\n      tag_204\n        /* \"#utility.yul\":7609:7610   */\n      dup3\n        /* \"#utility.yul\":7591:7611   */\n      tag_104\n      jump\t// in\n    tag_204:\n        /* \"#utility.yul\":7586:7611   */\n      swap2\n      pop\n        /* \"#utility.yul\":7625:7645   */\n      tag_205\n        /* \"#utility.yul\":7643:7644   */\n      dup4\n        /* \"#utility.yul\":7625:7645   */\n      tag_104\n      jump\t// in\n    tag_205:\n        /* \"#utility.yul\":7620:7645   */\n      swap3\n      pop\n        /* \"#utility.yul\":7680:7681   */\n      dup3\n        /* \"#utility.yul\":7677:7678   */\n      dup3\n        /* \"#utility.yul\":7673:7682   */\n      mul\n        /* \"#utility.yul\":7702:7732   */\n      tag_206\n        /* \"#utility.yul\":7720:7731   */\n      dup2\n        /* \"#utility.yul\":7702:7732   */\n      tag_104\n      jump\t// in\n    tag_206:\n        /* \"#utility.yul\":7691:7732   */\n      swap2\n      pop\n        /* \"#utility.yul\":7881:7882   */\n      dup3\n        /* \"#utility.yul\":7872:7879   */\n      dup3\n        /* \"#utility.yul\":7868:7883   */\n      div\n        /* \"#utility.yul\":7865:7866   */\n      dup5\n        /* \"#utility.yul\":7862:7884   */\n      eq\n        /* \"#utility.yul\":7842:7843   */\n      dup4\n        /* \"#utility.yul\":7835:7844   */\n      iszero\n        /* \"#utility.yul\":7815:7898   */\n      or\n        /* \"#utility.yul\":7792:7931   */\n      tag_207\n      jumpi\n        /* \"#utility.yul\":7911:7929   */\n      tag_208\n      tag_119\n      jump\t// in\n    tag_208:\n        /* \"#utility.yul\":7792:7931   */\n    tag_207:\n        /* \"#utility.yul\":7576:7938   */\n      pop\n        /* \"#utility.yul\":7528:7938   */\n      swap3\n      swap2\n      pop\n      pop\n      jump\t// out\n        /* \"#utility.yul\":7944:8124   */\n    tag_127:\n        /* \"#utility.yul\":7992:8069   */\n      0x4e487b7100000000000000000000000000000000000000000000000000000000\n        /* \"#utility.yul\":7989:7990   */\n      0x00\n        /* \"#utility.yul\":7982:8070   */\n      mstore\n        /* \"#utility.yul\":8089:8093   */\n      0x12\n        /* \"#utility.yul\":8086:8087   */\n      0x04\n        /* \"#utility.yul\":8079:8094   */\n      mstore\n        /* \"#utility.yul\":8113:8117   */\n      0x24\n        /* \"#utility.yul\":8110:8111   */\n      0x00\n        /* \"#utility.yul\":8103:8118   */\n      revert\n        /* \"#utility.yul\":8130:8315   */\n    tag_89:\n        /* \"#utility.yul\":8170:8171   */\n      0x00\n        /* \"#utility.yul\":8187:8207   */\n      tag_211\n        /* \"#utility.yul\":8205:8206   */\n      dup3\n        /* \"#utility.yul\":8187:8207   */\n      tag_104\n      jump\t// in\n    tag_211:\n        /* \"#utility.yul\":8182:8207   */\n      swap2\n      pop\n        /* \"#utility.yul\":8221:8241   */\n      tag_212\n        /* \"#utility.yul\":8239:8240   */\n      dup4\n        /* \"#utility.yul\":8221:8241   */\n      tag_104\n      jump\t// in\n    tag_212:\n        /* \"#utility.yul\":8216:8241   */\n      swap3\n      pop\n        /* \"#utility.yul\":8260:8261   */\n      dup3\n        /* \"#utility.yul\":8250:8285   */\n      tag_213\n      jumpi\n        /* \"#utility.yul\":8265:8283   */\n      tag_214\n      tag_127\n      jump\t// in\n    tag_214:\n        /* \"#utility.yul\":8250:8285   */\n    tag_213:\n        /* \"#utility.yul\":8307:8308   */\n      dup3\n        /* \"#utility.yul\":8304:8305   */\n      dup3\n        /* \"#utility.yul\":8300:8309   */\n      div\n        /* \"#utility.yul\":8295:8309   */\n      swap1\n      pop\n        /* \"#utility.yul\":8130:8315   */\n      swap3\n      swap2\n      pop\n      pop\n      jump\t// out\n        /* \"#utility.yul\":8321:8426   */\n    tag_128:\n        /* \"#utility.yul\":8357:8364   */\n      0x00\n        /* \"#utility.yul\":8397:8419   */\n      0xffffffffffffffffffff\n        /* \"#utility.yul\":8390:8395   */\n      dup3\n        /* \"#utility.yul\":8386:8420   */\n      and\n        /* \"#utility.yul\":8375:8420   */\n      swap1\n      pop\n        /* \"#utility.yul\":8321:8426   */\n      swap2\n      swap1\n      pop\n      jump\t// out\n        /* \"#utility.yul\":8432:8552   */\n    tag_129:\n        /* \"#utility.yul\":8504:8527   */\n      tag_217\n        /* \"#utility.yul\":8521:8526   */\n      dup2\n        /* \"#utility.yul\":8504:8527   */\n      tag_128\n      jump\t// in\n    tag_217:\n        /* \"#utility.yul\":8497:8502   */\n      dup2\n        /* \"#utility.yul\":8494:8528   */\n      eq\n        /* \"#utility.yul\":8484:8546   */\n      tag_218\n      jumpi\n        /* \"#utility.yul\":8542:8543   */\n      0x00\n        /* \"#utility.yul\":8539:8540   */\n      dup1\n        /* \"#utility.yul\":8532:8544   */\n      revert\n        /* \"#utility.yul\":8484:8546   */\n    tag_218:\n        /* \"#utility.yul\":8432:8552   */\n      pop\n      jump\t// out\n        /* \"#utility.yul\":8558:8699   */\n    tag_130:\n        /* \"#utility.yul\":8614:8619   */\n      0x00\n        /* \"#utility.yul\":8645:8651   */\n      dup2\n        /* \"#utility.yul\":8639:8652   */\n      mload\n        /* \"#utility.yul\":8630:8652   */\n      swap1\n      pop\n        /* \"#utility.yul\":8661:8693   */\n      tag_220\n        /* \"#utility.yul\":8687:8692   */\n      dup2\n        /* \"#utility.yul\":8661:8693   */\n      tag_129\n      jump\t// in\n    tag_220:\n        /* \"#utility.yul\":8558:8699   */\n      swap3\n      swap2\n      pop\n      pop\n      jump\t// out\n        /* \"#utility.yul\":8705:8781   */\n    tag_131:\n        /* \"#utility.yul\":8741:8748   */\n      0x00\n        /* \"#utility.yul\":8770:8775   */\n      dup2\n        /* \"#utility.yul\":8759:8775   */\n      swap1\n      pop\n        /* \"#utility.yul\":8705:8781   */\n      swap2\n      swap1\n      pop\n      jump\t// out\n        /* \"#utility.yul\":8787:8907   */\n    tag_132:\n        /* \"#utility.yul\":8859:8882   */\n      tag_223\n        /* \"#utility.yul\":8876:8881   */\n      dup2\n        /* \"#utility.yul\":8859:8882   */\n      tag_131\n      jump\t// in\n    tag_223:\n        /* \"#utility.yul\":8852:8857   */\n      dup2\n        /* \"#utility.yul\":8849:8883   */\n      eq\n        /* \"#utility.yul\":8839:8901   */\n      tag_224\n      jumpi\n        /* \"#utility.yul\":8897:8898   */\n      0x00\n        /* \"#utility.yul\":8894:8895   */\n      dup1\n        /* \"#utility.yul\":8887:8899   */\n      revert\n        /* \"#utility.yul\":8839:8901   */\n    tag_224:\n        /* \"#utility.yul\":8787:8907   */\n      pop\n      jump\t// out\n        /* \"#utility.yul\":8913:9054   */\n    tag_133:\n        /* \"#utility.yul\":8969:8974   */\n      0x00\n        /* \"#utility.yul\":9000:9006   */\n      dup2\n        /* \"#utility.yul\":8994:9007   */\n      mload\n        /* \"#utility.yul\":8985:9007   */\n      swap1\n      pop\n        /* \"#utility.yul\":9016:9048   */\n      tag_226\n        /* \"#utility.yul\":9042:9047   */\n      dup2\n        /* \"#utility.yul\":9016:9048   */\n      tag_132\n      jump\t// in\n    tag_226:\n        /* \"#utility.yul\":8913:9054   */\n      swap3\n      swap2\n      pop\n      pop\n      jump\t// out\n        /* \"#utility.yul\":9060:9203   */\n    tag_134:\n        /* \"#utility.yul\":9117:9122   */\n      0x00\n        /* \"#utility.yul\":9148:9154   */\n      dup2\n        /* \"#utility.yul\":9142:9155   */\n      mload\n        /* \"#utility.yul\":9133:9155   */\n      swap1\n      pop\n        /* \"#utility.yul\":9164:9197   */\n      tag_228\n        /* \"#utility.yul\":9191:9196   */\n      dup2\n        /* \"#utility.yul\":9164:9197   */\n      tag_114\n      jump\t// in\n    tag_228:\n        /* \"#utility.yul\":9060:9203   */\n      swap3\n      swap2\n      pop\n      pop\n      jump\t// out\n        /* \"#utility.yul\":9209:10180   */\n    tag_94:\n        /* \"#utility.yul\":9312:9318   */\n      0x00\n        /* \"#utility.yul\":9320:9326   */\n      dup1\n        /* \"#utility.yul\":9328:9334   */\n      0x00\n        /* \"#utility.yul\":9336:9342   */\n      dup1\n        /* \"#utility.yul\":9344:9350   */\n      0x00\n        /* \"#utility.yul\":9393:9396   */\n      0xa0\n        /* \"#utility.yul\":9381:9390   */\n      dup7\n        /* \"#utility.yul\":9372:9379   */\n      dup9\n        /* \"#utility.yul\":9368:9391   */\n      sub\n        /* \"#utility.yul\":9364:9397   */\n      slt\n        /* \"#utility.yul\":9361:9481   */\n      iszero\n      tag_230\n      jumpi\n        /* \"#utility.yul\":9400:9479   */\n      tag_231\n      tag_107\n      jump\t// in\n    tag_231:\n        /* \"#utility.yul\":9361:9481   */\n    tag_230:\n        /* \"#utility.yul\":9520:9521   */\n      0x00\n        /* \"#utility.yul\":9545:9608   */\n      tag_232\n        /* \"#utility.yul\":9600:9607   */\n      dup9\n        /* \"#utility.yul\":9591:9597   */\n      dup3\n        /* \"#utility.yul\":9580:9589   */\n      dup10\n        /* \"#utility.yul\":9576:9598   */\n      add\n        /* \"#utility.yul\":9545:9608   */\n      tag_130\n      jump\t// in\n    tag_232:\n        /* \"#utility.yul\":9535:9608   */\n      swap6\n      pop\n        /* \"#utility.yul\":9491:9618   */\n      pop\n        /* \"#utility.yul\":9657:9659   */\n      0x20\n        /* \"#utility.yul\":9683:9746   */\n      tag_233\n        /* \"#utility.yul\":9738:9745   */\n      dup9\n        /* \"#utility.yul\":9729:9735   */\n      dup3\n        /* \"#utility.yul\":9718:9727   */\n      dup10\n        /* \"#utility.yul\":9714:9736   */\n      add\n        /* \"#utility.yul\":9683:9746   */\n      tag_133\n      jump\t// in\n    tag_233:\n        /* \"#utility.yul\":9673:9746   */\n      swap5\n      pop\n        /* \"#utility.yul\":9628:9756   */\n      pop\n        /* \"#utility.yul\":9795:9797   */\n      0x40\n        /* \"#utility.yul\":9821:9885   */\n      tag_234\n        /* \"#utility.yul\":9877:9884   */\n      dup9\n        /* \"#utility.yul\":9868:9874   */\n      dup3\n        /* \"#utility.yul\":9857:9866   */\n      dup10\n        /* \"#utility.yul\":9853:9875   */\n      add\n        /* \"#utility.yul\":9821:9885   */\n      tag_134\n      jump\t// in\n    tag_234:\n        /* \"#utility.yul\":9811:9885   */\n      swap4\n      pop\n        /* \"#utility.yul\":9766:9895   */\n      pop\n        /* \"#utility.yul\":9934:9936   */\n      0x60\n        /* \"#utility.yul\":9960:10024   */\n      tag_235\n        /* \"#utility.yul\":10016:10023   */\n      dup9\n        /* \"#utility.yul\":10007:10013   */\n      dup3\n        /* \"#utility.yul\":9996:10005   */\n      dup10\n        /* \"#utility.yul\":9992:10014   */\n      add\n        /* \"#utility.yul\":9960:10024   */\n      tag_134\n      jump\t// in\n    tag_235:\n        /* \"#utility.yul\":9950:10024   */\n      swap3\n      pop\n        /* \"#utility.yul\":9905:10034   */\n      pop\n        /* \"#utility.yul\":10073:10076   */\n      0x80\n        /* \"#utility.yul\":10100:10163   */\n      tag_236\n        /* \"#utility.yul\":10155:10162   */\n      dup9\n        /* \"#utility.yul\":10146:10152   */\n      dup3\n        /* \"#utility.yul\":10135:10144   */\n      dup10\n        /* \"#utility.yul\":10131:10153   */\n      add\n        /* \"#utility.yul\":10100:10163   */\n      tag_130\n      jump\t// in\n    tag_236:\n        /* \"#utility.yul\":10090:10163   */\n      swap2\n      pop\n        /* \"#utility.yul\":10044:10173   */\n      pop\n        /* \"#utility.yul\":9209:10180   */\n      swap3\n      swap6\n      pop\n      swap3\n      swap6\n      swap1\n      swap4\n      pop\n      jump\t// out\n        /* \"#utility.yul\":10186:10742   */\n    tag_96:\n        /* \"#utility.yul\":10225:10232   */\n      0x00\n        /* \"#utility.yul\":10248:10267   */\n      tag_238\n        /* \"#utility.yul\":10265:10266   */\n      dup3\n        /* \"#utility.yul\":10248:10267   */\n      tag_131\n      jump\t// in\n    tag_238:\n        /* \"#utility.yul\":10243:10267   */\n      swap2\n      pop\n        /* \"#utility.yul\":10281:10300   */\n      tag_239\n        /* \"#utility.yul\":10298:10299   */\n      dup4\n        /* \"#utility.yul\":10281:10300   */\n      tag_131\n      jump\t// in\n    tag_239:\n        /* \"#utility.yul\":10276:10300   */\n      swap3\n      pop\n        /* \"#utility.yul\":10335:10336   */\n      dup3\n        /* \"#utility.yul\":10332:10333   */\n      dup3\n        /* \"#utility.yul\":10328:10337   */\n      mul\n        /* \"#utility.yul\":10357:10386   */\n      tag_240\n        /* \"#utility.yul\":10374:10385   */\n      dup2\n        /* \"#utility.yul\":10357:10386   */\n      tag_131\n      jump\t// in\n    tag_240:\n        /* \"#utility.yul\":10346:10386   */\n      swap2\n      pop\n        /* \"#utility.yul\":10444:10510   */\n      0x8000000000000000000000000000000000000000000000000000000000000000\n        /* \"#utility.yul\":10441:10442   */\n      dup5\n        /* \"#utility.yul\":10438:10511   */\n      eq\n        /* \"#utility.yul\":10434:10435   */\n      0x00\n        /* \"#utility.yul\":10431:10432   */\n      dup5\n        /* \"#utility.yul\":10427:10436   */\n      slt\n        /* \"#utility.yul\":10423:10512   */\n      and\n        /* \"#utility.yul\":10420:10535   */\n      iszero\n      tag_241\n      jumpi\n        /* \"#utility.yul\":10515:10533   */\n      tag_242\n      tag_119\n      jump\t// in\n    tag_242:\n        /* \"#utility.yul\":10420:10535   */\n    tag_241:\n        /* \"#utility.yul\":10685:10686   */\n      dup3\n        /* \"#utility.yul\":10676:10683   */\n      dup3\n        /* \"#utility.yul\":10671:10687   */\n      sdiv\n        /* \"#utility.yul\":10668:10669   */\n      dup5\n        /* \"#utility.yul\":10665:10688   */\n      eq\n        /* \"#utility.yul\":10645:10646   */\n      dup4\n        /* \"#utility.yul\":10638:10647   */\n      iszero\n        /* \"#utility.yul\":10618:10702   */\n      or\n        /* \"#utility.yul\":10595:10735   */\n      tag_243\n      jumpi\n        /* \"#utility.yul\":10715:10733   */\n      tag_244\n      tag_119\n      jump\t// in\n    tag_244:\n        /* \"#utility.yul\":10595:10735   */\n    tag_243:\n        /* \"#utility.yul\":10233:10742   */\n      pop\n        /* \"#utility.yul\":10186:10742   */\n      swap3\n      swap2\n      pop\n      pop\n      jump\t// out\n\n    auxdata: 0xa264697066735822122086a94edf09c95a0175c34983d88d31fe1a045c0ae79a1650431aacfc235344cd64736f6c634300081a0033\n}\n",
				"bytecode": {
					"linkReferences": {},
					"object": "60a0604052348015600e575f80fd5b503373ffffffffffffffffffffffffffffffffffffffff1660808173ffffffffffffffffffffffffffffffffffffffff1681525050608051610d2f6100625f395f8181610271015261056d0152610d2f5ff3fe608060405260043610610058575f3560e01c8063213dbea2146100715780633ccfd60b1461009b5780633e47d6f3146100b1578063b60d4288146100ed578063dba6335f146100f7578063dc0d3dff1461012157610067565b366100675761006561015d565b005b61006f61015d565b005b34801561007c575f80fd5b50610085610263565b6040516100929190610760565b60405180910390f35b3480156100a6575f80fd5b506100af61026f565b005b3480156100bc575f80fd5b506100d760048036038101906100d291906107d7565b610556565b6040516100e49190610760565b60405180910390f35b6100f561015d565b005b348015610102575f80fd5b5061010b61056b565b6040516101189190610811565b60405180910390f35b34801561012c575f80fd5b5061014760048036038101906101429190610854565b61058f565b6040516101549190610811565b60405180910390f35b676124fee993bc000061016f346105c9565b116101af576040517f08c379a00000000000000000000000000000000000000000000000000000000081526004016101a6906108ff565b60405180910390fd5b5f33908060018154018082558091505060019003905f5260205f20015f9091909190916101000a81548173ffffffffffffffffffffffffffffffffffffffff021916908373ffffffffffffffffffffffffffffffffffffffff1602179055503460015f3373ffffffffffffffffffffffffffffffffffffffff1673ffffffffffffffffffffffffffffffffffffffff1681526020019081526020015f205f82825461025a919061094a565b92505081905550565b676124fee993bc000081565b7f000000000000000000000000000000000000000000000000000000000000000073ffffffffffffffffffffffffffffffffffffffff163373ffffffffffffffffffffffffffffffffffffffff16146102f4576040517f30cd747100000000000000000000000000000000000000000000000000000000815260040160405180910390fd5b5f5b5f80549050811015610390575f8082815481106103165761031561097d565b5b905f5260205f20015f9054906101000a900473ffffffffffffffffffffffffffffffffffffffff1690505f60015f8373ffffffffffffffffffffffffffffffffffffffff1673ffffffffffffffffffffffffffffffffffffffff1681526020019081526020015f20819055505080806001019150506102f6565b505f67ffffffffffffffff8111156103ab576103aa6109aa565b5b6040519080825280602002602001820160405280156103d95781602001602082028036833780820191505090505b505f90805190602001906103ee9291906106a6565b503373ffffffffffffffffffffffffffffffffffffffff166108fc4790811502906040515f60405180830381858888f19350505050158015610432573d5f803e3d5ffd5b505f3373ffffffffffffffffffffffffffffffffffffffff166108fc4790811502906040515f60405180830381858888f193505050509050806104aa576040517f08c379a00000000000000000000000000000000000000000000000000000000081526004016104a190610a21565b60405180910390fd5b5f3373ffffffffffffffffffffffffffffffffffffffff16476040516104cf90610a6c565b5f6040518083038185875af1925050503d805f8114610509576040519150601f19603f3d011682016040523d82523d5f602084013e61050e565b606091505b5050905080610552576040517f08c379a000000000000000000000000000000000000000000000000000000000815260040161054990610aca565b60405180910390fd5b5050565b6001602052805f5260405f205f915090505481565b7f000000000000000000000000000000000000000000000000000000000000000081565b5f818154811061059d575f80fd5b905f5260205f20015f915054906101000a900473ffffffffffffffffffffffffffffffffffffffff1681565b5f806105d3610601565b90505f670de0b6b3a764000084836105eb9190610ae8565b6105f59190610b56565b90508092505050919050565b5f8073694aa1769357215de4fac081bf1f309adc32530690505f8173ffffffffffffffffffffffffffffffffffffffff1663feaf968c6040518163ffffffff1660e01b815260040160a060405180830381865afa158015610664573d5f803e3d5ffd5b505050506040513d601f19601f820116820180604052508101906106889190610c0c565b5050509150506402540be4008161069f9190610c83565b9250505090565b828054828255905f5260205f2090810192821561071c579160200282015b8281111561071b578251825f6101000a81548173ffffffffffffffffffffffffffffffffffffffff021916908373ffffffffffffffffffffffffffffffffffffffff160217905550916020019190600101906106c4565b5b509050610729919061072d565b5090565b5b80821115610744575f815f90555060010161072e565b5090565b5f819050919050565b61075a81610748565b82525050565b5f6020820190506107735f830184610751565b92915050565b5f80fd5b5f73ffffffffffffffffffffffffffffffffffffffff82169050919050565b5f6107a68261077d565b9050919050565b6107b68161079c565b81146107c0575f80fd5b50565b5f813590506107d1816107ad565b92915050565b5f602082840312156107ec576107eb610779565b5b5f6107f9848285016107c3565b91505092915050565b61080b8161079c565b82525050565b5f6020820190506108245f830184610802565b92915050565b61083381610748565b811461083d575f80fd5b50565b5f8135905061084e8161082a565b92915050565b5f6020828403121561086957610868610779565b5b5f61087684828501610840565b91505092915050565b5f82825260208201905092915050565b7f57687920736f204b616e6a7573212053656e642074686520656e7469726520615f8201527f6d6f756e74207370656369666965640000000000000000000000000000000000602082015250565b5f6108e9602f8361087f565b91506108f48261088f565b604082019050919050565b5f6020820190508181035f830152610916816108dd565b9050919050565b7f4e487b71000000000000000000000000000000000000000000000000000000005f52601160045260245ffd5b5f61095482610748565b915061095f83610748565b92508282019050808211156109775761097661091d565b5b92915050565b7f4e487b71000000000000000000000000000000000000000000000000000000005f52603260045260245ffd5b7f4e487b71000000000000000000000000000000000000000000000000000000005f52604160045260245ffd5b7f53656e64206661696c65640000000000000000000000000000000000000000005f82015250565b5f610a0b600b8361087f565b9150610a16826109d7565b602082019050919050565b5f6020820190508181035f830152610a38816109ff565b9050919050565b5f81905092915050565b50565b5f610a575f83610a3f565b9150610a6282610a49565b5f82019050919050565b5f610a7682610a4c565b9150819050919050565b7f43616c6c206661696c65640000000000000000000000000000000000000000005f82015250565b5f610ab4600b8361087f565b9150610abf82610a80565b602082019050919050565b5f6020820190508181035f830152610ae181610aa8565b9050919050565b5f610af282610748565b9150610afd83610748565b9250828202610b0b81610748565b91508282048414831517610b2257610b2161091d565b5b5092915050565b7f4e487b71000000000000000000000000000000000000000000000000000000005f52601260045260245ffd5b5f610b6082610748565b9150610b6b83610748565b925082610b7b57610b7a610b29565b5b828204905092915050565b5f69ffffffffffffffffffff82169050919050565b610ba481610b86565b8114610bae575f80fd5b50565b5f81519050610bbf81610b9b565b92915050565b5f819050919050565b610bd781610bc5565b8114610be1575f80fd5b50565b5f81519050610bf281610bce565b92915050565b5f81519050610c068161082a565b92915050565b5f805f805f60a08688031215610c2557610c24610779565b5b5f610c3288828901610bb1565b9550506020610c4388828901610be4565b9450506040610c5488828901610bf8565b9350506060610c6588828901610bf8565b9250506080610c7688828901610bb1565b9150509295509295909350565b5f610c8d82610bc5565b9150610c9883610bc5565b9250828202610ca681610bc5565b91507f800000000000000000000000000000000000000000000000000000000000000084145f84121615610cdd57610cdc61091d565b5b8282058414831517610cf257610cf161091d565b5b509291505056fea264697066735822122086a94edf09c95a0175c34983d88d31fe1a045c0ae79a1650431aacfc235344cd64736f6c634300081a0033",
					"opcodes": "PUSH1 0xA0 PUSH1 0x40 MSTORE CALLVALUE DUP1 ISZERO PUSH1 0xE JUMPI PUSH0 DUP1 REVERT JUMPDEST POP CALLER PUSH20 0xFFFFFFFFFFFFFFFFFFFFFFFFFFFFFFFFFFFFFFFF AND PUSH1 0x80 DUP2 PUSH20 0xFFFFFFFFFFFFFFFFFFFFFFFFFFFFFFFFFFFFFFFF AND DUP2 MSTORE POP POP PUSH1 0x80 MLOAD PUSH2 0xD2F PUSH2 0x62 PUSH0 CODECOPY PUSH0 DUP2 DUP2 PUSH2 0x271 ADD MSTORE PUSH2 0x56D ADD MSTORE PUSH2 0xD2F PUSH0 RETURN INVALID PUSH1 0x80 PUSH1 0x40 MSTORE PUSH1 0x4 CALLDATASIZE LT PUSH2 0x58 JUMPI PUSH0 CALLDATALOAD PUSH1 0xE0 SHR DUP1 PUSH4 0x213DBEA2 EQ PUSH2 0x71 JUMPI DUP1 PUSH4 0x3CCFD60B EQ PUSH2 0x9B JUMPI DUP1 PUSH4 0x3E47D6F3 EQ PUSH2 0xB1 JUMPI DUP1 PUSH4 0xB60D4288 EQ PUSH2 0xED JUMPI DUP1 PUSH4 0xDBA6335F EQ PUSH2 0xF7 JUMPI DUP1 PUSH4 0xDC0D3DFF EQ PUSH2 0x121 JUMPI PUSH2 0x67 JUMP JUMPDEST CALLDATASIZE PUSH2 0x67 JUMPI PUSH2 0x65 PUSH2 0x15D JUMP JUMPDEST STOP JUMPDEST PUSH2 0x6F PUSH2 0x15D JUMP JUMPDEST STOP JUMPDEST CALLVALUE DUP1 ISZERO PUSH2 0x7C JUMPI PUSH0 DUP1 REVERT JUMPDEST POP PUSH2 0x85 PUSH2 0x263 JUMP JUMPDEST PUSH1 0x40 MLOAD PUSH2 0x92 SWAP2 SWAP1 PUSH2 0x760 JUMP JUMPDEST PUSH1 0x40 MLOAD DUP1 SWAP2 SUB SWAP1 RETURN JUMPDEST CALLVALUE DUP1 ISZERO PUSH2 0xA6 JUMPI PUSH0 DUP1 REVERT JUMPDEST POP PUSH2 0xAF PUSH2 0x26F JUMP JUMPDEST STOP JUMPDEST CALLVALUE DUP1 ISZERO PUSH2 0xBC JUMPI PUSH0 DUP1 REVERT JUMPDEST POP PUSH2 0xD7 PUSH1 0x4 DUP1 CALLDATASIZE SUB DUP2 ADD SWAP1 PUSH2 0xD2 SWAP2 SWAP1 PUSH2 0x7D7 JUMP JUMPDEST PUSH2 0x556 JUMP JUMPDEST PUSH1 0x40 MLOAD PUSH2 0xE4 SWAP2 SWAP1 PUSH2 0x760 JUMP JUMPDEST PUSH1 0x40 MLOAD DUP1 SWAP2 SUB SWAP1 RETURN JUMPDEST PUSH2 0xF5 PUSH2 0x15D JUMP JUMPDEST STOP JUMPDEST CALLVALUE DUP1 ISZERO PUSH2 0x102 JUMPI PUSH0 DUP1 REVERT JUMPDEST POP PUSH2 0x10B PUSH2 0x56B JUMP JUMPDEST PUSH1 0x40 MLOAD PUSH2 0x118 SWAP2 SWAP1 PUSH2 0x811 JUMP JUMPDEST PUSH1 0x40 MLOAD DUP1 SWAP2 SUB SWAP1 RETURN JUMPDEST CALLVALUE DUP1 ISZERO PUSH2 0x12C JUMPI PUSH0 DUP1 REVERT JUMPDEST POP PUSH2 0x147 PUSH1 0x4 DUP1 CALLDATASIZE SUB DUP2 ADD SWAP1 PUSH2 0x142 SWAP2 SWAP1 PUSH2 0x854 JUMP JUMPDEST PUSH2 0x58F JUMP JUMPDEST PUSH1 0x40 MLOAD PUSH2 0x154 SWAP2 SWAP1 PUSH2 0x811 JUMP JUMPDEST PUSH1 0x40 MLOAD DUP1 SWAP2 SUB SWAP1 RETURN JUMPDEST PUSH8 0x6124FEE993BC0000 PUSH2 0x16F CALLVALUE PUSH2 0x5C9 JUMP JUMPDEST GT PUSH2 0x1AF JUMPI PUSH1 0x40 MLOAD PUSH32 0x8C379A000000000000000000000000000000000000000000000000000000000 DUP2 MSTORE PUSH1 0x4 ADD PUSH2 0x1A6 SWAP1 PUSH2 0x8FF JUMP JUMPDEST PUSH1 0x40 MLOAD DUP1 SWAP2 SUB SWAP1 REVERT JUMPDEST PUSH0 CALLER SWAP1 DUP1 PUSH1 0x1 DUP2 SLOAD ADD DUP1 DUP3 SSTORE DUP1 SWAP2 POP POP PUSH1 0x1 SWAP1 SUB SWAP1 PUSH0 MSTORE PUSH1 0x20 PUSH0 KECCAK256 ADD PUSH0 SWAP1 SWAP2 SWAP1 SWAP2 SWAP1 SWAP2 PUSH2 0x100 EXP DUP2 SLOAD DUP2 PUSH20 0xFFFFFFFFFFFFFFFFFFFFFFFFFFFFFFFFFFFFFFFF MUL NOT AND SWAP1 DUP4 PUSH20 0xFFFFFFFFFFFFFFFFFFFFFFFFFFFFFFFFFFFFFFFF AND MUL OR SWAP1 SSTORE POP CALLVALUE PUSH1 0x1 PUSH0 CALLER PUSH20 0xFFFFFFFFFFFFFFFFFFFFFFFFFFFFFFFFFFFFFFFF AND PUSH20 0xFFFFFFFFFFFFFFFFFFFFFFFFFFFFFFFFFFFFFFFF AND DUP2 MSTORE PUSH1 0x20 ADD SWAP1 DUP2 MSTORE PUSH1 0x20 ADD PUSH0 KECCAK256 PUSH0 DUP3 DUP3 SLOAD PUSH2 0x25A SWAP2 SWAP1 PUSH2 0x94A JUMP JUMPDEST SWAP3 POP POP DUP2 SWAP1 SSTORE POP JUMP JUMPDEST PUSH8 0x6124FEE993BC0000 DUP2 JUMP JUMPDEST PUSH32 0x0 PUSH20 0xFFFFFFFFFFFFFFFFFFFFFFFFFFFFFFFFFFFFFFFF AND CALLER PUSH20 0xFFFFFFFFFFFFFFFFFFFFFFFFFFFFFFFFFFFFFFFF AND EQ PUSH2 0x2F4 JUMPI PUSH1 0x40 MLOAD PUSH32 0x30CD747100000000000000000000000000000000000000000000000000000000 DUP2 MSTORE PUSH1 0x4 ADD PUSH1 0x40 MLOAD DUP1 SWAP2 SUB SWAP1 REVERT JUMPDEST PUSH0 JUMPDEST PUSH0 DUP1 SLOAD SWAP1 POP DUP2 LT ISZERO PUSH2 0x390 JUMPI PUSH0 DUP1 DUP3 DUP2 SLOAD DUP2 LT PUSH2 0x316 JUMPI PUSH2 0x315 PUSH2 0x97D JUMP JUMPDEST JUMPDEST SWAP1 PUSH0 MSTORE PUSH1 0x20 PUSH0 KECCAK256 ADD PUSH0 SWAP1 SLOAD SWAP1 PUSH2 0x100 EXP SWAP1 DIV PUSH20 0xFFFFFFFFFFFFFFFFFFFFFFFFFFFFFFFFFFFFFFFF AND SWAP1 POP PUSH0 PUSH1 0x1 PUSH0 DUP4 PUSH20 0xFFFFFFFFFFFFFFFFFFFFFFFFFFFFFFFFFFFFFFFF AND PUSH20 0xFFFFFFFFFFFFFFFFFFFFFFFFFFFFFFFFFFFFFFFF AND DUP2 MSTORE PUSH1 0x20 ADD SWAP1 DUP2 MSTORE PUSH1 0x20 ADD PUSH0 KECCAK256 DUP2 SWAP1 SSTORE POP POP DUP1 DUP1 PUSH1 0x1 ADD SWAP2 POP POP PUSH2 0x2F6 JUMP JUMPDEST POP PUSH0 PUSH8 0xFFFFFFFFFFFFFFFF DUP2 GT ISZERO PUSH2 0x3AB JUMPI PUSH2 0x3AA PUSH2 0x9AA JUMP JUMPDEST JUMPDEST PUSH1 0x40 MLOAD SWAP1 DUP1 DUP3 MSTORE DUP1 PUSH1 0x20 MUL PUSH1 0x20 ADD DUP3 ADD PUSH1 0x40 MSTORE DUP1 ISZERO PUSH2 0x3D9 JUMPI DUP2 PUSH1 0x20 ADD PUSH1 0x20 DUP3 MUL DUP1 CALLDATASIZE DUP4 CALLDATACOPY DUP1 DUP3 ADD SWAP2 POP POP SWAP1 POP JUMPDEST POP PUSH0 SWAP1 DUP1 MLOAD SWAP1 PUSH1 0x20 ADD SWAP1 PUSH2 0x3EE SWAP3 SWAP2 SWAP1 PUSH2 0x6A6 JUMP JUMPDEST POP CALLER PUSH20 0xFFFFFFFFFFFFFFFFFFFFFFFFFFFFFFFFFFFFFFFF AND PUSH2 0x8FC SELFBALANCE SWAP1 DUP2 ISZERO MUL SWAP1 PUSH1 0x40 MLOAD PUSH0 PUSH1 0x40 MLOAD DUP1 DUP4 SUB DUP2 DUP6 DUP9 DUP9 CALL SWAP4 POP POP POP POP ISZERO DUP1 ISZERO PUSH2 0x432 JUMPI RETURNDATASIZE PUSH0 DUP1 RETURNDATACOPY RETURNDATASIZE PUSH0 REVERT JUMPDEST POP PUSH0 CALLER PUSH20 0xFFFFFFFFFFFFFFFFFFFFFFFFFFFFFFFFFFFFFFFF AND PUSH2 0x8FC SELFBALANCE SWAP1 DUP2 ISZERO MUL SWAP1 PUSH1 0x40 MLOAD PUSH0 PUSH1 0x40 MLOAD DUP1 DUP4 SUB DUP2 DUP6 DUP9 DUP9 CALL SWAP4 POP POP POP POP SWAP1 POP DUP1 PUSH2 0x4AA JUMPI PUSH1 0x40 MLOAD PUSH32 0x8C379A000000000000000000000000000000000000000000000000000000000 DUP2 MSTORE PUSH1 0x4 ADD PUSH2 0x4A1 SWAP1 PUSH2 0xA21 JUMP JUMPDEST PUSH1 0x40 MLOAD DUP1 SWAP2 SUB SWAP1 REVERT JUMPDEST PUSH0 CALLER PUSH20 0xFFFFFFFFFFFFFFFFFFFFFFFFFFFFFFFFFFFFFFFF AND SELFBALANCE PUSH1 0x40 MLOAD PUSH2 0x4CF SWAP1 PUSH2 0xA6C JUMP JUMPDEST PUSH0 PUSH1 0x40 MLOAD DUP1 DUP4 SUB DUP2 DUP6 DUP8 GAS CALL SWAP3 POP POP POP RETURNDATASIZE DUP1 PUSH0 DUP2 EQ PUSH2 0x509 JUMPI PUSH1 0x40 MLOAD SWAP2 POP PUSH1 0x1F NOT PUSH1 0x3F RETURNDATASIZE ADD AND DUP3 ADD PUSH1 0x40 MSTORE RETURNDATASIZE DUP3 MSTORE RETURNDATASIZE PUSH0 PUSH1 0x20 DUP5 ADD RETURNDATACOPY PUSH2 0x50E JUMP JUMPDEST PUSH1 0x60 SWAP2 POP JUMPDEST POP POP SWAP1 POP DUP1 PUSH2 0x552 JUMPI PUSH1 0x40 MLOAD PUSH32 0x8C379A000000000000000000000000000000000000000000000000000000000 DUP2 MSTORE PUSH1 0x4 ADD PUSH2 0x549 SWAP1 PUSH2 0xACA JUMP JUMPDEST PUSH1 0x40 MLOAD DUP1 SWAP2 SUB SWAP1 REVERT JUMPDEST POP POP JUMP JUMPDEST PUSH1 0x1 PUSH1 0x20 MSTORE DUP1 PUSH0 MSTORE PUSH1 0x40 PUSH0 KECCAK256 PUSH0 SWAP2 POP SWAP1 POP SLOAD DUP2 JUMP JUMPDEST PUSH32 0x0 DUP2 JUMP JUMPDEST PUSH0 DUP2 DUP2 SLOAD DUP2 LT PUSH2 0x59D JUMPI PUSH0 DUP1 REVERT JUMPDEST SWAP1 PUSH0 MSTORE PUSH1 0x20 PUSH0 KECCAK256 ADD PUSH0 SWAP2 POP SLOAD SWAP1 PUSH2 0x100 EXP SWAP1 DIV PUSH20 0xFFFFFFFFFFFFFFFFFFFFFFFFFFFFFFFFFFFFFFFF AND DUP2 JUMP JUMPDEST PUSH0 DUP1 PUSH2 0x5D3 PUSH2 0x601 JUMP JUMPDEST SWAP1 POP PUSH0 PUSH8 0xDE0B6B3A7640000 DUP5 DUP4 PUSH2 0x5EB SWAP2 SWAP1 PUSH2 0xAE8 JUMP JUMPDEST PUSH2 0x5F5 SWAP2 SWAP1 PUSH2 0xB56 JUMP JUMPDEST SWAP1 POP DUP1 SWAP3 POP POP POP SWAP2 SWAP1 POP JUMP JUMPDEST PUSH0 DUP1 PUSH20 0x694AA1769357215DE4FAC081BF1F309ADC325306 SWAP1 POP PUSH0 DUP2 PUSH20 0xFFFFFFFFFFFFFFFFFFFFFFFFFFFFFFFFFFFFFFFF AND PUSH4 0xFEAF968C PUSH1 0x40 MLOAD DUP2 PUSH4 0xFFFFFFFF AND PUSH1 0xE0 SHL DUP2 MSTORE PUSH1 0x4 ADD PUSH1 0xA0 PUSH1 0x40 MLOAD DUP1 DUP4 SUB DUP2 DUP7 GAS STATICCALL ISZERO DUP1 ISZERO PUSH2 0x664 JUMPI RETURNDATASIZE PUSH0 DUP1 RETURNDATACOPY RETURNDATASIZE PUSH0 REVERT JUMPDEST POP POP POP POP PUSH1 0x40 MLOAD RETURNDATASIZE PUSH1 0x1F NOT PUSH1 0x1F DUP3 ADD AND DUP3 ADD DUP1 PUSH1 0x40 MSTORE POP DUP2 ADD SWAP1 PUSH2 0x688 SWAP2 SWAP1 PUSH2 0xC0C JUMP JUMPDEST POP POP POP SWAP2 POP POP PUSH5 0x2540BE400 DUP2 PUSH2 0x69F SWAP2 SWAP1 PUSH2 0xC83 JUMP JUMPDEST SWAP3 POP POP POP SWAP1 JUMP JUMPDEST DUP3 DUP1 SLOAD DUP3 DUP3 SSTORE SWAP1 PUSH0 MSTORE PUSH1 0x20 PUSH0 KECCAK256 SWAP1 DUP2 ADD SWAP3 DUP3 ISZERO PUSH2 0x71C JUMPI SWAP2 PUSH1 0x20 MUL DUP3 ADD JUMPDEST DUP3 DUP2 GT ISZERO PUSH2 0x71B JUMPI DUP3 MLOAD DUP3 PUSH0 PUSH2 0x100 EXP DUP2 SLOAD DUP2 PUSH20 0xFFFFFFFFFFFFFFFFFFFFFFFFFFFFFFFFFFFFFFFF MUL NOT AND SWAP1 DUP4 PUSH20 0xFFFFFFFFFFFFFFFFFFFFFFFFFFFFFFFFFFFFFFFF AND MUL OR SWAP1 SSTORE POP SWAP2 PUSH1 0x20 ADD SWAP2 SWAP1 PUSH1 0x1 ADD SWAP1 PUSH2 0x6C4 JUMP JUMPDEST JUMPDEST POP SWAP1 POP PUSH2 0x729 SWAP2 SWAP1 PUSH2 0x72D JUMP JUMPDEST POP SWAP1 JUMP JUMPDEST JUMPDEST DUP1 DUP3 GT ISZERO PUSH2 0x744 JUMPI PUSH0 DUP2 PUSH0 SWAP1 SSTORE POP PUSH1 0x1 ADD PUSH2 0x72E JUMP JUMPDEST POP SWAP1 JUMP JUMPDEST PUSH0 DUP2 SWAP1 POP SWAP2 SWAP1 POP JUMP JUMPDEST PUSH2 0x75A DUP2 PUSH2 0x748 JUMP JUMPDEST DUP3 MSTORE POP POP JUMP JUMPDEST PUSH0 PUSH1 0x20 DUP3 ADD SWAP1 POP PUSH2 0x773 PUSH0 DUP4 ADD DUP5 PUSH2 0x751 JUMP JUMPDEST SWAP3 SWAP2 POP POP JUMP JUMPDEST PUSH0 DUP1 REVERT JUMPDEST PUSH0 PUSH20 0xFFFFFFFFFFFFFFFFFFFFFFFFFFFFFFFFFFFFFFFF DUP3 AND SWAP1 POP SWAP2 SWAP1 POP JUMP JUMPDEST PUSH0 PUSH2 0x7A6 DUP3 PUSH2 0x77D JUMP JUMPDEST SWAP1 POP SWAP2 SWAP1 POP JUMP JUMPDEST PUSH2 0x7B6 DUP2 PUSH2 0x79C JUMP JUMPDEST DUP2 EQ PUSH2 0x7C0 JUMPI PUSH0 DUP1 REVERT JUMPDEST POP JUMP JUMPDEST PUSH0 DUP2 CALLDATALOAD SWAP1 POP PUSH2 0x7D1 DUP2 PUSH2 0x7AD JUMP JUMPDEST SWAP3 SWAP2 POP POP JUMP JUMPDEST PUSH0 PUSH1 0x20 DUP3 DUP5 SUB SLT ISZERO PUSH2 0x7EC JUMPI PUSH2 0x7EB PUSH2 0x779 JUMP JUMPDEST JUMPDEST PUSH0 PUSH2 0x7F9 DUP5 DUP3 DUP6 ADD PUSH2 0x7C3 JUMP JUMPDEST SWAP2 POP POP SWAP3 SWAP2 POP POP JUMP JUMPDEST PUSH2 0x80B DUP2 PUSH2 0x79C JUMP JUMPDEST DUP3 MSTORE POP POP JUMP JUMPDEST PUSH0 PUSH1 0x20 DUP3 ADD SWAP1 POP PUSH2 0x824 PUSH0 DUP4 ADD DUP5 PUSH2 0x802 JUMP JUMPDEST SWAP3 SWAP2 POP POP JUMP JUMPDEST PUSH2 0x833 DUP2 PUSH2 0x748 JUMP JUMPDEST DUP2 EQ PUSH2 0x83D JUMPI PUSH0 DUP1 REVERT JUMPDEST POP JUMP JUMPDEST PUSH0 DUP2 CALLDATALOAD SWAP1 POP PUSH2 0x84E DUP2 PUSH2 0x82A JUMP JUMPDEST SWAP3 SWAP2 POP POP JUMP JUMPDEST PUSH0 PUSH1 0x20 DUP3 DUP5 SUB SLT ISZERO PUSH2 0x869 JUMPI PUSH2 0x868 PUSH2 0x779 JUMP JUMPDEST JUMPDEST PUSH0 PUSH2 0x876 DUP5 DUP3 DUP6 ADD PUSH2 0x840 JUMP JUMPDEST SWAP2 POP POP SWAP3 SWAP2 POP POP JUMP JUMPDEST PUSH0 DUP3 DUP3 MSTORE PUSH1 0x20 DUP3 ADD SWAP1 POP SWAP3 SWAP2 POP POP JUMP JUMPDEST PUSH32 0x57687920736F204B616E6A7573212053656E642074686520656E746972652061 PUSH0 DUP3 ADD MSTORE PUSH32 0x6D6F756E74207370656369666965640000000000000000000000000000000000 PUSH1 0x20 DUP3 ADD MSTORE POP JUMP JUMPDEST PUSH0 PUSH2 0x8E9 PUSH1 0x2F DUP4 PUSH2 0x87F JUMP JUMPDEST SWAP2 POP PUSH2 0x8F4 DUP3 PUSH2 0x88F JUMP JUMPDEST PUSH1 0x40 DUP3 ADD SWAP1 POP SWAP2 SWAP1 POP JUMP JUMPDEST PUSH0 PUSH1 0x20 DUP3 ADD SWAP1 POP DUP2 DUP2 SUB PUSH0 DUP4 ADD MSTORE PUSH2 0x916 DUP2 PUSH2 0x8DD JUMP JUMPDEST SWAP1 POP SWAP2 SWAP1 POP JUMP JUMPDEST PUSH32 0x4E487B7100000000000000000000000000000000000000000000000000000000 PUSH0 MSTORE PUSH1 0x11 PUSH1 0x4 MSTORE PUSH1 0x24 PUSH0 REVERT JUMPDEST PUSH0 PUSH2 0x954 DUP3 PUSH2 0x748 JUMP JUMPDEST SWAP2 POP PUSH2 0x95F DUP4 PUSH2 0x748 JUMP JUMPDEST SWAP3 POP DUP3 DUP3 ADD SWAP1 POP DUP1 DUP3 GT ISZERO PUSH2 0x977 JUMPI PUSH2 0x976 PUSH2 0x91D JUMP JUMPDEST JUMPDEST SWAP3 SWAP2 POP POP JUMP JUMPDEST PUSH32 0x4E487B7100000000000000000000000000000000000000000000000000000000 PUSH0 MSTORE PUSH1 0x32 PUSH1 0x4 MSTORE PUSH1 0x24 PUSH0 REVERT JUMPDEST PUSH32 0x4E487B7100000000000000000000000000000000000000000000000000000000 PUSH0 MSTORE PUSH1 0x41 PUSH1 0x4 MSTORE PUSH1 0x24 PUSH0 REVERT JUMPDEST PUSH32 0x53656E64206661696C6564000000000000000000000000000000000000000000 PUSH0 DUP3 ADD MSTORE POP JUMP JUMPDEST PUSH0 PUSH2 0xA0B PUSH1 0xB DUP4 PUSH2 0x87F JUMP JUMPDEST SWAP2 POP PUSH2 0xA16 DUP3 PUSH2 0x9D7 JUMP JUMPDEST PUSH1 0x20 DUP3 ADD SWAP1 POP SWAP2 SWAP1 POP JUMP JUMPDEST PUSH0 PUSH1 0x20 DUP3 ADD SWAP1 POP DUP2 DUP2 SUB PUSH0 DUP4 ADD MSTORE PUSH2 0xA38 DUP2 PUSH2 0x9FF JUMP JUMPDEST SWAP1 POP SWAP2 SWAP1 POP JUMP JUMPDEST PUSH0 DUP2 SWAP1 POP SWAP3 SWAP2 POP POP JUMP JUMPDEST POP JUMP JUMPDEST PUSH0 PUSH2 0xA57 PUSH0 DUP4 PUSH2 0xA3F JUMP JUMPDEST SWAP2 POP PUSH2 0xA62 DUP3 PUSH2 0xA49 JUMP JUMPDEST PUSH0 DUP3 ADD SWAP1 POP SWAP2 SWAP1 POP JUMP JUMPDEST PUSH0 PUSH2 0xA76 DUP3 PUSH2 0xA4C JUMP JUMPDEST SWAP2 POP DUP2 SWAP1 POP SWAP2 SWAP1 POP JUMP JUMPDEST PUSH32 0x43616C6C206661696C6564000000000000000000000000000000000000000000 PUSH0 DUP3 ADD MSTORE POP JUMP JUMPDEST PUSH0 PUSH2 0xAB4 PUSH1 0xB DUP4 PUSH2 0x87F JUMP JUMPDEST SWAP2 POP PUSH2 0xABF DUP3 PUSH2 0xA80 JUMP JUMPDEST PUSH1 0x20 DUP3 ADD SWAP1 POP SWAP2 SWAP1 POP JUMP JUMPDEST PUSH0 PUSH1 0x20 DUP3 ADD SWAP1 POP DUP2 DUP2 SUB PUSH0 DUP4 ADD MSTORE PUSH2 0xAE1 DUP2 PUSH2 0xAA8 JUMP JUMPDEST SWAP1 POP SWAP2 SWAP1 POP JUMP JUMPDEST PUSH0 PUSH2 0xAF2 DUP3 PUSH2 0x748 JUMP JUMPDEST SWAP2 POP PUSH2 0xAFD DUP4 PUSH2 0x748 JUMP JUMPDEST SWAP3 POP DUP3 DUP3 MUL PUSH2 0xB0B DUP2 PUSH2 0x748 JUMP JUMPDEST SWAP2 POP DUP3 DUP3 DIV DUP5 EQ DUP4 ISZERO OR PUSH2 0xB22 JUMPI PUSH2 0xB21 PUSH2 0x91D JUMP JUMPDEST JUMPDEST POP SWAP3 SWAP2 POP POP JUMP JUMPDEST PUSH32 0x4E487B7100000000000000000000000000000000000000000000000000000000 PUSH0 MSTORE PUSH1 0x12 PUSH1 0x4 MSTORE PUSH1 0x24 PUSH0 REVERT JUMPDEST PUSH0 PUSH2 0xB60 DUP3 PUSH2 0x748 JUMP JUMPDEST SWAP2 POP PUSH2 0xB6B DUP4 PUSH2 0x748 JUMP JUMPDEST SWAP3 POP DUP3 PUSH2 0xB7B JUMPI PUSH2 0xB7A PUSH2 0xB29 JUMP JUMPDEST JUMPDEST DUP3 DUP3 DIV SWAP1 POP SWAP3 SWAP2 POP POP JUMP JUMPDEST PUSH0 PUSH10 0xFFFFFFFFFFFFFFFFFFFF DUP3 AND SWAP1 POP SWAP2 SWAP1 POP JUMP JUMPDEST PUSH2 0xBA4 DUP2 PUSH2 0xB86 JUMP JUMPDEST DUP2 EQ PUSH2 0xBAE JUMPI PUSH0 DUP1 REVERT JUMPDEST POP JUMP JUMPDEST PUSH0 DUP2 MLOAD SWAP1 POP PUSH2 0xBBF DUP2 PUSH2 0xB9B JUMP JUMPDEST SWAP3 SWAP2 POP POP JUMP JUMPDEST PUSH0 DUP2 SWAP1 POP SWAP2 SWAP1 POP JUMP JUMPDEST PUSH2 0xBD7 DUP2 PUSH2 0xBC5 JUMP JUMPDEST DUP2 EQ PUSH2 0xBE1 JUMPI PUSH0 DUP1 REVERT JUMPDEST POP JUMP JUMPDEST PUSH0 DUP2 MLOAD SWAP1 POP PUSH2 0xBF2 DUP2 PUSH2 0xBCE JUMP JUMPDEST SWAP3 SWAP2 POP POP JUMP JUMPDEST PUSH0 DUP2 MLOAD SWAP1 POP PUSH2 0xC06 DUP2 PUSH2 0x82A JUMP JUMPDEST SWAP3 SWAP2 POP POP JUMP JUMPDEST PUSH0 DUP1 PUSH0 DUP1 PUSH0 PUSH1 0xA0 DUP7 DUP9 SUB SLT ISZERO PUSH2 0xC25 JUMPI PUSH2 0xC24 PUSH2 0x779 JUMP JUMPDEST JUMPDEST PUSH0 PUSH2 0xC32 DUP9 DUP3 DUP10 ADD PUSH2 0xBB1 JUMP JUMPDEST SWAP6 POP POP PUSH1 0x20 PUSH2 0xC43 DUP9 DUP3 DUP10 ADD PUSH2 0xBE4 JUMP JUMPDEST SWAP5 POP POP PUSH1 0x40 PUSH2 0xC54 DUP9 DUP3 DUP10 ADD PUSH2 0xBF8 JUMP JUMPDEST SWAP4 POP POP PUSH1 0x60 PUSH2 0xC65 DUP9 DUP3 DUP10 ADD PUSH2 0xBF8 JUMP JUMPDEST SWAP3 POP POP PUSH1 0x80 PUSH2 0xC76 DUP9 DUP3 DUP10 ADD PUSH2 0xBB1 JUMP JUMPDEST SWAP2 POP POP SWAP3 SWAP6 POP SWAP3 SWAP6 SWAP1 SWAP4 POP JUMP JUMPDEST PUSH0 PUSH2 0xC8D DUP3 PUSH2 0xBC5 JUMP JUMPDEST SWAP2 POP PUSH2 0xC98 DUP4 PUSH2 0xBC5 JUMP JUMPDEST SWAP3 POP DUP3 DUP3 MUL PUSH2 0xCA6 DUP2 PUSH2 0xBC5 JUMP JUMPDEST SWAP2 POP PUSH32 0x8000000000000000000000000000000000000000000000000000000000000000 DUP5 EQ PUSH0 DUP5 SLT AND ISZERO PUSH2 0xCDD JUMPI PUSH2 0xCDC PUSH2 0x91D JUMP JUMPDEST JUMPDEST DUP3 DUP3 SDIV DUP5 EQ DUP4 ISZERO OR PUSH2 0xCF2 JUMPI PUSH2 0xCF1 PUSH2 0x91D JUMP JUMPDEST JUMPDEST POP SWAP3 SWAP2 POP POP JUMP INVALID LOG2 PUSH5 0x6970667358 0x22 SLT KECCAK256 DUP7 0xA9 0x4E 0xDF MULMOD 0xC9 GAS ADD PUSH22 0xC34983D88D31FE1A045C0AE79A1650431AACFC235344 0xCD PUSH5 0x736F6C6343 STOP ADDMOD BYTE STOP CALLER "
				},
				"gasEstimates": {
					"creation": {
						"codeDepositCost": "675000",
						"executionCost": "infinite",
						"totalCost": "infinite"
					},
					"external": {
						"": "infinite",
						"MIN_USD()": "303",
						"addressToAmountFunded(address)": "2824",
						"fund()": "infinite",
						"funders(uint256)": "5031",
						"i_owner()": "infinite",
						"withdraw()": "infinite"
					}
				},
				"methodIdentifiers": {
					"MIN_USD()": "213dbea2",
					"addressToAmountFunded(address)": "3e47d6f3",
					"fund()": "b60d4288",
					"funders(uint256)": "dc0d3dff",
					"i_owner()": "dba6335f",
					"withdraw()": "3ccfd60b"
				}
			},
			"storageLayout": {
				"storage": [
					{
						"astId": 60,
						"contract": "contracts/FundMe.sol:FundMe",
						"label": "funders",
						"offset": 0,
						"slot": "0",
						"type": "t_array(t_address)dyn_storage"
					},
					{
						"astId": 64,
						"contract": "contracts/FundMe.sol:FundMe",
						"label": "addressToAmountFunded",
						"offset": 0,
						"slot": "1",
						"type": "t_mapping(t_address,t_uint256)"
					}
				],
				"types": {
					"t_address": {
						"encoding": "inplace",
						"label": "address",
						"numberOfBytes": "20"
					},
					"t_array(t_address)dyn_storage": {
						"base": "t_address",
						"encoding": "dynamic_array",
						"label": "address[]",
						"numberOfBytes": "32"
					},
					"t_mapping(t_address,t_uint256)": {
						"encoding": "mapping",
						"key": "t_address",
						"label": "mapping(address => uint256)",
						"numberOfBytes": "32",
						"value": "t_uint256"
					},
					"t_uint256": {
						"encoding": "inplace",
						"label": "uint256",
						"numberOfBytes": "32"
					}
				}
			},
			"userdoc": {
				"kind": "user",
				"methods": {},
				"version": 1
			}
		}
	}
}