{
	"contracts/SimpleStorage.sol": {
		"FirstContract": {
			"abi": [
				{
					"inputs": [],
					"name": "ad",
					"outputs": [
						{
							"internalType": "uint256",
							"name": "genericFavouriteNumber",
							"type": "uint256"
						},
						{
							"internalType": "string",
							"name": "name",
							"type": "string"
						}
					],
					"stateMutability": "view",
					"type": "function"
				},
				{
					"inputs": [
						{
							"internalType": "uint256",
							"name": "_genericFavouriteNumber",
							"type": "uint256"
						},
						{
							"internalType": "string",
							"name": "_name",
							"type": "string"
						}
					],
					"name": "addPersons",
					"outputs": [],
					"stateMutability": "nonpayable",
					"type": "function"
				},
				{
					"inputs": [
						{
							"internalType": "uint256",
							"name": "",
							"type": "uint256"
						}
					],
					"name": "listOfPersons",
					"outputs": [
						{
							"internalType": "uint256",
							"name": "genericFavouriteNumber",
							"type": "uint256"
						},
						{
							"internalType": "string",
							"name": "name",
							"type": "string"
						}
					],
					"stateMutability": "view",
					"type": "function"
				},
				{
					"inputs": [
						{
							"internalType": "string",
							"name": "",
							"type": "string"
						}
					],
					"name": "nameToFavouriteNumber",
					"outputs": [
						{
							"internalType": "uint256",
							"name": "",
							"type": "uint256"
						}
					],
					"stateMutability": "view",
					"type": "function"
				},
				{
					"inputs": [],
					"name": "retrieve",
					"outputs": [
						{
							"internalType": "uint256",
							"name": "",
							"type": "uint256"
						}
					],
					"stateMutability": "view",
					"type": "function"
				},
				{
					"inputs": [
						{
							"internalType": "uint256",
							"name": "_favouriteNumber",
							"type": "uint256"
						}
					],
					"name": "update",
					"outputs": [],
					"stateMutability": "nonpayable",
					"type": "function"
				}
			],
			"devdoc": {
				"kind": "dev",
				"methods": {},
				"version": 1
			},
			"evm": {
				"assembly": "    /* \"contracts/SimpleStorage.sol\":60:1972  contract FirstContract {... */\n  mstore(0x40, 0x80)\n    /* \"contracts/SimpleStorage.sol\":109:112  256 */\n  0x0100\n    /* \"contracts/SimpleStorage.sol\":90:112  uint firstNumber = 256 */\n  0x00\n  sstore\n    /* \"contracts/SimpleStorage.sol\":138:141  355 */\n  0x0163\n    /* \"contracts/SimpleStorage.sol\":119:141  int secondNumber = 355 */\n  0x01\n  sstore\n    /* \"contracts/SimpleStorage.sol\":168:210  0x29784833bB49aD62b1eaE6A00b5CDcc421c0f8b4 */\n  0x29784833bb49ad62b1eae6a00b5cdcc421c0f8b4\n    /* \"contracts/SimpleStorage.sol\":148:210  address myAddress = 0x29784833bB49aD62b1eaE6A00b5CDcc421c0f8b4 */\n  0x02\n  exp(0x0100, 0x00)\n  dup2\n  sload\n  dup2\n  0xffffffffffffffffffffffffffffffffffffffff\n  mul\n  not\n  and\n  swap1\n  dup4\n  0xffffffffffffffffffffffffffffffffffffffff\n  and\n  mul\n  or\n  swap1\n  sstore\n  pop\n    /* \"contracts/SimpleStorage.sol\":217:252  string myFirstString = \"adsince2k4\" */\n  mload(0x40)\n  dup1\n  0x40\n  add\n  0x40\n  mstore\n  dup1\n  0x0a\n  dup2\n  mstore\n  0x20\n  add\n  0x616473696e6365326b3400000000000000000000000000000000000000000000\n  dup2\n  mstore\n  pop\n  0x03\n  swap1\n  dup2\n  tag_1\n  swap2\n  swap1\n  tag_2\n  jump\t// in\ntag_1:\n  pop\n    /* \"contracts/SimpleStorage.sol\":259:294  bytes32 mySecondString = \"abhilash\" */\n  sstore(0x04, 0x616268696c617368000000000000000000000000000000000000000000000000)\n    /* \"contracts/SimpleStorage.sol\":868:923  Person({genericFavouriteNumber: 7, name: \"adsince2k4\"}) */\n  mload(0x40)\n  dup1\n  0x40\n  add\n  0x40\n  mstore\n  dup1\n    /* \"contracts/SimpleStorage.sol\":900:901  7 */\n  0x07\n    /* \"contracts/SimpleStorage.sol\":868:923  Person({genericFavouriteNumber: 7, name: \"adsince2k4\"}) */\n  dup2\n  mstore\n  0x20\n  add\n  mload(0x40)\n  dup1\n  0x40\n  add\n  0x40\n  mstore\n  dup1\n  0x0a\n  dup2\n  mstore\n  0x20\n  add\n  0x616473696e6365326b3400000000000000000000000000000000000000000000\n  dup2\n  mstore\n  pop\n  dup2\n  mstore\n  pop\n    /* \"contracts/SimpleStorage.sol\":849:923  Person public ad = Person({genericFavouriteNumber: 7, name: \"adsince2k4\"}) */\n  0x07\n  0x00\n  dup3\n  add\n  mload\n  dup2\n  0x00\n  add\n  sstore\n  0x20\n  dup3\n  add\n  mload\n  dup2\n  0x01\n  add\n  swap1\n  dup2\n  tag_3\n  swap2\n  swap1\n  tag_2\n  jump\t// in\ntag_3:\n  pop\n  pop\n  pop\n    /* \"contracts/SimpleStorage.sol\":60:1972  contract FirstContract {... */\n  callvalue\n  dup1\n  iszero\n  tag_4\n  jumpi\n  0x00\n  dup1\n  revert\ntag_4:\n  pop\n  jump(tag_5)\n    /* \"#utility.yul\":7:106   */\ntag_6:\n    /* \"#utility.yul\":59:65   */\n  0x00\n    /* \"#utility.yul\":93:98   */\n  dup2\n    /* \"#utility.yul\":87:99   */\n  mload\n    /* \"#utility.yul\":77:99   */\n  swap1\n  pop\n    /* \"#utility.yul\":7:106   */\n  swap2\n  swap1\n  pop\n  jump\t// out\n    /* \"#utility.yul\":112:292   */\ntag_7:\n    /* \"#utility.yul\":160:237   */\n  0x4e487b7100000000000000000000000000000000000000000000000000000000\n    /* \"#utility.yul\":157:158   */\n  0x00\n    /* \"#utility.yul\":150:238   */\n  mstore\n    /* \"#utility.yul\":257:261   */\n  0x41\n    /* \"#utility.yul\":254:255   */\n  0x04\n    /* \"#utility.yul\":247:262   */\n  mstore\n    /* \"#utility.yul\":281:285   */\n  0x24\n    /* \"#utility.yul\":278:279   */\n  0x00\n    /* \"#utility.yul\":271:286   */\n  revert\n    /* \"#utility.yul\":298:478   */\ntag_8:\n    /* \"#utility.yul\":346:423   */\n  0x4e487b7100000000000000000000000000000000000000000000000000000000\n    /* \"#utility.yul\":343:344   */\n  0x00\n    /* \"#utility.yul\":336:424   */\n  mstore\n    /* \"#utility.yul\":443:447   */\n  0x22\n    /* \"#utility.yul\":440:441   */\n  0x04\n    /* \"#utility.yul\":433:448   */\n  mstore\n    /* \"#utility.yul\":467:471   */\n  0x24\n    /* \"#utility.yul\":464:465   */\n  0x00\n    /* \"#utility.yul\":457:472   */\n  revert\n    /* \"#utility.yul\":484:804   */\ntag_9:\n    /* \"#utility.yul\":528:534   */\n  0x00\n    /* \"#utility.yul\":565:566   */\n  0x02\n    /* \"#utility.yul\":559:563   */\n  dup3\n    /* \"#utility.yul\":555:567   */\n  div\n    /* \"#utility.yul\":545:567   */\n  swap1\n  pop\n    /* \"#utility.yul\":612:613   */\n  0x01\n    /* \"#utility.yul\":606:610   */\n  dup3\n    /* \"#utility.yul\":602:614   */\n  and\n    /* \"#utility.yul\":633:651   */\n  dup1\n    /* \"#utility.yul\":623:704   */\n  tag_31\n  jumpi\n    /* \"#utility.yul\":689:693   */\n  0x7f\n    /* \"#utility.yul\":681:687   */\n  dup3\n    /* \"#utility.yul\":677:694   */\n  and\n    /* \"#utility.yul\":667:694   */\n  swap2\n  pop\n    /* \"#utility.yul\":623:704   */\ntag_31:\n    /* \"#utility.yul\":751:753   */\n  0x20\n    /* \"#utility.yul\":743:749   */\n  dup3\n    /* \"#utility.yul\":740:754   */\n  lt\n    /* \"#utility.yul\":720:738   */\n  dup2\n    /* \"#utility.yul\":717:755   */\n  sub\n    /* \"#utility.yul\":714:798   */\n  tag_32\n  jumpi\n    /* \"#utility.yul\":770:788   */\n  tag_33\n  tag_8\n  jump\t// in\ntag_33:\n    /* \"#utility.yul\":714:798   */\ntag_32:\n    /* \"#utility.yul\":535:804   */\n  pop\n    /* \"#utility.yul\":484:804   */\n  swap2\n  swap1\n  pop\n  jump\t// out\n    /* \"#utility.yul\":810:951   */\ntag_10:\n    /* \"#utility.yul\":859:863   */\n  0x00\n    /* \"#utility.yul\":882:885   */\n  dup2\n    /* \"#utility.yul\":874:885   */\n  swap1\n  pop\n    /* \"#utility.yul\":905:908   */\n  dup2\n    /* \"#utility.yul\":902:903   */\n  0x00\n    /* \"#utility.yul\":895:909   */\n  mstore\n    /* \"#utility.yul\":939:943   */\n  0x20\n    /* \"#utility.yul\":936:937   */\n  0x00\n    /* \"#utility.yul\":926:944   */\n  keccak256\n    /* \"#utility.yul\":918:944   */\n  swap1\n  pop\n    /* \"#utility.yul\":810:951   */\n  swap2\n  swap1\n  pop\n  jump\t// out\n    /* \"#utility.yul\":957:1050   */\ntag_11:\n    /* \"#utility.yul\":994:1000   */\n  0x00\n    /* \"#utility.yul\":1041:1043   */\n  0x20\n    /* \"#utility.yul\":1036:1038   */\n  0x1f\n    /* \"#utility.yul\":1029:1034   */\n  dup4\n    /* \"#utility.yul\":1025:1039   */\n  add\n    /* \"#utility.yul\":1021:1044   */\n  div\n    /* \"#utility.yul\":1011:1044   */\n  swap1\n  pop\n    /* \"#utility.yul\":957:1050   */\n  swap2\n  swap1\n  pop\n  jump\t// out\n    /* \"#utility.yul\":1056:1163   */\ntag_12:\n    /* \"#utility.yul\":1100:1108   */\n  0x00\n    /* \"#utility.yul\":1150:1155   */\n  dup3\n    /* \"#utility.yul\":1144:1148   */\n  dup3\n    /* \"#utility.yul\":1140:1156   */\n  shl\n    /* \"#utility.yul\":1119:1156   */\n  swap1\n  pop\n    /* \"#utility.yul\":1056:1163   */\n  swap3\n  swap2\n  pop\n  pop\n  jump\t// out\n    /* \"#utility.yul\":1169:1562   */\ntag_13:\n    /* \"#utility.yul\":1238:1244   */\n  0x00\n    /* \"#utility.yul\":1288:1289   */\n  0x08\n    /* \"#utility.yul\":1276:1286   */\n  dup4\n    /* \"#utility.yul\":1272:1290   */\n  mul\n    /* \"#utility.yul\":1311:1408   */\n  tag_38\n    /* \"#utility.yul\":1341:1407   */\n  0xffffffffffffffffffffffffffffffffffffffffffffffffffffffffffffffff\n    /* \"#utility.yul\":1330:1339   */\n  dup3\n    /* \"#utility.yul\":1311:1408   */\n  tag_12\n  jump\t// in\ntag_38:\n    /* \"#utility.yul\":1429:1468   */\n  tag_39\n    /* \"#utility.yul\":1459:1467   */\n  dup7\n    /* \"#utility.yul\":1448:1457   */\n  dup4\n    /* \"#utility.yul\":1429:1468   */\n  tag_12\n  jump\t// in\ntag_39:\n    /* \"#utility.yul\":1417:1468   */\n  swap6\n  pop\n    /* \"#utility.yul\":1501:1505   */\n  dup1\n    /* \"#utility.yul\":1497:1506   */\n  not\n    /* \"#utility.yul\":1490:1495   */\n  dup5\n    /* \"#utility.yul\":1486:1507   */\n  and\n    /* \"#utility.yul\":1477:1507   */\n  swap4\n  pop\n    /* \"#utility.yul\":1550:1554   */\n  dup1\n    /* \"#utility.yul\":1540:1548   */\n  dup7\n    /* \"#utility.yul\":1536:1555   */\n  and\n    /* \"#utility.yul\":1529:1534   */\n  dup5\n    /* \"#utility.yul\":1526:1556   */\n  or\n    /* \"#utility.yul\":1516:1556   */\n  swap3\n  pop\n    /* \"#utility.yul\":1245:1562   */\n  pop\n  pop\n    /* \"#utility.yul\":1169:1562   */\n  swap4\n  swap3\n  pop\n  pop\n  pop\n  jump\t// out\n    /* \"#utility.yul\":1568:1645   */\ntag_14:\n    /* \"#utility.yul\":1605:1612   */\n  0x00\n    /* \"#utility.yul\":1634:1639   */\n  dup2\n    /* \"#utility.yul\":1623:1639   */\n  swap1\n  pop\n    /* \"#utility.yul\":1568:1645   */\n  swap2\n  swap1\n  pop\n  jump\t// out\n    /* \"#utility.yul\":1651:1711   */\ntag_15:\n    /* \"#utility.yul\":1679:1682   */\n  0x00\n    /* \"#utility.yul\":1700:1705   */\n  dup2\n    /* \"#utility.yul\":1693:1705   */\n  swap1\n  pop\n    /* \"#utility.yul\":1651:1711   */\n  swap2\n  swap1\n  pop\n  jump\t// out\n    /* \"#utility.yul\":1717:1859   */\ntag_16:\n    /* \"#utility.yul\":1767:1776   */\n  0x00\n    /* \"#utility.yul\":1800:1853   */\n  tag_43\n    /* \"#utility.yul\":1818:1852   */\n  tag_44\n    /* \"#utility.yul\":1827:1851   */\n  tag_45\n    /* \"#utility.yul\":1845:1850   */\n  dup5\n    /* \"#utility.yul\":1827:1851   */\n  tag_14\n  jump\t// in\ntag_45:\n    /* \"#utility.yul\":1818:1852   */\n  tag_15\n  jump\t// in\ntag_44:\n    /* \"#utility.yul\":1800:1853   */\n  tag_14\n  jump\t// in\ntag_43:\n    /* \"#utility.yul\":1787:1853   */\n  swap1\n  pop\n    /* \"#utility.yul\":1717:1859   */\n  swap2\n  swap1\n  pop\n  jump\t// out\n    /* \"#utility.yul\":1865:1940   */\ntag_17:\n    /* \"#utility.yul\":1908:1911   */\n  0x00\n    /* \"#utility.yul\":1929:1934   */\n  dup2\n    /* \"#utility.yul\":1922:1934   */\n  swap1\n  pop\n    /* \"#utility.yul\":1865:1940   */\n  swap2\n  swap1\n  pop\n  jump\t// out\n    /* \"#utility.yul\":1946:2215   */\ntag_18:\n    /* \"#utility.yul\":2056:2095   */\n  tag_48\n    /* \"#utility.yul\":2087:2094   */\n  dup4\n    /* \"#utility.yul\":2056:2095   */\n  tag_16\n  jump\t// in\ntag_48:\n    /* \"#utility.yul\":2117:2208   */\n  tag_49\n    /* \"#utility.yul\":2166:2207   */\n  tag_50\n    /* \"#utility.yul\":2190:2206   */\n  dup3\n    /* \"#utility.yul\":2166:2207   */\n  tag_17\n  jump\t// in\ntag_50:\n    /* \"#utility.yul\":2158:2164   */\n  dup5\n    /* \"#utility.yul\":2151:2155   */\n  dup5\n    /* \"#utility.yul\":2145:2156   */\n  sload\n    /* \"#utility.yul\":2117:2208   */\n  tag_13\n  jump\t// in\ntag_49:\n    /* \"#utility.yul\":2111:2115   */\n  dup3\n    /* \"#utility.yul\":2104:2209   */\n  sstore\n    /* \"#utility.yul\":2022:2215   */\n  pop\n    /* \"#utility.yul\":1946:2215   */\n  pop\n  pop\n  pop\n  jump\t// out\n    /* \"#utility.yul\":2221:2294   */\ntag_19:\n    /* \"#utility.yul\":2266:2269   */\n  0x00\n    /* \"#utility.yul\":2221:2294   */\n  swap1\n  jump\t// out\n    /* \"#utility.yul\":2300:2489   */\ntag_20:\n    /* \"#utility.yul\":2377:2409   */\n  tag_53\n  tag_19\n  jump\t// in\ntag_53:\n    /* \"#utility.yul\":2418:2483   */\n  tag_54\n    /* \"#utility.yul\":2476:2482   */\n  dup2\n    /* \"#utility.yul\":2468:2474   */\n  dup5\n    /* \"#utility.yul\":2462:2466   */\n  dup5\n    /* \"#utility.yul\":2418:2483   */\n  tag_18\n  jump\t// in\ntag_54:\n    /* \"#utility.yul\":2353:2489   */\n  pop\n    /* \"#utility.yul\":2300:2489   */\n  pop\n  pop\n  jump\t// out\n    /* \"#utility.yul\":2495:2681   */\ntag_21:\n    /* \"#utility.yul\":2555:2675   */\ntag_56:\n    /* \"#utility.yul\":2572:2575   */\n  dup2\n    /* \"#utility.yul\":2565:2570   */\n  dup2\n    /* \"#utility.yul\":2562:2576   */\n  lt\n    /* \"#utility.yul\":2555:2675   */\n  iszero\n  tag_58\n  jumpi\n    /* \"#utility.yul\":2626:2665   */\n  tag_59\n    /* \"#utility.yul\":2663:2664   */\n  0x00\n    /* \"#utility.yul\":2656:2661   */\n  dup3\n    /* \"#utility.yul\":2626:2665   */\n  tag_20\n  jump\t// in\ntag_59:\n    /* \"#utility.yul\":2599:2600   */\n  0x01\n    /* \"#utility.yul\":2592:2597   */\n  dup2\n    /* \"#utility.yul\":2588:2601   */\n  add\n    /* \"#utility.yul\":2579:2601   */\n  swap1\n  pop\n    /* \"#utility.yul\":2555:2675   */\n  jump(tag_56)\ntag_58:\n    /* \"#utility.yul\":2495:2681   */\n  pop\n  pop\n  jump\t// out\n    /* \"#utility.yul\":2687:3230   */\ntag_22:\n    /* \"#utility.yul\":2788:2790   */\n  0x1f\n    /* \"#utility.yul\":2783:2786   */\n  dup3\n    /* \"#utility.yul\":2780:2791   */\n  gt\n    /* \"#utility.yul\":2777:3223   */\n  iszero\n  tag_61\n  jumpi\n    /* \"#utility.yul\":2822:2860   */\n  tag_62\n    /* \"#utility.yul\":2854:2859   */\n  dup2\n    /* \"#utility.yul\":2822:2860   */\n  tag_10\n  jump\t// in\ntag_62:\n    /* \"#utility.yul\":2906:2935   */\n  tag_63\n    /* \"#utility.yul\":2924:2934   */\n  dup5\n    /* \"#utility.yul\":2906:2935   */\n  tag_11\n  jump\t// in\ntag_63:\n    /* \"#utility.yul\":2896:2904   */\n  dup2\n    /* \"#utility.yul\":2892:2936   */\n  add\n    /* \"#utility.yul\":3089:3091   */\n  0x20\n    /* \"#utility.yul\":3077:3087   */\n  dup6\n    /* \"#utility.yul\":3074:3092   */\n  lt\n    /* \"#utility.yul\":3071:3120   */\n  iszero\n  tag_64\n  jumpi\n    /* \"#utility.yul\":3110:3118   */\n  dup2\n    /* \"#utility.yul\":3095:3118   */\n  swap1\n  pop\n    /* \"#utility.yul\":3071:3120   */\ntag_64:\n    /* \"#utility.yul\":3133:3213   */\n  tag_65\n    /* \"#utility.yul\":3189:3211   */\n  tag_66\n    /* \"#utility.yul\":3207:3210   */\n  dup6\n    /* \"#utility.yul\":3189:3211   */\n  tag_11\n  jump\t// in\ntag_66:\n    /* \"#utility.yul\":3179:3187   */\n  dup4\n    /* \"#utility.yul\":3175:3212   */\n  add\n    /* \"#utility.yul\":3162:3173   */\n  dup3\n    /* \"#utility.yul\":3133:3213   */\n  tag_21\n  jump\t// in\ntag_65:\n    /* \"#utility.yul\":2792:3223   */\n  pop\n  pop\n    /* \"#utility.yul\":2777:3223   */\ntag_61:\n    /* \"#utility.yul\":2687:3230   */\n  pop\n  pop\n  pop\n  jump\t// out\n    /* \"#utility.yul\":3236:3353   */\ntag_23:\n    /* \"#utility.yul\":3290:3298   */\n  0x00\n    /* \"#utility.yul\":3340:3345   */\n  dup3\n    /* \"#utility.yul\":3334:3338   */\n  dup3\n    /* \"#utility.yul\":3330:3346   */\n  shr\n    /* \"#utility.yul\":3309:3346   */\n  swap1\n  pop\n    /* \"#utility.yul\":3236:3353   */\n  swap3\n  swap2\n  pop\n  pop\n  jump\t// out\n    /* \"#utility.yul\":3359:3528   */\ntag_24:\n    /* \"#utility.yul\":3403:3409   */\n  0x00\n    /* \"#utility.yul\":3436:3487   */\n  tag_69\n    /* \"#utility.yul\":3484:3485   */\n  0x00\n    /* \"#utility.yul\":3480:3486   */\n  not\n    /* \"#utility.yul\":3472:3477   */\n  dup5\n    /* \"#utility.yul\":3469:3470   */\n  0x08\n    /* \"#utility.yul\":3465:3478   */\n  mul\n    /* \"#utility.yul\":3436:3487   */\n  tag_23\n  jump\t// in\ntag_69:\n    /* \"#utility.yul\":3432:3488   */\n  not\n    /* \"#utility.yul\":3517:3521   */\n  dup1\n    /* \"#utility.yul\":3511:3515   */\n  dup4\n    /* \"#utility.yul\":3507:3522   */\n  and\n    /* \"#utility.yul\":3497:3522   */\n  swap2\n  pop\n    /* \"#utility.yul\":3410:3528   */\n  pop\n    /* \"#utility.yul\":3359:3528   */\n  swap3\n  swap2\n  pop\n  pop\n  jump\t// out\n    /* \"#utility.yul\":3533:3828   */\ntag_25:\n    /* \"#utility.yul\":3609:3613   */\n  0x00\n    /* \"#utility.yul\":3755:3784   */\n  tag_71\n    /* \"#utility.yul\":3780:3783   */\n  dup4\n    /* \"#utility.yul\":3774:3778   */\n  dup4\n    /* \"#utility.yul\":3755:3784   */\n  tag_24\n  jump\t// in\ntag_71:\n    /* \"#utility.yul\":3747:3784   */\n  swap2\n  pop\n    /* \"#utility.yul\":3817:3820   */\n  dup3\n    /* \"#utility.yul\":3814:3815   */\n  0x02\n    /* \"#utility.yul\":3810:3821   */\n  mul\n    /* \"#utility.yul\":3804:3808   */\n  dup3\n    /* \"#utility.yul\":3801:3822   */\n  or\n    /* \"#utility.yul\":3793:3822   */\n  swap1\n  pop\n    /* \"#utility.yul\":3533:3828   */\n  swap3\n  swap2\n  pop\n  pop\n  jump\t// out\n    /* \"#utility.yul\":3833:5228   */\ntag_2:\n    /* \"#utility.yul\":3950:3987   */\n  tag_73\n    /* \"#utility.yul\":3983:3986   */\n  dup3\n    /* \"#utility.yul\":3950:3987   */\n  tag_6\n  jump\t// in\ntag_73:\n    /* \"#utility.yul\":4052:4070   */\n  0xffffffffffffffff\n    /* \"#utility.yul\":4044:4050   */\n  dup2\n    /* \"#utility.yul\":4041:4071   */\n  gt\n    /* \"#utility.yul\":4038:4094   */\n  iszero\n  tag_74\n  jumpi\n    /* \"#utility.yul\":4074:4092   */\n  tag_75\n  tag_7\n  jump\t// in\ntag_75:\n    /* \"#utility.yul\":4038:4094   */\ntag_74:\n    /* \"#utility.yul\":4118:4156   */\n  tag_76\n    /* \"#utility.yul\":4150:4154   */\n  dup3\n    /* \"#utility.yul\":4144:4155   */\n  sload\n    /* \"#utility.yul\":4118:4156   */\n  tag_9\n  jump\t// in\ntag_76:\n    /* \"#utility.yul\":4203:4270   */\n  tag_77\n    /* \"#utility.yul\":4263:4269   */\n  dup3\n    /* \"#utility.yul\":4255:4261   */\n  dup3\n    /* \"#utility.yul\":4249:4253   */\n  dup6\n    /* \"#utility.yul\":4203:4270   */\n  tag_22\n  jump\t// in\ntag_77:\n    /* \"#utility.yul\":4297:4298   */\n  0x00\n    /* \"#utility.yul\":4321:4325   */\n  0x20\n    /* \"#utility.yul\":4308:4325   */\n  swap1\n  pop\n    /* \"#utility.yul\":4353:4355   */\n  0x1f\n    /* \"#utility.yul\":4345:4351   */\n  dup4\n    /* \"#utility.yul\":4342:4356   */\n  gt\n    /* \"#utility.yul\":4370:4371   */\n  0x01\n    /* \"#utility.yul\":4365:4983   */\n  dup2\n  eq\n  tag_79\n  jumpi\n    /* \"#utility.yul\":5027:5028   */\n  0x00\n    /* \"#utility.yul\":5044:5050   */\n  dup5\n    /* \"#utility.yul\":5041:5118   */\n  iszero\n  tag_80\n  jumpi\n    /* \"#utility.yul\":5093:5102   */\n  dup3\n    /* \"#utility.yul\":5088:5091   */\n  dup8\n    /* \"#utility.yul\":5084:5103   */\n  add\n    /* \"#utility.yul\":5078:5104   */\n  mload\n    /* \"#utility.yul\":5069:5104   */\n  swap1\n  pop\n    /* \"#utility.yul\":5041:5118   */\ntag_80:\n    /* \"#utility.yul\":5144:5211   */\n  tag_81\n    /* \"#utility.yul\":5204:5210   */\n  dup6\n    /* \"#utility.yul\":5197:5202   */\n  dup3\n    /* \"#utility.yul\":5144:5211   */\n  tag_25\n  jump\t// in\ntag_81:\n    /* \"#utility.yul\":5138:5142   */\n  dup7\n    /* \"#utility.yul\":5131:5212   */\n  sstore\n    /* \"#utility.yul\":5000:5222   */\n  pop\n    /* \"#utility.yul\":4335:5222   */\n  jump(tag_78)\n    /* \"#utility.yul\":4365:4983   */\ntag_79:\n    /* \"#utility.yul\":4417:4421   */\n  0x1f\n    /* \"#utility.yul\":4413:4422   */\n  not\n    /* \"#utility.yul\":4405:4411   */\n  dup5\n    /* \"#utility.yul\":4401:4423   */\n  and\n    /* \"#utility.yul\":4451:4488   */\n  tag_82\n    /* \"#utility.yul\":4483:4487   */\n  dup7\n    /* \"#utility.yul\":4451:4488   */\n  tag_10\n  jump\t// in\ntag_82:\n    /* \"#utility.yul\":4510:4511   */\n  0x00\n    /* \"#utility.yul\":4524:4732   */\ntag_83:\n    /* \"#utility.yul\":4538:4545   */\n  dup3\n    /* \"#utility.yul\":4535:4536   */\n  dup2\n    /* \"#utility.yul\":4532:4546   */\n  lt\n    /* \"#utility.yul\":4524:4732   */\n  iszero\n  tag_85\n  jumpi\n    /* \"#utility.yul\":4617:4626   */\n  dup5\n    /* \"#utility.yul\":4612:4615   */\n  dup10\n    /* \"#utility.yul\":4608:4627   */\n  add\n    /* \"#utility.yul\":4602:4628   */\n  mload\n    /* \"#utility.yul\":4594:4600   */\n  dup3\n    /* \"#utility.yul\":4587:4629   */\n  sstore\n    /* \"#utility.yul\":4668:4669   */\n  0x01\n    /* \"#utility.yul\":4660:4666   */\n  dup3\n    /* \"#utility.yul\":4656:4670   */\n  add\n    /* \"#utility.yul\":4646:4670   */\n  swap2\n  pop\n    /* \"#utility.yul\":4715:4717   */\n  0x20\n    /* \"#utility.yul\":4704:4713   */\n  dup6\n    /* \"#utility.yul\":4700:4718   */\n  add\n    /* \"#utility.yul\":4687:4718   */\n  swap5\n  pop\n    /* \"#utility.yul\":4561:4565   */\n  0x20\n    /* \"#utility.yul\":4558:4559   */\n  dup2\n    /* \"#utility.yul\":4554:4566   */\n  add\n    /* \"#utility.yul\":4549:4566   */\n  swap1\n  pop\n    /* \"#utility.yul\":4524:4732   */\n  jump(tag_83)\ntag_85:\n    /* \"#utility.yul\":4760:4766   */\n  dup7\n    /* \"#utility.yul\":4751:4758   */\n  dup4\n    /* \"#utility.yul\":4748:4767   */\n  lt\n    /* \"#utility.yul\":4745:4924   */\n  iszero\n  tag_86\n  jumpi\n    /* \"#utility.yul\":4818:4827   */\n  dup5\n    /* \"#utility.yul\":4813:4816   */\n  dup10\n    /* \"#utility.yul\":4809:4828   */\n  add\n    /* \"#utility.yul\":4803:4829   */\n  mload\n    /* \"#utility.yul\":4861:4909   */\n  tag_87\n    /* \"#utility.yul\":4903:4907   */\n  0x1f\n    /* \"#utility.yul\":4895:4901   */\n  dup10\n    /* \"#utility.yul\":4891:4908   */\n  and\n    /* \"#utility.yul\":4880:4889   */\n  dup3\n    /* \"#utility.yul\":4861:4909   */\n  tag_24\n  jump\t// in\ntag_87:\n    /* \"#utility.yul\":4853:4859   */\n  dup4\n    /* \"#utility.yul\":4846:4910   */\n  sstore\n    /* \"#utility.yul\":4768:4924   */\n  pop\n    /* \"#utility.yul\":4745:4924   */\ntag_86:\n    /* \"#utility.yul\":4970:4971   */\n  0x01\n    /* \"#utility.yul\":4966:4967   */\n  0x02\n    /* \"#utility.yul\":4958:4964   */\n  dup9\n    /* \"#utility.yul\":4954:4968   */\n  mul\n    /* \"#utility.yul\":4950:4972   */\n  add\n    /* \"#utility.yul\":4944:4948   */\n  dup9\n    /* \"#utility.yul\":4937:4973   */\n  sstore\n    /* \"#utility.yul\":4372:4983   */\n  pop\n  pop\n  pop\n    /* \"#utility.yul\":4335:5222   */\ntag_78:\n  pop\n    /* \"#utility.yul\":3925:5228   */\n  pop\n  pop\n  pop\n    /* \"#utility.yul\":3833:5228   */\n  pop\n  pop\n  jump\t// out\n    /* \"contracts/SimpleStorage.sol\":60:1972  contract FirstContract {... */\ntag_5:\n  dataSize(sub_0)\n  dup1\n  dataOffset(sub_0)\n  0x00\n  codecopy\n  0x00\n  return\nstop\n\nsub_0: assembly {\n        /* \"contracts/SimpleStorage.sol\":60:1972  contract FirstContract {... */\n      mstore(0x40, 0x80)\n      callvalue\n      dup1\n      iszero\n      tag_1\n      jumpi\n      0x00\n      dup1\n      revert\n    tag_1:\n      pop\n      jumpi(tag_2, lt(calldatasize, 0x04))\n      shr(0xe0, calldataload(0x00))\n      dup1\n      0x2e64cec1\n      eq\n      tag_3\n      jumpi\n      dup1\n      0x3e1430af\n      eq\n      tag_4\n      jumpi\n      dup1\n      0x510f17c5\n      eq\n      tag_5\n      jumpi\n      dup1\n      0x5b6fbd45\n      eq\n      tag_6\n      jumpi\n      dup1\n      0x82ab890a\n      eq\n      tag_7\n      jumpi\n      dup1\n      0xb2ac62ef\n      eq\n      tag_8\n      jumpi\n    tag_2:\n      0x00\n      dup1\n      revert\n        /* \"contracts/SimpleStorage.sol\":1878:1969  function retrieve() public view returns (uint256) {... */\n    tag_3:\n      tag_9\n      tag_10\n      jump\t// in\n    tag_9:\n      mload(0x40)\n      tag_11\n      swap2\n      swap1\n      tag_12\n      jump\t// in\n    tag_11:\n      mload(0x40)\n      dup1\n      swap2\n      sub\n      swap1\n      return\n        /* \"contracts/SimpleStorage.sol\":849:923  Person public ad = Person({genericFavouriteNumber: 7, name: \"adsince2k4\"}) */\n    tag_4:\n      tag_13\n      tag_14\n      jump\t// in\n    tag_13:\n      mload(0x40)\n      tag_15\n      swap3\n      swap2\n      swap1\n      tag_16\n      jump\t// in\n    tag_15:\n      mload(0x40)\n      dup1\n      swap2\n      sub\n      swap1\n      return\n        /* \"contracts/SimpleStorage.sol\":991:1020  Person[] public listOfPersons */\n    tag_5:\n      tag_17\n      0x04\n      dup1\n      calldatasize\n      sub\n      dup2\n      add\n      swap1\n      tag_18\n      swap2\n      swap1\n      tag_19\n      jump\t// in\n    tag_18:\n      tag_20\n      jump\t// in\n    tag_17:\n      mload(0x40)\n      tag_21\n      swap3\n      swap2\n      swap1\n      tag_16\n      jump\t// in\n    tag_21:\n      mload(0x40)\n      dup1\n      swap2\n      sub\n      swap1\n      return\n        /* \"contracts/SimpleStorage.sol\":1121:1381  function addPersons(uint _genericFavouriteNumber ,string memory _name) public {... */\n    tag_6:\n      tag_22\n      0x04\n      dup1\n      calldatasize\n      sub\n      dup2\n      add\n      swap1\n      tag_23\n      swap2\n      swap1\n      tag_24\n      jump\t// in\n    tag_23:\n      tag_25\n      jump\t// in\n    tag_22:\n      stop\n        /* \"contracts/SimpleStorage.sol\":1495:1605  function update(uint256 _favouriteNumber) public virtual {... */\n    tag_7:\n      tag_26\n      0x04\n      dup1\n      calldatasize\n      sub\n      dup2\n      add\n      swap1\n      tag_27\n      swap2\n      swap1\n      tag_19\n      jump\t// in\n    tag_27:\n      tag_28\n      jump\t// in\n    tag_26:\n      stop\n        /* \"contracts/SimpleStorage.sol\":1029:1082  mapping(string=>uint256) public nameToFavouriteNumber */\n    tag_8:\n      tag_29\n      0x04\n      dup1\n      calldatasize\n      sub\n      dup2\n      add\n      swap1\n      tag_30\n      swap2\n      swap1\n      tag_31\n      jump\t// in\n    tag_30:\n      tag_32\n      jump\t// in\n    tag_29:\n      mload(0x40)\n      tag_33\n      swap2\n      swap1\n      tag_12\n      jump\t// in\n    tag_33:\n      mload(0x40)\n      dup1\n      swap2\n      sub\n      swap1\n      return\n        /* \"contracts/SimpleStorage.sol\":1878:1969  function retrieve() public view returns (uint256) {... */\n    tag_10:\n        /* \"contracts/SimpleStorage.sol\":1919:1926  uint256 */\n      0x00\n        /* \"contracts/SimpleStorage.sol\":1946:1961  favouriteNumber */\n      sload(0x05)\n        /* \"contracts/SimpleStorage.sol\":1939:1961  return favouriteNumber */\n      swap1\n      pop\n        /* \"contracts/SimpleStorage.sol\":1878:1969  function retrieve() public view returns (uint256) {... */\n      swap1\n      jump\t// out\n        /* \"contracts/SimpleStorage.sol\":849:923  Person public ad = Person({genericFavouriteNumber: 7, name: \"adsince2k4\"}) */\n    tag_14:\n      0x07\n      dup1\n      0x00\n      add\n      sload\n      swap1\n      dup1\n      0x01\n      add\n      dup1\n      sload\n      tag_35\n      swap1\n      tag_36\n      jump\t// in\n    tag_35:\n      dup1\n      0x1f\n      add\n      0x20\n      dup1\n      swap2\n      div\n      mul\n      0x20\n      add\n      mload(0x40)\n      swap1\n      dup2\n      add\n      0x40\n      mstore\n      dup1\n      swap3\n      swap2\n      swap1\n      dup2\n      dup2\n      mstore\n      0x20\n      add\n      dup3\n      dup1\n      sload\n      tag_37\n      swap1\n      tag_36\n      jump\t// in\n    tag_37:\n      dup1\n      iszero\n      tag_38\n      jumpi\n      dup1\n      0x1f\n      lt\n      tag_39\n      jumpi\n      0x0100\n      dup1\n      dup4\n      sload\n      div\n      mul\n      dup4\n      mstore\n      swap2\n      0x20\n      add\n      swap2\n      jump(tag_38)\n    tag_39:\n      dup3\n      add\n      swap2\n      swap1\n      0x00\n      mstore\n      keccak256(0x00, 0x20)\n      swap1\n    tag_40:\n      dup2\n      sload\n      dup2\n      mstore\n      swap1\n      0x01\n      add\n      swap1\n      0x20\n      add\n      dup1\n      dup4\n      gt\n      tag_40\n      jumpi\n      dup3\n      swap1\n      sub\n      0x1f\n      and\n      dup3\n      add\n      swap2\n    tag_38:\n      pop\n      pop\n      pop\n      pop\n      pop\n      swap1\n      pop\n      dup3\n      jump\t// out\n        /* \"contracts/SimpleStorage.sol\":991:1020  Person[] public listOfPersons */\n    tag_20:\n      0x09\n      dup2\n      dup2\n      sload\n      dup2\n      lt\n      tag_41\n      jumpi\n      0x00\n      dup1\n      revert\n    tag_41:\n      swap1\n      0x00\n      mstore\n      keccak256(0x00, 0x20)\n      swap1\n      0x02\n      mul\n      add\n      0x00\n      swap2\n      pop\n      swap1\n      pop\n      dup1\n      0x00\n      add\n      sload\n      swap1\n      dup1\n      0x01\n      add\n      dup1\n      sload\n      tag_43\n      swap1\n      tag_36\n      jump\t// in\n    tag_43:\n      dup1\n      0x1f\n      add\n      0x20\n      dup1\n      swap2\n      div\n      mul\n      0x20\n      add\n      mload(0x40)\n      swap1\n      dup2\n      add\n      0x40\n      mstore\n      dup1\n      swap3\n      swap2\n      swap1\n      dup2\n      dup2\n      mstore\n      0x20\n      add\n      dup3\n      dup1\n      sload\n      tag_44\n      swap1\n      tag_36\n      jump\t// in\n    tag_44:\n      dup1\n      iszero\n      tag_45\n      jumpi\n      dup1\n      0x1f\n      lt\n      tag_46\n      jumpi\n      0x0100\n      dup1\n      dup4\n      sload\n      div\n      mul\n      dup4\n      mstore\n      swap2\n      0x20\n      add\n      swap2\n      jump(tag_45)\n    tag_46:\n      dup3\n      add\n      swap2\n      swap1\n      0x00\n      mstore\n      keccak256(0x00, 0x20)\n      swap1\n    tag_47:\n      dup2\n      sload\n      dup2\n      mstore\n      swap1\n      0x01\n      add\n      swap1\n      0x20\n      add\n      dup1\n      dup4\n      gt\n      tag_47\n      jumpi\n      dup3\n      swap1\n      sub\n      0x1f\n      and\n      dup3\n      add\n      swap2\n    tag_45:\n      pop\n      pop\n      pop\n      pop\n      pop\n      swap1\n      pop\n      dup3\n      jump\t// out\n        /* \"contracts/SimpleStorage.sol\":1121:1381  function addPersons(uint _genericFavouriteNumber ,string memory _name) public {... */\n    tag_25:\n        /* \"contracts/SimpleStorage.sol\":1210:1230  Person memory person */\n      0x00\n        /* \"contracts/SimpleStorage.sol\":1233:1271  Person(_genericFavouriteNumber, _name) */\n      mload(0x40)\n      dup1\n      0x40\n      add\n      0x40\n      mstore\n      dup1\n        /* \"contracts/SimpleStorage.sol\":1240:1263  _genericFavouriteNumber */\n      dup5\n        /* \"contracts/SimpleStorage.sol\":1233:1271  Person(_genericFavouriteNumber, _name) */\n      dup2\n      mstore\n      0x20\n      add\n        /* \"contracts/SimpleStorage.sol\":1265:1270  _name */\n      dup4\n        /* \"contracts/SimpleStorage.sol\":1233:1271  Person(_genericFavouriteNumber, _name) */\n      dup2\n      mstore\n      pop\n        /* \"contracts/SimpleStorage.sol\":1210:1271  Person memory person = Person(_genericFavouriteNumber, _name) */\n      swap1\n      pop\n        /* \"contracts/SimpleStorage.sol\":1282:1295  listOfPersons */\n      0x09\n        /* \"contracts/SimpleStorage.sol\":1301:1307  person */\n      dup2\n        /* \"contracts/SimpleStorage.sol\":1282:1308  listOfPersons.push(person) */\n      swap1\n      dup1\n      0x01\n      dup2\n      sload\n      add\n      dup1\n      dup3\n      sstore\n      dup1\n      swap2\n      pop\n      pop\n      0x01\n      swap1\n      sub\n      swap1\n      0x00\n      mstore\n      keccak256(0x00, 0x20)\n      swap1\n      0x02\n      mul\n      add\n      0x00\n      swap1\n      swap2\n      swap1\n      swap2\n      swap1\n      swap2\n      pop\n      0x00\n      dup3\n      add\n      mload\n      dup2\n      0x00\n      add\n      sstore\n      0x20\n      dup3\n      add\n      mload\n      dup2\n      0x01\n      add\n      swap1\n      dup2\n      tag_50\n      swap2\n      swap1\n      tag_51\n      jump\t// in\n    tag_50:\n      pop\n      pop\n      pop\n        /* \"contracts/SimpleStorage.sol\":1350:1373  _genericFavouriteNumber */\n      dup3\n        /* \"contracts/SimpleStorage.sol\":1319:1340  nameToFavouriteNumber */\n      0x0a\n        /* \"contracts/SimpleStorage.sol\":1341:1346  _name */\n      dup4\n        /* \"contracts/SimpleStorage.sol\":1319:1347  nameToFavouriteNumber[_name] */\n      mload(0x40)\n      tag_52\n      swap2\n      swap1\n      tag_53\n      jump\t// in\n    tag_52:\n      swap1\n      dup2\n      mstore\n      0x20\n      add\n      mload(0x40)\n      dup1\n      swap2\n      sub\n      swap1\n      keccak256\n        /* \"contracts/SimpleStorage.sol\":1319:1373  nameToFavouriteNumber[_name] = _genericFavouriteNumber */\n      dup2\n      swap1\n      sstore\n      pop\n        /* \"contracts/SimpleStorage.sol\":1199:1381  {... */\n      pop\n        /* \"contracts/SimpleStorage.sol\":1121:1381  function addPersons(uint _genericFavouriteNumber ,string memory _name) public {... */\n      pop\n      pop\n      jump\t// out\n        /* \"contracts/SimpleStorage.sol\":1495:1605  function update(uint256 _favouriteNumber) public virtual {... */\n    tag_28:\n        /* \"contracts/SimpleStorage.sol\":1581:1597  _favouriteNumber */\n      dup1\n        /* \"contracts/SimpleStorage.sol\":1563:1578  favouriteNumber */\n      0x05\n        /* \"contracts/SimpleStorage.sol\":1563:1597  favouriteNumber = _favouriteNumber */\n      dup2\n      swap1\n      sstore\n      pop\n        /* \"contracts/SimpleStorage.sol\":1495:1605  function update(uint256 _favouriteNumber) public virtual {... */\n      pop\n      jump\t// out\n        /* \"contracts/SimpleStorage.sol\":1029:1082  mapping(string=>uint256) public nameToFavouriteNumber */\n    tag_32:\n      0x0a\n      dup2\n      dup1\n      mload\n      0x20\n      dup2\n      add\n      dup3\n      add\n      dup1\n      mload\n      dup5\n      dup3\n      mstore\n      0x20\n      dup4\n      add\n      0x20\n      dup6\n      add\n      keccak256\n      dup2\n      dup4\n      mstore\n      dup1\n      swap6\n      pop\n      pop\n      pop\n      pop\n      pop\n      pop\n      0x00\n      swap2\n      pop\n      swap1\n      pop\n      sload\n      dup2\n      jump\t// out\n        /* \"#utility.yul\":7:84   */\n    tag_55:\n        /* \"#utility.yul\":44:51   */\n      0x00\n        /* \"#utility.yul\":73:78   */\n      dup2\n        /* \"#utility.yul\":62:78   */\n      swap1\n      pop\n        /* \"#utility.yul\":7:84   */\n      swap2\n      swap1\n      pop\n      jump\t// out\n        /* \"#utility.yul\":90:208   */\n    tag_56:\n        /* \"#utility.yul\":177:201   */\n      tag_97\n        /* \"#utility.yul\":195:200   */\n      dup2\n        /* \"#utility.yul\":177:201   */\n      tag_55\n      jump\t// in\n    tag_97:\n        /* \"#utility.yul\":172:175   */\n      dup3\n        /* \"#utility.yul\":165:202   */\n      mstore\n        /* \"#utility.yul\":90:208   */\n      pop\n      pop\n      jump\t// out\n        /* \"#utility.yul\":214:436   */\n    tag_12:\n        /* \"#utility.yul\":307:311   */\n      0x00\n        /* \"#utility.yul\":345:347   */\n      0x20\n        /* \"#utility.yul\":334:343   */\n      dup3\n        /* \"#utility.yul\":330:348   */\n      add\n        /* \"#utility.yul\":322:348   */\n      swap1\n      pop\n        /* \"#utility.yul\":358:429   */\n      tag_99\n        /* \"#utility.yul\":426:427   */\n      0x00\n        /* \"#utility.yul\":415:424   */\n      dup4\n        /* \"#utility.yul\":411:428   */\n      add\n        /* \"#utility.yul\":402:408   */\n      dup5\n        /* \"#utility.yul\":358:429   */\n      tag_56\n      jump\t// in\n    tag_99:\n        /* \"#utility.yul\":214:436   */\n      swap3\n      swap2\n      pop\n      pop\n      jump\t// out\n        /* \"#utility.yul\":442:541   */\n    tag_57:\n        /* \"#utility.yul\":494:500   */\n      0x00\n        /* \"#utility.yul\":528:533   */\n      dup2\n        /* \"#utility.yul\":522:534   */\n      mload\n        /* \"#utility.yul\":512:534   */\n      swap1\n      pop\n        /* \"#utility.yul\":442:541   */\n      swap2\n      swap1\n      pop\n      jump\t// out\n        /* \"#utility.yul\":547:716   */\n    tag_58:\n        /* \"#utility.yul\":631:642   */\n      0x00\n        /* \"#utility.yul\":665:671   */\n      dup3\n        /* \"#utility.yul\":660:663   */\n      dup3\n        /* \"#utility.yul\":653:672   */\n      mstore\n        /* \"#utility.yul\":705:709   */\n      0x20\n        /* \"#utility.yul\":700:703   */\n      dup3\n        /* \"#utility.yul\":696:710   */\n      add\n        /* \"#utility.yul\":681:710   */\n      swap1\n      pop\n        /* \"#utility.yul\":547:716   */\n      swap3\n      swap2\n      pop\n      pop\n      jump\t// out\n        /* \"#utility.yul\":722:861   */\n    tag_59:\n        /* \"#utility.yul\":811:817   */\n      dup3\n        /* \"#utility.yul\":806:809   */\n      dup2\n        /* \"#utility.yul\":801:804   */\n      dup4\n        /* \"#utility.yul\":795:818   */\n      mcopy\n        /* \"#utility.yul\":852:853   */\n      0x00\n        /* \"#utility.yul\":843:849   */\n      dup4\n        /* \"#utility.yul\":838:841   */\n      dup4\n        /* \"#utility.yul\":834:850   */\n      add\n        /* \"#utility.yul\":827:854   */\n      mstore\n        /* \"#utility.yul\":722:861   */\n      pop\n      pop\n      pop\n      jump\t// out\n        /* \"#utility.yul\":867:969   */\n    tag_60:\n        /* \"#utility.yul\":908:914   */\n      0x00\n        /* \"#utility.yul\":959:961   */\n      0x1f\n        /* \"#utility.yul\":955:962   */\n      not\n        /* \"#utility.yul\":950:952   */\n      0x1f\n        /* \"#utility.yul\":943:948   */\n      dup4\n        /* \"#utility.yul\":939:953   */\n      add\n        /* \"#utility.yul\":935:963   */\n      and\n        /* \"#utility.yul\":925:963   */\n      swap1\n      pop\n        /* \"#utility.yul\":867:969   */\n      swap2\n      swap1\n      pop\n      jump\t// out\n        /* \"#utility.yul\":975:1352   */\n    tag_61:\n        /* \"#utility.yul\":1063:1066   */\n      0x00\n        /* \"#utility.yul\":1091:1130   */\n      tag_105\n        /* \"#utility.yul\":1124:1129   */\n      dup3\n        /* \"#utility.yul\":1091:1130   */\n      tag_57\n      jump\t// in\n    tag_105:\n        /* \"#utility.yul\":1146:1217   */\n      tag_106\n        /* \"#utility.yul\":1210:1216   */\n      dup2\n        /* \"#utility.yul\":1205:1208   */\n      dup6\n        /* \"#utility.yul\":1146:1217   */\n      tag_58\n      jump\t// in\n    tag_106:\n        /* \"#utility.yul\":1139:1217   */\n      swap4\n      pop\n        /* \"#utility.yul\":1226:1291   */\n      tag_107\n        /* \"#utility.yul\":1284:1290   */\n      dup2\n        /* \"#utility.yul\":1279:1282   */\n      dup6\n        /* \"#utility.yul\":1272:1276   */\n      0x20\n        /* \"#utility.yul\":1265:1270   */\n      dup7\n        /* \"#utility.yul\":1261:1277   */\n      add\n        /* \"#utility.yul\":1226:1291   */\n      tag_59\n      jump\t// in\n    tag_107:\n        /* \"#utility.yul\":1316:1345   */\n      tag_108\n        /* \"#utility.yul\":1338:1344   */\n      dup2\n        /* \"#utility.yul\":1316:1345   */\n      tag_60\n      jump\t// in\n    tag_108:\n        /* \"#utility.yul\":1311:1314   */\n      dup5\n        /* \"#utility.yul\":1307:1346   */\n      add\n        /* \"#utility.yul\":1300:1346   */\n      swap2\n      pop\n        /* \"#utility.yul\":1067:1352   */\n      pop\n        /* \"#utility.yul\":975:1352   */\n      swap3\n      swap2\n      pop\n      pop\n      jump\t// out\n        /* \"#utility.yul\":1358:1781   */\n    tag_16:\n        /* \"#utility.yul\":1499:1503   */\n      0x00\n        /* \"#utility.yul\":1537:1539   */\n      0x40\n        /* \"#utility.yul\":1526:1535   */\n      dup3\n        /* \"#utility.yul\":1522:1540   */\n      add\n        /* \"#utility.yul\":1514:1540   */\n      swap1\n      pop\n        /* \"#utility.yul\":1550:1621   */\n      tag_110\n        /* \"#utility.yul\":1618:1619   */\n      0x00\n        /* \"#utility.yul\":1607:1616   */\n      dup4\n        /* \"#utility.yul\":1603:1620   */\n      add\n        /* \"#utility.yul\":1594:1600   */\n      dup6\n        /* \"#utility.yul\":1550:1621   */\n      tag_56\n      jump\t// in\n    tag_110:\n        /* \"#utility.yul\":1668:1677   */\n      dup2\n        /* \"#utility.yul\":1662:1666   */\n      dup2\n        /* \"#utility.yul\":1658:1678   */\n      sub\n        /* \"#utility.yul\":1653:1655   */\n      0x20\n        /* \"#utility.yul\":1642:1651   */\n      dup4\n        /* \"#utility.yul\":1638:1656   */\n      add\n        /* \"#utility.yul\":1631:1679   */\n      mstore\n        /* \"#utility.yul\":1696:1774   */\n      tag_111\n        /* \"#utility.yul\":1769:1773   */\n      dup2\n        /* \"#utility.yul\":1760:1766   */\n      dup5\n        /* \"#utility.yul\":1696:1774   */\n      tag_61\n      jump\t// in\n    tag_111:\n        /* \"#utility.yul\":1688:1774   */\n      swap1\n      pop\n        /* \"#utility.yul\":1358:1781   */\n      swap4\n      swap3\n      pop\n      pop\n      pop\n      jump\t// out\n        /* \"#utility.yul\":1787:1862   */\n    tag_62:\n        /* \"#utility.yul\":1820:1826   */\n      0x00\n        /* \"#utility.yul\":1853:1855   */\n      0x40\n        /* \"#utility.yul\":1847:1856   */\n      mload\n        /* \"#utility.yul\":1837:1856   */\n      swap1\n      pop\n        /* \"#utility.yul\":1787:1862   */\n      swap1\n      jump\t// out\n        /* \"#utility.yul\":1868:1985   */\n    tag_63:\n        /* \"#utility.yul\":1977:1978   */\n      0x00\n        /* \"#utility.yul\":1974:1975   */\n      dup1\n        /* \"#utility.yul\":1967:1979   */\n      revert\n        /* \"#utility.yul\":1991:2108   */\n    tag_64:\n        /* \"#utility.yul\":2100:2101   */\n      0x00\n        /* \"#utility.yul\":2097:2098   */\n      dup1\n        /* \"#utility.yul\":2090:2102   */\n      revert\n        /* \"#utility.yul\":2114:2236   */\n    tag_65:\n        /* \"#utility.yul\":2187:2211   */\n      tag_116\n        /* \"#utility.yul\":2205:2210   */\n      dup2\n        /* \"#utility.yul\":2187:2211   */\n      tag_55\n      jump\t// in\n    tag_116:\n        /* \"#utility.yul\":2180:2185   */\n      dup2\n        /* \"#utility.yul\":2177:2212   */\n      eq\n        /* \"#utility.yul\":2167:2230   */\n      tag_117\n      jumpi\n        /* \"#utility.yul\":2226:2227   */\n      0x00\n        /* \"#utility.yul\":2223:2224   */\n      dup1\n        /* \"#utility.yul\":2216:2228   */\n      revert\n        /* \"#utility.yul\":2167:2230   */\n    tag_117:\n        /* \"#utility.yul\":2114:2236   */\n      pop\n      jump\t// out\n        /* \"#utility.yul\":2242:2381   */\n    tag_66:\n        /* \"#utility.yul\":2288:2293   */\n      0x00\n        /* \"#utility.yul\":2326:2332   */\n      dup2\n        /* \"#utility.yul\":2313:2333   */\n      calldataload\n        /* \"#utility.yul\":2304:2333   */\n      swap1\n      pop\n        /* \"#utility.yul\":2342:2375   */\n      tag_119\n        /* \"#utility.yul\":2369:2374   */\n      dup2\n        /* \"#utility.yul\":2342:2375   */\n      tag_65\n      jump\t// in\n    tag_119:\n        /* \"#utility.yul\":2242:2381   */\n      swap3\n      swap2\n      pop\n      pop\n      jump\t// out\n        /* \"#utility.yul\":2387:2716   */\n    tag_19:\n        /* \"#utility.yul\":2446:2452   */\n      0x00\n        /* \"#utility.yul\":2495:2497   */\n      0x20\n        /* \"#utility.yul\":2483:2492   */\n      dup3\n        /* \"#utility.yul\":2474:2481   */\n      dup5\n        /* \"#utility.yul\":2470:2493   */\n      sub\n        /* \"#utility.yul\":2466:2498   */\n      slt\n        /* \"#utility.yul\":2463:2582   */\n      iszero\n      tag_121\n      jumpi\n        /* \"#utility.yul\":2501:2580   */\n      tag_122\n      tag_63\n      jump\t// in\n    tag_122:\n        /* \"#utility.yul\":2463:2582   */\n    tag_121:\n        /* \"#utility.yul\":2621:2622   */\n      0x00\n        /* \"#utility.yul\":2646:2699   */\n      tag_123\n        /* \"#utility.yul\":2691:2698   */\n      dup5\n        /* \"#utility.yul\":2682:2688   */\n      dup3\n        /* \"#utility.yul\":2671:2680   */\n      dup6\n        /* \"#utility.yul\":2667:2689   */\n      add\n        /* \"#utility.yul\":2646:2699   */\n      tag_66\n      jump\t// in\n    tag_123:\n        /* \"#utility.yul\":2636:2699   */\n      swap2\n      pop\n        /* \"#utility.yul\":2592:2709   */\n      pop\n        /* \"#utility.yul\":2387:2716   */\n      swap3\n      swap2\n      pop\n      pop\n      jump\t// out\n        /* \"#utility.yul\":2722:2839   */\n    tag_67:\n        /* \"#utility.yul\":2831:2832   */\n      0x00\n        /* \"#utility.yul\":2828:2829   */\n      dup1\n        /* \"#utility.yul\":2821:2833   */\n      revert\n        /* \"#utility.yul\":2845:2962   */\n    tag_68:\n        /* \"#utility.yul\":2954:2955   */\n      0x00\n        /* \"#utility.yul\":2951:2952   */\n      dup1\n        /* \"#utility.yul\":2944:2956   */\n      revert\n        /* \"#utility.yul\":2968:3148   */\n    tag_69:\n        /* \"#utility.yul\":3016:3093   */\n      0x4e487b7100000000000000000000000000000000000000000000000000000000\n        /* \"#utility.yul\":3013:3014   */\n      0x00\n        /* \"#utility.yul\":3006:3094   */\n      mstore\n        /* \"#utility.yul\":3113:3117   */\n      0x41\n        /* \"#utility.yul\":3110:3111   */\n      0x04\n        /* \"#utility.yul\":3103:3118   */\n      mstore\n        /* \"#utility.yul\":3137:3141   */\n      0x24\n        /* \"#utility.yul\":3134:3135   */\n      0x00\n        /* \"#utility.yul\":3127:3142   */\n      revert\n        /* \"#utility.yul\":3154:3435   */\n    tag_70:\n        /* \"#utility.yul\":3237:3264   */\n      tag_128\n        /* \"#utility.yul\":3259:3263   */\n      dup3\n        /* \"#utility.yul\":3237:3264   */\n      tag_60\n      jump\t// in\n    tag_128:\n        /* \"#utility.yul\":3229:3235   */\n      dup2\n        /* \"#utility.yul\":3225:3265   */\n      add\n        /* \"#utility.yul\":3367:3373   */\n      dup2\n        /* \"#utility.yul\":3355:3365   */\n      dup2\n        /* \"#utility.yul\":3352:3374   */\n      lt\n        /* \"#utility.yul\":3331:3349   */\n      0xffffffffffffffff\n        /* \"#utility.yul\":3319:3329   */\n      dup3\n        /* \"#utility.yul\":3316:3350   */\n      gt\n        /* \"#utility.yul\":3313:3375   */\n      or\n        /* \"#utility.yul\":3310:3398   */\n      iszero\n      tag_129\n      jumpi\n        /* \"#utility.yul\":3378:3396   */\n      tag_130\n      tag_69\n      jump\t// in\n    tag_130:\n        /* \"#utility.yul\":3310:3398   */\n    tag_129:\n        /* \"#utility.yul\":3418:3428   */\n      dup1\n        /* \"#utility.yul\":3414:3416   */\n      0x40\n        /* \"#utility.yul\":3407:3429   */\n      mstore\n        /* \"#utility.yul\":3197:3435   */\n      pop\n        /* \"#utility.yul\":3154:3435   */\n      pop\n      pop\n      jump\t// out\n        /* \"#utility.yul\":3441:3570   */\n    tag_71:\n        /* \"#utility.yul\":3475:3481   */\n      0x00\n        /* \"#utility.yul\":3502:3522   */\n      tag_132\n      tag_62\n      jump\t// in\n    tag_132:\n        /* \"#utility.yul\":3492:3522   */\n      swap1\n      pop\n        /* \"#utility.yul\":3531:3564   */\n      tag_133\n        /* \"#utility.yul\":3559:3563   */\n      dup3\n        /* \"#utility.yul\":3551:3557   */\n      dup3\n        /* \"#utility.yul\":3531:3564   */\n      tag_70\n      jump\t// in\n    tag_133:\n        /* \"#utility.yul\":3441:3570   */\n      swap2\n      swap1\n      pop\n      jump\t// out\n        /* \"#utility.yul\":3576:3884   */\n    tag_72:\n        /* \"#utility.yul\":3638:3642   */\n      0x00\n        /* \"#utility.yul\":3728:3746   */\n      0xffffffffffffffff\n        /* \"#utility.yul\":3720:3726   */\n      dup3\n        /* \"#utility.yul\":3717:3747   */\n      gt\n        /* \"#utility.yul\":3714:3770   */\n      iszero\n      tag_135\n      jumpi\n        /* \"#utility.yul\":3750:3768   */\n      tag_136\n      tag_69\n      jump\t// in\n    tag_136:\n        /* \"#utility.yul\":3714:3770   */\n    tag_135:\n        /* \"#utility.yul\":3788:3817   */\n      tag_137\n        /* \"#utility.yul\":3810:3816   */\n      dup3\n        /* \"#utility.yul\":3788:3817   */\n      tag_60\n      jump\t// in\n    tag_137:\n        /* \"#utility.yul\":3780:3817   */\n      swap1\n      pop\n        /* \"#utility.yul\":3872:3876   */\n      0x20\n        /* \"#utility.yul\":3866:3870   */\n      dup2\n        /* \"#utility.yul\":3862:3877   */\n      add\n        /* \"#utility.yul\":3854:3877   */\n      swap1\n      pop\n        /* \"#utility.yul\":3576:3884   */\n      swap2\n      swap1\n      pop\n      jump\t// out\n        /* \"#utility.yul\":3890:4038   */\n    tag_73:\n        /* \"#utility.yul\":3988:3994   */\n      dup3\n        /* \"#utility.yul\":3983:3986   */\n      dup2\n        /* \"#utility.yul\":3978:3981   */\n      dup4\n        /* \"#utility.yul\":3965:3995   */\n      calldatacopy\n        /* \"#utility.yul\":4029:4030   */\n      0x00\n        /* \"#utility.yul\":4020:4026   */\n      dup4\n        /* \"#utility.yul\":4015:4018   */\n      dup4\n        /* \"#utility.yul\":4011:4027   */\n      add\n        /* \"#utility.yul\":4004:4031   */\n      mstore\n        /* \"#utility.yul\":3890:4038   */\n      pop\n      pop\n      pop\n      jump\t// out\n        /* \"#utility.yul\":4044:4469   */\n    tag_74:\n        /* \"#utility.yul\":4122:4127   */\n      0x00\n        /* \"#utility.yul\":4147:4213   */\n      tag_140\n        /* \"#utility.yul\":4163:4212   */\n      tag_141\n        /* \"#utility.yul\":4205:4211   */\n      dup5\n        /* \"#utility.yul\":4163:4212   */\n      tag_72\n      jump\t// in\n    tag_141:\n        /* \"#utility.yul\":4147:4213   */\n      tag_71\n      jump\t// in\n    tag_140:\n        /* \"#utility.yul\":4138:4213   */\n      swap1\n      pop\n        /* \"#utility.yul\":4236:4242   */\n      dup3\n        /* \"#utility.yul\":4229:4234   */\n      dup2\n        /* \"#utility.yul\":4222:4243   */\n      mstore\n        /* \"#utility.yul\":4274:4278   */\n      0x20\n        /* \"#utility.yul\":4267:4272   */\n      dup2\n        /* \"#utility.yul\":4263:4279   */\n      add\n        /* \"#utility.yul\":4312:4315   */\n      dup5\n        /* \"#utility.yul\":4303:4309   */\n      dup5\n        /* \"#utility.yul\":4298:4301   */\n      dup5\n        /* \"#utility.yul\":4294:4310   */\n      add\n        /* \"#utility.yul\":4291:4316   */\n      gt\n        /* \"#utility.yul\":4288:4400   */\n      iszero\n      tag_142\n      jumpi\n        /* \"#utility.yul\":4319:4398   */\n      tag_143\n      tag_68\n      jump\t// in\n    tag_143:\n        /* \"#utility.yul\":4288:4400   */\n    tag_142:\n        /* \"#utility.yul\":4409:4463   */\n      tag_144\n        /* \"#utility.yul\":4456:4462   */\n      dup5\n        /* \"#utility.yul\":4451:4454   */\n      dup3\n        /* \"#utility.yul\":4446:4449   */\n      dup6\n        /* \"#utility.yul\":4409:4463   */\n      tag_73\n      jump\t// in\n    tag_144:\n        /* \"#utility.yul\":4128:4469   */\n      pop\n        /* \"#utility.yul\":4044:4469   */\n      swap4\n      swap3\n      pop\n      pop\n      pop\n      jump\t// out\n        /* \"#utility.yul\":4489:4829   */\n    tag_75:\n        /* \"#utility.yul\":4545:4550   */\n      0x00\n        /* \"#utility.yul\":4594:4597   */\n      dup3\n        /* \"#utility.yul\":4587:4591   */\n      0x1f\n        /* \"#utility.yul\":4579:4585   */\n      dup4\n        /* \"#utility.yul\":4575:4592   */\n      add\n        /* \"#utility.yul\":4571:4598   */\n      slt\n        /* \"#utility.yul\":4561:4683   */\n      tag_146\n      jumpi\n        /* \"#utility.yul\":4602:4681   */\n      tag_147\n      tag_67\n      jump\t// in\n    tag_147:\n        /* \"#utility.yul\":4561:4683   */\n    tag_146:\n        /* \"#utility.yul\":4719:4725   */\n      dup2\n        /* \"#utility.yul\":4706:4726   */\n      calldataload\n        /* \"#utility.yul\":4744:4823   */\n      tag_148\n        /* \"#utility.yul\":4819:4822   */\n      dup5\n        /* \"#utility.yul\":4811:4817   */\n      dup3\n        /* \"#utility.yul\":4804:4808   */\n      0x20\n        /* \"#utility.yul\":4796:4802   */\n      dup7\n        /* \"#utility.yul\":4792:4809   */\n      add\n        /* \"#utility.yul\":4744:4823   */\n      tag_74\n      jump\t// in\n    tag_148:\n        /* \"#utility.yul\":4735:4823   */\n      swap2\n      pop\n        /* \"#utility.yul\":4551:4829   */\n      pop\n        /* \"#utility.yul\":4489:4829   */\n      swap3\n      swap2\n      pop\n      pop\n      jump\t// out\n        /* \"#utility.yul\":4835:5489   */\n    tag_24:\n        /* \"#utility.yul\":4913:4919   */\n      0x00\n        /* \"#utility.yul\":4921:4927   */\n      dup1\n        /* \"#utility.yul\":4970:4972   */\n      0x40\n        /* \"#utility.yul\":4958:4967   */\n      dup4\n        /* \"#utility.yul\":4949:4956   */\n      dup6\n        /* \"#utility.yul\":4945:4968   */\n      sub\n        /* \"#utility.yul\":4941:4973   */\n      slt\n        /* \"#utility.yul\":4938:5057   */\n      iszero\n      tag_150\n      jumpi\n        /* \"#utility.yul\":4976:5055   */\n      tag_151\n      tag_63\n      jump\t// in\n    tag_151:\n        /* \"#utility.yul\":4938:5057   */\n    tag_150:\n        /* \"#utility.yul\":5096:5097   */\n      0x00\n        /* \"#utility.yul\":5121:5174   */\n      tag_152\n        /* \"#utility.yul\":5166:5173   */\n      dup6\n        /* \"#utility.yul\":5157:5163   */\n      dup3\n        /* \"#utility.yul\":5146:5155   */\n      dup7\n        /* \"#utility.yul\":5142:5164   */\n      add\n        /* \"#utility.yul\":5121:5174   */\n      tag_66\n      jump\t// in\n    tag_152:\n        /* \"#utility.yul\":5111:5174   */\n      swap3\n      pop\n        /* \"#utility.yul\":5067:5184   */\n      pop\n        /* \"#utility.yul\":5251:5253   */\n      0x20\n        /* \"#utility.yul\":5240:5249   */\n      dup4\n        /* \"#utility.yul\":5236:5254   */\n      add\n        /* \"#utility.yul\":5223:5255   */\n      calldataload\n        /* \"#utility.yul\":5282:5300   */\n      0xffffffffffffffff\n        /* \"#utility.yul\":5274:5280   */\n      dup2\n        /* \"#utility.yul\":5271:5301   */\n      gt\n        /* \"#utility.yul\":5268:5385   */\n      iszero\n      tag_153\n      jumpi\n        /* \"#utility.yul\":5304:5383   */\n      tag_154\n      tag_64\n      jump\t// in\n    tag_154:\n        /* \"#utility.yul\":5268:5385   */\n    tag_153:\n        /* \"#utility.yul\":5409:5472   */\n      tag_155\n        /* \"#utility.yul\":5464:5471   */\n      dup6\n        /* \"#utility.yul\":5455:5461   */\n      dup3\n        /* \"#utility.yul\":5444:5453   */\n      dup7\n        /* \"#utility.yul\":5440:5462   */\n      add\n        /* \"#utility.yul\":5409:5472   */\n      tag_75\n      jump\t// in\n    tag_155:\n        /* \"#utility.yul\":5399:5472   */\n      swap2\n      pop\n        /* \"#utility.yul\":5194:5482   */\n      pop\n        /* \"#utility.yul\":4835:5489   */\n      swap3\n      pop\n      swap3\n      swap1\n      pop\n      jump\t// out\n        /* \"#utility.yul\":5495:6004   */\n    tag_31:\n        /* \"#utility.yul\":5564:5570   */\n      0x00\n        /* \"#utility.yul\":5613:5615   */\n      0x20\n        /* \"#utility.yul\":5601:5610   */\n      dup3\n        /* \"#utility.yul\":5592:5599   */\n      dup5\n        /* \"#utility.yul\":5588:5611   */\n      sub\n        /* \"#utility.yul\":5584:5616   */\n      slt\n        /* \"#utility.yul\":5581:5700   */\n      iszero\n      tag_157\n      jumpi\n        /* \"#utility.yul\":5619:5698   */\n      tag_158\n      tag_63\n      jump\t// in\n    tag_158:\n        /* \"#utility.yul\":5581:5700   */\n    tag_157:\n        /* \"#utility.yul\":5767:5768   */\n      0x00\n        /* \"#utility.yul\":5756:5765   */\n      dup3\n        /* \"#utility.yul\":5752:5769   */\n      add\n        /* \"#utility.yul\":5739:5770   */\n      calldataload\n        /* \"#utility.yul\":5797:5815   */\n      0xffffffffffffffff\n        /* \"#utility.yul\":5789:5795   */\n      dup2\n        /* \"#utility.yul\":5786:5816   */\n      gt\n        /* \"#utility.yul\":5783:5900   */\n      iszero\n      tag_159\n      jumpi\n        /* \"#utility.yul\":5819:5898   */\n      tag_160\n      tag_64\n      jump\t// in\n    tag_160:\n        /* \"#utility.yul\":5783:5900   */\n    tag_159:\n        /* \"#utility.yul\":5924:5987   */\n      tag_161\n        /* \"#utility.yul\":5979:5986   */\n      dup5\n        /* \"#utility.yul\":5970:5976   */\n      dup3\n        /* \"#utility.yul\":5959:5968   */\n      dup6\n        /* \"#utility.yul\":5955:5977   */\n      add\n        /* \"#utility.yul\":5924:5987   */\n      tag_75\n      jump\t// in\n    tag_161:\n        /* \"#utility.yul\":5914:5987   */\n      swap2\n      pop\n        /* \"#utility.yul\":5710:5997   */\n      pop\n        /* \"#utility.yul\":5495:6004   */\n      swap3\n      swap2\n      pop\n      pop\n      jump\t// out\n        /* \"#utility.yul\":6010:6190   */\n    tag_76:\n        /* \"#utility.yul\":6058:6135   */\n      0x4e487b7100000000000000000000000000000000000000000000000000000000\n        /* \"#utility.yul\":6055:6056   */\n      0x00\n        /* \"#utility.yul\":6048:6136   */\n      mstore\n        /* \"#utility.yul\":6155:6159   */\n      0x22\n        /* \"#utility.yul\":6152:6153   */\n      0x04\n        /* \"#utility.yul\":6145:6160   */\n      mstore\n        /* \"#utility.yul\":6179:6183   */\n      0x24\n        /* \"#utility.yul\":6176:6177   */\n      0x00\n        /* \"#utility.yul\":6169:6184   */\n      revert\n        /* \"#utility.yul\":6196:6516   */\n    tag_36:\n        /* \"#utility.yul\":6240:6246   */\n      0x00\n        /* \"#utility.yul\":6277:6278   */\n      0x02\n        /* \"#utility.yul\":6271:6275   */\n      dup3\n        /* \"#utility.yul\":6267:6279   */\n      div\n        /* \"#utility.yul\":6257:6279   */\n      swap1\n      pop\n        /* \"#utility.yul\":6324:6325   */\n      0x01\n        /* \"#utility.yul\":6318:6322   */\n      dup3\n        /* \"#utility.yul\":6314:6326   */\n      and\n        /* \"#utility.yul\":6345:6363   */\n      dup1\n        /* \"#utility.yul\":6335:6416   */\n      tag_164\n      jumpi\n        /* \"#utility.yul\":6401:6405   */\n      0x7f\n        /* \"#utility.yul\":6393:6399   */\n      dup3\n        /* \"#utility.yul\":6389:6406   */\n      and\n        /* \"#utility.yul\":6379:6406   */\n      swap2\n      pop\n        /* \"#utility.yul\":6335:6416   */\n    tag_164:\n        /* \"#utility.yul\":6463:6465   */\n      0x20\n        /* \"#utility.yul\":6455:6461   */\n      dup3\n        /* \"#utility.yul\":6452:6466   */\n      lt\n        /* \"#utility.yul\":6432:6450   */\n      dup2\n        /* \"#utility.yul\":6429:6467   */\n      sub\n        /* \"#utility.yul\":6426:6510   */\n      tag_165\n      jumpi\n        /* \"#utility.yul\":6482:6500   */\n      tag_166\n      tag_76\n      jump\t// in\n    tag_166:\n        /* \"#utility.yul\":6426:6510   */\n    tag_165:\n        /* \"#utility.yul\":6247:6516   */\n      pop\n        /* \"#utility.yul\":6196:6516   */\n      swap2\n      swap1\n      pop\n      jump\t// out\n        /* \"#utility.yul\":6522:6663   */\n    tag_77:\n        /* \"#utility.yul\":6571:6575   */\n      0x00\n        /* \"#utility.yul\":6594:6597   */\n      dup2\n        /* \"#utility.yul\":6586:6597   */\n      swap1\n      pop\n        /* \"#utility.yul\":6617:6620   */\n      dup2\n        /* \"#utility.yul\":6614:6615   */\n      0x00\n        /* \"#utility.yul\":6607:6621   */\n      mstore\n        /* \"#utility.yul\":6651:6655   */\n      0x20\n        /* \"#utility.yul\":6648:6649   */\n      0x00\n        /* \"#utility.yul\":6638:6656   */\n      keccak256\n        /* \"#utility.yul\":6630:6656   */\n      swap1\n      pop\n        /* \"#utility.yul\":6522:6663   */\n      swap2\n      swap1\n      pop\n      jump\t// out\n        /* \"#utility.yul\":6669:6762   */\n    tag_78:\n        /* \"#utility.yul\":6706:6712   */\n      0x00\n        /* \"#utility.yul\":6753:6755   */\n      0x20\n        /* \"#utility.yul\":6748:6750   */\n      0x1f\n        /* \"#utility.yul\":6741:6746   */\n      dup4\n        /* \"#utility.yul\":6737:6751   */\n      add\n        /* \"#utility.yul\":6733:6756   */\n      div\n        /* \"#utility.yul\":6723:6756   */\n      swap1\n      pop\n        /* \"#utility.yul\":6669:6762   */\n      swap2\n      swap1\n      pop\n      jump\t// out\n        /* \"#utility.yul\":6768:6875   */\n    tag_79:\n        /* \"#utility.yul\":6812:6820   */\n      0x00\n        /* \"#utility.yul\":6862:6867   */\n      dup3\n        /* \"#utility.yul\":6856:6860   */\n      dup3\n        /* \"#utility.yul\":6852:6868   */\n      shl\n        /* \"#utility.yul\":6831:6868   */\n      swap1\n      pop\n        /* \"#utility.yul\":6768:6875   */\n      swap3\n      swap2\n      pop\n      pop\n      jump\t// out\n        /* \"#utility.yul\":6881:7274   */\n    tag_80:\n        /* \"#utility.yul\":6950:6956   */\n      0x00\n        /* \"#utility.yul\":7000:7001   */\n      0x08\n        /* \"#utility.yul\":6988:6998   */\n      dup4\n        /* \"#utility.yul\":6984:7002   */\n      mul\n        /* \"#utility.yul\":7023:7120   */\n      tag_171\n        /* \"#utility.yul\":7053:7119   */\n      0xffffffffffffffffffffffffffffffffffffffffffffffffffffffffffffffff\n        /* \"#utility.yul\":7042:7051   */\n      dup3\n        /* \"#utility.yul\":7023:7120   */\n      tag_79\n      jump\t// in\n    tag_171:\n        /* \"#utility.yul\":7141:7180   */\n      tag_172\n        /* \"#utility.yul\":7171:7179   */\n      dup7\n        /* \"#utility.yul\":7160:7169   */\n      dup4\n        /* \"#utility.yul\":7141:7180   */\n      tag_79\n      jump\t// in\n    tag_172:\n        /* \"#utility.yul\":7129:7180   */\n      swap6\n      pop\n        /* \"#utility.yul\":7213:7217   */\n      dup1\n        /* \"#utility.yul\":7209:7218   */\n      not\n        /* \"#utility.yul\":7202:7207   */\n      dup5\n        /* \"#utility.yul\":7198:7219   */\n      and\n        /* \"#utility.yul\":7189:7219   */\n      swap4\n      pop\n        /* \"#utility.yul\":7262:7266   */\n      dup1\n        /* \"#utility.yul\":7252:7260   */\n      dup7\n        /* \"#utility.yul\":7248:7267   */\n      and\n        /* \"#utility.yul\":7241:7246   */\n      dup5\n        /* \"#utility.yul\":7238:7268   */\n      or\n        /* \"#utility.yul\":7228:7268   */\n      swap3\n      pop\n        /* \"#utility.yul\":6957:7274   */\n      pop\n      pop\n        /* \"#utility.yul\":6881:7274   */\n      swap4\n      swap3\n      pop\n      pop\n      pop\n      jump\t// out\n        /* \"#utility.yul\":7280:7340   */\n    tag_81:\n        /* \"#utility.yul\":7308:7311   */\n      0x00\n        /* \"#utility.yul\":7329:7334   */\n      dup2\n        /* \"#utility.yul\":7322:7334   */\n      swap1\n      pop\n        /* \"#utility.yul\":7280:7340   */\n      swap2\n      swap1\n      pop\n      jump\t// out\n        /* \"#utility.yul\":7346:7488   */\n    tag_82:\n        /* \"#utility.yul\":7396:7405   */\n      0x00\n        /* \"#utility.yul\":7429:7482   */\n      tag_175\n        /* \"#utility.yul\":7447:7481   */\n      tag_176\n        /* \"#utility.yul\":7456:7480   */\n      tag_177\n        /* \"#utility.yul\":7474:7479   */\n      dup5\n        /* \"#utility.yul\":7456:7480   */\n      tag_55\n      jump\t// in\n    tag_177:\n        /* \"#utility.yul\":7447:7481   */\n      tag_81\n      jump\t// in\n    tag_176:\n        /* \"#utility.yul\":7429:7482   */\n      tag_55\n      jump\t// in\n    tag_175:\n        /* \"#utility.yul\":7416:7482   */\n      swap1\n      pop\n        /* \"#utility.yul\":7346:7488   */\n      swap2\n      swap1\n      pop\n      jump\t// out\n        /* \"#utility.yul\":7494:7569   */\n    tag_83:\n        /* \"#utility.yul\":7537:7540   */\n      0x00\n        /* \"#utility.yul\":7558:7563   */\n      dup2\n        /* \"#utility.yul\":7551:7563   */\n      swap1\n      pop\n        /* \"#utility.yul\":7494:7569   */\n      swap2\n      swap1\n      pop\n      jump\t// out\n        /* \"#utility.yul\":7575:7844   */\n    tag_84:\n        /* \"#utility.yul\":7685:7724   */\n      tag_180\n        /* \"#utility.yul\":7716:7723   */\n      dup4\n        /* \"#utility.yul\":7685:7724   */\n      tag_82\n      jump\t// in\n    tag_180:\n        /* \"#utility.yul\":7746:7837   */\n      tag_181\n        /* \"#utility.yul\":7795:7836   */\n      tag_182\n        /* \"#utility.yul\":7819:7835   */\n      dup3\n        /* \"#utility.yul\":7795:7836   */\n      tag_83\n      jump\t// in\n    tag_182:\n        /* \"#utility.yul\":7787:7793   */\n      dup5\n        /* \"#utility.yul\":7780:7784   */\n      dup5\n        /* \"#utility.yul\":7774:7785   */\n      sload\n        /* \"#utility.yul\":7746:7837   */\n      tag_80\n      jump\t// in\n    tag_181:\n        /* \"#utility.yul\":7740:7744   */\n      dup3\n        /* \"#utility.yul\":7733:7838   */\n      sstore\n        /* \"#utility.yul\":7651:7844   */\n      pop\n        /* \"#utility.yul\":7575:7844   */\n      pop\n      pop\n      pop\n      jump\t// out\n        /* \"#utility.yul\":7850:7923   */\n    tag_85:\n        /* \"#utility.yul\":7895:7898   */\n      0x00\n        /* \"#utility.yul\":7850:7923   */\n      swap1\n      jump\t// out\n        /* \"#utility.yul\":7929:8118   */\n    tag_86:\n        /* \"#utility.yul\":8006:8038   */\n      tag_185\n      tag_85\n      jump\t// in\n    tag_185:\n        /* \"#utility.yul\":8047:8112   */\n      tag_186\n        /* \"#utility.yul\":8105:8111   */\n      dup2\n        /* \"#utility.yul\":8097:8103   */\n      dup5\n        /* \"#utility.yul\":8091:8095   */\n      dup5\n        /* \"#utility.yul\":8047:8112   */\n      tag_84\n      jump\t// in\n    tag_186:\n        /* \"#utility.yul\":7982:8118   */\n      pop\n        /* \"#utility.yul\":7929:8118   */\n      pop\n      pop\n      jump\t// out\n        /* \"#utility.yul\":8124:8310   */\n    tag_87:\n        /* \"#utility.yul\":8184:8304   */\n    tag_188:\n        /* \"#utility.yul\":8201:8204   */\n      dup2\n        /* \"#utility.yul\":8194:8199   */\n      dup2\n        /* \"#utility.yul\":8191:8205   */\n      lt\n        /* \"#utility.yul\":8184:8304   */\n      iszero\n      tag_190\n      jumpi\n        /* \"#utility.yul\":8255:8294   */\n      tag_191\n        /* \"#utility.yul\":8292:8293   */\n      0x00\n        /* \"#utility.yul\":8285:8290   */\n      dup3\n        /* \"#utility.yul\":8255:8294   */\n      tag_86\n      jump\t// in\n    tag_191:\n        /* \"#utility.yul\":8228:8229   */\n      0x01\n        /* \"#utility.yul\":8221:8226   */\n      dup2\n        /* \"#utility.yul\":8217:8230   */\n      add\n        /* \"#utility.yul\":8208:8230   */\n      swap1\n      pop\n        /* \"#utility.yul\":8184:8304   */\n      jump(tag_188)\n    tag_190:\n        /* \"#utility.yul\":8124:8310   */\n      pop\n      pop\n      jump\t// out\n        /* \"#utility.yul\":8316:8859   */\n    tag_88:\n        /* \"#utility.yul\":8417:8419   */\n      0x1f\n        /* \"#utility.yul\":8412:8415   */\n      dup3\n        /* \"#utility.yul\":8409:8420   */\n      gt\n        /* \"#utility.yul\":8406:8852   */\n      iszero\n      tag_193\n      jumpi\n        /* \"#utility.yul\":8451:8489   */\n      tag_194\n        /* \"#utility.yul\":8483:8488   */\n      dup2\n        /* \"#utility.yul\":8451:8489   */\n      tag_77\n      jump\t// in\n    tag_194:\n        /* \"#utility.yul\":8535:8564   */\n      tag_195\n        /* \"#utility.yul\":8553:8563   */\n      dup5\n        /* \"#utility.yul\":8535:8564   */\n      tag_78\n      jump\t// in\n    tag_195:\n        /* \"#utility.yul\":8525:8533   */\n      dup2\n        /* \"#utility.yul\":8521:8565   */\n      add\n        /* \"#utility.yul\":8718:8720   */\n      0x20\n        /* \"#utility.yul\":8706:8716   */\n      dup6\n        /* \"#utility.yul\":8703:8721   */\n      lt\n        /* \"#utility.yul\":8700:8749   */\n      iszero\n      tag_196\n      jumpi\n        /* \"#utility.yul\":8739:8747   */\n      dup2\n        /* \"#utility.yul\":8724:8747   */\n      swap1\n      pop\n        /* \"#utility.yul\":8700:8749   */\n    tag_196:\n        /* \"#utility.yul\":8762:8842   */\n      tag_197\n        /* \"#utility.yul\":8818:8840   */\n      tag_198\n        /* \"#utility.yul\":8836:8839   */\n      dup6\n        /* \"#utility.yul\":8818:8840   */\n      tag_78\n      jump\t// in\n    tag_198:\n        /* \"#utility.yul\":8808:8816   */\n      dup4\n        /* \"#utility.yul\":8804:8841   */\n      add\n        /* \"#utility.yul\":8791:8802   */\n      dup3\n        /* \"#utility.yul\":8762:8842   */\n      tag_87\n      jump\t// in\n    tag_197:\n        /* \"#utility.yul\":8421:8852   */\n      pop\n      pop\n        /* \"#utility.yul\":8406:8852   */\n    tag_193:\n        /* \"#utility.yul\":8316:8859   */\n      pop\n      pop\n      pop\n      jump\t// out\n        /* \"#utility.yul\":8865:8982   */\n    tag_89:\n        /* \"#utility.yul\":8919:8927   */\n      0x00\n        /* \"#utility.yul\":8969:8974   */\n      dup3\n        /* \"#utility.yul\":8963:8967   */\n      dup3\n        /* \"#utility.yul\":8959:8975   */\n      shr\n        /* \"#utility.yul\":8938:8975   */\n      swap1\n      pop\n        /* \"#utility.yul\":8865:8982   */\n      swap3\n      swap2\n      pop\n      pop\n      jump\t// out\n        /* \"#utility.yul\":8988:9157   */\n    tag_90:\n        /* \"#utility.yul\":9032:9038   */\n      0x00\n        /* \"#utility.yul\":9065:9116   */\n      tag_201\n        /* \"#utility.yul\":9113:9114   */\n      0x00\n        /* \"#utility.yul\":9109:9115   */\n      not\n        /* \"#utility.yul\":9101:9106   */\n      dup5\n        /* \"#utility.yul\":9098:9099   */\n      0x08\n        /* \"#utility.yul\":9094:9107   */\n      mul\n        /* \"#utility.yul\":9065:9116   */\n      tag_89\n      jump\t// in\n    tag_201:\n        /* \"#utility.yul\":9061:9117   */\n      not\n        /* \"#utility.yul\":9146:9150   */\n      dup1\n        /* \"#utility.yul\":9140:9144   */\n      dup4\n        /* \"#utility.yul\":9136:9151   */\n      and\n        /* \"#utility.yul\":9126:9151   */\n      swap2\n      pop\n        /* \"#utility.yul\":9039:9157   */\n      pop\n        /* \"#utility.yul\":8988:9157   */\n      swap3\n      swap2\n      pop\n      pop\n      jump\t// out\n        /* \"#utility.yul\":9162:9457   */\n    tag_91:\n        /* \"#utility.yul\":9238:9242   */\n      0x00\n        /* \"#utility.yul\":9384:9413   */\n      tag_203\n        /* \"#utility.yul\":9409:9412   */\n      dup4\n        /* \"#utility.yul\":9403:9407   */\n      dup4\n        /* \"#utility.yul\":9384:9413   */\n      tag_90\n      jump\t// in\n    tag_203:\n        /* \"#utility.yul\":9376:9413   */\n      swap2\n      pop\n        /* \"#utility.yul\":9446:9449   */\n      dup3\n        /* \"#utility.yul\":9443:9444   */\n      0x02\n        /* \"#utility.yul\":9439:9450   */\n      mul\n        /* \"#utility.yul\":9433:9437   */\n      dup3\n        /* \"#utility.yul\":9430:9451   */\n      or\n        /* \"#utility.yul\":9422:9451   */\n      swap1\n      pop\n        /* \"#utility.yul\":9162:9457   */\n      swap3\n      swap2\n      pop\n      pop\n      jump\t// out\n        /* \"#utility.yul\":9462:10857   */\n    tag_51:\n        /* \"#utility.yul\":9579:9616   */\n      tag_205\n        /* \"#utility.yul\":9612:9615   */\n      dup3\n        /* \"#utility.yul\":9579:9616   */\n      tag_57\n      jump\t// in\n    tag_205:\n        /* \"#utility.yul\":9681:9699   */\n      0xffffffffffffffff\n        /* \"#utility.yul\":9673:9679   */\n      dup2\n        /* \"#utility.yul\":9670:9700   */\n      gt\n        /* \"#utility.yul\":9667:9723   */\n      iszero\n      tag_206\n      jumpi\n        /* \"#utility.yul\":9703:9721   */\n      tag_207\n      tag_69\n      jump\t// in\n    tag_207:\n        /* \"#utility.yul\":9667:9723   */\n    tag_206:\n        /* \"#utility.yul\":9747:9785   */\n      tag_208\n        /* \"#utility.yul\":9779:9783   */\n      dup3\n        /* \"#utility.yul\":9773:9784   */\n      sload\n        /* \"#utility.yul\":9747:9785   */\n      tag_36\n      jump\t// in\n    tag_208:\n        /* \"#utility.yul\":9832:9899   */\n      tag_209\n        /* \"#utility.yul\":9892:9898   */\n      dup3\n        /* \"#utility.yul\":9884:9890   */\n      dup3\n        /* \"#utility.yul\":9878:9882   */\n      dup6\n        /* \"#utility.yul\":9832:9899   */\n      tag_88\n      jump\t// in\n    tag_209:\n        /* \"#utility.yul\":9926:9927   */\n      0x00\n        /* \"#utility.yul\":9950:9954   */\n      0x20\n        /* \"#utility.yul\":9937:9954   */\n      swap1\n      pop\n        /* \"#utility.yul\":9982:9984   */\n      0x1f\n        /* \"#utility.yul\":9974:9980   */\n      dup4\n        /* \"#utility.yul\":9971:9985   */\n      gt\n        /* \"#utility.yul\":9999:10000   */\n      0x01\n        /* \"#utility.yul\":9994:10612   */\n      dup2\n      eq\n      tag_211\n      jumpi\n        /* \"#utility.yul\":10656:10657   */\n      0x00\n        /* \"#utility.yul\":10673:10679   */\n      dup5\n        /* \"#utility.yul\":10670:10747   */\n      iszero\n      tag_212\n      jumpi\n        /* \"#utility.yul\":10722:10731   */\n      dup3\n        /* \"#utility.yul\":10717:10720   */\n      dup8\n        /* \"#utility.yul\":10713:10732   */\n      add\n        /* \"#utility.yul\":10707:10733   */\n      mload\n        /* \"#utility.yul\":10698:10733   */\n      swap1\n      pop\n        /* \"#utility.yul\":10670:10747   */\n    tag_212:\n        /* \"#utility.yul\":10773:10840   */\n      tag_213\n        /* \"#utility.yul\":10833:10839   */\n      dup6\n        /* \"#utility.yul\":10826:10831   */\n      dup3\n        /* \"#utility.yul\":10773:10840   */\n      tag_91\n      jump\t// in\n    tag_213:\n        /* \"#utility.yul\":10767:10771   */\n      dup7\n        /* \"#utility.yul\":10760:10841   */\n      sstore\n        /* \"#utility.yul\":10629:10851   */\n      pop\n        /* \"#utility.yul\":9964:10851   */\n      jump(tag_210)\n        /* \"#utility.yul\":9994:10612   */\n    tag_211:\n        /* \"#utility.yul\":10046:10050   */\n      0x1f\n        /* \"#utility.yul\":10042:10051   */\n      not\n        /* \"#utility.yul\":10034:10040   */\n      dup5\n        /* \"#utility.yul\":10030:10052   */\n      and\n        /* \"#utility.yul\":10080:10117   */\n      tag_214\n        /* \"#utility.yul\":10112:10116   */\n      dup7\n        /* \"#utility.yul\":10080:10117   */\n      tag_77\n      jump\t// in\n    tag_214:\n        /* \"#utility.yul\":10139:10140   */\n      0x00\n        /* \"#utility.yul\":10153:10361   */\n    tag_215:\n        /* \"#utility.yul\":10167:10174   */\n      dup3\n        /* \"#utility.yul\":10164:10165   */\n      dup2\n        /* \"#utility.yul\":10161:10175   */\n      lt\n        /* \"#utility.yul\":10153:10361   */\n      iszero\n      tag_217\n      jumpi\n        /* \"#utility.yul\":10246:10255   */\n      dup5\n        /* \"#utility.yul\":10241:10244   */\n      dup10\n        /* \"#utility.yul\":10237:10256   */\n      add\n        /* \"#utility.yul\":10231:10257   */\n      mload\n        /* \"#utility.yul\":10223:10229   */\n      dup3\n        /* \"#utility.yul\":10216:10258   */\n      sstore\n        /* \"#utility.yul\":10297:10298   */\n      0x01\n        /* \"#utility.yul\":10289:10295   */\n      dup3\n        /* \"#utility.yul\":10285:10299   */\n      add\n        /* \"#utility.yul\":10275:10299   */\n      swap2\n      pop\n        /* \"#utility.yul\":10344:10346   */\n      0x20\n        /* \"#utility.yul\":10333:10342   */\n      dup6\n        /* \"#utility.yul\":10329:10347   */\n      add\n        /* \"#utility.yul\":10316:10347   */\n      swap5\n      pop\n        /* \"#utility.yul\":10190:10194   */\n      0x20\n        /* \"#utility.yul\":10187:10188   */\n      dup2\n        /* \"#utility.yul\":10183:10195   */\n      add\n        /* \"#utility.yul\":10178:10195   */\n      swap1\n      pop\n        /* \"#utility.yul\":10153:10361   */\n      jump(tag_215)\n    tag_217:\n        /* \"#utility.yul\":10389:10395   */\n      dup7\n        /* \"#utility.yul\":10380:10387   */\n      dup4\n        /* \"#utility.yul\":10377:10396   */\n      lt\n        /* \"#utility.yul\":10374:10553   */\n      iszero\n      tag_218\n      jumpi\n        /* \"#utility.yul\":10447:10456   */\n      dup5\n        /* \"#utility.yul\":10442:10445   */\n      dup10\n        /* \"#utility.yul\":10438:10457   */\n      add\n        /* \"#utility.yul\":10432:10458   */\n      mload\n        /* \"#utility.yul\":10490:10538   */\n      tag_219\n        /* \"#utility.yul\":10532:10536   */\n      0x1f\n        /* \"#utility.yul\":10524:10530   */\n      dup10\n        /* \"#utility.yul\":10520:10537   */\n      and\n        /* \"#utility.yul\":10509:10518   */\n      dup3\n        /* \"#utility.yul\":10490:10538   */\n      tag_90\n      jump\t// in\n    tag_219:\n        /* \"#utility.yul\":10482:10488   */\n      dup4\n        /* \"#utility.yul\":10475:10539   */\n      sstore\n        /* \"#utility.yul\":10397:10553   */\n      pop\n        /* \"#utility.yul\":10374:10553   */\n    tag_218:\n        /* \"#utility.yul\":10599:10600   */\n      0x01\n        /* \"#utility.yul\":10595:10596   */\n      0x02\n        /* \"#utility.yul\":10587:10593   */\n      dup9\n        /* \"#utility.yul\":10583:10597   */\n      mul\n        /* \"#utility.yul\":10579:10601   */\n      add\n        /* \"#utility.yul\":10573:10577   */\n      dup9\n        /* \"#utility.yul\":10566:10602   */\n      sstore\n        /* \"#utility.yul\":10001:10612   */\n      pop\n      pop\n      pop\n        /* \"#utility.yul\":9964:10851   */\n    tag_210:\n      pop\n        /* \"#utility.yul\":9554:10857   */\n      pop\n      pop\n      pop\n        /* \"#utility.yul\":9462:10857   */\n      pop\n      pop\n      jump\t// out\n        /* \"#utility.yul\":10863:11011   */\n    tag_92:\n        /* \"#utility.yul\":10965:10976   */\n      0x00\n        /* \"#utility.yul\":11002:11005   */\n      dup2\n        /* \"#utility.yul\":10987:11005   */\n      swap1\n      pop\n        /* \"#utility.yul\":10863:11011   */\n      swap3\n      swap2\n      pop\n      pop\n      jump\t// out\n        /* \"#utility.yul\":11017:11407   */\n    tag_93:\n        /* \"#utility.yul\":11123:11126   */\n      0x00\n        /* \"#utility.yul\":11151:11190   */\n      tag_222\n        /* \"#utility.yul\":11184:11189   */\n      dup3\n        /* \"#utility.yul\":11151:11190   */\n      tag_57\n      jump\t// in\n    tag_222:\n        /* \"#utility.yul\":11206:11295   */\n      tag_223\n        /* \"#utility.yul\":11288:11294   */\n      dup2\n        /* \"#utility.yul\":11283:11286   */\n      dup6\n        /* \"#utility.yul\":11206:11295   */\n      tag_92\n      jump\t// in\n    tag_223:\n        /* \"#utility.yul\":11199:11295   */\n      swap4\n      pop\n        /* \"#utility.yul\":11304:11369   */\n      tag_224\n        /* \"#utility.yul\":11362:11368   */\n      dup2\n        /* \"#utility.yul\":11357:11360   */\n      dup6\n        /* \"#utility.yul\":11350:11354   */\n      0x20\n        /* \"#utility.yul\":11343:11348   */\n      dup7\n        /* \"#utility.yul\":11339:11355   */\n      add\n        /* \"#utility.yul\":11304:11369   */\n      tag_59\n      jump\t// in\n    tag_224:\n        /* \"#utility.yul\":11394:11400   */\n      dup1\n        /* \"#utility.yul\":11389:11392   */\n      dup5\n        /* \"#utility.yul\":11385:11401   */\n      add\n        /* \"#utility.yul\":11378:11401   */\n      swap2\n      pop\n        /* \"#utility.yul\":11127:11407   */\n      pop\n        /* \"#utility.yul\":11017:11407   */\n      swap3\n      swap2\n      pop\n      pop\n      jump\t// out\n        /* \"#utility.yul\":11413:11688   */\n    tag_53:\n        /* \"#utility.yul\":11545:11548   */\n      0x00\n        /* \"#utility.yul\":11567:11662   */\n      tag_226\n        /* \"#utility.yul\":11658:11661   */\n      dup3\n        /* \"#utility.yul\":11649:11655   */\n      dup5\n        /* \"#utility.yul\":11567:11662   */\n      tag_93\n      jump\t// in\n    tag_226:\n        /* \"#utility.yul\":11560:11662   */\n      swap2\n      pop\n        /* \"#utility.yul\":11679:11682   */\n      dup2\n        /* \"#utility.yul\":11672:11682   */\n      swap1\n      pop\n        /* \"#utility.yul\":11413:11688   */\n      swap3\n      swap2\n      pop\n      pop\n      jump\t// out\n\n    auxdata: 0xa2646970667358221220eee6f646df86b4578f751744c210c23cf5a4ee991e8eb6699fe3185248fcfa6164736f6c634300081a0033\n}\n",
				"bytecode": {
					"linkReferences": {},
					"object": "60806040526101005f556101636001557329784833bb49ad62b1eae6a00b5cdcc421c0f8b460025f6101000a81548173ffffffffffffffffffffffffffffffffffffffff021916908373ffffffffffffffffffffffffffffffffffffffff1602179055506040518060400160405280600a81526020017f616473696e6365326b3400000000000000000000000000000000000000000000815250600390816100a79190610384565b507f616268696c6173680000000000000000000000000000000000000000000000006004556040518060400160405280600781526020016040518060400160405280600a81526020017f616473696e6365326b340000000000000000000000000000000000000000000081525081525060075f820151815f015560208201518160010190816101369190610384565b505050348015610144575f80fd5b50610453565b5f81519050919050565b7f4e487b71000000000000000000000000000000000000000000000000000000005f52604160045260245ffd5b7f4e487b71000000000000000000000000000000000000000000000000000000005f52602260045260245ffd5b5f60028204905060018216806101c557607f821691505b6020821081036101d8576101d7610181565b5b50919050565b5f819050815f5260205f209050919050565b5f6020601f8301049050919050565b5f82821b905092915050565b5f6008830261023a7fffffffffffffffffffffffffffffffffffffffffffffffffffffffffffffffff826101ff565b61024486836101ff565b95508019841693508086168417925050509392505050565b5f819050919050565b5f819050919050565b5f61028861028361027e8461025c565b610265565b61025c565b9050919050565b5f819050919050565b6102a18361026e565b6102b56102ad8261028f565b84845461020b565b825550505050565b5f90565b6102c96102bd565b6102d4818484610298565b505050565b5b818110156102f7576102ec5f826102c1565b6001810190506102da565b5050565b601f82111561033c5761030d816101de565b610316846101f0565b81016020851015610325578190505b610339610331856101f0565b8301826102d9565b50505b505050565b5f82821c905092915050565b5f61035c5f1984600802610341565b1980831691505092915050565b5f610374838361034d565b9150826002028217905092915050565b61038d8261014a565b67ffffffffffffffff8111156103a6576103a5610154565b5b6103b082546101ae565b6103bb8282856102fb565b5f60209050601f8311600181146103ec575f84156103da578287015190505b6103e48582610369565b86555061044b565b601f1984166103fa866101de565b5f5b82811015610421578489015182556001820191506020850194506020810190506103fc565b8683101561043e578489015161043a601f89168261034d565b8355505b6001600288020188555050505b505050505050565b6109a0806104605f395ff3fe608060405234801561000f575f80fd5b5060043610610060575f3560e01c80632e64cec1146100645780633e1430af14610082578063510f17c5146100a15780635b6fbd45146100d257806382ab890a146100ee578063b2ac62ef1461010a575b5f80fd5b61006c61013a565b6040516100799190610367565b60405180910390f35b61008a610143565b6040516100989291906103f0565b60405180910390f35b6100bb60048036038101906100b69190610459565b6101da565b6040516100c99291906103f0565b60405180910390f35b6100ec60048036038101906100e791906105b0565b61028f565b005b61010860048036038101906101039190610459565b610318565b005b610124600480360381019061011f919061060a565b610322565b6040516101319190610367565b60405180910390f35b5f600554905090565b6007805f0154908060010180546101599061067e565b80601f01602080910402602001604051908101604052809291908181526020018280546101859061067e565b80156101d05780601f106101a7576101008083540402835291602001916101d0565b820191905f5260205f20905b8154815290600101906020018083116101b357829003601f168201915b5050505050905082565b600981815481106101e9575f80fd5b905f5260205f2090600202015f91509050805f01549080600101805461020e9061067e565b80601f016020809104026020016040519081016040528092919081815260200182805461023a9061067e565b80156102855780601f1061025c57610100808354040283529160200191610285565b820191905f5260205f20905b81548152906001019060200180831161026857829003601f168201915b5050505050905082565b5f6040518060400160405280848152602001838152509050600981908060018154018082558091505060019003905f5260205f2090600202015f909190919091505f820151815f015560208201518160010190816102ed919061084b565b50505082600a836040516103019190610954565b908152602001604051809103902081905550505050565b8060058190555050565b600a818051602081018201805184825260208301602085012081835280955050505050505f915090505481565b5f819050919050565b6103618161034f565b82525050565b5f60208201905061037a5f830184610358565b92915050565b5f81519050919050565b5f82825260208201905092915050565b8281835e5f83830152505050565b5f601f19601f8301169050919050565b5f6103c282610380565b6103cc818561038a565b93506103dc81856020860161039a565b6103e5816103a8565b840191505092915050565b5f6040820190506104035f830185610358565b818103602083015261041581846103b8565b90509392505050565b5f604051905090565b5f80fd5b5f80fd5b6104388161034f565b8114610442575f80fd5b50565b5f813590506104538161042f565b92915050565b5f6020828403121561046e5761046d610427565b5b5f61047b84828501610445565b91505092915050565b5f80fd5b5f80fd5b7f4e487b71000000000000000000000000000000000000000000000000000000005f52604160045260245ffd5b6104c2826103a8565b810181811067ffffffffffffffff821117156104e1576104e061048c565b5b80604052505050565b5f6104f361041e565b90506104ff82826104b9565b919050565b5f67ffffffffffffffff82111561051e5761051d61048c565b5b610527826103a8565b9050602081019050919050565b828183375f83830152505050565b5f61055461054f84610504565b6104ea565b9050828152602081018484840111156105705761056f610488565b5b61057b848285610534565b509392505050565b5f82601f83011261059757610596610484565b5b81356105a7848260208601610542565b91505092915050565b5f80604083850312156105c6576105c5610427565b5b5f6105d385828601610445565b925050602083013567ffffffffffffffff8111156105f4576105f361042b565b5b61060085828601610583565b9150509250929050565b5f6020828403121561061f5761061e610427565b5b5f82013567ffffffffffffffff81111561063c5761063b61042b565b5b61064884828501610583565b91505092915050565b7f4e487b71000000000000000000000000000000000000000000000000000000005f52602260045260245ffd5b5f600282049050600182168061069557607f821691505b6020821081036106a8576106a7610651565b5b50919050565b5f819050815f5260205f209050919050565b5f6020601f8301049050919050565b5f82821b905092915050565b5f6008830261070a7fffffffffffffffffffffffffffffffffffffffffffffffffffffffffffffffff826106cf565b61071486836106cf565b95508019841693508086168417925050509392505050565b5f819050919050565b5f61074f61074a6107458461034f565b61072c565b61034f565b9050919050565b5f819050919050565b61076883610735565b61077c61077482610756565b8484546106db565b825550505050565b5f90565b610790610784565b61079b81848461075f565b505050565b5b818110156107be576107b35f82610788565b6001810190506107a1565b5050565b601f821115610803576107d4816106ae565b6107dd846106c0565b810160208510156107ec578190505b6108006107f8856106c0565b8301826107a0565b50505b505050565b5f82821c905092915050565b5f6108235f1984600802610808565b1980831691505092915050565b5f61083b8383610814565b9150826002028217905092915050565b61085482610380565b67ffffffffffffffff81111561086d5761086c61048c565b5b610877825461067e565b6108828282856107c2565b5f60209050601f8311600181146108b3575f84156108a1578287015190505b6108ab8582610830565b865550610912565b601f1984166108c1866106ae565b5f5b828110156108e8578489015182556001820191506020850194506020810190506108c3565b868310156109055784890151610901601f891682610814565b8355505b6001600288020188555050505b505050505050565b5f81905092915050565b5f61092e82610380565b610938818561091a565b935061094881856020860161039a565b80840191505092915050565b5f61095f8284610924565b91508190509291505056fea2646970667358221220eee6f646df86b4578f751744c210c23cf5a4ee991e8eb6699fe3185248fcfa6164736f6c634300081a0033",
					"opcodes": "PUSH1 0x80 PUSH1 0x40 MSTORE PUSH2 0x100 PUSH0 SSTORE PUSH2 0x163 PUSH1 0x1 SSTORE PUSH20 0x29784833BB49AD62B1EAE6A00B5CDCC421C0F8B4 PUSH1 0x2 PUSH0 PUSH2 0x100 EXP DUP2 SLOAD DUP2 PUSH20 0xFFFFFFFFFFFFFFFFFFFFFFFFFFFFFFFFFFFFFFFF MUL NOT AND SWAP1 DUP4 PUSH20 0xFFFFFFFFFFFFFFFFFFFFFFFFFFFFFFFFFFFFFFFF AND MUL OR SWAP1 SSTORE POP PUSH1 0x40 MLOAD DUP1 PUSH1 0x40 ADD PUSH1 0x40 MSTORE DUP1 PUSH1 0xA DUP2 MSTORE PUSH1 0x20 ADD PUSH32 0x616473696E6365326B3400000000000000000000000000000000000000000000 DUP2 MSTORE POP PUSH1 0x3 SWAP1 DUP2 PUSH2 0xA7 SWAP2 SWAP1 PUSH2 0x384 JUMP JUMPDEST POP PUSH32 0x616268696C617368000000000000000000000000000000000000000000000000 PUSH1 0x4 SSTORE PUSH1 0x40 MLOAD DUP1 PUSH1 0x40 ADD PUSH1 0x40 MSTORE DUP1 PUSH1 0x7 DUP2 MSTORE PUSH1 0x20 ADD PUSH1 0x40 MLOAD DUP1 PUSH1 0x40 ADD PUSH1 0x40 MSTORE DUP1 PUSH1 0xA DUP2 MSTORE PUSH1 0x20 ADD PUSH32 0x616473696E6365326B3400000000000000000000000000000000000000000000 DUP2 MSTORE POP DUP2 MSTORE POP PUSH1 0x7 PUSH0 DUP3 ADD MLOAD DUP2 PUSH0 ADD SSTORE PUSH1 0x20 DUP3 ADD MLOAD DUP2 PUSH1 0x1 ADD SWAP1 DUP2 PUSH2 0x136 SWAP2 SWAP1 PUSH2 0x384 JUMP JUMPDEST POP POP POP CALLVALUE DUP1 ISZERO PUSH2 0x144 JUMPI PUSH0 DUP1 REVERT JUMPDEST POP PUSH2 0x453 JUMP JUMPDEST PUSH0 DUP2 MLOAD SWAP1 POP SWAP2 SWAP1 POP JUMP JUMPDEST PUSH32 0x4E487B7100000000000000000000000000000000000000000000000000000000 PUSH0 MSTORE PUSH1 0x41 PUSH1 0x4 MSTORE PUSH1 0x24 PUSH0 REVERT JUMPDEST PUSH32 0x4E487B7100000000000000000000000000000000000000000000000000000000 PUSH0 MSTORE PUSH1 0x22 PUSH1 0x4 MSTORE PUSH1 0x24 PUSH0 REVERT JUMPDEST PUSH0 PUSH1 0x2 DUP3 DIV SWAP1 POP PUSH1 0x1 DUP3 AND DUP1 PUSH2 0x1C5 JUMPI PUSH1 0x7F DUP3 AND SWAP2 POP JUMPDEST PUSH1 0x20 DUP3 LT DUP2 SUB PUSH2 0x1D8 JUMPI PUSH2 0x1D7 PUSH2 0x181 JUMP JUMPDEST JUMPDEST POP SWAP2 SWAP1 POP JUMP JUMPDEST PUSH0 DUP2 SWAP1 POP DUP2 PUSH0 MSTORE PUSH1 0x20 PUSH0 KECCAK256 SWAP1 POP SWAP2 SWAP1 POP JUMP JUMPDEST PUSH0 PUSH1 0x20 PUSH1 0x1F DUP4 ADD DIV SWAP1 POP SWAP2 SWAP1 POP JUMP JUMPDEST PUSH0 DUP3 DUP3 SHL SWAP1 POP SWAP3 SWAP2 POP POP JUMP JUMPDEST PUSH0 PUSH1 0x8 DUP4 MUL PUSH2 0x23A PUSH32 0xFFFFFFFFFFFFFFFFFFFFFFFFFFFFFFFFFFFFFFFFFFFFFFFFFFFFFFFFFFFFFFFF DUP3 PUSH2 0x1FF JUMP JUMPDEST PUSH2 0x244 DUP7 DUP4 PUSH2 0x1FF JUMP JUMPDEST SWAP6 POP DUP1 NOT DUP5 AND SWAP4 POP DUP1 DUP7 AND DUP5 OR SWAP3 POP POP POP SWAP4 SWAP3 POP POP POP JUMP JUMPDEST PUSH0 DUP2 SWAP1 POP SWAP2 SWAP1 POP JUMP JUMPDEST PUSH0 DUP2 SWAP1 POP SWAP2 SWAP1 POP JUMP JUMPDEST PUSH0 PUSH2 0x288 PUSH2 0x283 PUSH2 0x27E DUP5 PUSH2 0x25C JUMP JUMPDEST PUSH2 0x265 JUMP JUMPDEST PUSH2 0x25C JUMP JUMPDEST SWAP1 POP SWAP2 SWAP1 POP JUMP JUMPDEST PUSH0 DUP2 SWAP1 POP SWAP2 SWAP1 POP JUMP JUMPDEST PUSH2 0x2A1 DUP4 PUSH2 0x26E JUMP JUMPDEST PUSH2 0x2B5 PUSH2 0x2AD DUP3 PUSH2 0x28F JUMP JUMPDEST DUP5 DUP5 SLOAD PUSH2 0x20B JUMP JUMPDEST DUP3 SSTORE POP POP POP POP JUMP JUMPDEST PUSH0 SWAP1 JUMP JUMPDEST PUSH2 0x2C9 PUSH2 0x2BD JUMP JUMPDEST PUSH2 0x2D4 DUP2 DUP5 DUP5 PUSH2 0x298 JUMP JUMPDEST POP POP POP JUMP JUMPDEST JUMPDEST DUP2 DUP2 LT ISZERO PUSH2 0x2F7 JUMPI PUSH2 0x2EC PUSH0 DUP3 PUSH2 0x2C1 JUMP JUMPDEST PUSH1 0x1 DUP2 ADD SWAP1 POP PUSH2 0x2DA JUMP JUMPDEST POP POP JUMP JUMPDEST PUSH1 0x1F DUP3 GT ISZERO PUSH2 0x33C JUMPI PUSH2 0x30D DUP2 PUSH2 0x1DE JUMP JUMPDEST PUSH2 0x316 DUP5 PUSH2 0x1F0 JUMP JUMPDEST DUP2 ADD PUSH1 0x20 DUP6 LT ISZERO PUSH2 0x325 JUMPI DUP2 SWAP1 POP JUMPDEST PUSH2 0x339 PUSH2 0x331 DUP6 PUSH2 0x1F0 JUMP JUMPDEST DUP4 ADD DUP3 PUSH2 0x2D9 JUMP JUMPDEST POP POP JUMPDEST POP POP POP JUMP JUMPDEST PUSH0 DUP3 DUP3 SHR SWAP1 POP SWAP3 SWAP2 POP POP JUMP JUMPDEST PUSH0 PUSH2 0x35C PUSH0 NOT DUP5 PUSH1 0x8 MUL PUSH2 0x341 JUMP JUMPDEST NOT DUP1 DUP4 AND SWAP2 POP POP SWAP3 SWAP2 POP POP JUMP JUMPDEST PUSH0 PUSH2 0x374 DUP4 DUP4 PUSH2 0x34D JUMP JUMPDEST SWAP2 POP DUP3 PUSH1 0x2 MUL DUP3 OR SWAP1 POP SWAP3 SWAP2 POP POP JUMP JUMPDEST PUSH2 0x38D DUP3 PUSH2 0x14A JUMP JUMPDEST PUSH8 0xFFFFFFFFFFFFFFFF DUP2 GT ISZERO PUSH2 0x3A6 JUMPI PUSH2 0x3A5 PUSH2 0x154 JUMP JUMPDEST JUMPDEST PUSH2 0x3B0 DUP3 SLOAD PUSH2 0x1AE JUMP JUMPDEST PUSH2 0x3BB DUP3 DUP3 DUP6 PUSH2 0x2FB JUMP JUMPDEST PUSH0 PUSH1 0x20 SWAP1 POP PUSH1 0x1F DUP4 GT PUSH1 0x1 DUP2 EQ PUSH2 0x3EC JUMPI PUSH0 DUP5 ISZERO PUSH2 0x3DA JUMPI DUP3 DUP8 ADD MLOAD SWAP1 POP JUMPDEST PUSH2 0x3E4 DUP6 DUP3 PUSH2 0x369 JUMP JUMPDEST DUP7 SSTORE POP PUSH2 0x44B JUMP JUMPDEST PUSH1 0x1F NOT DUP5 AND PUSH2 0x3FA DUP7 PUSH2 0x1DE JUMP JUMPDEST PUSH0 JUMPDEST DUP3 DUP2 LT ISZERO PUSH2 0x421 JUMPI DUP5 DUP10 ADD MLOAD DUP3 SSTORE PUSH1 0x1 DUP3 ADD SWAP2 POP PUSH1 0x20 DUP6 ADD SWAP5 POP PUSH1 0x20 DUP2 ADD SWAP1 POP PUSH2 0x3FC JUMP JUMPDEST DUP7 DUP4 LT ISZERO PUSH2 0x43E JUMPI DUP5 DUP10 ADD MLOAD PUSH2 0x43A PUSH1 0x1F DUP10 AND DUP3 PUSH2 0x34D JUMP JUMPDEST DUP4 SSTORE POP JUMPDEST PUSH1 0x1 PUSH1 0x2 DUP9 MUL ADD DUP9 SSTORE POP POP POP JUMPDEST POP POP POP POP POP POP JUMP JUMPDEST PUSH2 0x9A0 DUP1 PUSH2 0x460 PUSH0 CODECOPY PUSH0 RETURN INVALID PUSH1 0x80 PUSH1 0x40 MSTORE CALLVALUE DUP1 ISZERO PUSH2 0xF JUMPI PUSH0 DUP1 REVERT JUMPDEST POP PUSH1 0x4 CALLDATASIZE LT PUSH2 0x60 JUMPI PUSH0 CALLDATALOAD PUSH1 0xE0 SHR DUP1 PUSH4 0x2E64CEC1 EQ PUSH2 0x64 JUMPI DUP1 PUSH4 0x3E1430AF EQ PUSH2 0x82 JUMPI DUP1 PUSH4 0x510F17C5 EQ PUSH2 0xA1 JUMPI DUP1 PUSH4 0x5B6FBD45 EQ PUSH2 0xD2 JUMPI DUP1 PUSH4 0x82AB890A EQ PUSH2 0xEE JUMPI DUP1 PUSH4 0xB2AC62EF EQ PUSH2 0x10A JUMPI JUMPDEST PUSH0 DUP1 REVERT JUMPDEST PUSH2 0x6C PUSH2 0x13A JUMP JUMPDEST PUSH1 0x40 MLOAD PUSH2 0x79 SWAP2 SWAP1 PUSH2 0x367 JUMP JUMPDEST PUSH1 0x40 MLOAD DUP1 SWAP2 SUB SWAP1 RETURN JUMPDEST PUSH2 0x8A PUSH2 0x143 JUMP JUMPDEST PUSH1 0x40 MLOAD PUSH2 0x98 SWAP3 SWAP2 SWAP1 PUSH2 0x3F0 JUMP JUMPDEST PUSH1 0x40 MLOAD DUP1 SWAP2 SUB SWAP1 RETURN JUMPDEST PUSH2 0xBB PUSH1 0x4 DUP1 CALLDATASIZE SUB DUP2 ADD SWAP1 PUSH2 0xB6 SWAP2 SWAP1 PUSH2 0x459 JUMP JUMPDEST PUSH2 0x1DA JUMP JUMPDEST PUSH1 0x40 MLOAD PUSH2 0xC9 SWAP3 SWAP2 SWAP1 PUSH2 0x3F0 JUMP JUMPDEST PUSH1 0x40 MLOAD DUP1 SWAP2 SUB SWAP1 RETURN JUMPDEST PUSH2 0xEC PUSH1 0x4 DUP1 CALLDATASIZE SUB DUP2 ADD SWAP1 PUSH2 0xE7 SWAP2 SWAP1 PUSH2 0x5B0 JUMP JUMPDEST PUSH2 0x28F JUMP JUMPDEST STOP JUMPDEST PUSH2 0x108 PUSH1 0x4 DUP1 CALLDATASIZE SUB DUP2 ADD SWAP1 PUSH2 0x103 SWAP2 SWAP1 PUSH2 0x459 JUMP JUMPDEST PUSH2 0x318 JUMP JUMPDEST STOP JUMPDEST PUSH2 0x124 PUSH1 0x4 DUP1 CALLDATASIZE SUB DUP2 ADD SWAP1 PUSH2 0x11F SWAP2 SWAP1 PUSH2 0x60A JUMP JUMPDEST PUSH2 0x322 JUMP JUMPDEST PUSH1 0x40 MLOAD PUSH2 0x131 SWAP2 SWAP1 PUSH2 0x367 JUMP JUMPDEST PUSH1 0x40 MLOAD DUP1 SWAP2 SUB SWAP1 RETURN JUMPDEST PUSH0 PUSH1 0x5 SLOAD SWAP1 POP SWAP1 JUMP JUMPDEST PUSH1 0x7 DUP1 PUSH0 ADD SLOAD SWAP1 DUP1 PUSH1 0x1 ADD DUP1 SLOAD PUSH2 0x159 SWAP1 PUSH2 0x67E JUMP JUMPDEST DUP1 PUSH1 0x1F ADD PUSH1 0x20 DUP1 SWAP2 DIV MUL PUSH1 0x20 ADD PUSH1 0x40 MLOAD SWAP1 DUP2 ADD PUSH1 0x40 MSTORE DUP1 SWAP3 SWAP2 SWAP1 DUP2 DUP2 MSTORE PUSH1 0x20 ADD DUP3 DUP1 SLOAD PUSH2 0x185 SWAP1 PUSH2 0x67E JUMP JUMPDEST DUP1 ISZERO PUSH2 0x1D0 JUMPI DUP1 PUSH1 0x1F LT PUSH2 0x1A7 JUMPI PUSH2 0x100 DUP1 DUP4 SLOAD DIV MUL DUP4 MSTORE SWAP2 PUSH1 0x20 ADD SWAP2 PUSH2 0x1D0 JUMP JUMPDEST DUP3 ADD SWAP2 SWAP1 PUSH0 MSTORE PUSH1 0x20 PUSH0 KECCAK256 SWAP1 JUMPDEST DUP2 SLOAD DUP2 MSTORE SWAP1 PUSH1 0x1 ADD SWAP1 PUSH1 0x20 ADD DUP1 DUP4 GT PUSH2 0x1B3 JUMPI DUP3 SWAP1 SUB PUSH1 0x1F AND DUP3 ADD SWAP2 JUMPDEST POP POP POP POP POP SWAP1 POP DUP3 JUMP JUMPDEST PUSH1 0x9 DUP2 DUP2 SLOAD DUP2 LT PUSH2 0x1E9 JUMPI PUSH0 DUP1 REVERT JUMPDEST SWAP1 PUSH0 MSTORE PUSH1 0x20 PUSH0 KECCAK256 SWAP1 PUSH1 0x2 MUL ADD PUSH0 SWAP2 POP SWAP1 POP DUP1 PUSH0 ADD SLOAD SWAP1 DUP1 PUSH1 0x1 ADD DUP1 SLOAD PUSH2 0x20E SWAP1 PUSH2 0x67E JUMP JUMPDEST DUP1 PUSH1 0x1F ADD PUSH1 0x20 DUP1 SWAP2 DIV MUL PUSH1 0x20 ADD PUSH1 0x40 MLOAD SWAP1 DUP2 ADD PUSH1 0x40 MSTORE DUP1 SWAP3 SWAP2 SWAP1 DUP2 DUP2 MSTORE PUSH1 0x20 ADD DUP3 DUP1 SLOAD PUSH2 0x23A SWAP1 PUSH2 0x67E JUMP JUMPDEST DUP1 ISZERO PUSH2 0x285 JUMPI DUP1 PUSH1 0x1F LT PUSH2 0x25C JUMPI PUSH2 0x100 DUP1 DUP4 SLOAD DIV MUL DUP4 MSTORE SWAP2 PUSH1 0x20 ADD SWAP2 PUSH2 0x285 JUMP JUMPDEST DUP3 ADD SWAP2 SWAP1 PUSH0 MSTORE PUSH1 0x20 PUSH0 KECCAK256 SWAP1 JUMPDEST DUP2 SLOAD DUP2 MSTORE SWAP1 PUSH1 0x1 ADD SWAP1 PUSH1 0x20 ADD DUP1 DUP4 GT PUSH2 0x268 JUMPI DUP3 SWAP1 SUB PUSH1 0x1F AND DUP3 ADD SWAP2 JUMPDEST POP POP POP POP POP SWAP1 POP DUP3 JUMP JUMPDEST PUSH0 PUSH1 0x40 MLOAD DUP1 PUSH1 0x40 ADD PUSH1 0x40 MSTORE DUP1 DUP5 DUP2 MSTORE PUSH1 0x20 ADD DUP4 DUP2 MSTORE POP SWAP1 POP PUSH1 0x9 DUP2 SWAP1 DUP1 PUSH1 0x1 DUP2 SLOAD ADD DUP1 DUP3 SSTORE DUP1 SWAP2 POP POP PUSH1 0x1 SWAP1 SUB SWAP1 PUSH0 MSTORE PUSH1 0x20 PUSH0 KECCAK256 SWAP1 PUSH1 0x2 MUL ADD PUSH0 SWAP1 SWAP2 SWAP1 SWAP2 SWAP1 SWAP2 POP PUSH0 DUP3 ADD MLOAD DUP2 PUSH0 ADD SSTORE PUSH1 0x20 DUP3 ADD MLOAD DUP2 PUSH1 0x1 ADD SWAP1 DUP2 PUSH2 0x2ED SWAP2 SWAP1 PUSH2 0x84B JUMP JUMPDEST POP POP POP DUP3 PUSH1 0xA DUP4 PUSH1 0x40 MLOAD PUSH2 0x301 SWAP2 SWAP1 PUSH2 0x954 JUMP JUMPDEST SWAP1 DUP2 MSTORE PUSH1 0x20 ADD PUSH1 0x40 MLOAD DUP1 SWAP2 SUB SWAP1 KECCAK256 DUP2 SWAP1 SSTORE POP POP POP POP JUMP JUMPDEST DUP1 PUSH1 0x5 DUP2 SWAP1 SSTORE POP POP JUMP JUMPDEST PUSH1 0xA DUP2 DUP1 MLOAD PUSH1 0x20 DUP2 ADD DUP3 ADD DUP1 MLOAD DUP5 DUP3 MSTORE PUSH1 0x20 DUP4 ADD PUSH1 0x20 DUP6 ADD KECCAK256 DUP2 DUP4 MSTORE DUP1 SWAP6 POP POP POP POP POP POP PUSH0 SWAP2 POP SWAP1 POP SLOAD DUP2 JUMP JUMPDEST PUSH0 DUP2 SWAP1 POP SWAP2 SWAP1 POP JUMP JUMPDEST PUSH2 0x361 DUP2 PUSH2 0x34F JUMP JUMPDEST DUP3 MSTORE POP POP JUMP JUMPDEST PUSH0 PUSH1 0x20 DUP3 ADD SWAP1 POP PUSH2 0x37A PUSH0 DUP4 ADD DUP5 PUSH2 0x358 JUMP JUMPDEST SWAP3 SWAP2 POP POP JUMP JUMPDEST PUSH0 DUP2 MLOAD SWAP1 POP SWAP2 SWAP1 POP JUMP JUMPDEST PUSH0 DUP3 DUP3 MSTORE PUSH1 0x20 DUP3 ADD SWAP1 POP SWAP3 SWAP2 POP POP JUMP JUMPDEST DUP3 DUP2 DUP4 MCOPY PUSH0 DUP4 DUP4 ADD MSTORE POP POP POP JUMP JUMPDEST PUSH0 PUSH1 0x1F NOT PUSH1 0x1F DUP4 ADD AND SWAP1 POP SWAP2 SWAP1 POP JUMP JUMPDEST PUSH0 PUSH2 0x3C2 DUP3 PUSH2 0x380 JUMP JUMPDEST PUSH2 0x3CC DUP2 DUP6 PUSH2 0x38A JUMP JUMPDEST SWAP4 POP PUSH2 0x3DC DUP2 DUP6 PUSH1 0x20 DUP7 ADD PUSH2 0x39A JUMP JUMPDEST PUSH2 0x3E5 DUP2 PUSH2 0x3A8 JUMP JUMPDEST DUP5 ADD SWAP2 POP POP SWAP3 SWAP2 POP POP JUMP JUMPDEST PUSH0 PUSH1 0x40 DUP3 ADD SWAP1 POP PUSH2 0x403 PUSH0 DUP4 ADD DUP6 PUSH2 0x358 JUMP JUMPDEST DUP2 DUP2 SUB PUSH1 0x20 DUP4 ADD MSTORE PUSH2 0x415 DUP2 DUP5 PUSH2 0x3B8 JUMP JUMPDEST SWAP1 POP SWAP4 SWAP3 POP POP POP JUMP JUMPDEST PUSH0 PUSH1 0x40 MLOAD SWAP1 POP SWAP1 JUMP JUMPDEST PUSH0 DUP1 REVERT JUMPDEST PUSH0 DUP1 REVERT JUMPDEST PUSH2 0x438 DUP2 PUSH2 0x34F JUMP JUMPDEST DUP2 EQ PUSH2 0x442 JUMPI PUSH0 DUP1 REVERT JUMPDEST POP JUMP JUMPDEST PUSH0 DUP2 CALLDATALOAD SWAP1 POP PUSH2 0x453 DUP2 PUSH2 0x42F JUMP JUMPDEST SWAP3 SWAP2 POP POP JUMP JUMPDEST PUSH0 PUSH1 0x20 DUP3 DUP5 SUB SLT ISZERO PUSH2 0x46E JUMPI PUSH2 0x46D PUSH2 0x427 JUMP JUMPDEST JUMPDEST PUSH0 PUSH2 0x47B DUP5 DUP3 DUP6 ADD PUSH2 0x445 JUMP JUMPDEST SWAP2 POP POP SWAP3 SWAP2 POP POP JUMP JUMPDEST PUSH0 DUP1 REVERT JUMPDEST PUSH0 DUP1 REVERT JUMPDEST PUSH32 0x4E487B7100000000000000000000000000000000000000000000000000000000 PUSH0 MSTORE PUSH1 0x41 PUSH1 0x4 MSTORE PUSH1 0x24 PUSH0 REVERT JUMPDEST PUSH2 0x4C2 DUP3 PUSH2 0x3A8 JUMP JUMPDEST DUP2 ADD DUP2 DUP2 LT PUSH8 0xFFFFFFFFFFFFFFFF DUP3 GT OR ISZERO PUSH2 0x4E1 JUMPI PUSH2 0x4E0 PUSH2 0x48C JUMP JUMPDEST JUMPDEST DUP1 PUSH1 0x40 MSTORE POP POP POP JUMP JUMPDEST PUSH0 PUSH2 0x4F3 PUSH2 0x41E JUMP JUMPDEST SWAP1 POP PUSH2 0x4FF DUP3 DUP3 PUSH2 0x4B9 JUMP JUMPDEST SWAP2 SWAP1 POP JUMP JUMPDEST PUSH0 PUSH8 0xFFFFFFFFFFFFFFFF DUP3 GT ISZERO PUSH2 0x51E JUMPI PUSH2 0x51D PUSH2 0x48C JUMP JUMPDEST JUMPDEST PUSH2 0x527 DUP3 PUSH2 0x3A8 JUMP JUMPDEST SWAP1 POP PUSH1 0x20 DUP2 ADD SWAP1 POP SWAP2 SWAP1 POP JUMP JUMPDEST DUP3 DUP2 DUP4 CALLDATACOPY PUSH0 DUP4 DUP4 ADD MSTORE POP POP POP JUMP JUMPDEST PUSH0 PUSH2 0x554 PUSH2 0x54F DUP5 PUSH2 0x504 JUMP JUMPDEST PUSH2 0x4EA JUMP JUMPDEST SWAP1 POP DUP3 DUP2 MSTORE PUSH1 0x20 DUP2 ADD DUP5 DUP5 DUP5 ADD GT ISZERO PUSH2 0x570 JUMPI PUSH2 0x56F PUSH2 0x488 JUMP JUMPDEST JUMPDEST PUSH2 0x57B DUP5 DUP3 DUP6 PUSH2 0x534 JUMP JUMPDEST POP SWAP4 SWAP3 POP POP POP JUMP JUMPDEST PUSH0 DUP3 PUSH1 0x1F DUP4 ADD SLT PUSH2 0x597 JUMPI PUSH2 0x596 PUSH2 0x484 JUMP JUMPDEST JUMPDEST DUP2 CALLDATALOAD PUSH2 0x5A7 DUP5 DUP3 PUSH1 0x20 DUP7 ADD PUSH2 0x542 JUMP JUMPDEST SWAP2 POP POP SWAP3 SWAP2 POP POP JUMP JUMPDEST PUSH0 DUP1 PUSH1 0x40 DUP4 DUP6 SUB SLT ISZERO PUSH2 0x5C6 JUMPI PUSH2 0x5C5 PUSH2 0x427 JUMP JUMPDEST JUMPDEST PUSH0 PUSH2 0x5D3 DUP6 DUP3 DUP7 ADD PUSH2 0x445 JUMP JUMPDEST SWAP3 POP POP PUSH1 0x20 DUP4 ADD CALLDATALOAD PUSH8 0xFFFFFFFFFFFFFFFF DUP2 GT ISZERO PUSH2 0x5F4 JUMPI PUSH2 0x5F3 PUSH2 0x42B JUMP JUMPDEST JUMPDEST PUSH2 0x600 DUP6 DUP3 DUP7 ADD PUSH2 0x583 JUMP JUMPDEST SWAP2 POP POP SWAP3 POP SWAP3 SWAP1 POP JUMP JUMPDEST PUSH0 PUSH1 0x20 DUP3 DUP5 SUB SLT ISZERO PUSH2 0x61F JUMPI PUSH2 0x61E PUSH2 0x427 JUMP JUMPDEST JUMPDEST PUSH0 DUP3 ADD CALLDATALOAD PUSH8 0xFFFFFFFFFFFFFFFF DUP2 GT ISZERO PUSH2 0x63C JUMPI PUSH2 0x63B PUSH2 0x42B JUMP JUMPDEST JUMPDEST PUSH2 0x648 DUP5 DUP3 DUP6 ADD PUSH2 0x583 JUMP JUMPDEST SWAP2 POP POP SWAP3 SWAP2 POP POP JUMP JUMPDEST PUSH32 0x4E487B7100000000000000000000000000000000000000000000000000000000 PUSH0 MSTORE PUSH1 0x22 PUSH1 0x4 MSTORE PUSH1 0x24 PUSH0 REVERT JUMPDEST PUSH0 PUSH1 0x2 DUP3 DIV SWAP1 POP PUSH1 0x1 DUP3 AND DUP1 PUSH2 0x695 JUMPI PUSH1 0x7F DUP3 AND SWAP2 POP JUMPDEST PUSH1 0x20 DUP3 LT DUP2 SUB PUSH2 0x6A8 JUMPI PUSH2 0x6A7 PUSH2 0x651 JUMP JUMPDEST JUMPDEST POP SWAP2 SWAP1 POP JUMP JUMPDEST PUSH0 DUP2 SWAP1 POP DUP2 PUSH0 MSTORE PUSH1 0x20 PUSH0 KECCAK256 SWAP1 POP SWAP2 SWAP1 POP JUMP JUMPDEST PUSH0 PUSH1 0x20 PUSH1 0x1F DUP4 ADD DIV SWAP1 POP SWAP2 SWAP1 POP JUMP JUMPDEST PUSH0 DUP3 DUP3 SHL SWAP1 POP SWAP3 SWAP2 POP POP JUMP JUMPDEST PUSH0 PUSH1 0x8 DUP4 MUL PUSH2 0x70A PUSH32 0xFFFFFFFFFFFFFFFFFFFFFFFFFFFFFFFFFFFFFFFFFFFFFFFFFFFFFFFFFFFFFFFF DUP3 PUSH2 0x6CF JUMP JUMPDEST PUSH2 0x714 DUP7 DUP4 PUSH2 0x6CF JUMP JUMPDEST SWAP6 POP DUP1 NOT DUP5 AND SWAP4 POP DUP1 DUP7 AND DUP5 OR SWAP3 POP POP POP SWAP4 SWAP3 POP POP POP JUMP JUMPDEST PUSH0 DUP2 SWAP1 POP SWAP2 SWAP1 POP JUMP JUMPDEST PUSH0 PUSH2 0x74F PUSH2 0x74A PUSH2 0x745 DUP5 PUSH2 0x34F JUMP JUMPDEST PUSH2 0x72C JUMP JUMPDEST PUSH2 0x34F JUMP JUMPDEST SWAP1 POP SWAP2 SWAP1 POP JUMP JUMPDEST PUSH0 DUP2 SWAP1 POP SWAP2 SWAP1 POP JUMP JUMPDEST PUSH2 0x768 DUP4 PUSH2 0x735 JUMP JUMPDEST PUSH2 0x77C PUSH2 0x774 DUP3 PUSH2 0x756 JUMP JUMPDEST DUP5 DUP5 SLOAD PUSH2 0x6DB JUMP JUMPDEST DUP3 SSTORE POP POP POP POP JUMP JUMPDEST PUSH0 SWAP1 JUMP JUMPDEST PUSH2 0x790 PUSH2 0x784 JUMP JUMPDEST PUSH2 0x79B DUP2 DUP5 DUP5 PUSH2 0x75F JUMP JUMPDEST POP POP POP JUMP JUMPDEST JUMPDEST DUP2 DUP2 LT ISZERO PUSH2 0x7BE JUMPI PUSH2 0x7B3 PUSH0 DUP3 PUSH2 0x788 JUMP JUMPDEST PUSH1 0x1 DUP2 ADD SWAP1 POP PUSH2 0x7A1 JUMP JUMPDEST POP POP JUMP JUMPDEST PUSH1 0x1F DUP3 GT ISZERO PUSH2 0x803 JUMPI PUSH2 0x7D4 DUP2 PUSH2 0x6AE JUMP JUMPDEST PUSH2 0x7DD DUP5 PUSH2 0x6C0 JUMP JUMPDEST DUP2 ADD PUSH1 0x20 DUP6 LT ISZERO PUSH2 0x7EC JUMPI DUP2 SWAP1 POP JUMPDEST PUSH2 0x800 PUSH2 0x7F8 DUP6 PUSH2 0x6C0 JUMP JUMPDEST DUP4 ADD DUP3 PUSH2 0x7A0 JUMP JUMPDEST POP POP JUMPDEST POP POP POP JUMP JUMPDEST PUSH0 DUP3 DUP3 SHR SWAP1 POP SWAP3 SWAP2 POP POP JUMP JUMPDEST PUSH0 PUSH2 0x823 PUSH0 NOT DUP5 PUSH1 0x8 MUL PUSH2 0x808 JUMP JUMPDEST NOT DUP1 DUP4 AND SWAP2 POP POP SWAP3 SWAP2 POP POP JUMP JUMPDEST PUSH0 PUSH2 0x83B DUP4 DUP4 PUSH2 0x814 JUMP JUMPDEST SWAP2 POP DUP3 PUSH1 0x2 MUL DUP3 OR SWAP1 POP SWAP3 SWAP2 POP POP JUMP JUMPDEST PUSH2 0x854 DUP3 PUSH2 0x380 JUMP JUMPDEST PUSH8 0xFFFFFFFFFFFFFFFF DUP2 GT ISZERO PUSH2 0x86D JUMPI PUSH2 0x86C PUSH2 0x48C JUMP JUMPDEST JUMPDEST PUSH2 0x877 DUP3 SLOAD PUSH2 0x67E JUMP JUMPDEST PUSH2 0x882 DUP3 DUP3 DUP6 PUSH2 0x7C2 JUMP JUMPDEST PUSH0 PUSH1 0x20 SWAP1 POP PUSH1 0x1F DUP4 GT PUSH1 0x1 DUP2 EQ PUSH2 0x8B3 JUMPI PUSH0 DUP5 ISZERO PUSH2 0x8A1 JUMPI DUP3 DUP8 ADD MLOAD SWAP1 POP JUMPDEST PUSH2 0x8AB DUP6 DUP3 PUSH2 0x830 JUMP JUMPDEST DUP7 SSTORE POP PUSH2 0x912 JUMP JUMPDEST PUSH1 0x1F NOT DUP5 AND PUSH2 0x8C1 DUP7 PUSH2 0x6AE JUMP JUMPDEST PUSH0 JUMPDEST DUP3 DUP2 LT ISZERO PUSH2 0x8E8 JUMPI DUP5 DUP10 ADD MLOAD DUP3 SSTORE PUSH1 0x1 DUP3 ADD SWAP2 POP PUSH1 0x20 DUP6 ADD SWAP5 POP PUSH1 0x20 DUP2 ADD SWAP1 POP PUSH2 0x8C3 JUMP JUMPDEST DUP7 DUP4 LT ISZERO PUSH2 0x905 JUMPI DUP5 DUP10 ADD MLOAD PUSH2 0x901 PUSH1 0x1F DUP10 AND DUP3 PUSH2 0x814 JUMP JUMPDEST DUP4 SSTORE POP JUMPDEST PUSH1 0x1 PUSH1 0x2 DUP9 MUL ADD DUP9 SSTORE POP POP POP JUMPDEST POP POP POP POP POP POP JUMP JUMPDEST PUSH0 DUP2 SWAP1 POP SWAP3 SWAP2 POP POP JUMP JUMPDEST PUSH0 PUSH2 0x92E DUP3 PUSH2 0x380 JUMP JUMPDEST PUSH2 0x938 DUP2 DUP6 PUSH2 0x91A JUMP JUMPDEST SWAP4 POP PUSH2 0x948 DUP2 DUP6 PUSH1 0x20 DUP7 ADD PUSH2 0x39A JUMP JUMPDEST DUP1 DUP5 ADD SWAP2 POP POP SWAP3 SWAP2 POP POP JUMP JUMPDEST PUSH0 PUSH2 0x95F DUP3 DUP5 PUSH2 0x924 JUMP JUMPDEST SWAP2 POP DUP2 SWAP1 POP SWAP3 SWAP2 POP POP JUMP INVALID LOG2 PUSH5 0x6970667358 0x22 SLT KECCAK256 0xEE 0xE6 0xF6 CHAINID 0xDF DUP7 0xB4 JUMPI DUP16 PUSH22 0x1744C210C23CF5A4EE991E8EB6699FE3185248FCFA61 PUSH5 0x736F6C6343 STOP ADDMOD BYTE STOP CALLER "
				},
				"gasEstimates": {
					"creation": {
						"codeDepositCost": "492800",
						"executionCost": "infinite",
						"totalCost": "infinite"
					},
					"external": {
						"ad()": "infinite",
						"addPersons(uint256,string)": "infinite",
						"listOfPersons(uint256)": "infinite",
						"nameToFavouriteNumber(string)": "infinite",
						"retrieve()": "2410",
						"update(uint256)": "22581"
					}
				},
				"methodIdentifiers": {
					"ad()": "3e1430af",
					"addPersons(uint256,string)": "5b6fbd45",
					"listOfPersons(uint256)": "510f17c5",
					"nameToFavouriteNumber(string)": "b2ac62ef",
					"retrieve()": "2e64cec1",
					"update(uint256)": "82ab890a"
				}
			},
			"storageLayout": {
				"storage": [
					{
						"astId": 24,
						"contract": "contracts/SimpleStorage.sol:FirstContract",
						"label": "firstNumber",
						"offset": 0,
						"slot": "0",
						"type": "t_uint256"
					},
					{
						"astId": 27,
						"contract": "contracts/SimpleStorage.sol:FirstContract",
						"label": "secondNumber",
						"offset": 0,
						"slot": "1",
						"type": "t_int256"
					},
					{
						"astId": 30,
						"contract": "contracts/SimpleStorage.sol:FirstContract",
						"label": "myAddress",
						"offset": 0,
						"slot": "2",
						"type": "t_address"
					},
					{
						"astId": 33,
						"contract": "contracts/SimpleStorage.sol:FirstContract",
						"label": "myFirstString",
						"offset": 0,
						"slot": "3",
						"type": "t_string_storage"
					},
					{
						"astId": 36,
						"contract": "contracts/SimpleStorage.sol:FirstContract",
						"label": "mySecondString",
						"offset": 0,
						"slot": "4",
						"type": "t_bytes32"
					},
					{
						"astId": 38,
						"contract": "contracts/SimpleStorage.sol:FirstContract",
						"label": "favouriteNumber",
						"offset": 0,
						"slot": "5",
						"type": "t_uint256"
					},
					{
						"astId": 41,
						"contract": "contracts/SimpleStorage.sol:FirstContract",
						"label": "listOfFavouriteNumbers",
						"offset": 0,
						"slot": "6",
						"type": "t_array(t_uint256)dyn_storage"
					},
					{
						"astId": 53,
						"contract": "contracts/SimpleStorage.sol:FirstContract",
						"label": "ad",
						"offset": 0,
						"slot": "7",
						"type": "t_struct(Person)46_storage"
					},
					{
						"astId": 57,
						"contract": "contracts/SimpleStorage.sol:FirstContract",
						"label": "listOfPersons",
						"offset": 0,
						"slot": "9",
						"type": "t_array(t_struct(Person)46_storage)dyn_storage"
					},
					{
						"astId": 61,
						"contract": "contracts/SimpleStorage.sol:FirstContract",
						"label": "nameToFavouriteNumber",
						"offset": 0,
						"slot": "10",
						"type": "t_mapping(t_string_memory_ptr,t_uint256)"
					}
				],
				"types": {
					"t_address": {
						"encoding": "inplace",
						"label": "address",
						"numberOfBytes": "20"
					},
					"t_array(t_struct(Person)46_storage)dyn_storage": {
						"base": "t_struct(Person)46_storage",
						"encoding": "dynamic_array",
						"label": "struct FirstContract.Person[]",
						"numberOfBytes": "32"
					},
					"t_array(t_uint256)dyn_storage": {
						"base": "t_uint256",
						"encoding": "dynamic_array",
						"label": "uint256[]",
						"numberOfBytes": "32"
					},
					"t_bytes32": {
						"encoding": "inplace",
						"label": "bytes32",
						"numberOfBytes": "32"
					},
					"t_int256": {
						"encoding": "inplace",
						"label": "int256",
						"numberOfBytes": "32"
					},
					"t_mapping(t_string_memory_ptr,t_uint256)": {
						"encoding": "mapping",
						"key": "t_string_memory_ptr",
						"label": "mapping(string => uint256)",
						"numberOfBytes": "32",
						"value": "t_uint256"
					},
					"t_string_memory_ptr": {
						"encoding": "bytes",
						"label": "string",
						"numberOfBytes": "32"
					},
					"t_string_storage": {
						"encoding": "bytes",
						"label": "string",
						"numberOfBytes": "32"
					},
					"t_struct(Person)46_storage": {
						"encoding": "inplace",
						"label": "struct FirstContract.Person",
						"members": [
							{
								"astId": 43,
								"contract": "contracts/SimpleStorage.sol:FirstContract",
								"label": "genericFavouriteNumber",
								"offset": 0,
								"slot": "0",
								"type": "t_uint256"
							},
							{
								"astId": 45,
								"contract": "contracts/SimpleStorage.sol:FirstContract",
								"label": "name",
								"offset": 0,
								"slot": "1",
								"type": "t_string_storage"
							}
						],
						"numberOfBytes": "64"
					},
					"t_uint256": {
						"encoding": "inplace",
						"label": "uint256",
						"numberOfBytes": "32"
					}
				}
			},
			"userdoc": {
				"kind": "user",
				"methods": {},
				"version": 1
			}
		}
	}
}